:020000040800F2
:1000000060060020AD010008F53A0008192C000830
:10001000C1380008BD080008414900080000000080
:10002000000000000000000000000000193F000870
:10003000C108000800000000C93E00081B3F00087E
:10004000C7010008C7010008C7010008C701000870
:10005000C7010008C7010008C7010008C701000860
:10006000C7010008C7010008C7010008C701000850
:10007000C7010008C7010008C7010008C701000840
:10008000C7010008C7010008C70100080000000000
:10009000000000000000000000000000C701000890
:1000A000C7010008C7010008C7010008C701000810
:1000B000F13F0008C701000801400008C70100081F
:1000C000C7010008C7010008C7010008C7010008F0
:1000D000C701000831490008C701000800000000FE
:1000E000C7010008C7010008C701000800000000A0
:1000F000000000000000000000000000C701000830
:1001000000000000C7010008C7010008C70100087F
:1001100000000000000000000000000000000000DF
:10012000C7010008C7010008C7010008C70100088F
:10013000C7010008000000000000000000000000EF
:10014000000000000000000000000000C7010008DF
:10015000C7010008C7010008C7010008C70100085F
:10016000C7010008C70100080000000000000000EF
:10017000000000000000000000000000000000007F
:1001800000000000C701000800000000000000009F
:10019000C7010008C7010008DFF80CD000F07CFBA5
:1001A00000480047D15300086006002006488047F9
:1001B00006480047FEE7FEE7FEE7FEE7FEE7FEE74C
:1001C000FEE7FEE7FEE7FEE7D53F000899010008DD
:1001D0002DE9F05F0546002092469B46884606467C
:1001E000814640241BE0284641464746224600F00F
:1001F0009CFA53465A46C01A914110D311461846EC
:10020000224600F083FA2D1A67EB01084F4622467A
:100210000120002100F07AFA17EB00094E41201E60
:10022000A4F10104DFDC484631462A464346BDE8D6
:10023000F09FD2B201E000F8012B491EFBD27047BB
:100240000022F6E710B513460A4604461946FFF7A2
:10025000F0FF204610BD421C10F8011B0029FBD105
:10026000801A70472DE9FE4F804681EA0300C00FD7
:100270000C46009021F0004123F00045B8EB02004D
:10028000A94105D24046214690461C460B460246EF
:1002900023F00040104347D0270DC7F30A00C3F3F3
:1002A0000A510290401A019040286BDAC3F3130000
:1002B00040F4801B0098924620B10023D2EB030A41
:1002C00063EB0B0B01985946C0F14002504600F019
:1002D0001DFA06460D4650465946019A00F035FA79
:1002E00010EB08006141002487EA115284EAE773A9
:1002F0001A4340D0009A62B3019A012A4FEA07528A
:1003000015DC001B61EB02014FF0004202EA0752CC
:10031000CDE90042001C41F5801132462B4600F029
:100320006CFA03B0BDE8F08F40462146F9E7001BA8
:1003300061EB0201001C41F5801300185B4120189D
:10034000A2F5001747EB030140EAD570B6196D41DD
:1003500011E06D084FEA360645EAC0754FEA0752CC
:10036000001B61EB0201001C41F5801149084FEAB6
:1003700030000019514132462B4603B0BDE8F04F22
:1003800000F02CBA0098012240000023D0EB0202BA
:1003900063EBE073009821464FEAE074B8EB00008D
:1003A00061EB0401E9E783F000435BE781F0004182
:1003B00058E72DE9FE4F81EA030404F0004421F0E0
:1003C000004100944FF0000B23F0004350EA010479
:1003D0005ED052EA03045BD0C3F30A54C1F30A555A
:1003E0002C44A4F2F3340194A0FB0254C1F3130192
:1003F00041F48011C3F3130343F4801301FB02445F
:1004000000FB034E840A970A44EA815447EA835763
:10041000A4FB076802958D0A05FB07854FEA932C1C
:1004200004FB0C542705029D4FEA065847EA16378D
:10043000B5EB08056EEB070C870E920E47EA8117A5
:1004400042EA8312A7FB0201B6EB0B0164EB000446
:100450002B0D43EA0C335E1844EB1C50DA46514630
:10046000E7FB0201C5F313044FEA0B3343EA1453CD
:100470004FEA0432019C43EA0603A4F10C040294FF
:10048000009CCDE900B400F0B8F903B0BDE8F08FEE
:1004900000200146F9E72DE9F04D81EA030404F05C
:1004A000004B21F0004514464FF0000A23F00041B4
:1004B00050EA050220D054EA01021DD0C5F30A57C4
:1004C0000246C5F31303C1F31300C1F30A5640F407
:1004D000801543F48013A7EB0608101BD64608F2DC
:1004E000FD3873EB050002D308F1010801E0921812
:1004F0005B41B8F1000F03DA00200146BDE8F08D42
:1005000000204FF48011064684460EE0171B73EB63
:10051000050705D3121B63EB050306434CEA010CE8
:1005200049084FEA300092185B4150EA0107EDD1CB
:1005300052EA030012D082EA040083EA050108436C
:1005400005D0101BAB4106D20122002306E0002299
:100550004FF0004302E06FF0010253101AEB060067
:100560004CEB085110EB0A0041EB0B01BDE8F04DDC
:1005700000F034B90EB5C10F80EAE0700844CA0734
:10058000002140F233438DE80E000A460B4600F08E
:1005900034F903B000BD0EB540F2334102910021A1
:1005A000CDE900110A460B4600F027F903B000BD63
:1005B00070B5C1F30A5201F000450024C1F31301E4
:1005C00040F2FF3341F480119A4201DA002070BDFD
:1005D00040F233439A42A2F2334203DC524200F02B
:1005E000A4F800E090402C43F1D0404270BDC1F32C
:1005F0000A5210B5C1F3130140F2FF3341F48011E8
:100600009A4201DA002010BD40F233439A42A2F22E
:10061000334203DC524200F088F810BD904010BD18
:1006200000F0004230F000400AD0C10D01F56071C9
:10063000C0F3160042EA0151C20840071143704757
:10064000002001467047000030B5041E71F100041F
:1006500004DB4FF00044404264EB0101141E73F1CF
:10066000000405DB1C464FF00043524263EB0403D9
:100670008B4208BF824230BD30B5041E71F10004C8
:1006800004DB4FF00044404264EB0101141E73F19F
:10069000000405DB1C464FF00043524263EB0403A9
:1006A000994208BF904230BD01F0004330B421F0C0
:1006B000004150EA010206D00A0DA2F56072C1F3B2
:1006C0001301002A02DC30BC00207047440F44EACA
:1006D000C104C100E01830BC00EBC25000F047B8C4
:1006E00030B50B46014600202022012409E021FA02
:1006F00002F59D4205D303FA02F5491B04FA02F5FF
:100700002844151EA2F10102F1DC30BD202A04DBD1
:10071000203A00FA02F1002070479140C2F1200314
:1007200020FA03F3194390407047202A04DB203A53
:1007300021FA02F00021704721FA02F3D040C2F101
:1007400020029140084319467047202A06DBCB1748
:10075000203A41FA02F043EAE07306E041FA02F37C
:10076000D040C2F120029140084319467047002949
:10077000A8BF7047401C490008BF20F00100704727
:1007800010B4B0FA80FC00FA0CF050EA010404BF87
:1007900010BC704749B1CCF1200421FA04F411FADD
:1007A0000CF118BF012121430843A3EB0C01CB1D21
:1007B0004FEA00614FEA102042BF002010BC704792
:1007C00000EBC35010440029A4BF10BC7047401C6C
:1007D000490008BF20F0010010BC704710B5141E7E
:1007E00073F1000408DA401C41F1000192185B41EA
:1007F0001A4301D120F0010010BD2DE9F04D9246C1
:100800009B4611B1B1FA81F202E0B0FA80F22032D7
:100810009046FFF77BFF04460F4640EA0A0041EA94
:100820000B0153465A46084313D0114653EA0100C0
:1008300019D0C8F140025046FFF777FF05460E4633
:10084000504659464246FFF761FF084305D0012054
:1008500004E020463946BDE8F08D0020054346EA15
:10086000E0762C4337430A986305E40AA0EB0800BE
:100870000022FD0A44EA47540A3002D5002001460E
:10088000E9E7010510196941DDE9084500196941E9
:10089000BDE8F04DA2E70000064C074D06E0E06819
:1008A00040F0010394E8070098471034AC42F6D3B7
:1008B000FFF776FC94630008B463000800BFFEE70E
:1008C0007047704710B502F05DFC0221372002F03E
:1008D000A1FD00216A2002F09DFDC82000F062F811
:1008E00002F05AF900F001F810BD10B500F004F85C
:1008F00002F032FF10BD00002DE9F0410025002676
:1009000000270020174908801749088017490880E8
:100910003224804612E0154A1349124802F093FC33
:1009200010480088284405B20F480088304406B2B9
:100930000E480088384407B208F10108A045EADBF8
:1009400095FBF4F000B20A49088096FBF4F000B27F
:100950000849088097FBF4F000B207490880BDE819
:10096000F081000060000020620000206400002090
:10097000480000204A0000204C000020014691F869
:100980003500022803D080204865012070470520EB
:1009900081F835000868006820F001000A681060DE
:1009A0000020F3E770B5044600F0FAF80646254645
:1009B000681C10B104480078054400BF00F0F0F84E
:1009C000801BA842FAD370BD08000020F8B503468A
:1009D0000A460025002400200021CDE0012606FA69
:1009E00001F5166806EA0504AC4273D15668012E7B
:1009F00008D05668022E05D05668112E02D05668CF
:100A0000122E13D198684F000326BE40B0434F000A
:100A1000D668BE4030439860586801268E40B04387
:100A20001679C6F300168E4030435860D8684F00E0
:100A30000326BE40B0434F009668BE403043D860A6
:100A40005668022E02D05668122E13D1CF0803F139
:100A5000200656F827004E07F70E0F26BE40B0437B
:100A60004F07FF0E1669BE403043CF0803F1200642
:100A700046F8270018684F000326BE40B043167999
:100A800006F003064F00BE4030431860566806F07B
:100A90008056B6F1805F6ED100BF00260096384EBA
:100AA000366846F48046364F3E603E46366806F469
:100AB0008046009600BF00BF324E8F0856F82700D0
:100AC0008E07370F0F26BE40B0432F4EB34202D1E0
:100AD000002615E04FE02D4EB34201D101260FE074
:100AE0002B4EB34201D102260AE02A4EB34201D175
:100AF000032605E0284EB34201D1042600E0072674
:100B00008F073F0FBE4030431E4E8F0846F8270028
:100B1000224E3068A043566806F48036B6F5803F12
:100B200000D120431D4E3060361D3068A04356680A
:100B300006F40036B6F5003F00D12043174E361DAF
:100B40003060361D3068A043566806F48016B6F54E
:100B5000801F00D12043114E08363060361D3068AA
:100B6000A043566806F40016B6F5001F00D12043D6
:100B70000A4E0C363060491C1029FFF42FAFF8BD27
:100B8000443802400838014000000240000402409E
:100B900000080240000C024000100240003C0140EE
:100BA00001480068704700000000002070B504464E
:100BB0000CB9012070BD94F83D0028B9002084F8DC
:100BC0003C00204600F006FB242084F83D0020680D
:100BD000006820F00100216808602068006840F487
:100BE0000040216808602068006820F40040216807
:100BF000086000F015FD05465C496068884206D82B
:100C00005B48854201D2012007E0002005E05948F9
:100C1000854201D2012000E00020012800D1C9E76F
:100C20005548B5FBF0F62068406820F03F0030439F
:100C3000216848604D496068884201D8701C07E00F
:100C40004FF4967070434FF47A71B0FBF1F0401C92
:100C50002168096A21F03F0108432168086243497D
:100C60006068884214D8681E61684900B0FBF1F0E2
:100C7000401CC0F30B00042801D204203DE0681E94
:100C800061684900B0FBF1F0401CC0F30B0034E098
:100C9000A06838B9681E616801EB4101B0FBF1F052
:100CA000401C0AE0681E616801EBC10202EB011101
:100CB000B0FBF1F0401C40F48040C0F30B0008B9D9
:100CC00001201AE0A06848B9681E616801EB410183
:100CD000B0FBF1F0401CC0F30B000CE0681E616833
:100CE00001EBC10202EB0111B0FBF1F0401CC0F3BB
:100CF0000B0040F4804040F400402168C9694CF684
:100D0000FF72914308432168C861D4E90701084391
:100D10002168096821F0C001084321680860D4E90E
:100D2000031008432168896848F2FF329143084361
:100D300021688860D4E9050108432168C96821F069
:100D4000FF0108432168C8602068006840F0010086
:100D50002168086000202064202084F83D000020E5
:100D6000206384F83E0000BF24E70000A086010055
:100D700080841E0000093D0040420F002DE9FC5F09
:100D800004460F4690469946DDE90CAB0E9EFFF7F0
:100D900007FF054694F83D00202870D11923012251
:100DA000B0492046009502F0A7F810B10220BDE836
:100DB000FC9F00BF94F83C00012801D10220F6E717
:100DC000012084F83C0000BF2068006800F00100AA
:100DD00028B92068006840F0010021680860206898
:100DE000006820F4006021680860222084F83D003B
:100DF000402084F83E0000202064C4F824A0A4F819
:100E00002AB0608D20859848E0624B4642463946BC
:100E10002046CDE9006501F021FF08B10120C6E7B9
:100E2000208D88B900BF00200190206840690190A2
:100E300020688069019000BF00BF2068006840F40E
:100E400000702168086040E0208D012818D12068DA
:100E5000006820F480602168086000BF00200190D5
:100E600020684069019020688069019000BF00BF40
:100E70002068006840F400702168086025E0EFE019
:100E8000208D022816D12068006820F48060216837
:100E900008602068006840F400602168086000BFB6
:100EA00000200190206840690190206880690190CD
:100EB00000BF0AE000BF0020019020684069019057
:100EC00020688069019000BF00BFBAE0208D032830
:100ED0007ED8208D012815D12A463146204602F0C1
:100EE000B0F808B1012062E720680069616A087003
:100EF000606A401C6062208D401E2085608D401E0F
:100F000060859EE0208D02282AD133460022574971
:100F10002046009501F0F0FF08B1012047E7206866
:100F2000006840F400702168086020680069616A08
:100F30000870606A401C6062208D401E2085608DB4
:100F4000401E608520680069616A0870606A401C04
:100F50006062208D401E2085608D401E608570E09F
:100F60003346002241492046009501F0C5FF08B1F3
:100F700001201CE72068006820F480602168086078
:100F800020680069616A0870606A401C6062208D98
:100F9000401E2085608D401E608533460022334907
:100FA0002046009501F0A8FF08B10120FFE6206867
:100FB000006840F400702168086020680069616A78
:100FC0000870606A401C6062208D401E208500E031
:100FD00010E0608D401E608520680069616A0870BD
:100FE000606A401C6062208D401E2085608D401E1E
:100FF000608526E02A463146204602F022F808B1F4
:101000000120D4E620680069616A0870606A401CAB
:101010006062208D401E2085608D401E60852068A6
:101020004069C0F3800060B120680069616A08709F
:10103000606A401C6062208D401E2085608D401ECD
:101040006085208D00287FF441AF202084F83D008A
:10105000002084F83E0000BF84F83C0000BFA6E6F4
:101060000220A4E6020010000000FFFF04000100BF
:101070002DE9FC5F04460F4690469946DDE90CAB2E
:101080000E9EFFF78DFD054694F83D0020287DD18A
:10109000192301224D492046009501F02DFF10B182
:1010A0000220BDE8FC9F00BF94F83C00012801D15C
:1010B0000220F6E7012084F83C0000BF20680068A9
:1010C00000F0010028B92068006840F001002168A4
:1010D00008602068006820F4006021680860212012
:1010E00084F83D00402084F83E0000202064C4F8CD
:1010F00024A0A4F82AB0608D20853548E0624B46D4
:10110000424639462046CDE9006501F057FE08B158
:101110000120C6E731E02A463146204601F0D1FFE2
:1011200050B1206C042805D12068006840F400709C
:10113000216808600120B4E7606A007821680861CE
:10114000606A401C6062208D401E2085608D401EBC
:10115000608520684069C0F3800070B1208D60B167
:10116000606A007821680861606A401C6062208DB6
:10117000401E2085608D401E6085208D0028CAD1CC
:101180002A463146204601F089FE00E01CE050B1BD
:10119000206C042805D12068006840F400702168A4
:1011A000086001207DE72068006840F40070216835
:1011B0000860202084F83D00002084F83E0000BF35
:1011C00084F83C0000BF6CE702206AE702001000D0
:1011D0000000FFFF10B586B00446142101A8FFF7F8
:1011E0002FF83C49206888422FD100BF0020009092
:1011F0003948006840F00200374908600846006836
:1012000000F00200009000BF00BFC020019012203B
:10121000029001200390032004900420059001A96E
:101220002E48FFF7D3FB00BF002000902A48103063
:10123000006840F400102849103108600846006832
:1012400000F40010009000BF41E02549206888426A
:101250003DD100BF002000901F48006840F0020010
:101260001D4908600846006800F00200009000BFB9
:1012700000BF081501901220029001200390032066
:1012800004900420059001A91448FFF79FFB082053
:101290000190122002900120039003200490092065
:1012A000059001A90D48FFF791FB00BF00200090B9
:1012B00009481030006840F4800007491031086088
:1012C0000846006800F48000009000BF00BF06B030
:1012D00010BD0000005400403038024000040240BD
:1012E0000058004003480068034909780844014950
:1012F00008607047000000200800002010B50D486D
:10130000006840F400700B4908600846006840F42B
:10131000806008600846006840F480700860032020
:1013200000F0A2F8002000F007F800F02BF80020F1
:1013300010BD0000003C024070B504460E48007825
:101340004FF47A71B1FBF0F00C490968B1FBF0F58C
:10135000284600F021FC08B1012070BD102C07D2F6
:1013600000222146501E00F041F80548046001E0CB
:101370000120F2E70020F0E7080000200C00002028
:101380000400002008B500BF002000900E4800684F
:1013900040F480400C4908600846006800F4804032
:1013A000009000BF00BF00BF00200090081F006831
:1013B00040F08050091F08600846006800F0805027
:1013C000009000BF00BF08BD4438024001460846F7
:1013D000002809DB00F01F0301229A4043099B000B
:1013E00003F1E023C3F8002100BF70472DE9F05F4F
:1013F00080460D461646002703F0FCFA074639469C
:101400002A46334601F00700C0F1070ABAF1040F7B
:1014100002D94FF0040A01E0C0F1070AD14600F1F9
:10142000040ABAF1070F02D24FF0000A01E0A0F15E
:10143000030AD4464FF0010A0AFA09FAAAF1010A8E
:101440000AEA020A0AFA0CFA4FF0010B0BFA0CFB3B
:10145000ABF1010B0BEA030B4AEA0B0421464046B1
:1014600003F0D0FABDE8F09F00BF00F00702064B82
:1014700019684FF6FF031940044B0B4343EA02215E
:10148000014B196000BF70470CED00E00000FA0549
:1014900070B504460D460CB9012070BD584800686F
:1014A00000F00F00A84209D255490D7008460068A7
:1014B00000F00F00A84201D00120EEE7207800F0F4
:1014C000020002281DD1207800F00400042805D174
:1014D0004C48006840F4E0504A490860207800F029
:1014E0000800082805D14748006840F46040454995
:1014F00008604448006820F0F000A16808434149B2
:101500000860207800F00100A8B36068012807D1C6
:101510003C4808380068C0F34040B8B90120BCE737
:101520006068022802D06068032807D1354808386F
:101530000068C0F3406048B90120AEE73148083880
:101540000068C0F3400008B90120A6E72D480068F4
:1015500020F00300616808432A490860FFF720FB78
:10156000064609E0FFF71CFB801B41F288318842E8
:1015700002D9032091E707E02248006800F00C0040
:101580006168B0EB810FEDD11D48006800F00F00DD
:10159000A84209D91A490D700846006800F00F00EA
:1015A000A84201D0012078E7207800F00400042848
:1015B00007D11448006820F4E050E168084311495D
:1015C0000860207800F00800082808D10D4800685D
:1015D00020F46040216940EAC1000A49086000F037
:1015E0003FF808490968C1F30311074A515CC84034
:1015F0000649086006480068FFF79EFE00204CE799
:10160000003C024008380240785A00080C000020D4
:101610000400002001480068704700000C00002012
:1016200000B5FFF7F7FF04490968C1F38221034AB7
:10163000515CC84000BD000008380240885A0008CC
:1016400000B5FFF7E7FF04490968C1F34231034AD7
:10165000515CC84000BD000008380240885A0008AC
:101660002DE9F047002400250026A1462548006802
:1016700000F00C0020B1042805D008283AD105E07C
:10168000DFF8849039E0DFF8849036E01D48001FD1
:10169000006800F03F041B48001F006800F4800051
:1016A00078B11A481749091F0968C1F38811A0FBCE
:1016B00001700146224600233846FEF789FD0546A3
:1016C0000EE011480F49091F0968C1F38811A0FBFA
:1016D00001700146224600233846FEF779FD054693
:1016E0000848001F0068C0F30140401C4600B5FBDD
:1016F000F6F902E0DFF8109000BF00BF4846BDE8F1
:10170000F0870000083802400024F40040787D0192
:10171000F8B504460CB90120F8BD207800F00100AE
:10172000002874D0F948006800F00C0004280DD09F
:10173000F648006800F00C00082813D1F348001F99
:10174000006800F48000B0F5800F0BD1EF48083836
:101750000068C0F34040002859D06068002856D186
:101760000120D9E700BF6068B0F5803F08D1E748A5
:101770000838006840F48030E449083908601EE009
:101780006068B0F5A02F0DD1E0480838006840F43B
:101790008020DE49083908600846006840F480303F
:1017A00008600CE0D9480838006820F48030D74938
:1017B000083908600846006820F48020086000BFEF
:1017C000606890B1FFF7ECF9054606E0FFF7E8F92D
:1017D000401B642801D903209EE7CC4808380068E4
:1017E000C0F340400028F1D011E0FFF7D9F90546D9
:1017F00006E0FFF7D5F9401B642801D903208BE7E9
:10180000C24808380068C0F340400028F1D1207871
:1018100000F0020002285FD1BC48006800F00C0014
:1018200058B1BA48006800F00C0008281CD1B7482D
:10183000001F006800F48000B0B9B44808380068A0
:10184000C0F3400020B1E068012801D0012063E727
:10185000AE480838006820F0F800216940EAC1006D
:10186000AA490839086037E0E06800B30120A849B8
:101870000860FFF795F9054606E0FFF791F9401B70
:10188000022801D9032047E7A04808380068C0F3C0
:1018900040000028F1D09D480838006820F0F8008A
:1018A000216940EAC10099490839086014E0002024
:1018B00097490860FFF774F9054606E0FFF770F9ED
:1018C000401B022801D9032026E790480838006809
:1018D000C0F340000028F1D1207800F0080008286B
:1018E0002CD16069A8B101208A490860FFF758F936
:1018F000054606E0FFF754F9401B022801D90320F2
:101900000AE782486C300068C0F340000028F1D03C
:1019100014E000207F490860FFF742F9054606E021
:10192000FFF73EF9401B022801D90320F4E677486F
:101930006C300068C0F340000028F1D1207800F03E
:101940000400042870D1002770483830006800F087
:10195000805090B900BF002000906C48383000687B
:1019600040F080506949383108600846006800F04E
:101970008050009000BF00BF01276748006800F456
:101980008070B0B96448006840F4807062490860B3
:10199000FFF706F9054606E0FFF702F9401B0228AB
:1019A00001D90320B8E65C48006800F48070002884
:1019B000F2D000BFA068012808D154486830006800
:1019C00040F001005149683108601DE0A068052819
:1019D0000DD14E486830006840F004004B49683132
:1019E00008600846006840F0010008600CE04748C5
:1019F0006830006820F001004449683108600846FA
:101A0000006820F00400086000BFA068A8B1FFF7DC
:101A1000C7F8054609E0FFF7C3F8401B41F28831DB
:101A2000884202D9032077E626E03848683000680B
:101A3000C0F340000028EED013E0FFF7B1F80546F0
:101A400008E0FFF7ADF8401B41F28831884201D928
:101A5000032061E62D4868300068C0F3400000288C
:101A6000EFD1012F07D129483830006820F080508D
:101A700026493831086000BFA069002845D02348B6
:101A8000006800F00C0008285DD0A069022845D14C
:101A900000201F490866FFF783F8054606E0FFF7B8
:101AA0007FF8401B022801D9032035E61748083883
:101AB0000068C0F340600028F1D1D4E90701084371
:101AC000616A40EA81110122A06AC2EB500041EA3A
:101AD00000412C20005D41EA00600C49091F0860AC
:101AE00001200B490866FFF75BF8054606E0FFF7A3
:101AF00057F8401B022801D903200DE60348083897
:101B00000068C0F340600028F1D03FE00838024090
:101B100000004742800E47420070004000201C49F0
:101B20000866FFF73DF8054606E0FFF739F8401B69
:101B3000022801D90320EFE516480068C0F3406091
:101B40000028F2D122E0A069012800D1E4E5114883
:101B5000001D066806F48001E069814214D106F098
:101B60003F01206A81420FD147F6C0703040616A60
:101B7000884209D106F44031A06A814204D106F0BE
:101B80007061E06A814201D00120C5E50020C3E513
:101B9000000047420038024070B504462546681EE2
:101BA000B0F1807F01D301200FE0681E4FF0E021EB
:101BB00048610F214FF0FF3002F024FF00204FF06A
:101BC000E021886107200861002070BD70477047E0
:101BD00030B502460B4600BF92F83C00012801D107
:101BE000022030BD012082F83C0000BF022082F8B4
:101BF0003D00106844681068816824F0700418681B
:101C0000044310684460144D1068A84213D0106853
:101C1000B0F1804F0FD0114D1068A8420BD0104D7D
:101C20001068A84207D00F4D1068A84203D00E4D8F
:101C30001068A84205D121F080015868014310685E
:101C40008160012082F83D0000BF002082F83C0046
:101C500000BF00BFC5E700000000014000040040D5
:101C600000080040000C00400040014010B52DED80
:101C7000028B04462068B0F1804F6ED10020FE49EF
:101C8000086024E1207FFD49FB4A1268895C884294
:101C900071D1FB4890ED050A10EE101A0846FEF7C8
:101CA000BFFC41EC180B9FEDF70B53EC102BFEF72C
:101CB000E3FC60D20120F5490860F548EE49096867
:101CC000405C10B1012866D166E0002021684862BE
:101CD000F048E9490968405C30B92068006A20F0A2
:101CE0000A00216808621FE0EA48E3490968405C8D
:101CF000042806D12068006A20F0A000216808624C
:101D000012E0E448DC490968405C082806D12068F4
:101D1000006A20F420602168086205E02068006AFB
:101D200020F4204021680862DA48D3490968405C01
:101D300030B92068006A40F002002168086221E0A2
:101D4000D448CD490968405C042807D12068006A5E
:101D500040F020002168086214E0BEE0CD48C6498A
:101D60000968405C082807D12068006A40F40070C8
:101D70002168086206E09EE02068006A40F4005096
:101D800021680862C248BC490968405C401CC049DF
:101D9000B94A126888548DE0BE48B74A1268815C1F
:101DA000204600F040FDBC49B34A126841F82200C9
:101DB0000846B149096850F8210040F6C41188422C
:101DC00013D8B548AC49096850F8210000EE100A54
:101DD000B8EE400ADFEDB10A80EE201AA848A64905
:101DE000096800EB810080ED001AAA49A24A126836
:101DF000885CA349A04A126801EB8201D1ED000A78
:101E0000B0EE600A01F084FDA2489B490968405C7D
:101E100030B92068006A20F00A00216808621FE0DB
:101E20009C4895490968405C042806D12068006AEE
:101E300020F0A0002168086212E096488E490968E7
:101E4000405C082806D12068006A20F420602168E0
:101E5000086205E02068006A20F4204021680862DA
:101E60008C4885490968405C20B92068006A21686F
:101E7000086219E0874880490968405C042804D159
:101E80002068006A216808620EE082487A49096881
:101E9000405C082804D12068006A2168086203E0D9
:101EA0002068006A2168086200207949724A126835
:101EB000885400BF00BF7548006818B100207349FE
:101EC000086009E06C480068401C6B4908606A487B
:101ED00000680428FFF6D6AE4DE1714920688842BB
:101EE000FAD10420644908603FE1217F624800681C
:101EF000801E624A105C814275D1012063490860EE
:101F000063485D490968405C10B101286AD16BE003
:101F100000202168486258480068801E5D49085CBE
:101F200030B92068006A20F00A002168086221E0C8
:101F300051480068801E5749085C042806D1206873
:101F4000006A20F0A0002168086213E04A48006897
:101F5000801E5049085C082806D12068006A20F4D9
:101F600020602168086205E02068006A20F42040B3
:101F70002168086240480068801E4649085C30B904
:101F80002068006A40F002002168086221E03A48B7
:101F90000068801E3F49085C042806D12068006A5A
:101FA00040F020002168086213E033480068801E7A
:101FB0003849085C082806D12068006A40F400709F
:101FC0002168086205E02068006A40F4005021683A
:101FD00008622F4828490968405C401C2C49264A61
:101FE00012688854B4E0B4E023480068801E294A8F
:101FF000115C204600F017FC27491F4A126841F87F
:10200000220008461C49096850F8210040F6C41116
:10201000884213D820481849096850F8210000EE7A
:10202000100AB8EE400ADFED1D0A80EE201A1448AF
:102030001149096800EB810080ED001A104890ED0D
:10204000050A10EE101A0846FEF7EAFA41EC180BE2
:102050009FED140B53EC102BFEF7F6FA01D801F0AC
:1020600045FC05480068801E0A49085C08BB2068DA
:10207000006A20F00A0019E0400000203000002033
:1020800044020020EC51B81E85EBB13F4400002013
:1020900038000020340000202C02002000409C4624
:1020A00000080040295C8FC2F528AC3F2168086217
:1020B00021E032480068801E3149085C042806D1BE
:1020C0002068006A20F0A0002168086213E02B4815
:1020D0000068801E2A49085C082806D12068006A2A
:1020E00020F420602168086205E02068006A20F47E
:1020F00020402168086221480068801E2049085C51
:1021000020B92068006A216808621BE01B4800684B
:10211000801E1B49085C042804D12068006A2168DD
:1021200008620FE015480068801E1549085C082801
:1021300004D12068006A2168086203E02068006A10
:102140002168086200200F490C4A1268885400BFB9
:1021500000BF0D48006818B100200B49086009E075
:1021600006480068401C05490860044800680628C5
:10217000FFF6BBAE00BFBDEC028B10BD40000020DF
:102180003400002038000020440000202DE9F041F8
:1021900004460D46164600BF94F83C00012802D1C3
:1021A0000220BDE8F081012084F83C0000BF02203D
:1021B00084F83D0096B9EB68D5E90012206802F07A
:1021C00047F82068806920F00C0021688861206849
:1021D0008069A9680843216888613DE0042E13D115
:1021E000EB68D5E90012206802F070F82068806979
:1021F00020F440602168886120688069A96840EA0D
:1022000001202168886127E0082E12D1EB68D5E90A
:102210000012206802F077F82068C06920F00C00F6
:102220002168C8612068C069A96808432168C8613D
:1022300012E0EB68D5E90012206802F080F820680F
:10224000C06920F440602168C8612068C069A9683D
:1022500040EA01202168C861012084F83D0000BFE8
:10226000002084F83C0000BF00BF9AE710B5044688
:102270000CB9012010BD94F83D0028B9002084F865
:102280003C00204600F00CF8022084F83D00211D9F
:10229000206801F0BDFE012084F83D000020E9E740
:1022A00010B586B00446142101A8FDF7C9FF2068C7
:1022B000B0F1804F37D100BF00200090394800684E
:1022C00040F00100374908600846006800F001004E
:1022D000009000BF00BF00BF0020009031481038C0
:1022E000006840F001002F49103908600846006876
:1022F00000F00100009000BF00BF0F2001900220FD
:1023000002900390002004900120059001A9264826
:10231000FEF75CFB012211461C20FFF767F81C202A
:10232000FFF754F83BE021492068884237D100BFCD
:10233000002000901B48006840F004001949086024
:102340000846006800F00400009000BF00BF00BF16
:102350000020009013481038006840F00200114936
:10236000103908600846006800F00200009000BFC5
:1023700000BF4FF4407001900220029003900020B3
:1023800004900220059001A90948FEF71FFB0022D6
:1023900001211E20FFF72AF81E20FFF717F806B0CC
:1023A00010BD00004038024000000240000800401C
:1023B0000004024070B504460D4635B1042D0BD023
:1023C000082D10D00C2D1CD114E02068C06840F0FE
:1023D00002002168C86015E02068C06840F0040071
:1023E0002168C8600EE02068C06840F008002168DD
:1023F000C86007E02068C06840F010002168C8602D
:1024000000E000BF00BF01222946206801F052FE13
:102410002068806800F00706062E05D02068006856
:1024200040F0010021680860002070BD10B504462E
:1024300020680069C0F34000D8B12068C068C0F3CC
:102440004000B0B16FF002002168086101202077E0
:102450002068806900F0030018B12046FFF706FCF1
:1024600005E0204600F0FCF8204600F0B3F900201B
:10247000207720680069C0F38000D8B12068C06868
:10248000C0F38000B0B16FF0040021680861022041
:1024900020772068806900F4407018B12046FFF76B
:1024A000E5FB05E0204600F0DBF8204600F092F95D
:1024B0000020207720680069C0F3C000D8B12068F0
:1024C000C068C0F3C000B0B16FF0080021680861B7
:1024D000042020772068C06900F0030018B120466E
:1024E000FFF7C4FB05E0204600F0BAF8204600F0F4
:1024F00071F90020207720680069C0F30010D8B17E
:102500002068C068C0F30010B0B16FF010002168FF
:102510000861082020772068C06900F4407018B175
:102520002046FFF7A3FB05E0204600F099F820467F
:1025300000F050F9002020772068006900F00100C9
:1025400058B12068C06800F0010030B16FF00100A0
:1025500021680861204600F065F920680069C0F331
:10256000C01058B12068C068C0F3C01030B16FF01F
:102570008000216808612046FFF728FB2068006979
:10258000C0F3801058B12068C068C0F3801030B12B
:102590006FF0400021680861204600F05DF9206876
:1025A0000069C0F3401058B12068C068C0F3401003
:1025B00030B16FF02000216808612046FFF707FB6B
:1025C00010BD000010B586B00446142101A8FDF727
:1025D00037FE1F492068884238D100BF0020009094
:1025E0001C48006840F001001A490860084600686D
:1025F00000F00100009000BF00BF00BF002000906D
:102600000846006840F0020008600846006800F0D4
:102610000200009000BF00BFC02001900220029085
:102620000020039004900220059001A90A48FEF7BB
:10263000CDF9032001900220029000200390049025
:102640000220059001A90548FEF7C0F906B010BDAB
:102650000004004030380240000002400004024004
:10266000704770B504460D46164600BF94F83C000E
:10267000012801D1022070BD012084F83C0000BF78
:10268000022084F83D0036B1042E1BD0082E31D034
:102690000C2E5ED145E02946206801F01DFD206822
:1026A000806940F00800216888612068806920F016
:1026B00004002168886120688069296908432168CD
:1026C000886147E02946206801F036FD206880696E
:1026D00040F40060216888612068806920F480608F
:1026E0002168886120688069296940EA01202168A1
:1026F00088612FE02946206801F052FD2068C069FA
:1027000040F008002168C8612068C06920F004001A
:102710002168C8612068C069296908432168C861C7
:1027200018E02946206801F06FFD2068C06940F478
:1027300000602168C8612068C06920F48060216859
:10274000C8612068C069296940EA01202168C86120
:1027500000E000BF00BF012084F83D0000BF002062
:1027600084F83C0000BF00BF85E710B504460CB9F3
:10277000012010BD94F83D0028B9002084F83C00E9
:10278000204600F00DF8022084F83D00211D20684D
:1027900001F03EFC012084F83D000020E9E7000044
:1027A00008B50A4A016891420FD100BF002100918B
:1027B0000749096841F00201054A1160114609689C
:1027C00001F00201009100BF00BF08BD00040040FD
:1027D000403802407047000070B504460E460122A2
:1027E0003146206801F066FC0D492068884201D11D
:1027F000012000E0002028B12068406C40F4004037
:10280000216848642068806800F00705062D05D01F
:102810002068006840F0010021680860002070BD59
:102820000000014070470246002031B1042907D062
:10283000082908D00C290CD108E01368586B09E06E
:102840001368986B06E01368D86B03E01368186C84
:1028500000E000BF00BF7047704770472DE9F047A8
:102860000446206805682068C668206847694FF0FC
:102870000008C14605F00F08B8F1000F0AD105F0B5
:10288000200038B106F0200020B1204601F09FFD65
:10289000BDE8F087B8F1000F72D007F0010018B959
:1028A00006F4907000286BD005F0010030B106F4FA
:1028B000807018B1E06B40F00100E06305F00400A7
:1028C00030B107F0010018B1E06B40F00200E063A6
:1028D00005F0020030B107F0010018B1E06B40F0E4
:1028E0000400E06305F0080048B106F0200010B9CC
:1028F00007F0010018B1E06B40F00800E063E06B06
:1029000070B305F0200028B106F0200010B1204679
:1029100001F05DFD20684069C0F38019E06B00F0B4
:10292000080010B9B9F1000F23D0204601F02FFDA7
:102930002068406900F04000402816D120684069B6
:1029400020F0400021684861606B50B11748616B0E
:102950000865606BFEF712F810B1606B016D884777
:102960000CE02046FFF779FF08E02046FFF775FFEF
:1029700004E02046FFF771FF0020E06388E7FFE7EF
:1029800005F0800030B106F0800018B1204601F05B
:1029900065FF7DE705F0400030B106F0400018B15A
:1029A000204601F004FD73E700BF71E77B43000898
:1029B00010B504460CB9012010BDA06900B100E0BB
:1029C00000BF94F8390028B9002084F83800204668
:1029D00000F028F8242084F839002068C06820F42A
:1029E00000502168C860204601F044FD206800695D
:1029F00020F49040216808612068406920F02A0096
:102A0000216848612068C06840F400502168C860AF
:102A10000020E063202084F8390084F83A00002088
:102A2000CAE7000010B586B00446142101A8FDF7DE
:102A300007FC1F492068884238D100BF0020009061
:102A40001C48006840F010001A49086008460068F9
:102A500000F01000009000BF00BF00BF00200090F9
:102A600014481438006840F0010012491439086015
:102A70000846006800F00100009000BF00BF4FF45E
:102A8000C060019002200290002003900320049077
:102A90000720059001A90848FDF798FF00220221B0
:102AA0002520FEF7A3FC2520FEF790FC06B010BD04
:102AB00000100140443802400000024070472DE9F8
:102AC000F84304460D4616461F464FF0000994F899
:102AD000390020285DD105B116B90120BDE8F88381
:102AE00000BF94F83800012801D10220F6E7012048
:102AF00084F8380000BF0020E063212084F839000A
:102B0000FEF74EF88146A684E68400BF002084F8D4
:102B1000380000BF2BE0E08C401EE084A068B0F5D8
:102B2000805F16D14B46002280212046009701F09D
:102B3000C9FE08B10320D1E7A846B8F80000C0F3E9
:102B4000080021684860206908B9AD1C0FE06D1CC1
:102B50000DE04B46002280212046009701F0B2FE96
:102B600008B10320BAE715F8010B21684860E08C32
:102B70000028D0D14B46002240212046009701F08A
:102B8000A1FE08B10320A9E7202084F83900002025
:102B9000A4E70220A2E7704710B55821002000F0FA
:102BA0001FF8E021012000F01BF80021022000F0B6
:102BB00017F810BDFEB504460E46154640F6FF70E8
:102BC000012322463D21CDE9005602900348FEF73D
:102BD000D5F86420FDF7E6FE0020FEBDD8000020F9
:102BE0007FB504460D4600200390039540F6FF7024
:102BF000012103AA0B46CDE90021029022463C2187
:102C00000448FEF735FA6420FDF7CCFE002004B03E
:102C100070BD0000D800002000BFFEE70146086834
:102C20004069C0F38020B0B16FF480600A685061E1
:102C300000200863202081F83D00002081F83E003C
:102C4000086C40F00400086400BF002081F83C00DC
:102C500000BF012070470020FCE700002DE9F84389
:102C600004460F4615469946DDE908862068006847
:102C700040F48060216808602068006840F480703B
:102C800021680860434600224FF00111204600965B
:102C900000F032F960B12068006800F48070B0F58F
:102CA000807F02D14FF4007020640320BDE8F883D8
:102CB00007F0FE0021680861334642463E4920463F
:102CC00000F05DF908B10120F0E700BF002000909E
:102CD00020684069009020688069009000BF00BFB4
:102CE00032464146204600F0ECF950B1206C0428F1
:102CF00005D12068006840F4007021680860012058
:102D0000D4E7B9F1010F03D1E8B22168086117E0F7
:102D1000C5F307202168086132464146204600F08D
:102D2000D0F950B1206C042805D12068006840F427
:102D30000070216808600120B8E7E8B221680861E6
:102D400032464146204600F0BCF950B1206C0428C0
:102D500005D12068006840F40070216808600120F7
:102D6000A4E72068006840F480702168086043464A
:102D700000224FF001112046009600F0BDF858B136
:102D80002068006800F48070B0F5807F02D14FF4B5
:102D900000702064032089E7F8B240F00100216848
:102DA0000861334642460449204600F0E8F808B17D
:102DB00001207BE7002079E7020001002DE9F843BC
:102DC0000446884615469946DDE90867206800688C
:102DD00040F4807021680860334600224FF00111F2
:102DE0002046009700F088F860B12068006800F481
:102DF0008070B0F5807F02D14FF400702064032012
:102E0000BDE8F88308F0FE00216808613B463246C1
:102E10002149204600F0B3F808B10120F0E700BFD7
:102E20000020009020684069009020688069009030
:102E300000BF00BF3A463146204600F042F950B18B
:102E4000206C042805D12068006840F400702168D7
:102E500008600120D4E7B9F1010F03D1E8B221687D
:102E6000086117E0C5F30720216808613A4631463A
:102E7000204600F026F950B1206C042805D12068C6
:102E8000006840F40070216808600120B8E7E8B2EB
:102E9000216808610020B3E70200010070B5044614
:102EA0000D46164620E02046FFF7B8FE08B1012087
:102EB00070BD681CC0B1FDF773FE801BA84200D82E
:102EC00095B900202063202084F83D00002084F87C
:102ED0003E00206C40F02000206400BF002084F8F9
:102EE0003C0000BF0120E3E720684069C0F3800098
:102EF0000028D8D00020DBE72DE9F04104460D463C
:102F000017461E46DDF818801CE0701CD0B1FDF796
:102F100047FEA0EB0800B04200D89EB90020206315
:102F2000202084F83D00002084F83E00206C40F012
:102F30002000206400BF002084F83C0000BF012076
:102F4000BDE8F081C5F3074001280AD12068406937
:102F5000A9B20840A9B2884201D101200BE00020AB
:102F600009E020688069A9B20840A9B2884201D16D
:102F7000012000E00020B842C7D00020E0E72DE9A2
:102F8000F04104460D4616461F463DE02068406964
:102F9000C0F38020E8B12068006840F40070216828
:102FA00008606FF480602168486100202063202061
:102FB00084F83D00002084F83E00206C40F00400BE
:102FC000206400BF002084F83C0000BF0120BDE861
:102FD000F081701CC0B1FDF7E3FDC01BB04200D80A
:102FE00096B900202063202084F83D00002084F85A
:102FF0003E00206C40F02000206400BF002084F8D8
:103000003C0000BF0120E2E7C5F3074001280AD1D8
:1030100020684069A9B20840A9B2884201D10120C4
:103020000BE0002009E020688069A9B20840A9B23D
:10303000884201D1012000E000200028A6D0002015
:10304000C5E770B504460D46164632E02068406973
:10305000C0F30010A0B16FF010002168486100209B
:103060002063202084F83D00002084F83E00206C7E
:10307000206400BF002084F83C0000BF012070BD28
:10308000FDF78EFD801BA84200D895B90020206373
:10309000202084F83D00002084F83E00206C40F0A1
:1030A0002000206400BF002084F83C0000BF012005
:1030B000E5E720684069C0F380100028C6D00020F2
:1030C000DDE770B504460D46164620E02046FFF7C2
:1030D000A5FD08B1012070BD681CC0B1FDF760FD01
:1030E000801BA84200D895B900202063202084F8D6
:1030F0003D00002084F83E00206C40F02000206459
:1031000000BF002084F83C0000BF0120E3E72068F6
:103110004069C0F3C0100028D8D00020DBE70000D1
:1031200010B50020134908600BE01348114A1268DB
:10313000815C1248FFF73EF90E480068401C0D49BB
:1031400008600C4800680428EFDB03200949086088
:103150000BE00948074A1268815C0948FFF72AF921
:1031600004480068401C03490860024800680528BC
:10317000EFDB10BD40000020340000202C010020B7
:10318000AC01002010B580216B2000F043F9002134
:103190006B2000F03FF9032000F0FAF8002000F067
:1031A000EFF80021382000F035F900216A2000F006
:1031B00031F90021232000F02DF98021372000F083
:1031C00029F94FF4C87000F008F94FF47A7000F054
:1031D000E7F8752000F0A4F80446682C08D1012116
:1031E0006B2000F017F900216C2000F013F901E0CA
:1031F000012010BD0020FCE72DE9FC4104460D46EE
:1032000016466A4606213B2000F0A4F80746BFB9DF
:103210009DF801009DF8001040EA012000B22080D6
:103220009DF803009DF8021040EA012000B22880BA
:103230009DF805009DF8041040EA012000B230809E
:103240003846BDE8FC812DE9FC4104460D46164692
:103250006A460621432000F07DF80746BFB99DF875
:1032600001009DF8001040EA012000B220809DF886
:1032700003009DF8021040EA012000B228809DF86A
:1032800005009DF8041040EA012000B23080384665
:10329000BDE8FC8110B52DED0A8B82B001AA022198
:1032A000412000F057F89DF805009DF8041040EA11
:1032B00001242046FDF76FF941EC1C0B9FED110B2B
:1032C00053EC102BFDF7E7F841EC1B0B9FED0F0BB8
:1032D00053EC102BFCF7C6FF41EC1A0B9FED0D0BC6
:1032E00053EC102BFDF765F841EC190BFDF7DCF9F9
:1032F00008EE100ADFED090A88EE200A02B0BDECE4
:103300000A8B10BD0000000000407540A4703D0A0B
:10331000D743424000000000000059400000C8426E
:103320001FB504460120039040F6FF70012103AA57
:103330000B46CDE9002102902246D1210448FDF739
:103340001DFD6420FDF72EFB9DF80C0004B010BDA0
:10335000D8000020FEB504460E46154640F6FF7024
:1033600001232246D121CDE9005602900348FDF702
:1033700005FD6420FDF716FB0020FEBDD8000020EF
:1033800010B50446E006010E1C2000F043F810BD05
:1033900010B50446E006010E1B2000F03BF810BDFE
:1033A00070B504460025BC2C01DB012510E0622C21
:1033B00001DB02250CE02A2C01DB032508E0142C9C
:1033C00001DB042504E00A2C01DB052500E00625CD
:1033D00029461A2000F01EF870BD70B50446B4F5F9
:1033E0007A7F01DD4FF47A74042C00DA04244FF460
:1033F0007A7090FBF4F0401EC5B22946192000F007
:1034000009F80546264604EBD671C1F34F00FFF7D5
:10341000C7FF70BD7FB504460D460020039003959D
:1034200040F6FF70012103AA0B46CDE9002102906E
:103430002246D0210448FDF71BFE6420FDF7B2FAB6
:10344000002004B070BD0000D800002008B500BF07
:10345000002000901D48006840F004001B490860EF
:103460000846006800F00400009000BF00BF00BFE5
:10347000002000900846006840F080000860084680
:10348000006800F08000009000BF00BF00BF002077
:1034900000900846006840F0010008600846006897
:1034A00000F00100009000BF00BF00BF00200090AE
:1034B0000846006840F0020008600846006800F016
:1034C0000200009000BF00BF08BD0000303802407D
:1034D00010B50B480B4908600B48486000210948AB
:1034E0008160C1604FF480410161002141618161CF
:1034F000C1610162FDF75AFB08B1FDF7E2F910BDA9
:103500000054004084000020A086010010B50B4844
:103510000B4908600B484860002109488160C16080
:103520004FF480410161002141618161C16101620B
:10353000FDF73CFB08B1FDF7C4F910BD0058004091
:10354000D8000020A086010000B587B000200590BB
:10355000069001900290039004904FF08040224921
:1035600008606320486000211F488160491EC160D7
:10357000002101618161FEF779FE08B1FDF7A1F933
:1035800000200590069005A91748FEF721FB08B119
:10359000FDF797F900200190012002900020039090
:1035A0000490002201A91048FEF7F0FD08B1FDF7D4
:1035B00088F9042201A90C48FEF7E8FD08B1FDF7DF
:1035C00080F9082201A90848FEF7E0FD08B1FDF7DF
:1035D00078F90C2201A90448FEF7D8FD08B1FDF7DF
:1035E00070F907B000BD00002C01002000B589B0C3
:1035F0000020079008901C216846FCF721FE244813
:1036000024490860C720486000212248816042F2B6
:103610000F71C160002101618161FFF7A6F808B157
:10362000FDF74FF900200790089007A91948FEF709
:10363000CFFA08B1FDF745F9602000900020019015
:1036400002900490002269461248FFF70AF808B178
:10365000FDF737F9042269460E48FFF702F808B172
:10366000FDF72FF9082269460A48FEF7FAFF08B16C
:10367000FDF727F90C2269460648FEF7F2FF08B16C
:10368000FDF71FF90348FEF79DFF09B000BD0000DC
:10369000000400406C01002000B587B000200590B8
:1036A000069001900290039004901B481B4908600B
:1036B000632048600021194881604FF6FF71C160A6
:1036C000002101618161FEF7D1FD08B1FDF7F9F834
:1036D00000200590069005A91048FEF779FA08B178
:1036E000FDF7EFF8002001900120029000200390E8
:1036F0000490082201A90948FEF748FD08B1FDF72A
:10370000E0F80C2201A90548FEF740FD08B1FDF7DD
:10371000D8F807B000BD000000080040AC01002050
:1037200010B50B480B4908604FF4E13048600021A8
:1037300008488160C16001610C2141610021816103
:10374000C161FFF735F908B1FDF7BBF810BD000006
:1037500000100140EC0100202DE9FE4F6A4601A94E
:1037600002A800F0B2FBBDF9080004460546BDF909
:10377000040006468046BDF90000074681464FF02A
:10378000000A2DE06A4601A902A800F09EFBBDF9DF
:103790000800A04202DDBDF9084005E0BDF90800BF
:1037A000A84201DABDF90850BDF90400B04202DDBB
:1037B000BDF9046005E0BDF90400404501DABDF93A
:1037C0000480BDF90000B84202DDBDF9007005E0DB
:1037D000BDF90000484501DABDF904900AF1010A7B
:1037E000BAF1640FCEDB601B00EE100AF8EEC00ADF
:1037F000A6EB080000EE100AB8EEC00A80EE801AB0
:10380000294880ED001A601B00EE100AF8EEC00A8D
:10381000A7EB090000EE100AB8EEC00A80EE801A8D
:10382000224880ED001A601B002101FB104000EED1
:10383000100AB8EEC00A1E48D0ED000A20EE200A99
:10384000BDEEC00A10EE100A00B21A490880A6EBBD
:103850000800002101FB106000EE100AB8EEC00A5B
:103860001148D0ED000A20EE200ABDEEC00A10EE8D
:10387000100A00B210490880A7EB0900002101FBE3
:10388000107000EE100AB8EEC00A0848D0ED000A29
:1038900020EE200ABDEEC00A10EE100A00B2074961
:1038A0000880BDE8FE8F0000580000205C0000206A
:1038B000540000204E000020500000205200002044
:1038C00000BFFEE710B500210748FEF785FF042181
:1038D0000548FEF781FF08210348FEF77DFF0C2114
:1038E0000148FEF779FF10BD6C0100204FF4FA701B
:1038F00006490968486305490968886303490968F6
:10390000C863024909680864704700006C01002020
:1039100010B52DED0C8BB0EE408A044664BB18EE5A
:10392000100AFCF77DFE41EC1D0B9FED5A0B53EC8A
:10393000102BFCF738FD41EC1C0B9FED580B53ECA2
:10394000102BFCF736FD41EC1B0B9FED520B53EC9B
:10395000102BFCF7A0FD41EC1A0B9FED500B53EC24
:10396000102BFCF77FFC41EC190BFCF721FEC8384B
:103970004C490968486389E0042C2CD118EE100AE0
:10398000FCF74EFE41EC1D0B9FED420B53EC102B50
:10399000FCF709FD41EC1C0B9FED400B53EC102B89
:1039A000FCF707FD41EC1B0B9FED3A0B53EC102B82
:1039B000FCF771FD41EC1A0B9FED380B53EC102B0B
:1039C000FCF750FC41EC190BFCF7F2FDC838354907
:1039D000096888635AE0082C2CD118EE100AFCF70D
:1039E0001FFE41EC1D0B9FED2B0B53EC102BFCF736
:1039F000DAFC41EC1C0B9FED290B53EC102BFCF770
:103A0000D8FC41EC1B0B9FED230B53EC102BFCF768
:103A100042FD41EC1A0B9FED210B53EC102BFCF7F0
:103A200021FC41EC190BFCF7C3FDC8381D4909689E
:103A3000C8632BE018EE100AFCF7F2FD41EC1D0BF9
:103A40009FED140B53EC102BFCF7ADFC41EC1C0B61
:103A50009FED120B53EC102BFCF7ABFC41EC1B0B56
:103A60009FED0C0B53EC102BFCF715FD41EC1A0BE2
:103A70009FED0A0B53EC102BFCF7F4FB41EC190BF8
:103A8000FCF796FDC838074909680864BDEC0C8B43
:103A900010BD00009A9999999999A93F00000000DA
:103AA00000407F406C01002010B54FF47A7010493F
:103AB000096848630E49096888630D490968C86345
:103AC0000B49096808644000FCF76CFF4FF4FA707A
:103AD0000749096848630649096888630449096811
:103AE000C8630349096808648000FCF75BFF10BDE8
:103AF0006C010020704770B5002415E004F1B0019E
:103B0000C8B200F0B9F9002000F0B6F9102000F0BA
:103B1000B3F9002504E0002000F0C2F9681CC5B22A
:103B2000802DF8DB601CC4B2082CE7DB70BD000000
:103B300010B50C233EA20021084600F062F90C23C8
:103B40003CA200212A2000F05CF90C233AA20021BB
:103B5000542000F056F90C2338A20121002000F077
:103B600050F90C2336A201212A2000F04AF90C2337
:103B700034A20121542000F044F90C2332A2022186
:103B8000002000F03EF90C2330A202212A2000F090
:103B900038F90C232EA20221542000F032F90C2314
:103BA0002CA20321002000F02CF90C232AA20321CF
:103BB0002A2000F026F90C2328A20321542000F02B
:103BC00020F90C2326A20421002000F01AF90C236E
:103BD00024A204212A2000F014F90C2322A204219B
:103BE000542000F00EF90C2320A20521002000F043
:103BF00008F90C231EA20521402000F002F90C2335
:103C00001CA20621002000F0FCF80C231AA20621B9
:103C1000402000F0F6F80C2318A20721002000F045
:103C2000F0F80C2316A20721402000F0EAF810BD9E
:103C300047783D0047793D00477A3D0041783D0097
:103C400041793D00417A3D004D783D004D793D0080
:103C50004D7A3D0043313D0043323D0043333D004A
:103C600043343D0043353D0043363D004D313D007A
:103C70004D323D004D333D004D343D00543D00007C
:103C8000503D000010B5C820FCF78CFE00F05AFE35
:103C900010BD70B504460D4605F1B001C8B200F084
:103CA000EBF8102141EA141000F0E6F804F00F00E0
:103CB00000F0E2F870BD00002DE9F04707460E461F
:103CC0009046994600250024A8F12000C5B27F2F18
:103CD00002DD0027B01CC6B2B9F1100F22D1314667
:103CE0003846FFF7D6FF002407E004EB0511174A1A
:103CF000505C00F0D5F8601CC4B2082CF5DB701CD9
:103D0000C1B23846FFF7C5FF002408E004EB0511F7
:103D100008310E4A505C00F0C3F8601CC4B2082C95
:103D2000F4DB11E031463846FFF7B3FF002409E029
:103D300005EB4501064A02EB4101085D00F0B0F8D1
:103D4000601CC4B2062CF3DBBDE8F087B85C000849
:103D5000905A00082DE9FF5F0646174698460E9DCB
:103D60004FF0000A0024002F0EDAAB4605EBDB71A2
:103D7000491001FB0461C8B22B462D220199FFF7BF
:103D80009BFF7F42601CC4B237E0A8EB0400401EDA
:103D9000C1B20A2001F0A6FCB7FBF0F00A21B0FB8B
:103DA000F1F201FB1209BAF1000F15D1A8F10100DF
:103DB000A04211DDB9F1000F0CD1AB4605EBDB7170
:103DC000491001FB0461C8B22B4620220199FFF77C
:103DD00073FF10E04FF0010AAB4605EBDB714910B1
:103DE00001FB0461C8B209F13001CAB22B46019946
:103DF000FFF762FF00BF601CC4B24445C5DBBDE8ED
:103E0000FF9F2DE9F04104460F46154698460026CF
:103E10000FE0AA5D434639462046FFF74DFF04F107
:103E20000800C4B2782C02DD0024B81CC7B2701C94
:103E3000C6B2A85D0028ECD1BDE8F081F8B5054612
:103E40000E4617461C460C20E1B203232A4600907A
:103E50001620FFF77FFF0C20E1B2032332460090CB
:103E60004020FFF777FF0C20E1B203233A46009091
:103E70006A20FFF76FFFF8BD01B584B04FF4807082
:103E8000012104AA0B46CDE90021029000227821ED
:103E90000248FDF7EDF805B000BD000084000020E9
:103EA00001B584B04FF48070012104AA0B46CDE91E
:103EB00000210290402278210248FDF7D9F805B090
:103EC00000BD00008400002070472DE9FC4104463D
:103ED0000D4616466A4606210320FEF76BFE07468E
:103EE000BFB99DF801009DF8001000EB012000B261
:103EF00020809DF803009DF8021000EB012000B225
:103F000028809DF805009DF8041000EB012000B208
:103F100030803846BDE8FC81704710B5FDF7E2F906
:103F200010BD000000B593B0302107A8FCF788F958
:103F3000142102A8FCF784F900BF00200190234857
:103F4000006840F08050214908600846006800F091
:103F50008050019000BF00BF00BF002001901C48AE
:103F6000006840F440401A4908600846006800F4C0
:103F70004040019000BF00BF01200790000408905E
:103F800002200D9041050E910C210F91602110919E
:103F9000022111910421129107A8FDF7B9FB08B184
:103FA000FCF78FFC0F200290022003900020049069
:103FB0004FF48050059000200690032102A8FDF7E1
:103FC00067FA08B1FCF77DFC13B000BD4038024031
:103FD000007000400548006840F470000349086024
:103FE0004FF00060014980390860704788ED00E0BB
:103FF00010B50248FEF71AFA10BD00002C0100208F
:1040000010B50248FEF712FA10BD0000AC01002006
:1040100010B50268204B98420BD0B0F1804F08D009
:104020001E4B984205D01E4B984202D01D4B984221
:1040300003D122F070024B681A43174B984214D0F8
:10404000B0F1804F11D0154B98420ED0144B9842CE
:104050000BD0144B984208D0134B984205D0134B09
:10406000984202D0124B984203D122F44072CB689E
:104070001A4322F080034C6943EA040202608B6811
:10408000C3620B688362044B984201D10B690363DE
:104090000123436110BD0000000001400004004006
:1040A00000080040000C0040004001400044014076
:1040B0000048014030B501F01F05012404FA05F362
:1040C000046A9C430462046A01F01F0502FA05F5C4
:1040D0002C43046230BD000030B5056A25F00105AF
:1040E0000562026A4368846924F0700424F00304C2
:1040F0000D682C4322F002028D682A430D4DA84220
:1041000006D100BF22F00802CD682A4322F0040243
:10411000084DA84207D123F4807323F400734D693E
:104120002B438D692B43436084614D684563026274
:1041300030BD00000000014030B5056A25F01005D3
:104140000562026A4368846924F4E04424F44074FC
:104150000D6844EA052422F020028D6842EA051227
:104160000E4DA84207D100BF22F08002CD6842EA7E
:10417000051222F04002094DA84209D123F48063C0
:1041800023F400634D6943EA85038D6943EA85039F
:10419000436084614D688563026230BD0000014068
:1041A00030B5056A25F480750562026A4368C46902
:1041B00024F0700424F003040D682C4322F40072F0
:1041C0008D6842EA05220F4DA84207D100BF22F4B4
:1041D0000062CD6842EA052222F48062094DA842BD
:1041E00009D123F4805323F400534D6943EA0513A6
:1041F0008D6943EA05134360C4614D68C56302627B
:1042000030BD00000000014030B5056A25F480553E
:104210000562036A4468C26922F4E04222F44072F3
:104220000D6842EA052223F400538D6843EA053302
:10423000064DA84204D124F480444D6944EA851413
:104240004460C2614D680564036230BD00000140F6
:1042500070B50C461546066A26F0010606628169AD
:10426000026A154EB0420ED0B0F1804F0BD0134E03
:10427000B04208D0124EB04205D0124EB04202D029
:10428000114EB04201D1012600E000261EB121F0FE
:104290000301294301E041F0010121F0F001F02682
:1042A00006EA0316314322F00A0204F00A063243FA
:1042B0008161026270BD0000000001400004004006
:1042C00000080040000C00400040014070B50C4662
:1042D0001546066A26F0100606628169026A21F414
:1042E000407141EA052121F470414FF4704606EA1D
:1042F0000336314322F0A002A02606EA0416324318
:104300008161026270BD70B50C461546066A26F4DE
:1043100080760662C169026A21F00301294321F017
:10432000F001F02606EA0316314322F420624FF42E
:10433000206606EA04263243C161026270BD70B590
:104340000C461546066A26F480560662C169026A62
:1043500021F4407141EA052121F470414FF4704687
:1043600006EA0336314322F420424FF4204606EA9F
:1043700004363243C161026270BD70B50546AC6B54
:104380000020E085E0842046FEF767FA70BD0168F2
:10439000C96821F490710268D1600168496921F00F
:1043A000010102685161202180F83A10704710B570
:1043B00004462068C06820F040002168C8602020C2
:1043C00084F839002046FEF7E6FB002010BD70B5EA
:1043D000044694F83A0022284AD1A068B0F5805FDC
:1043E00013D1A56A206940B920684068C0F308006D
:1043F0002880A06A801CA06219E020684068C0B2D2
:104400002880A06A401CA06211E0206938B92068A9
:104410004068C1B2A26A501CA062117007E0206817
:10442000406800F07F01A26A501CA0621170E08D0C
:10443000401E80B2E085C8B92068C06820F0200026
:104440002168C8602068C06820F480702168C86056
:104450002068406920F0010021684861202084F82C
:104460003A002046FEF72AFB002070BD0020FCE742
:104470000220FAE72DE9F84F04462068006920F48D
:104480004050E1680843216808612169A068084339
:1044900061690843E169084300902068C06849F2F7
:1044A0000C618843009908432168C860206840690E
:1044B00020F44070A169084321684861E069B0F5C3
:1044C000004F75D1E3492068884203D0E249206853
:1044D00088426FD1FDF7B4F8814602206168A0FBE5
:1044E00001510B461920A9FB00712A463846FBF7FB
:1044F0006FFE6421B0FBF1F04FEA001A0220616800
:10450000A0FB01510B461920A9FB00712A46384631
:10451000FBF75EFE074602206168A0FB01510B46D7
:104520001920A9FB00B12A465846FBF751FE642129
:10453000B0FBF1F000EBC00101EB0010A7EB800035
:10454000322101EBC0006421B0FBF1F000F0F80073
:104550000AEB400A02206168A0FB01510B461920BA
:10456000A9FB00712A463846FBF732FE07460220B7
:104570006168A0FB01510B461920A9FB00B12A4636
:104580005846FBF725FE6421B0FBF1F000EBC001BB
:1045900001EB0010A7EB8000322101EBC000642189
:1045A000B0FBF1F000F007005044216888604FE153
:1045B0006EE0FFE7FDF734F8814602206168A0FB5A
:1045C00001510B461920A9FB00712A463846FBF71A
:1045D000FFFD6421B0FBF1F04FEA001A0220616890
:1045E000A0FB01510B461920A9FB00712A46384651
:1045F000FBF7EEFD074602206168A0FB01510B4668
:104600001920A9FB00B12A465846FBF7E1FD6421B9
:10461000B0FBF1F000EBC00101EB0010A7EB800054
:10462000322101EBC0006421B0FBF1F000F0F80092
:104630000AEB400A02206168A0FB01510B461920D9
:10464000A9FB00712A463846FBF7C2FD0746022047
:104650006168A0FB015003461920A9FB00B12A465E
:104660005846FBF7B5FD6421B0FBF1F000EBC0014B
:1046700001EB0010A7EB8000322101EBC0006421A8
:10468000B0FBF1F000F00700504421688860DFE0E3
:1046900070492068884203D06F49206888426BD1F6
:1046A000FCF7CEFF814604206168A0FB01510B4658
:1046B0001920A9FB00712A463846FBF789FD82467E
:1046C00004206168A0FB01510B461920A9FB007171
:1046D0002A463846FBF77CFD6421B0FBF1F000EB85
:1046E000C00101EB0010AAEB8000322101EB0010A9
:1046F0006421B0FBF1F000F0F00A04206168A0FB37
:10470000015003461920A9FB00712A463846FBF7E1
:104710005FFD6421B0FBF1F00AEB001A0420616830
:10472000A0FB01510B461920A9FB00712A4638460F
:10473000FBF74EFD074604206168A0FB01500346CD
:104740001920A9FB00B12A465846FBF741FD642118
:10475000B0FBF1F000EBC00101EB0010A7EB800013
:10476000322101EB00106421B0FBF1F000F00F00EA
:104770005044216888606BE0FCF752FF81460420BA
:104780006168A0FB015003461920A9FB00712A466D
:104790003846FBF71DFD824604206168A0FB0150EE
:1047A00003461920A9FB00712A463846FBF710FD85
:1047B0006421B0FBF1F000EBC00101EB0010AAEBAB
:1047C0008000322101EB00106421B0FBF1F000F019
:1047D000F00A04206168A0FB015003461920A9FBE0
:1047E00000712A463846FBF7F3FC6421B0FBF1F078
:1047F0000AEB001A04206168A0FB0170034619202F
:10480000A9FB005001463A462846FBF7E1FC074663
:1048100004206168A0FB015003461920A9FB00B1E8
:104820002A465846FBF7D4FC6421B0FBF1F000EBBC
:10483000C00101EB0010A7EB8000322101EB00105A
:104840006421B0FBF1F000F00F0050442168886053
:10485000BDE8F88F0010014000140140014691F8B6
:10486000390021282CD18868B0F5805F0FD10A6A01
:104870001088C0F308000B685860086918B9086A06
:10488000801C086209E0086A401C086205E00B6AA7
:10489000581C086218780B685860C88C401E80B29B
:1048A000C88458B90868C06820F080000B68D860D8
:1048B0000868C06840F040000B68D860002070476E
:1048C0000220FCE72DE9F04104460D4617469846C4
:1048D000069E21E0701CF8B12EB1FCF761F9A0EB47
:1048E0000800B04218D92068C06820F4D070216850
:1048F000C8602068406920F00100216848612020DC
:1049000084F8390084F83A0000BF002084F83800A9
:1049100000BF0320BDE8F081206800682840A8425D
:1049200001D1012000E00020B842D3D00020F1E7FF
:1049300010B50248FDF792FF10BD0000EC01002009
:1049400000BFFEE73EB5002400BF0FE04FF48071CA
:104950000122084820441346CDE90121009000229D
:1049600078210548FCF784FB601CC4B21B2CEDDBEE
:104970003EBD000014000020840000200FB4054B51
:1049800010B503A9044A029800F066FB10BC5DF85C
:1049900014FB0000B5530008800000200FB4084B42
:1049A00010B504A902AA039800F056FB044602A918
:1049B000002000F02DFC204610BC5DF814FB000028
:1049C0001152000803B401984100009850EAC12038
:1049D00018BF04204A0D18BF40F0010040F2FF72DA
:1049E000B2EB515F08BF40F00200012808BF05206C
:1049F00002B0704702480068C0F302207047000010
:104A00000CED00E010B5002804DB0A07130E054A80
:104A1000135406E00A07140E034A00F00F031B1F8D
:104A2000D45410BD00E400E018ED00E000000000E8
:104A300070B59B482DED020B2DED068B079D25F0E3
:104A40000044A04218DC9748844202DC0AD1069850
:104A500040B19DED060BBDEC068B02B0BDE8704089
:104A600000F0C6BA002DCCBF9FED8F0B9FED900BD1
:104A7000BDEC068B02B070BD8F48A04215DD8F489B
:104A8000A042D8BF4FF0FF3458DD9DED060B51EC2E
:104A9000100BFFF797FF042808BF00F0BDFA9DED4B
:104AA000060BBDEC068B02B070BD9DED060B51EC04
:104AB000100B00F073FCCDE9060181489FED828B5D
:104AC000A0423CDD8248A0421FDD00249FED82AB66
:104AD0009DED060B53EC1A2B51EC100BFBF7C2FBB0
:104AE0009DED060B41EC190B53EC1A2B51EC100BFE
:104AF000FBF75FFC53EC182BFBF755FC53EC192B21
:104B0000FBF7C9FCCDE9060149E09DED060B012448
:104B100053EC182B51EC100BFBF7A4FB9DED060B8F
:104B200041EC190B53EC182B51EC100BFBF73BFC31
:104B300053EC192BFBF7AFFCCDE906012FE06848D9
:104B4000A0421FDD02249FED689B9DED060B53ECF8
:104B5000192B51EC100BFBF72CFC53EC182BFBF72B
:104B600081FB9DED060B41EC180B53EC192B51EC1E
:104B7000100BFBF718FC53EC182BFBF78CFCCDE962
:104B800006010CE09DED060B032453EC102B9FED6A
:104B9000580B51EC100BFBF77EFCCDE906019DEDA7
:104BA000060B53EC102B51EC100BFBF702FC41EC05
:104BB000180B53EC182BFBF7FCFB41EC190B4E4880
:104BC0000621B0EE490AF0EE690A784400F094F943
:104BD00053EC182B51EC100BFBF7EBFB41EC180BD3
:104BE0004648B0EE490AF0EE690A0521784400F023
:104BF00083F953EC192B51EC100BFBF7DAFB41EC6A
:104C0000100B51EC180B53EC102B002C0EDAFBF7A9
:104C100029FB9DED061B53EC112BFBF7CAFB9DED09
:104C2000061B53EC112BFBF7C1FB35E0FBF71AFB1E
:104C30009DED061B53EC112BFBF7BBFB41EC100B5E
:104C40002F48784400EBC40090ED001B51EC100B92
:104C500053EC112BFBF7A7FB9DED061B53EC112B1F
:104C6000FBF7A1FB41EC100B2648784400EBC40095
:104C700090ED001B51EC100B53EC112BFBF796FB46
:104C800041EC100B002DA2BFBDEC068B02B070BD35
:104C900051EC100B81F0004141EC100B01E70000DA
:104CA000000010440000F07F182D4454FB21F93F10
:104CB000182D4454FB21F9BF0000DC3F0000203ECA
:104CC0000000F33F00000000000000000000F03F83
:104CD0000000E63F0000000000000000000000406F
:104CE0000080034000000000000000000000F83FCA
:104CF000000000000000F0BF42170000F81600009E
:104D0000821600003A16000070B56B4E2DED040BB4
:104D10002DED028B82B0DDF81CC0DDE905235C427D
:104D20002CF000411C4341EAD474049D22F0004061
:104D3000B44205D86C422C4340EAD474B4420BD937
:104D40009DED061B9DED040B02B0BDEC028B04B083
:104D5000BDE8704000F056B9ACF14054A4F17F6456
:104D60001C430BD0022404EAAC7444EAD274054319
:104D70009FED538B9FED542B07D015E09DED040B59
:104D800051EC100B00F049FA42E0002C11BF012C4D
:104D90009DED040B02B0BDEC028B04BF04B070BDEE
:104DA000022C38D0032C3BD00B439FED491B9FEDC9
:104DB0004A0B0AD0B14218D1B04209D121F080414A
:104DC00020F08040079105900FE0002A15DA10E0EE
:104DD000434B7B44002C08BF93ED000B0DD0012CFE
:104DE00010D0022C17D0032C1AD0B0421DD1002AAB
:104DF00003DAB0EE410AF0EE610A02B0BDEC028BBC
:104E000004B070BD93ED000B51EC100B81F000412C
:104E100041EC100BF1E7B0EE480AF0EE680AECE75F
:104E2000B0EE420AF0EE620AE7E7401A00153C28AD
:104E3000C8BF8DED000B19DCBCF1000FBEBF10F137
:104E40003C0F9FED290B8DED000B0FDB9DED060B4D
:104E500053EC102B9DED040B51EC100BFBF71BFBDF
:104E600000F09CFA00F0D9F9CDE90001002C08BF50
:104E70009DED000BC1D0012C10D0022C9FED1C0B1E
:104E800053EC102B9DED000B51EC100B0DD0FBF7EC
:104E90008AFA53EC182BFBF786FAB9E7019880F0F1
:104EA000004001909DED000BA7E7FBF77CFA53EC67
:104EB000182BFBF77BFAABE70000F07F0000000047
:104EC000182D4454FB210940182D4454FB2109C0DE
:104ED000182D4454FB21F9BF182D4454FB21F93FF0
:104EE0006A15000000000000000000000000000043
:104EF000075C143326A6A13C70B504462DED028B49
:104F00004D1E00EBC500B0EE408AF0EE608A90EDD9
:104F1000000B35F0060017D053EC182B51EC100B9A
:104F2000FBF747FA41EC100B6D1E04EBC50090ED4A
:104F3000001B51EC100B53EC112BFBF793F941ECD8
:104F4000100B35F00600E7D1022D36D0042D1CD011
:104F5000062D1CBFBDEC028B70BD53EC182B51EC21
:104F6000100BFBF726FA94ED0A1B53EC112BFBF701
:104F700079F953EC182BFBF71CFA94ED081B53EC52
:104F8000112BFBF76FF941EC100B53EC182B51EC84
:104F9000100BFBF70EFA94ED061B53EC112BFBF7ED
:104FA00061F953EC182BFBF704FA94ED040B53EC66
:104FB000102BFBF757F941EC100B53EC182B51EC6D
:104FC000100BFBF7F6F994ED021B53EC112BFBF7DA
:104FD00049F953EC182BFBF7ECF994ED001B53EC5B
:104FE000112BFBF73FF9BDEC028B41EC100B70BDB0
:104FF00010B553EC102B51EC100BFBF733F941ECCF
:10500000100B10BD10B553EC112B51EC100BFBF72E
:1050100029F941EC100B10BD9FED050B10B553ECB9
:10502000102B51EC100BFBF7C4F941EC100B10BD29
:10503000000000000000001002E008C8121F08C1B4
:10504000002AFAD170477047002001E001C1121F09
:10505000002AFBD1704700002DE9FF4F8BB09A4624
:105060000F460546002606E025280BD052460D992E
:1050700090476D1C761C28780028F5D10FB030467B
:10508000BDE8F08F0024A0460122604900E00443FF
:1050900015F8013F203B02FA03F00842F7D12878C7
:1050A0002E2817D115F8010F44F004042A280ED039
:1050B0006FF02F022878A0F1300109290AD808EBF7
:1050C000880102EB410100EB01086D1CF2E757F883
:1050D000048B6D1C287869283ED006DC0028CDD0D2
:1050E00063280BD0642804D136E0732810D07528CB
:1050F0004BD052460D999047761C85E017F8040B6B
:105100008DF8000000208DF80100E946012003E041
:1051100057F8049B4FF0FF3061074FF0000401D4B3
:105120000AE0641C44450DDA8442FADB19F80410E5
:105130000029F6D106E0641C8442FCDB19F8041057
:105140000029F8D1264404E019F8010B52460D99C4
:105150009047641EF8D257E001CF4FF00A0B0028A9
:1051600002DA40422D2102E0210504D52B218DF8E1
:105170002410012103E0E10705D02021F7E70DF11C
:10518000200908910CE00021F9E701CF4FF00A0B4C
:10519000F9E75946FBF7A4FA01F1300209F8012DAD
:1051A0000028F6D1ADEB090000F1200B600701D417
:1051B0004FF00108D84502DDA8EB0B0000E000200D
:1051C0008046002406E009A85246005D0D999047EC
:1051D000641C761C08988442F5DB04E030205246BB
:1051E0000D999047761CB8F10001A8F10108F5DC93
:1051F00005E019F8010B52460D999047761CBBF15A
:105200000001ABF1010BF4DC6D1C34E7092801004F
:105210000A68531C0B601070704710B541EC100BFE
:10522000FFF706FC51EC100B10BD000010B515A0E7
:1052300000F0A6F84FF47A70FBF7B4FB14A000F06E
:105240009FF84FF47A70FBF7ADFB15A000F098F8CB
:105250004FF47A70FBF7A6FB1CA000F091F84FF416
:105260007A70FBF79FFB27A000F08AF84FF47A7062
:10527000FBF798FB27A000F083F84FF47A70FBF758
:1052800091FB10BD41542B5253540D0A00000000F5
:1052900041542B43574D4F44453D320D0A00000009
:1052A00041542B43575341503D2257756875546103
:1052B0006B654F6666222C227565737463343034D7
:1052C000222C31312C340D0A0000000041542B43B4
:1052D000495041503D223139322E3136382E342E4C
:1052E00031222C223139322E3136382E342E3122D1
:1052F0002C223235352E3235352E3235352E3022B0
:105300000D0A000041542B4349504D55583D310D75
:105310000A00000041542B43495053455256455210
:105320003D312C383038300D0A00000030B589B0DE
:1053300004462046FAF78FFF05462A4609A101A830
:10534000FFF72CFB01A800F01BF86420FBF72AFBF9
:10535000214609A0FFF712FB6420FBF723FB09B0ED
:1053600030BD000041542B43495053454E443D301D
:105370002C25640D0A00000025730D0A00000000B2
:1053800010B50446214602A0FFF7F8FA10BD000050
:105390002573000010B5FFF749FF10BD82B0CDE9BD
:1053A000000121F0004001909DED000B02B051EC96
:1053B000100B704713B50C464FF6FF730122694678
:1053C0000248FDF77CFB00981CBD0000EC010020AA
:1053D0002DED048BB2B0FBF791FFFEF7A3FDFEF7B6
:1053E00035F8FEF775F8FEF791F8FEF7ADF8FEF721
:1053F000FDF8FEF751F9FEF793F9FEF743FCFEF7CF
:105400007AFBFFF7C7FFFEF776FB10237BA2032191
:105410000820FEF7F6FC7DA0FFF788FF4FF47A70B6
:10542000FBF7C0FAFEF74EFAFEF765FB10237CA2ED
:1054300003210C20FEF7E5FC7DA0FFF777FF4FF47A
:105440007A70FBF7AFFAFBF73DFAFEF754FB102337
:105450007BA203210C20FEF7D4FC7DA0FFF766FFA2
:105460004FF47A70FBF79EFAFEF745FB10237CA2FF
:1054700003210C20FEF7C5FC7DA0FFF757FF4FF47A
:105480007A70FBF78FFAFEF70FFBFEF734FB102361
:105490007BA203210620FEF7B4FC7DA0FFF746FFA8
:1054A0004FF47A70FBF77EFAFDF73AFEFEF723FB26
:1054B00010237CA203210020FEF7A3FC7EA0FFF7AF
:1054C00035FF40F6B830FBF76DFAFEF714FBFEF738
:1054D0002FFB91E031AA911E30A800F00FF92FAAFE
:1054E000911E2EA8FDF788FE2DAA911E2CA800F073
:1054F0005DF900241FE0764800EB8400D0ED000A3F
:105500009FED741AB1EE040A10EE810A10EE101A23
:105510000846FBF785F841EC190B9FED6F0B53EC38
:10552000102BFAF7B8FF41EC180BFBF760F826A92F
:1055300041F82400641C062CDDDBBDF9C420BDF954
:10554000C210BDF9C0000023FEF778FCBDF9BC20F5
:10555000BDF9BA10BDF9B8000123FEF76FFCBDF923
:10556000B420BDF9B210BDF9B0000223FEF766FC0D
:10557000032326A807C8FEF761FC042329A807C84F
:10558000FEF75CFCFDF786FEBDEEC00A10EE104A89
:105590000C2002232246072100901820FEF7DAFB98
:1055A000DDE92823DDE92A10CDE90923CDE90B1037
:1055B000BDF9B420BDF9B230DDE92610CDE90532E0
:1055C000CDE90710BDF9B010BDF9BC20BDF9BA0096
:1055D000BDF9B830CDE90130CDE90321BDF9C400F2
:1055E0000090BDF9C230BDF9C0203D490DA8FFF7BC
:1055F000D5F90DA8FFF79AFE6CE700004553503827
:105600003236365F496E6974204F4B00455350382F
:105610003236365F496E6974204F4B0D0A00000028
:105620004D6F746F725F496E6974204F4B000000BC
:105630004D6F746F725F496E6974204F4B0D0A0095
:10564000475938365F496E6974204F4B000000009F
:10565000475938365F496E6974204F4B0D0A000078
:105660004D6F746F725F556E6C6F636B000000005E
:105670004D6F746F725F556E6C6F636B0D0A000037
:105680004D6F746F725F556E6C6F636B204F4B0084
:105690004D6F746F725F556E6C6F636B204F4B0D67
:1056A0000A000000496E7075745F43617074757212
:1056B000655F496E69740000496E7075745F43617F
:1056C00070747572655F496E6974204F4B0D0A00E6
:1056D000440200200000C8429A9999999999A93FDB
:1056E0004863000810B50246012000E050430B1E3D
:1056F000A1F10104E1B2F9D110BD000070B504467A
:105700000D461646224A23492348FDF79CFD2248B0
:10571000B0F900002149B1F90010401A00EE100A5A
:10572000B8EEC00ADFED1E0A80EE201ABDEEC10AF7
:1057300010EE100A00B220801648B0F90000194996
:10574000B1F90010401A00EE100AB8EEC00ADFED01
:10575000140A80EE201ABDEEC10A10EE100A00B243
:1057600028800B48B0F900000F49B1F90010401A29
:1057700000EE100AB8EEC00ADFED090A80EE201A2A
:10578000BDEEC10A10EE100A00B2308070BD0000FC
:10579000640000206200002060000020480000201B
:1057A000333303434A0000204C000020F0B52DEDB8
:1057B0000A8B85B005460E4617469F4A9F49A0486A
:1057C000FEF783FB0020029003900490009001906C
:1057D0009C480068FAF724FF41EC1B0B9849B1F98B
:1057E0000010994AB2F90020881AFAF7C3FE41EC7A
:1057F0001C0B53EC1B2BFAF7DCFD41EC190B934807
:105800000068FAF70DFF41EC1B0B8C49B1F9001051
:105810008F4AB2F90020881AFAF7ACFE41EC1C0B53
:1058200053EC1B2BFAF7C5FD41EC1A0BB0EE491AED
:10583000F0EE691AB0EE4A0AF0EE6A0AFFF764FA6F
:10584000B0EE408AF0EE608A51EC180BFAF72CFFAC
:1058500002907E480068FAF7E3FE41EC1B0B7749A3
:10586000B1F900107A4AB2F90020881AFAF782FEDC
:1058700041EC1C0B53EC1B2BFAF79BFD41EC1A0B74
:1058800074480068FAF7CCFE41EC1B0B6A49B1F989
:105890000010714AB2F90020881AFAF76BFE41EC49
:1058A0001C0B53EC1B2BFAF784FD41EC190BB0EEEB
:1058B0004A1AF0EE6A1AB0EE490AF0EE690AFFF7EA
:1058C00023FAB0EE408AF0EE608A51EC180BFAF73A
:1058D000EBFE03905F480068FAF7A2FE41EC1B0B59
:1058E0005549B1F900105C4AB2F90020881AFAF75C
:1058F00041FE41EC1C0B53EC1B2BFAF75AFD41EC1B
:10590000190B50480068FAF78BFE41EC1B0B4C4911
:10591000B1F900104C4AB2F90020881AFAF72AFEB1
:1059200041EC1C0B53EC1B2BFAF743FD41EC180B1D
:10593000B0EE491AF0EE691AB0EE480AF0EE680AC5
:10594000FFF7E2F9B0EE40AAF0EE60AA51EC1A0BB4
:10595000FAF7AAFE049000245FE002A800EB84009E
:1059600090ED000AB5EEC00AF1EE10FA18D202A8C6
:1059700000EB840090ED000A10EE101A0846FAF7CA
:105980004FFE41EC190B9FED350B53EC102BFAF742
:1059900069FC41EC180BFAF787FE02A941F82400D4
:1059A00002A800EB840090ED000ADFED2E0A20EE45
:1059B000200A10EE101A0846FAF732FE41EC190BD5
:1059C0009FED290B53EC102BFAF765FD41EC180BFA
:1059D000FAF7EEFD00B22DF814003DF91400FAF7C5
:1059E000C9FD41EC190B9FED220B53EC102BFAF77C
:1059F00039FC41EC180BFAF7DBFD00B22DF814006E
:105A00003DF91400B0F5B47F06DD3DF81400A0F5B3
:105A1000B47000B22DF81400641C032C9DDBBDF89B
:105A200000002880BDF802003080BDF804003880F6
:105A300005B0BDEC0A8BF0BD700000206E000020A8
:105A40006C000020540000204E0000205800002070
:105A5000500000205C000020520000204AD8124D67
:105A6000FB211940000034434AD8124DFB21094064
:105A70008FC2F5285C8FF23F00000000000000009C
:105A800001020304060708090000000001020304E4
:105A90000000000000000000002F000000000700D0
:105AA000070000147F147F1400242A7F2A1200624A
:105AB00064081323003649552250000005030000F6
:105AC00000001C224100000041221C000014083E7E
:105AD00008140008083E0808000000A06000000844
