S31508000000F05500206D02000891590008554800086F
S3150800001059550008F11400088D7800080000000002
S31508000020000000000000000000000000AD0100080C
S31508000030F51400080000000009020008A769000876
S31508000040870200088702000887020008870200085E
S31508000050870200088702000887020008870200084E
S31508000060870200088702000887020008870200083E
S31508000070870200088702000887020008870200082E
S3150800008087020008870200088702000800000000AF
S3150800009000000000000000000000000087020008C1
S315080000A087020008916A000887020008816A00082A
S315080000B0A96A000887020008B96A000887020008CA
S315080000C087020008870200088702000887020008DE
S315080000D0870200085D7800086D78000800000000B7
S315080000E0870200088702000887020008000000004F
S315080000F00000000000000000000000008702000861
S31508000100000000008702000887020008870200082E
S3150800011000000000000000000000000000000000D1
S31508000120870200088702000887020008870200087D
S315080001308702000800000000000000000000000020
S315080001400000000000000000000000008702000810
S315080001508702000887020008870200087D780008E1
S31508000160870200088702000800000000000000005F
S315080001700000000000000000000000000000000071
S3150800018000000000870200080000000000000000D0
S315080001908702000887020008DFF80CD000F092FBFF
S315080001A000480047418E0008F05500202C4B19687E
S315080001B00868B0E8F04F80F30988BFF36F8F4FF0F7
S315080001C0000080F3118870470000000008480068A6
S315080001D0006880F308884FF0000080F3148862B640
S315080001E061B6BFF34F8FBFF36F8F00DF00BF00BF4D
S315080001F008ED00E0DFF80C00016841F470010160C9
S31508000200704700BF88ED00E0EFF30980BFF36F8FFA
S31508000210134B1A681EF0100F08BF20ED108A20E94C
S31508000220F04F106009B44FF0500080F31188BFF307
S315080002304F8FBFF36F8F0AF09DF94FF0000080F3E0
S31508000240118809BC19680868B0E8F04F1EF0100F4D
S3150800025008BFB0EC108A80F30988BFF36F8F704728
S3150800026078010020EFF305807047000006488047B4
S3150800027006480047FEE7FEE7FEE7FEE7FEE7FEE77D
S31508000280FEE7FEE7FEE7FEE76D6A0008990100084B
S315080002902DE9F05F0546002092469B4688460646AD
S315080002A0814640241BE0284641464746224600F040
S315080002B052FA53465A46C01A914110D31146184667
S315080002C0224600F039FA2D1A67EB01084F462246F6
S315080002D00120002100F030FA17EB00094E41201EDC
S315080002E0A4F10104DFDC484631462A464346BDE808
S315080002F0F09F40EA01039B0703D009E008C9121FD3
S3150800030008C0042AFAD203E011F8013B00F8013BC1
S31508000310521EF9D27047D2B201E000F8012B491EED
S31508000320FBD270470022F6E710B513460A46044684
S315080003301946FFF7F0FF204610BD2DE9FE4F80460F
S3150800034081EA0300C00F0C46009021F0004123F01B
S315080003500045B8EB0200A94105D240462146904621
S315080003601C460B46024623F00040104347D0270D93
S31508000370C7F30A00C3F30A510290401A01904028B5
S315080003806BDAC3F3130040F4801B0098924620B141
S315080003900023D2EB030A63EB0B0B01985946C0F115
S315080003A04002504600F0C8F906460D4650465946E2
S315080003B0019A00F0E0F910EB08006141002487EA91
S315080003C0115284EAE7731A4340D0009A62B3019A3D
S315080003D0012A4FEA075215DC001B61EB02014FF0B8
S315080003E0004202EA0752CDE90042001C41F580119D
S315080003F032462B4600F017FA03B0BDE8F08F4046A8
S315080004002146F9E7001B61EB0201001C41F5801348
S3150800041000185B412018A2F5001747EB030140EAD4
S31508000420D570B6196D4111E06D084FEA360645EAF2
S31508000430C0754FEA0752001B61EB0201001C41F52B
S31508000440801149084FEA30000019514132462B46BF
S3150800045003B0BDE8F04F00F0D7B90098012240007C
S315080004600023D0EB020263EBE073009821464FEAC3
S31508000470E074B8EB000061EB0401E9E783F00043A0
S315080004805BE781F0004158E72DE9FE4F81EA030456
S3150800049004F0004421F0004100944FF0000B23F0D3
S315080004A0004350EA01045ED052EA03045BD0C3F36A
S315080004B00A54C1F30A552C44A4F2F3340194A0FB60
S315080004C00254C1F3130141F48011C3F3130343F437
S315080004D0801301FB024400FB034E840A970A44EA90
S315080004E0815447EA8357A4FB076802958D0A05FBE2
S315080004F007854FEA932C04FB0C542705029D4FEA07
S31508000500065847EA1637B5EB08056EEB070C870E53
S31508000510920E47EA811742EA8312A7FB0201B6EB5D
S315080005200B0164EB00042B0D43EA0C335E1844EB15
S315080005301C50DA465146E7FB0201C5F313044FEA9D
S315080005400B3343EA14534FEA0432019C43EA060389
S31508000550A4F10C040294009CCDE900B400F063F900
S3150800056003B0BDE8F08F00200146F9E72DE9F04D0C
S3150800057081EA030404F0004B21F0004514464FF0CD
S31508000580000A23F0004150EA050220D054EA01028D
S315080005901DD0C5F30A570246C5F31303C1F313006A
S315080005A0C1F30A5640F4801543F48013A7EB0608F6
S315080005B0101BD64608F2FD3873EB050002D308F186
S315080005C0010801E092185B41B8F1000F03DA002038
S315080005D00146BDE8F08D00204FF48011064684469A
S315080005E00EE0171B73EB050705D3121B63EB050318
S315080005F006434CEA010C49084FEA300092185B4161
S3150800060050EA0107EDD152EA030012D082EA04004B
S3150800061083EA0501084305D0101BAB4106D2012227
S31508000620002306E000224FF0004302E06FF00102CB
S3150800063053101AEB06004CEB085110EB0A0041EB7D
S315080006400B01BDE8F04D00F0DFB80EB5C10F80EA2A
S31508000650E0700844CA07002140F233438DE80E00D3
S315080006600A460B4600F0DFF803B000BD70B5C1F3CB
S315080006700A5201F000450024C1F3130140F2FF338A
S3150800068041F480119A4201DA002070BD40F23343EA
S315080006909A42A2F2334203DC524200F05CF800E0D0
S315080006A090402C43F1D0404270BD00F0004230F03B
S315080006B000400AD0C10D01F56071C0F3160042EA88
S315080006C00151C20840071143704700200146704790
S315080006D030B5041E71F1000404DB4FF000444042BB
S315080006E064EB0101141E73F1000405DB1C464FF090
S315080006F00043524263EB04038B4208BF824230BD7B
S3150800070001F0004330B421F0004150EA010206D05E
S315080007100A0DA2F56072C1F31301002A02DC30BC8F
S3150800072000207047440F44EAC104C100E01830BCF9
S3150800073000EBC25000F031B8202A04DB203A00FA58
S3150800074002F1002070479140C2F1200320FA03F31A
S31508000750194390407047202A04DB203A21FA02F018
S315080007600021704721FA02F3D040C2F120029140DD
S31508000770084319467047202A06DBCB17203A41FA68
S3150800078002F043EAE07306E041FA02F3D040C2F110
S31508000790200291400843194670470029A8BF7047B0
S315080007A0401C490008BF20F00100704710B4B0FA99
S315080007B080FC00FA0CF050EA010404BF10BC704734
S315080007C049B1CCF1200421FA04F411FA0CF118BF4E
S315080007D0012121430843A3EB0C01CB1D4FEA00611D
S315080007E04FEA102042BF002010BC704700EBC350F0
S315080007F010440029A4BF10BC7047401C490008BF1C
S3150800080020F0010010BC704710B5141E73F10004E7
S3150800081008DA401C41F1000192185B411A4301D1E4
S3150800082020F0010010BD2DE9F04D92469B4611B10E
S31508000830B1FA81F202E0B0FA80F220329046FFF770
S315080008407BFF04460F4640EA0A0041EA0B0153467D
S315080008505A46084313D0114653EA010019D0C8F185
S3150800086040025046FFF777FF05460E465046594662
S315080008704246FFF761FF084305D0012004E0204601
S315080008803946BDE8F08D0020054346EAE0762C435C
S3150800089037430A986305E40AA0EB08000022FD0A1C
S315080008A044EA47540A3002D500200146E9E7010523
S315080008B010196941DDE9084500196941BDE8F04D9F
S315080008C0A2E70000064C074D06E0E06840F0010389
S315080008D094E8070098471034AC42F6D3FFF760FC5B
S315080008E030C1000850C100082DE9F04D00231A4612
S315080008F01B1A8A4103DB00200146BDE8F08DC1F3CF
S315080009000A52C1F3130141F480154FF0000BD107C9
S3150800091002D100186D41521E0027044640F2FF110D
S31508000920384601EB620A3E468046024600204FF4EE
S315080009308011FFF710FFC2197141BB1846EB010081
S31508000940B4EB030C75EB000C04D3E41A65EB000555
S3150800095017460E46241908F101006D4180463428D1
S31508000960E3DDF91946EB0600091BA84103D24FF04F
S31508000970FF32134601E0002213461BEB070046EB45
S315080009800A51BDE8F04DFFF73FBF0EB540F23341BF
S3150800099002910021CDE900110A460B46FFF743FFF5
S315080009A003B000BD70B58C1810F8015B15F007038D
S315080009B001D110F8013B2A1106D110F8012B03E0EA
S315080009C010F8016B01F8016B5B1EF9D12B0705D4F2
S315080009D00023521E0DD401F8013BFAE710F8013B3B
S315080009E0CB1A921C03E013F8015B01F8015B521E57
S315080009F0F9D5A142D8D3002070BD0000F7B5002470
S31508000A00AA222146641C2C484254FF222146641C13
S31508000A10425403222146641C425400222146641C87
S31508000A2042549DF800202146641C42549DF801203A
S31508000A302146641C42549DF804202146641C4254F5
S31508000A409DF805202146601CC4B21B4842549DF8F7
S31508000A5008202146601CC4B2174842549DF8092054
S31508000A602046611CCCB214490A5401222046611C56
S31508000A70CCB211490A54201FC87000250026002050
S31508000A8007E00D49095C2944CDB27119CEB2411C63
S31508000A90C8B2A042F5DB2046611CCCB206490D540B
S31508000AA02046611CCCB204490E5440F6FF73224618
S31508000AB0024803F025FEFEBD18020020200600208D
S31508000AC02DE9F0472DED088B84B082460E46174671
S31508000AD0984600245046FFF7B8FD41EC1B0B9FEDE6
S31508000AE0770B53EC102BFFF7C9FC41EC1A0B9FED63
S31508000AF0750B53EC102BFFF7C7FC41EC190B9FED58
S31508000B00730B53EC102BFFF7BFFC41EC180BFFF7E8
S31508000B10ADFD03903046FFF798FD41EC1B0B9FEDAA
S31508000B20670B53EC102BFFF7A9FC41EC1A0B9FED52
S31508000B30650B53EC102BFFF7A7FC41EC190B9FED47
S31508000B40630B53EC102BFFF79FFC41EC180BFFF7D8
S31508000B508DFD029001974046FFF777FD41EC1B0B90
S31508000B609FED560B53EC102BFFF788FC41EC1A0B44
S31508000B709FED580B53EC102BFFF786FC41EC190B35
S31508000B809FED520B53EC102BFFF77EFC41EC180B34
S31508000B90FFF76CFD0090AA222146641C4F48425478
S31508000BA0FF222146641C425441222146641C4254B9
S31508000BB00E222146641C42549DF80C202146641CD2
S31508000BC042549DF80D202146641C42549DF8082085
S31508000BD02146641C42549DF809202046611CCCB26B
S31508000BE03E490A549DF804202046611CCCB23B4974
S31508000BF00A549DF805202046611CCCB237490A5490
S31508000C009DF800202046611CCCB234490A549DF850
S31508000C1001202046611CCCB230490A549DF8502068
S31508000C202046611CCCB22D490A549DF85120204615
S31508000C30611CCCB229490A549DF854202046611CEF
S31508000C40CCB226490A549DF855202046611CCCB2E0
S31508000C5022490A549DF854202046611CCCB21F49EB
S31508000C600A549DF855202046611CCCB21B490A54EB
S31508000C700025A946002009E01849095C2944CDB297
S31508000C8009EB050101F0FF09411CC8B2A042F3DBDC
S31508000C902046611CCCB211490D542046611CCCB2C9
S31508000CA00E4901F8009040F6FF7322460C4803F0FF
S31508000CB027FD04B0BDEC088BBDE8F08700000000F6
S31508000CC00000E03F00000000000034400000000083
S31508000CD000005940000000000000244018020020CF
S31508000CE0200600207047000000B52DED108BA1B03E
S31508000CF0B0EE40AAF0EE60AAB0EE41BAF0EE61FAA4
S31508000D00F0EE42BAB0EE62CAF0EE439AF0EE638AAB
S31508000D10B0EE449AFE4890ED000A20EE000A8DEDEA
S31508000D20110A90ED000AFB48D0ED000A20EE200AD1
S31508000D30F0EE40EAF64890ED000AF748D0ED000AD2
S31508000D4020EE200A8DED100AF14890ED000AF348CE
S31508000D50D0ED000A20EE200A8DED0F0AED4890ED41
S31508000D60000A20EE000AB0EE40FA90ED000AEA48C2
S31508000D70D0ED000A20EE200A8DED0E0AE54890ED2A
S31508000D80000AE648D0ED000A20EE200A8DED0D0A8D
S31508000D90E14890ED000A20EE000A8DED0C0A90ED70
S31508000DA0000ADE48D0ED000A20EE200A8DED0B0A77
S31508000DB090ED000A20EE000A8DED0A0A6FEEAF0AE2
S31508000DC04BEEAB0A4CEE0C0AB0EE600A08F01AF8C5
S31508000DD0B0EE408A2FEE880AF0EE40FA2BEE880A2B
S31508000DE0F0EE40BA2CEE080AB0EE40CA9DED0D0AA8
S31508000DF0DDED100A30EE600AF0EE000A20EE200A59
S31508000E008DED1A0A9DED0B0A3EEE800AF0EE000AF9
S31508000E1020EE200A8DED190A9DED110A70EE4F0A93
S31508000E209DED0C0A70EEC00A9DED0A0A30EE800AA6
S31508000E308DED180A69EEA90A48EEA80A49EE090ACC
S31508000E40B0EE600A07F0DEFFB0EE408A29EE880AA7
S31508000E50F0EE409A28EE880AF0EE408A29EE080A53
S31508000E60B0EE409AB0EE000A69EE800A9DED0C0AD3
S31508000E70B6EE001A31EE401A9DED0A0A31EE400A26
S31508000E8020EE800AF0EE000A68EEA01ADDED0E0AE2
S31508000E909DED0F1A70EEC10A01EEA00AF0EE000AE7
S31508000EA069EE201ADDED0D0A9DED101A70EE810A25
S31508000EB001EEA00A8DED1F0AB0EE000A29EE801A8F
S31508000EC09DED0E0ADDED0F0A30EE200A21EE000A2E
S31508000ED0F0EE000A28EEA01AF6EE000A70EECF1A17
S31508000EE0DDED0A0A71EEE00A01EE200AF0EE000ACC
S31508000EF029EE201ADDED0B0A70EEEE0A01EE200A45
S31508000F008DED1E0AB0EE000A29EE801A9DED0D0A37
S31508000F10DDED100A30EE600A21EE000AF0EE000A56
S31508000F2028EEA01ADDED0B0A70EEAE0A01EE200AD5
S31508000F30F0EE000A29EE201AF6EE000A70EECF1A35
S31508000F40DDED0C0A71EEE00A01EE200A8DED1D0AB0
S31508000F50DDED1F0A20EEA01ADDED1E0A00EEA01A2E
S31508000F60B0EE410A07F0D4F98DED1B0A9DED1D0A76
S31508000F708DED1C0A9DED1B0AF0EE000A20EE201AE4
S31508000F80DDED0E0A9DED0F0A30EE800A61EE000ACD
S31508000F909DED1C0AB0EE001A60EE011A9DED0D0AD1
S31508000FA09DED101A30EE410A41EE800ACDED170A82
S31508000FB09DED1B0AF0EE000A60EE200AB6EE000A66
S31508000FC030EE4F1A9DED0A0A31EE400A60EE800AAD
S31508000FD09DED1C0AB0EE001A20EE011A9DED0B0AD3
S31508000FE03EEE800A41EE000ACDED160A9DED1B0A7B
S31508000FF0F0EE000A60EE200A9DED0B0A30EE6E0A4E
S3150800100060EE800A9DED1C0AB0EE001A20EE011A69
S31508001010B6EE000A70EE4F1A9DED0C0A31EEC00AC4
S3150800102041EE000ACDED150A9DED180A6BEE800A11
S315080010309DED190A4CEE400A9DED150A28EE801A18
S315080010409DED160A09EE401A30EE810A8DED140A56
S315080010509DED1A0A2CEE000ADDED180A0FEEE00ADD
S31508001060DDED170A29EE201ADDED150A09EEE01A5C
S3150800107030EE010A8DED130A9DED190A6FEE800A0E
S315080010809DED1A0A4BEEC00A9DED160A29EE801A46
S315080010909DED170A08EEC01A30EE810A8DED120A88
S315080010A09FED1F0A1F4880ED000A9DED140AB5EE54
S315080010B0C00AF1EE10FA7CD09DED130AB5EEC00A0F
S315080010C0F1EE10FA7FD09DED120AB5EEC00AF1EEE8
S315080010D010FA78D09DED140A1348D0ED000A60EE98
S315080010E0200A104890ED001A104890ED000A00EE0C
S315080010F0810A80ED000A9DED130A0B48D0ED000A1F
S3150800110060EE200A074890ED001A094812E0000030
S31508001110880000208C000020900000209400002009
S315080011200AD7A33B800000207C00002098000020FE
S315080011309C00002090ED000A00EE810A80ED000A6E
S315080011409DED120ADD48D0ED000A60EE200ADC4863
S3150800115090ED001ADB4890ED000A00EE810A80ED5A
S31508001160000AD94890ED001A9DED140AF0EE4A0AD5
S3150800117041EE000AD54890ED000A30EE800AB0EE3E
S3150800118040AAD14890ED001A9DED130AF0EE6A0ABE
S3150800119041EE000ACE4890ED000A30EE800AF0EEE5
S315080011A040AAC94890ED001A9DED120AF0EE4B0AC6
S315080011B000E008E041EE000AC24890ED000A30EE71
S315080011C0800AB0EE40BAC348D0ED00CAC24890EDD6
S315080011D000DAC248D0ED00DAC14890ED00EAB1EE77
S315080011E04D0A20EE0A0A0DEEEA0A0EEE4B0AB4483C
S315080011F090ED001AF0EE6C0A40EE010AB548C0ED13
S31508001200000A2CEE8A0A0DEE8B0A0EEE6A0AAC4824
S3150800121090ED001AF0EE4D0A40EE010AAE48C0ED18
S31508001220000A2CEEAA0A0DEE4B0A0EEE0A0AA4488C
S3150800123090ED001AF0EE6D0A40EE010AA748C0EDDF
S31508001240000A2CEE8B0A0DEE2A0A0DEECA0A9C48F5
S3150800125090ED001AF0EE4E0A40EE010AA048C0EDE5
S31508001260000A9C48D0ED000A60EEA00A9A4890ED64
S31508001270001AD0ED001A41EE210A984890ED001A9E
S31508001280D0ED001A41EE210A954890ED001AD0EDEE
S31508001290001A41EE210AB0EE600A07F0B3FDB0EE7F
S315080012A0408A8C4890ED000A20EE080A80ED000A74
S315080012B0894890ED000A20EE080A80ED000A874862
S315080012C090ED000A20EE080A80ED000A844890EDA9
S315080012D0000A20EE080A80ED000A7E4890ED000A12
S315080012E07E48D0ED000A20EE200A7B48D0ED000AA1
S315080012F07B4890ED001A00EEC10AF0EE000A20EED7
S31508001300200A10EE101A0846FFF7CFF9CDE90401B6
S315080013109DED040B06F020FB8DED060B9FED710B82
S3150800132053EC102B9DED060B51EC100BFFF7ACF8A8
S31508001330CDE908019DED080B51EC100BFFF7E0F91C
S315080013406A498860634890ED000A20EE000A624800
S31508001350D0ED000A90ED001A00EEC10A5F48D0ED04
S31508001360000A90ED001A00EEC10A5D48D0ED000AA9
S3150800137090ED001A00EE810A10EE101A0846FFF7E3
S3150800138094F9CDE90201534890ED000A5248D0ED90
S31508001390000A20EE200A5148D0ED000A504890ED88
S315080013A0001A00EE810AF0EE000A20EE200A10EE7E
S315080013B0101A0846FFF779F9CDE900019DED021BE1
S315080013C09DED000B06F0E4FD8DED040B9DED040B81
S315080013D051EC100B81F000419FED420B53EC102BA2
S315080013E0CDE906019DED060B51EC100BFFF74CF805
S315080013F0CDE908019DED080B51EC100BFFF780F9BC
S315080014003A494860334890ED000A20EE000A32480F
S31508001410D0ED000A90ED001A00EE810A2F48D0EDB3
S31508001420000A90ED001A00EEC10A2D48D0ED000A18
S3150800143090ED001A00EEC10A10EE101A0846FFF7E2
S3150800144034F9CDE90401234890ED000A2448D0ED8B
S31508001450000A20EE200A2048D0ED000A1F4890ED29
S31508001460001A00EE810AF0EE000A20EE200A10EEBD
S31508001470101A0846FFF719F9CDE902019DED041B7C
S315080014809DED020B06F084FD8DED060B9FED150B09
S3150800149053EC102B9DED060B51EC100BFEF7F4FFE9
S315080014A0CDE908019DED080B51EC100BFFF728F963
S315080014B00E49086021B0BDEC108B00BD7C000020F1
S315080014C080000020A000002078000020980000205E
S315080014D09C000020880000208C000020900000203E
S315080014E09400002000000020DCA54C406403002086
S315080014F000BFFEE7704772B600BFFEE710B503F0FF
S315080015008AFC02223721682003F0DEFD00226A21C8
S31508001510682003F0D9FDC82000F018FB03F05AF93B
S315080015200348006800F006F800F00AF910BD00004C
S315080015300001002010B50446102007F001FD2060C8
S31508001540102007F0FDFC6060102007F0F9FCA06091
S31508001550082007F0F5FCE060302007F0F1FC216870
S315080015600860302007F0ECFC61680860302007F05E
S31508001570E7FCA16808609FED6F0A2068006880EDA7
S31508001580000A9FED6C0A2068006880ED000A9FED4E
S31508001590690A2068006880ED000AB7EE000A20682C
S315080015A0006880ED030AB7EE000A2068006880ED3F
S315080015B0040AB7EE000A2068006880ED050A9FED68
S315080015C05D0A2068006880ED060A9FED5A0A2068C1
S315080015D0006880ED070A9FED570A2068006880EDCD
S315080015E0080A9FED540A2068006880ED090A9FEDF5
S315080015F0510A2068006880ED0A0A9FED4E0A2068A5
S31508001600006880ED0B0A4C48216888609FED490AFE
S315080016106068006880ED000A9FED460A6068006809
S3150800162080ED010A9FED430A6068006880ED020AB2
S31508001630B7EE000A6068006880ED030AB7EE000A94
S315080016406068006880ED040AB7EE000A6068006802
S3150800165080ED050A9FED370A6068006880ED060A86
S315080016609FED340A6068006880ED070A9FED310A2D
S315080016706068006880ED080A9FED2E0A60680068B9
S3150800168080ED090A9FED2B0A6068006880ED0A0A5A
S315080016909FED280A6068006880ED0B0A2748616894
S315080016A088609FED240AA068006880ED000A9FED17
S315080016B0210AA068006880ED010A9FED1E0AA0684D
S315080016C0006880ED020AB7EE000AA068006880ED9F
S315080016D0030AB7EE000AA068006880ED040AB7EEB0
S315080016E0000AA068006880ED050A9FED120AA06846
S315080016F0006880ED060A9FED0F0AA068006880ED75
S31508001700070A9FED0C0AA068006880ED080A9FED9D
S31508001710090AA068006880ED090A9FED060AA06814
S31508001720006880ED0A0A9FED030AA068006880ED4C
S315080017300B0A10BD000000009B4E0008014F000870
S3150800174010B5002400BF50E000F0B6F85148006814
S315080017500068006890ED060A4F48D0ED000A30EEA2
S31508001760200A80ED000A4B4800680068006890ED82
S31508001770070A4A48D0ED000A30EE200A80ED000A32
S31508001780444800680068006890ED080A4448D0EDAF
S31508001790000A30EE200A80ED000A3E4800684068DC
S315080017A0006890ED060A3F48D0ED000A30EE200AA0
S315080017B080ED000A374800684068006890ED070A1F
S315080017C03948D0ED000A30EE200A80ED000A31488B
S315080017D000684068006890ED080A3448D0ED000AB1
S315080017E030EE200A80ED000A641C642CACDB2A4823
S315080017F090ED000ADFED2E0A80EE201A25480068D3
S315080018000068006880ED001A244890ED000ADFEDB4
S31508001810280A80EE201A1F4800680068006880EDD4
S31508001820011A1F4890ED000ADFED210A80EE201A02
S315080018309FED200A31EE400A1648006800680068E5
S3150800184080ED020A174890ED000ADFED190A80EECE
S31508001850201A104800684068006880ED001A12488F
S3150800186090ED000ADFED120A80EE201A094800689A
S315080018704068006880ED011A0C4890ED000ADFED1B
S315080018800C0A80EE201A034800684068006880ED5C
S31508001890021A10BD000100200401002008010020E2
S315080018A00C0100201001002014010020180100205E
S315080018B00000C8420000804610B56C4909684968AE
S315080018C0086803F01DFB694800684068006890EDE9
S315080018D0060A6648006840680068D0ED000A30EEDF
S315080018E0600A6248006840680068D0ED030A20EE86
S315080018F0200ADFED5F0A80EE201A5C48006840681F
S31508001900006880ED091A594800684068006890ED3B
S31508001910070A5648006840680068D0ED010A30EEAC
S31508001920600A5248006840680068D0ED040A20EE54
S31508001930200ADFED4F0A80EE201A4C4800684068FE
S31508001940006880ED0A1A494800684068006890ED0A
S31508001950080A4648006840680068D0ED020A30EE7A
S31508001960600A4248006840680068D0ED050A20EE23
S31508001970200ADFED3F0A80EE201A3C4800684068DE
S31508001980006880ED0B1A394909680968086803F088
S3150800199084FA364800680068006890ED060A3348FD
S315080019A0006800680068D0ED000A30EE600A2F482B
S315080019B0006800680068D0ED030A20EE200ADFED13
S315080019C02D0A80EE201A294800680068006880ED14
S315080019D0091A264800680068006890ED070A234837
S315080019E0006800680068D0ED010A30EE600A1F48FA
S315080019F0006800680068D0ED040A20EE200ADFEDD2
S31508001A001D0A80EE201A194800680068006880EDF3
S31508001A100A1A164800680068006890ED080A134814
S31508001A20006800680068D0ED020A30EE600A0F48C8
S31508001A30006800680068D0ED050A20EE200ADFED90
S31508001A400D0A80EE201A094800680068006880EDD3
S31508001A500B1A064909688968086804F033FF0349C0
S31508001A600968C86803F080FA10BD0000000100206C
S31508001A706F120343022FD14470B50446A56D00F0DA
S31508001A8063F9064694F83500022808D08020606578
S31508001A9000BF002084F8340000BF012070BD206814
S31508001AA0006820F01600216808602068406920F068
S31508001AB0800021684861206C08B9A06C28B12068AC
S31508001AC0006820F00800216808602068006820F097
S31508001AD001002168086010E000F036F9801B05282F
S31508001AE00BD920206065032084F8350000BF00204C
S31508001AF084F8340000BF0320D0E72068006800F0AF
S31508001B0001000028E8D194F85C103F208840A860BE
S31508001B10012084F8350000BF002084F8340000BF97
S31508001B2000BFBBE7014691F83500022803D08020A4
S31508001B30486501207047052081F835000868006867
S31508001B4020F001000A6810600020F3E770B504462B
S31508001B5000F0FAF806462546681C10B104480078D5
S31508001B60054400BF00F0F0F8801BA842FAD370BD08
S31508001B7044010020F8B502460B4600250024002043
S31508001B800021C6E0012606FA01F51E6806EA0504E4
S31508001B90AC4274D11E7906F00306012E04D01E79D4
S31508001BA006F00306022E13D190684F000326BE40A6
S31508001BB0B0434F00DE68BE4030439060506801264F
S31508001BC08E40B0431E79C6F300168E4030435060EF
S31508001BD01E7906F00306032E09D0D0684F000326A7
S31508001BE0BE40B0434F009E68BE403043D0601E7969
S31508001BF006F00306022E13D1CF0802F1200656F886
S31508001C0027004E07F70E0F26BE40B0434F07FF0EBC
S31508001C101E69BE403043CF0802F1200646F8270069
S31508001C2010684F000326BE40B0431E7906F003062F
S31508001C304F00BE40304310605E6806F44036002E02
S31508001C4066D000BF00260096344E366846F48046B5
S31508001C50324F3E603E46366806F48046009600BF20
S31508001C6000BF2F4E8F0856F827008E07370F0F260E
S31508001C70BE40B0432B4EB24202D1002615E047E0E3
S31508001C80294EB24201D101260FE0284EB24201D1B7
S31508001C9002260AE0264EB24201D1032605E0254E69
S31508001CA0B24201D1042600E007268F073F0FBE4047
S31508001CB030431B4E8F0846F827001F4E3068A04356
S31508001CC05E6806F4803606B120431B4E3060361D2A
S31508001CD03068A0435E6806F4003606B12043164E07
S31508001CE0361D3060361D3068A0435E6806F48016DF
S31508001CF006B12043104E08363060361D3068A043C2
S31508001D005E6806F4001606B120430B4E0C363060AA
S31508001D10491C1029FFF436AFF8BD000044380240CC
S31508001D200838014000000240000402400008024052
S31508001D30000C024000100240003C01400AB18161DB
S31508001D4001E00B0483617047014800687047000092
S31508001D503C01002070B504460CB9012070BD94F80A
S31508001D603D0028B9002084F83C00204600F006FB18
S31508001D70242084F83D002068006820F001002168CE
S31508001D8008602068006840F4004021680860206800
S31508001D90006820F400402168086000F05DFD0546F3
S31508001DA05C496068884206D85B48854201D20120B2
S31508001DB007E0002005E05948854201D2012000E0ED
S31508001DC00020012800D1C9E75548B5FBF0F6206880
S31508001DD0406820F03F003043216848604D496068FC
S31508001DE0884201D8701C07E04FF4967070434FF490
S31508001DF07A71B0FBF1F0401C2168096A21F03F01B5
S31508001E0008432168086243496068884214D8681EF6
S31508001E1061684900B0FBF1F0401CC0F30B000428D0
S31508001E2001D204203DE0681E61684900B0FBF1F06C
S31508001E30401CC0F30B0034E0A06838B9681E61681E
S31508001E4001EB4101B0FBF1F0401C0AE0681E616835
S31508001E5001EBC10202EB0111B0FBF1F0401C40F4AA
S31508001E608040C0F30B0008B901201AE0A06848B901
S31508001E70681E616801EB4101B0FBF1F0401CC0F33C
S31508001E800B000CE0681E616801EBC10202EB011150
S31508001E90B0FBF1F0401CC0F30B0040F4804040F466
S31508001EA000402168C9694CF6FF72914308432168CE
S31508001EB0C861D4E9070108432168096821F0C0010F
S31508001EC0084321680860D4E9031008432168896833
S31508001ED048F2FF329143084321688860D4E9050136
S31508001EE008432168C96821F0FF0108432168C860D2
S31508001EF02068006840F0010021680860002020641E
S31508001F00202084F83D000020206384F83E0000BFAE
S31508001F1024E70000A086010080841E0000093D0019
S31508001F2040420F002DE9FC5F04460F46904699464D
S31508001F30DDE90CAB0E9EFFF707FF054694F83D005A
S31508001F40202870D119230122B0492046009502F0B5
S31508001F50F1FD10B10220BDE8FC9F00BF94F83C00DB
S31508001F60012801D10220F6E7012084F83C0000BFD1
S31508001F702068006800F0010028B92068006840F071
S31508001F800100216808602068006820F40060216864
S31508001F900860222084F83D00402084F83E00002096
S31508001FA02064C4F824A0A4F82AB0608D2085984837
S31508001FB0E0624B46424639462046CDE9006502F0C6
S31508001FC06BFC08B10120C6E7208D88B900BF002048
S31508001FD0019020684069019020688069019000BFDF
S31508001FE000BF2068006840F400702168086040E07F
S31508001FF0208D012818D12068006820F480602168A7
S31508002000086000BF002001902068406901902068A0
S315080020108069019000BF00BF2068006840F4007026
S315080020202168086025E0EFE0208D022816D1206897
S31508002030006820F48060216808602068006840F421
S3150800204000602168086000BF002001902068406990
S31508002050019020688069019000BF0AE000BF002057
S31508002060019020684069019020688069019000BF4E
S3150800207000BFBAE0208D03287ED8208D012815D10F
S315080020802A463146204602F0FAFD08B1012062E7E9
S3150800209020680069616A0870606A401C6062208D69
S315080020A0401E2085608D401E60859EE0208D02289A
S315080020B02AD13346002257492046009502F03AFDB8
S315080020C008B1012047E72068006840F400702168DD
S315080020D0086020680069616A0870606A401C60626E
S315080020E0208D401E2085608D401E60852068006911
S315080020F0616A0870606A401C6062208D401E2085F7
S31508002100608D401E608570E03346002241492046B6
S31508002110009502F00FFD08B101201CE72068006851
S3150800212020F480602168086020680069616A087088
S31508002130606A401C6062208D401E2085608D401EAE
S3150800214060853346002233492046009502F0F2FCAA
S3150800215008B10120FFE62068006840F40070216895
S31508002160086020680069616A0870606A401C6062DD
S31508002170208D401E208500E010E0608D401E6085A1
S3150800218020680069616A0870606A401C6062208D78
S31508002190401E2085608D401E608526E02A46314611
S315080021A0204602F06CFD08B10120D4E620680069DB
S315080021B0616A0870606A401C6062208D401E208536
S315080021C0608D401E608520684069C0F3800060B15C
S315080021D020680069616A0870606A401C6062208D28
S315080021E0401E2085608D401E6085208D00287FF466
S315080021F041AF202084F83D00002084F83E0000BF4F
S3150800220084F83C0000BFA6E60220A4E602001000FF
S315080022100000FFFF040001002DE9FC5F04460F469D
S3150800222090469946DDE90CAB0E9EFFF78DFD0546F7
S3150800223094F83D0020287DD1192301224D492046D6
S31508002240009502F077FC10B10220BDE8FC9F00BFA4
S3150800225094F83C00012801D10220F6E7012084F811
S315080022603C0000BF2068006800F0010028B920681B
S31508002270006840F00100216808602068006820F4C2
S31508002280006021680860212084F83D00402084F819
S315080022903E0000202064C4F824A0A4F82AB0608D6B
S315080022A020853548E0624B46424639462046CDE908
S315080022B0006502F0A1FB08B10120C6E731E02A4615
S315080022C03146204602F01BFD50B1206C042805D18A
S315080022D02068006840F40070216808600120B4E7AF
S315080022E0606A007821680861606A401C6062208D17
S315080022F0401E2085608D401E608520684069C0F3B9
S31508002300800070B1208D60B1606A0078216808612C
S31508002310606A401C6062208D401E2085608D401ECC
S315080023206085208D0028CAD12A463146204602F00B
S31508002330D3FB00E01CE050B1206C042805D12068CE
S31508002340006840F400702168086001207DE7206875
S31508002350006840F4007021680860202084F83D0079
S31508002360002084F83E0000BF84F83C0000BF6CE7FC
S3150800237002206AE7020010000000FFFF10B586B0D1
S315080023800446142101A8FDF7CDFF3C492068884280
S315080023902FD100BF002000903948006840F00200A5
S315080023A0374908600846006800F00200009000BF40
S315080023B000BFC02001901220029001200390032044
S315080023C004900420059001A92E48FFF7D3FB00BF0F
S315080023D0002000902A481030006840F40010284970
S315080023E0103108600846006800F40010009000BF2D
S315080023F041E02549206888423DD100BF0020009071
S315080024001F48006840F002001D4908600846006839
S3150800241000F00200009000BF00BF081501901220CE
S31508002420029001200390032004900420059001A93E
S315080024301448FFF79FFB0820019012200290012004
S315080024400390032004900920059001A90D48FFF781
S3150800245091FB00BF0020009009481030006840F446
S3150800246080000749103108600846006800F48000BB
S31508002470009000BF00BF06B010BD00000054004029
S315080024803038024000040240005800400348006803
S315080024900349097808440149086070473C0100204F
S315080024A04401002010B50D48006840F400700B493F
S315080024B008600846006840F48060086008460068BE
S315080024C040F480700860032000F0C8F8002000F08F
S315080024D007F800F04BF8002010BD0000003C024051
S315080024E070B588B00446002500260022214619202A
S315080024F000F076F8192000F063F800BF002001907C
S315080025001648006840F40030144908600846006818
S3150800251000F40030019000BF00BF02A903A800F034
S3150800252073F900F0A9F905460D48B5FBF0F0461E0B
S315080025300C480D49086040F2E7310B48C160466017
S3150800254000210161816000F09DFC20B9064800F079
S31508002550CDFC08B070BD0120FBE7000044380240FE
S3150800256040420F0000440140B804002008B500BFEF
S31508002570002000901148006840F480400F49086028
S315080025800846006800F48040009000BF00BF00BF06
S3150800259000200090081F006840F08050091F08605E
S315080025A00846006800F08050009000BF00BF002277
S315080025B00F21901E00F014F808BD000044380240B0
S315080025C001460846002809DB00F01F0301229A404D
S315080025D043099B0003F1E023C3F8002100BF7047BD
S315080025E02DE9F05F80460D461646002705F094F95A
S315080025F0074639462A46334601F00700C0F1070A5E
S31508002600BAF1040F02D94FF0040A01E0C0F1070A33
S31508002610D14600F1040ABAF1070F02D24FF0000AB8
S3150800262001E0A0F1030AD4464FF0010A0AFA09FAB2
S31508002630AAF1010A0AEA020A0AFA0CFA4FF0010B91
S315080026400BFA0CFBABF1010B0BEA030B4AEA0B0482
S315080026502146404605F068F9BDE8F09F00BF00F046
S315080026600702064B19684FF6FF031940044B0B4344
S3150800267043EA0221014B196000BF70470CED00E0E8
S315080026800000FA0570B504460D460CB9012070BD68
S315080026905848006800F00700A84209D255490D704D
S315080026A00846006800F00700A84201D00120EEE7BE
S315080026B0207800F0020002281DD1207800F00400DE
S315080026C0042805D14C48006840F4E0504A4908609F
S315080026D0207800F00800082805D14748006840F42B
S315080026E06040454908604448006820F0F000A16849
S315080026F0084341490860207800F00100A8B36068E3
S31508002700012807D13C4808380068C0F34040B8B9EA
S315080027100120BCE76068022802D06068032807D158
S31508002720354808380068C0F3406048B90120AEE76C
S31508002730314808380068C0F3400008B90120A6E708
S315080027402D48006820F00300616808432A4908609C
S31508002750FFF7FAFA064609E0FFF7F6FA801B41F298
S315080027608831884202D9032091E707E022480068A9
S3150800277000F00C006168B0EB810FEDD11D480068D0
S3150800278000F00700A84209D91A490D7008460068E2
S3150800279000F00700A84201D0012078E7207800F071
S315080027A00400042807D11448006820F4E050E168C2
S315080027B0084311490860207800F00800082808D165
S315080027C00D48006820F46040216940EAC1000A49C2
S315080027D0086000F061F808490968C1F30311074A5F
S315080027E0515CC8400649086006480068FFF778FE4D
S315080027F000204CE7003C024008380240C4B60008F6
S31508002800E0000020400100200F2202600D4A1268F5
S3150800281002F0030242600B4A126802F0F00282607C
S31508002820084A126802F4E052C260064A126802F4C4
S315080028306042D2080261044A126802F007020A607E
S315080028407047000008380240003C02400148006812
S3150800285070470000E000002000B5FFF7F7FF0449C5
S315080028600968C1F38221034A515CC84000BD0000D3
S3150800287008380240D4B6000800B5FFF7E7FF044958
S315080028800968C1F34231034A515CC84000BD0000E3
S3150800289008380240D4B600082DE9F0470024002580
S315080028A00026A1462548006800F00C0020B104283F
S315080028B005D008283AD105E0DFF8849039E0DFF83A
S315080028C0849036E01D48001F006800F03F041B484E
S315080028D0001F006800F4800078B11A481749091FDC
S315080028E00968C1F38811A0FB01700146224600233E
S315080028F03846FDF7CDFC05460EE011480F49091F7D
S315080029000968C1F38811A0FB01700146224600231D
S315080029103846FDF7BDFC05460848001F0068C0F3A9
S315080029200140401C4600B5FBF6F902E0DFF81090BE
S3150800293000BF00BF4846BDE8F087000008380240DF
S315080029400024F400001BB700F8B504460CB90120B2
S31508002950F8BD207800F00100002874D0F948006816
S3150800296000F00C0004280DD0F648006800F00C00B2
S31508002970082813D1F348001F006800F48000B0F55A
S31508002980800F0BD1EF4808380068C0F34040002894
S3150800299059D06068002856D10120D9E700BF606881
S315080029A0B0F5803F08D1E7480838006840F4803021
S315080029B0E449083908601EE06068B0F5A02F0DD11B
S315080029C0E0480838006840F48020DE490839086085
S315080029D00846006840F4803008600CE0D94808389A
S315080029E0006820F48030D74908390860084600682E
S315080029F020F48020086000BF606890B1FFF7A4F952
S31508002A00054606E0FFF7A0F9401B642801D9032014
S31508002A109EE7CC4808380068C0F340400028F1D04B
S31508002A2011E0FFF791F9054606E0FFF78DF9401B1F
S31508002A30642801D903208BE7C24808380068C0F328
S31508002A4040400028F1D1207800F0020002285FD12A
S31508002A50BC48006800F00C0058B1BA48006800F09D
S31508002A600C0008281CD1B748001F006800F4800035
S31508002A70B0B9B44808380068C0F3400020B1E0682F
S31508002A80012801D0012063E7AE480838006820F025
S31508002A90F800216940EAC100AA490839086037E008
S31508002AA0E06800B30120A8490860FFF74DF905461C
S31508002AB006E0FFF749F9401B022801D9032047E73A
S31508002AC0A04808380068C0F340000028F1D09D48A7
S31508002AD00838006820F0F800216940EAC1009949E1
S31508002AE00839086014E0002097490860FFF72CF9B8
S31508002AF0054606E0FFF728F9401B022801D90320FE
S31508002B0026E7904808380068C0F340000028F1D14D
S31508002B10207800F0080008282CD16069A8B10120A7
S31508002B208A490860FFF710F9054606E0FFF70CF931
S31508002B30401B022801D903200AE782486C30006846
S31508002B40C0F340000028F1D014E000207F49086057
S31508002B50FFF7FAF8054606E0FFF7F6F8401B0228E5
S31508002B6001D90320F4E677486C300068C0F34000CA
S31508002B700028F1D1207800F00400042870D100273D
S31508002B8070483830006800F0805090B900BF0020C7
S31508002B9000906C483830006840F0805069493831F8
S31508002BA008600846006800F08050009000BF00BF2B
S31508002BB001276748006800F48070B0B96448006867
S31508002BC040F4807062490860FFF7BEF8054606E0E3
S31508002BD0FFF7BAF8401B022801D90320B8E65C487B
S31508002BE0006800F480700028F2D000BFA0680128B1
S31508002BF008D154486830006840F0010051496831EE
S31508002C0008601DE0A06805280DD14E4868300068A8
S31508002C1040F004004B49683108600846006840F0F7
S31508002C20010008600CE047486830006820F00100A1
S31508002C304449683108600846006820F004000860C6
S31508002C4000BFA068A8B1FFF77FF8054609E0FFF7BF
S31508002C507BF8401B41F28831884202D9032077E687
S31508002C6026E0384868300068C0F340000028EED0F7
S31508002C7013E0FFF769F8054608E0FFF765F8401B1B
S31508002C8041F28831884201D9032061E62D4868302F
S31508002C900068C0F340000028EFD1012F07D129486A
S31508002CA03830006820F0805026493831086000BF67
S31508002CB0A069002845D02348006800F00C000828C1
S31508002CC05DD0A069022845D100201F490866FFF794
S31508002CD03BF8054606E0FFF737F8401B022801D9FE
S31508002CE0032035E6174808380068C0F34060002816
S31508002CF0F1D1D4E907010843616A40EA811101224A
S31508002D00A06AC2EB500041EA00412C20005D41EA6E
S31508002D1000600C49091F086001200B490866FFF787
S31508002D2013F8054606E0FFF70FF8401B022801D9FD
S31508002D3003200DE6034808380068C0F34060002801
S31508002D40F1D049E00838024000004742800E474269
S31508002D5000700040002021490866FEF7F5FF054689
S31508002D6006E0FEF7F1FF401B022801D90320EFE534
S31508002D701B480068C0F340600028F2D12CE0A06927
S31508002D80012800D1E4E51648001D0668A069012857
S31508002D9020D006F48001E06981421BD106F03F018C
S31508002DA0206A814216D147F6C0703040616AB0EB9E
S31508002DB0811F0FD106F440310122A06AC2EB5000F0
S31508002DC0B1EB004F06D106F070612C20005DB1EB27
S31508002DD0006F01D00120BBE50020B9E5000047429D
S31508002DE0003802407047704730B502460B4600BFB0
S31508002DF092F83C00012801D1022030BD012082F85A
S31508002E003C0000BF022082F83D0010684468106844
S31508002E10816824F070041868044310684460144DEF
S31508002E201068A84213D01068B0F1804F0FD0114D2A
S31508002E301068A8420BD0104D1068A84207D00F4D55
S31508002E401068A84203D00E4D1068A84205D121F09B
S31508002E5080015868014310688160012082F83D00AE
S31508002E6000BF002082F83C0000BF00BFC5E7000095
S31508002E70000001400004004000080040000C00402B
S31508002E800040014010B504460CB9012010BD94F865
S31508002E903D0028B9002084F83C00204600F025F8BB
S31508002EA0022084F83D00211D206803F00DFE012054
S31508002EB084F8460000BF84F83E0001213F200155F2
S31508002EC0402001554120015500BF00BF012084F86C
S31508002ED0420043200155442001554520015500BFB5
S31508002EE0012084F83D000020D0E77047014691F89C
S31508002EF03D00012801D001207047022081F83D00DD
S31508002F000868C06840F001000B68D860164B08686E
S31508002F10984213D00868B0F1804F0FD0134B086859
S31508002F2098420BD0124B0868984207D0114B086894
S31508002F30984203D0104B086898420CD108688068FC
S31508002F4000F00702062A0CD00868006840F0010065
S31508002F500B68186005E00868006840F001000B6817
S31508002F6018600020C8E70000000001400004004087
S31508002F7000080040000C00400040014010B52DED4F
S31508002F80028B0446FC49206888426ED10020FB4922
S31508002F90086010E1207FFA49F84A1268895C88427D
S31508002FA074D1F84800680028FAD10120F64908606B
S31508002FB0F648F2490968405C10B1012865D166E017
S31508002FC0002021684862F248EC490968405C30B93B
S31508002FD02068006A20F00A00216808621FE0EC48B1
S31508002FE0E6490968405C042806D12068006A20F092
S31508002FF0A0002168086212E0E548E0490968405CDB
S31508003000082806D12068006A20F420602168086232
S3150800301005E02068006A20F4204021680862DC4840
S31508003020D6490968405C30B92068006A40F0020059
S315080030302168086220E0D648D0490968405C04281F
S3150800304006D12068006A40F020002168086213E073
S31508003050CF48CA490968405C082807D12068006A31
S3150800306040F400702168086206E0AAE02068006A59
S3150800307040F4005021680862C448C0490968405CA9
S31508003080401CC249BD4A1268885487E087E0C04898
S31508003090BA4A1268815C204600F0D0FFBD49B74A9B
S315080030A0126841F822000846B449096850F8210018
S315080030B040F6C41188421BD8B648B049096850F88A
S315080030C0210000EE100AB8EE400ADFEDB30A30EE32
S315080030D0600AF2EE040A30EE200ADFEDAF0A80EE4F
S315080030E0201AAE48A549096800EB810080ED001A50
S315080030F0A748A2490968405C30B92068006A20F0F0
S315080031000A00216808621FE0A1489C490968405CDA
S31508003110042806D12068006A20F0A0002168086209
S3150800312012E09B4895490968405C082806D1206842
S31508003130006A20F420602168086205E02068006AB9
S3150800314020F420402168086291488C490968405C4F
S3150800315020B92068006A2168086219E08C48874906
S315080031600968405C042804D12068006A216808625E
S315080031700EE0874881490968405C082804D1206820
S31508003180006A2168086203E02068006A216808620C
S3150800319000207E49794A1268885400BF00BF7A48E1
S315080031A0006818B100207849086009E0734800688B
S315080031B0401C72490860714800680228FFF6EAAEAA
S315080031C083E22068B0F1804F75D102206B49086010
S315080031D034E1217F69480068801E694A105C814293
S315080031E06AD1684800680028FAD101206649086053
S315080031F0664862490968405C10B101286DD16DE0E6
S315080032000020216848625D480068801E6049085CA5
S3150800321030B92068006A20F00A002168086221E0B7
S3150800322056480068801E5A49085C042806D120685A
S31508003230006A20F0A0002168086213E04F48006881
S31508003240801E5349085C082806D12068006A20F4C5
S3150800325020602168086205E02068006A20F42040A2
S315080032602168086245480068801E4949085C30B9EB
S315080032702068006A40F002002168086223E03F489F
S315080032800068801E4249085C042806D12068006A46
S3150800329040F020002168086215E038480068801E62
S315080032A03B49085C082808D12068006A40F4007089
S315080032B02168086207E0C7E0B4E02068006A40F4C5
S315080032C000502168086231482C490968405C401C56
S315080032D0C1B22E48294A12688154A2E027480068DC
S315080032E0801E2B4A115C204600F0A8FE2949234A75
S315080032F0126841F8220008462049096850F821005A
S3150800330040F6C41188421BD822481C49096850F85F
S31508003310210000EE100AB8EE400ADFED1F0A30EE73
S31508003320600AF2EE040A30EE200ADFED1B0A80EE90
S31508003330201A1A481149096800EB810080ED001A25
S315080033400E480068801E1249085C30B92068006A79
S3150800335020F00A002168086236E008480068801EE6
S315080033600B49085C04281BD12068006A20F0A000DD
S315080033702168086228E0000000000140F4000020EF
S31508003380E4000020FC000020F8000020EC000020EB
S31508003390E8000020EC06002000007A44040700201C
S315080033A0CB480068801ECB49085C082806D12068EF
S315080033B0006A20F420602168086205E02068006A37
S315080033C020F4204021680862C1480068801EC1496F
S315080033D0085C20B92068006A216808621BE0BC48BE
S315080033E00068801EBB49085C042804D12068006A6E
S315080033F0216808620FE0B6480068801EB549085C77
S31508003400082804D12068006A2168086203E0206859
S31508003410006A216808620020AF49AD4A12688854DC
S3150800342000BF00BFAD48006818B10020AB4908606E
S3150800343009E0A7480068401CA5490860A448006838
S315080034400428FFF6C6AE40E1A54920688842FAD1AD
S3150800345004209F49086032E1217F9D480068801E4C
S31508003460A04A105C814276D101209C4908609A489E
S3150800347097490968405C10B101286BD16CE00020BF
S315080034802168486292480068801E9249085C30B9F3
S315080034902068006A20F00A002168086221E08C484A
S315080034A00068801E8B49085C042806D12068006ADB
S315080034B020F0A0002168086213E085480068801E95
S315080034C08449085C082806D12068006A20F4206030
S315080034D02168086205E02068006A20F42040216817
S315080034E008627B480068801E7A49085C30B9206803
S315080034F0006A40F002002168086221E0744800680A
S31508003500801E7449085C042806D12068006A40F0C9
S3150800351020002168086213E06D480068801E6D4926
S31508003520085C082806D12068006A40F40070216803
S31508003530086205E02068006A40F4005021680862C5
S31508003540654863490968405C401CC1B26248604AE4
S3150800355012688154A6E0A6E05D480068801E5D4AB0
S31508003560115C204600F06AFD5F49594A126841F825
S31508003570220008465649096850F8210040F6C41149
S3150800358088421BD858485249096850F8210000EE6D
S31508003590100AB8EE400A5FED800A30EE600AF2EED5
S315080035A0040A30EE200A5FED840A80EE201A4F489E
S315080035B04749096800EB810080ED001A4B4890EDF9
S315080035C0040A10EE101A0846FDF76FF841EC180BBE
S315080035D09FED470B53EC102BFDF77AF803D8012023
S315080035E04549086002E000204349086038480068F9
S315080035F0801E3849085C30B92068006A20F00A0045
S315080036002168086221E032480068801E3149085C5A
S31508003610042806D12068006A20F0A0002168086204
S3150800362013E02B480068801E2A49085C082806D142
S315080036302068006A20F420602168086205E0206896
S31508003640006A20F420402168086221480068801E2C
S315080036502049085C20B92068006A216808621BE0D6
S315080036601B480068801E1B49085C042804D1206892
S31508003670006A216808620FE015480068801E15492F
S31508003680085C082804D12068006A2168086203E0FB
S315080036902068006A2168086200200F490C4A1268EF
S315080036A0885400BF00BF0D48006818B100200B49B8
S315080036B0086009E006480068401C05490860044897
S315080036C000680628FFF6C8AE00BFBDEC028B10BD29
S315080036D0F4000020E8000020EC000020F80000209C
S315080036E000080040E4000020EC0600200407002043
S315080036F0295C8FC2F528AC3FFC0000202DE9F0417B
S3150800370004460D461646002700BF94F83C000128DB
S3150800371002D10220BDE8F081012084F83C0000BFF8
S3150800372096B9EB68D5E90012206803F0EDFA20682F
S31508003730806920F00C002168886120688069A96882
S3150800374008432168886141E0042E13D1EB68D5E966
S315080037500012206803F016FB2068806920F4406098
S315080037602168886120688069A96840EA0120216883
S3150800377088612BE0082E12D1EB68D5E90012206883
S3150800378003F01DFB2068C06920F00C002168C861A1
S315080037902068C069A96808432168C86116E00C2E2C
S315080037A013D1EB68D5E90012206803F024FB2068E2
S315080037B0C06920F440602168C8612068C069A968AA
S315080037C040EA01202168C86100E0012700BF002007
S315080037D084F83C0000BF38469CE710B504460CB98F
S315080037E0012010BD94F83D0028B9002084F83C005B
S315080037F0204600F025F8022084F83D00211D2068A7
S3150800380003F062F9012084F8460000BF84F83E0000
S3150800381001213F200155402001554120015500BF97
S3150800382000BF012084F84200432001554420015579
S315080038304520015500BF012084F83D000020D0E74F
S3150800384010B586B00446142101A8FCF76BFD614942
S315080038502068884240D100BF002000905E4800687A
S3150800386040F001005C4908600846006800F0010065
S31508003870009000BF00BF00BF0020009056481438D3
S31508003880006840F001005449143908600846006889
S3150800389000F00100009000BF00BF4FF44070019097
S315080038A0022002900020039004900120059001A9AF
S315080038B04A48FEF75FF9002211461920FEF790FEE6
S315080038C01920FEF77DFE002205211B20FEF788FE43
S315080038D01B20FEF775FE7BE02068B0F1804F39D1DA
S315080038E000BF002000903C48001F006840F001001F
S315080038F03949091F08600846006800F00100009071
S3150800390000BF00BF00BF002000903348143800688D
S3150800391040F001003049143908600846006800F094
S315080039200100009000BF00BF032001900220029012
S315080039300020039004900120059001A92748FEF76E
S3150800394019F9002205211C20FEF74AFE1C20FEF765
S3150800395037FE3DE022492068884239D100BF002061
S3150800396000901D48001F006840F004001A49091F0E
S3150800397008600846006800F00400009000BF00BF19
S3150800398000BF0020009014481438006840F0020078
S315080039901149143908600846006800F002000090D2
S315080039A000BF00BF4FF44070019002200290002033
S315080039B0039004900220059001A90A48FEF7DAF858
S315080039C0002205211E20FEF70BFE1E20FEF7F8FD3D
S315080039D006B010BD00000140443802400000024015
S315080039E000080040000402402DE9F04304460D4655
S315080039F0002615B994F83E000BE0042D02D13F20AD
S31508003A00005D06E0082D02D14020005D01E041205E
S31508003A10005D804615B994F842000BE0042D02D1EA
S31508003A204320005D06E0082D02D14420005D01E038
S31508003A304520005D8146B8F1010F02D1B9F1010FA9
S31508003A4002D00120BDE8F0831DB9022084F83E00AB
S31508003A500EE0042D03D102213F20015508E0082D70
S31508003A6003D102214020015502E0022141200155DF
S31508003A701DB9022084F842000EE0042D03D102216C
S31508003A804320015508E0082D03D1022144200155A1
S31508003A9002E002214520015535B1042D0BD0082D31
S31508003AA010D00C2D1CD114E02068C06840F002002C
S31508003AB02168C86016E02068C06840F004002168E4
S31508003AC0C8600FE02068C06840F008002168C86038
S31508003AD008E02068C06840F010002168C86001E06E
S31508003AE0012600BF00BF46BB01222946206803F015
S31508003AF03DF816492068884213D02068B0F1804FF7
S31508003B000FD01349206888420BD012492068884292
S31508003B1007D011492068884203D010492068884296
S31508003B200CD12068806800F00707062F0CD02068A3
S31508003B30006840F001002168086005E02068006818
S31508003B4040F001002168086030467BE7000001402C
S31508003B500004004000080040000C004000400140FE
S31508003B6010B5044620680069C0F34000D8B1206843
S31508003B70C068C0F34000B0B16FF002002168086168
S31508003B80012020772068806900F0030018B12046DC
S31508003B90FFF7F4F905E0204600F0FCF8204600F0AF
S31508003BA0C9F90020207720680069C0F38000D8B1E1
S31508003BB02068C068C0F38000B0B16FF004002168C7
S31508003BC00861022020772068806900F4407018B1E7
S31508003BD02046FFF7D3F905E0204600F0DBF820463B
S31508003BE000F0A8F90020207720680069C0F3C0001B
S31508003BF0D8B12068C068C0F3C000B0B16FF0080043
S31508003C0021680861042020772068C06900F0030055
S31508003C1018B12046FFF7B2F905E0204600F0BAF8D9
S31508003C20204600F087F90020207720680069C0F355
S31508003C300010D8B12068C068C0F30010B0B16FF0AA
S31508003C40100021680861082020772068C06900F400
S31508003C50407018B12046FFF791F905E0204600F0BC
S31508003C6099F8204600F066F9002020772068006958
S31508003C7000F0010058B12068C06800F0010030B1BA
S31508003C806FF0010021680861204600F0CBF9206832
S31508003C900069C0F3C01058B12068C068C0F3C010EE
S31508003CA030B16FF08000216808612046FFF79AF866
S31508003CB020680069C0F3801058B12068C068C0F356
S31508003CC0801030B16FF0400021680861204600F08E
S31508003CD0CEF920680069C0F3401058B12068C06862
S31508003CE0C0F3401030B16FF020002168086120460B
S31508003CF0FFF779F810BD000010B586B00446142108
S31508003D0001A8FCF70FFB1F492068884238D100BF7D
S31508003D10002000901C48006840F001001A4908601D
S31508003D200846006800F00100009000BF00BF00BF11
S31508003D30002000900846006840F002000860084627
S31508003D40006800F00200009000BF00BFC02001908C
S31508003D50022002900020039004900220059001A9F9
S31508003D600A48FDF707FF0320019002200290002071
S31508003D70039004900220059001A90548FDF7FAFE74
S31508003D8006B010BD00040040303802400000024072
S31508003D900004024070472DE9F04104460D461646D8
S31508003DA0002700BF94F83C00012802D10220BDE894
S31508003DB0F081012084F83C0000BF36B1042E1BD0E8
S31508003DC0082E31D00C2E5ED145E02946206802F037
S31508003DD0DFFE2068806940F0080021688861206855
S31508003DE0806920F004002168886120688069296953
S31508003DF008432168886148E02946206802F0F8FEF1
S31508003E002068806940F400602168886120688069BC
S31508003E1020F480602168886120688069296940EA01
S31508003E2001202168886130E02946206802F014FFE5
S31508003E302068C06940F008002168C8612068C06928
S31508003E4020F004002168C8612068C0692969084310
S31508003E502168C86119E02946206802F031FF206808
S31508003E60C06940F400602168C8612068C06920F410
S31508003E7080602168C8612068C069296940EA012014
S31508003E802168C86101E0012700BF00BF00BF00200C
S31508003E9084F83C0000BF384689E710B504460CB9DB
S31508003EA0012010BD94F83D0028B9002084F83C0094
S31508003EB0204600F025F8022084F83D00211D2068E0
S31508003EC002F002FE012084F8460000BF84F83E0096
S31508003ED001213F200155402001554120015500BFD1
S31508003EE000BF012084F842004320015544200155B3
S31508003EF04520015500BF012084F83D000020D0E789
S31508003F0008B50A4A016891420FD100BF0021009105
S31508003F100749096841F00201054A11601146096816
S31508003F2001F00201009100BF00BF08BD0004004077
S31508003F30403802407047000070B504460D4615B972
S31508003F4094F83E000BE0042D02D13F20005D06E008
S31508003F50082D02D14020005D01E04120005D0128C6
S31508003F6001D0012070BD1DB9022084F83E000EE084
S31508003F70042D03D102213F20015508E0082D03D165
S31508003F8002214020015502E002214120015501226B
S31508003F902946206802F0EAFD1D492068884201D1B9
S31508003FA0012000E0002028B12068406C40F4004061
S31508003FB02168486416492068884213D02068B0F101
S31508003FC0804F0FD01349206888420BD012492068C9
S31508003FD0884207D011492068884203D010492068D2
S31508003FE088420CD12068806800F00706062E0CD09F
S31508003FF02068006840F001002168086005E0206834
S31508004000006840F00100216808600020AAE7000067
S31508004010000001400004004000080040000C004079
S315080040200040014010B5044603492068884201D182
S31508004030FEF72CFA10BD000000440140024600209D
S3150800404031B1042907D0082908D00C290CD108E079
S315080040501368586B09E01368986B06E01368D86B09
S3150800406003E01368186C00E000BF00BF7047704794
S31508004070704770472DE9F84F0446206805682068A0
S31508004080C668206847694FF00009CA4605F00F0957
S31508004090B9F1000F0AD105F0200038B106F020006A
S315080040A020B1204603F0ACF9BDE8F88FB9F1000F4E
S315080040B07CD007F0010018B906F49070002875D076
S315080040C005F0010030B106F4807018B1206C40F09C
S315080040D00100206405F0040030B107F0010018B1B2
S315080040E0206C40F00200206405F0020030B107F0B1
S315080040F0010018B1206C40F00400206405F00800A7
S3150800410048B106F0200010B907F0010018B1206C7C
S3150800411040F008002064206C002846D005F02000F6
S3150800412028B106F0200010B1204603F069F920688E
S315080041304069C0F3801A206C00F0080010B9BAF183
S31508004140000F2DD0204603F015F92068406900F0CD
S315080041504000402820D100BF00BF2168143151E833
S31508004160001F21F040002168143141E80002002AAE
S31508004170F3D100BFA06B50B17548A16B0865A06B61
S31508004180FDF7D0FC88B1A06B016D88470DE020468D
S31508004190FFF76FFF09E009E02046FFF76AFF04E032
S315080041A02046FFF766FF002020647DE7206B012884
S315080041B076D105F01000002872D006F0100000280D
S315080041C0FAD000BF002000902068006800902068A0
S315080041D04068009000BF00BF2068406900F04000BA
S315080041E040285ED1A06B006840681FFA80F8B8F1D5
S315080041F0000F54D0A08D404551DDA4F82E80A06B49
S31508004200C069B0F5807F43D000BF00BF21680C317C
S3150800421051E8001F21F4807021680C3141E8000242
S31508004220002AF3D100BF00BF00BF2168143151E84E
S31508004230001F21F001002168143141E80002002A1C
S31508004240F3D100BF00BF00BF2168143151E8001F39
S3150800425021F040002168143141E80002002AF3D118
S3150800426000BF202084F83E000020206300BF00BF66
S3150800427021680C3151E8001F21F0100021680C312B
S3150800428041E80002002AF3D100BFA06BFDF7F4FB5A
S31508004290A08DE28D801A81B22046FFF7E9FE03E77A
S315080042A040E0A08DE18D401A1FFA80F8E08DC0B37A
S315080042B0B8F1000F35D000BF00BF21680C3151E8B6
S315080042C0001F21F4907021680C3141E80002002A91
S315080042D0F3D100BF00BF00BF2168143151E8001FA9
S315080042E021F001002168143141E80002002AF3D1C7
S315080042F000BF202084F83E000020206300BF00BFD6
S3150800430021680C3151E8001F21F0100021680C319A
S3150800431041E80002002AF3D100BF41462046FFF7D4
S31508004320A7FEC1E605F0800030B106F0800018B19E
S31508004330204603F01AFAB7E605F0400030B106F059
S31508004340400018B1204603F04BF8ADE600BFABE6D7
S315080043506173000810B504460CB9012010BDA069A8
S3150800436000B100E000BF94F83D0028B9002084F8A9
S315080043703C00204600F028F8242084F83D002068F8
S31508004380C06820F400502168C860204603F0B4F8DD
S315080043902068006920F49040216808612068406917
S315080043A020F02A00216848612068C06840F400505F
S315080043B02168C86000202064202084F83D0084F825
S315080043C03E000020CAE7000010B586B00446142156
S315080043D001A8FBF7A7FF5E492068884239D100BFCC
S315080043E0002000905B48006840F0100059490860BA
S315080043F00846006800F01000009000BF00BF00BF2C
S315080044000020009053481438006840F001005149D4
S31508004410143908600846006800F00100009000BFE3
S3150800442000BF4FF404400190022002900020039040
S31508004430032004900720059001A94748FDF79AFB39
S31508004440002208212520FEF7CBF82520FEF7B8F82C
S315080044507BE04249206888423AD100BF002000909C
S315080044603C48001F006840F400303A49091F0860BC
S315080044700846006800F40030009000BF00BF00BF87
S315080044800020009033481438006840F00100314994
S31508004490143908600846006800F00100009000BF63
S315080044A000BF0C20019002200290002003900320F8
S315080044B004900720059001A92748FDF75BFB002219
S315080044C007212620FEF78CF82620FEF779F83CE02F
S315080044D023492068884238D100BF002000901D4833
S315080044E0006840F020001B4908600846006800F094
S315080044F02000009000BF00BF00BF002000901548B4
S315080045001438006840F0010012491439086008465A
S31508004510006800F00100009000BF00BF4FF4C050D3
S3150800452001900220029000200390032004900820A6
S31508004530059001A90848FDF71DFB00220621472022
S31508004540FEF74EF84720FEF73BF806B010BD000010
S315080045500010014044380240000002400044004078
S315080045600014014070B504460D46164694F83E0000
S31508004570202816D105B10EB9012070BD00BF94F8E8
S315080045803C00012801D10220F7E7012084F83C000D
S3150800459000BF0020206332462946204603F0C2F8B1
S315080045A0EBE70220E9E7000010B504464D4920680C
S315080045B088420DD14C48007858B94C480078AA284A
S315080045C007D10120484908704848007848490870CA
S315080045D082E04548007801280FD1444800786128D0
S315080045E003D042480078FF2807D102203E490870C8
S315080045F03E4800783E4948706EE03B4800780228FD
S3150800460007D1032038490870384800783849887037
S3150800461062E035480078032812D134480078FA2831
S315080046200EDA042030490870304800783049C870DE
S315080046302E4800782F49087000202F4908704BE053
S315080046402948007804281BD12A480078002817DD55
S3150800465028480078401E27490870244802782648CA
S31508004660007825490978491C234B1970001D2049F3
S315080046700A542048007858BB05201B4908702BE0CF
S315080046801948007805280FD10620174908701748D9
S3150800469002781948007818490978491C164B197088
S315080046A0001D13490A5417E00F480078062810D150
S315080046B000200D4908700D4801780F480078001D44
S315080046C00B4A11540C480178491D1046FCF70AFBA1
S315080046D002E0002004490870012204490748FFF750
S315080046E041FF10BD0010014003000020000000201B
S315080046F058020020010000200200002020060020A9
S315080047002DE9F84F04460E46174699464FF0000A1B
S3150800471094F83D0020285AD106B117B90120BDE802
S31508004720F88F00BF94F83C00012801D10220F6E773
S31508004730012084F83C0000BF00202064212084F872
S315080047403D00FDF701FB8246A784E784A068B0F523
S31508004750805F04D1206910B90025B04602E03546CD
S315080047604FF0000800BF002084F83C0000BF1BE0A3
S315080047705346002280212046CDF8009003F025F804
S3150800478008B10320CBE745B9B8F80000C0F3080024
S315080047902168486008F1020803E028782168486023
S315080047A06D1CE08C401EE084E08C0028E0D1534666
S315080047B0002240212046CDF8009003F006F808B103
S315080047C00320ACE7202084F83D000020A7E702205C
S315080047D0A5E7704710B55821002000F01FF8E02122
S315080047E0012000F01BF80021022000F017F810BD88
S315080047F0FEB504460E46154640F6FF7001232246CE
S315080048003D21CDE9005602900348FDF78BFB642055
S31508004810FDF79CF90020FEBD640400207FB5044620
S315080048200D4600200390039540F6FF70012103AA68
S315080048300B46CDE90021029022463C210448FDF7AB
S31508004840EBFC6420FDF782F9002004B070BD00007F
S315080048506404002000BFFEE7014608684069C0F30B
S315080048608020B0B16FF480600A6850610020086348
S31508004870202081F83D00002081F83E00086C40F0B9
S315080048800400086400BF002081F83C0000BF012036
S3150800489070470020FCE700002DE9F84304460F4660
S315080048A015469946DDE908862068006840F4806068
S315080048B0216808602068006840F4807021680860F4
S315080048C0434600224FF001112046009600F032F9C7
S315080048D060B12068006800F48070B0F5807F02D16E
S315080048E04FF4007020640320BDE8F88307F0FE004B
S315080048F021680861334642463E49204600F05DF984
S3150800490008B10120F0E700BF002000902068406948
S31508004910009020688069009000BF00BF324641467B
S31508004920204600F0ECF950B1206C042805D1206827
S31508004930006840F40070216808600120D4E7B9F1E6
S31508004940010F03D1E8B22168086117E0C5F3072013
S315080049502168086132464146204600F0D0F950B138
S31508004960206C042805D12068006840F4007021688E
S3150800497008600120B8E7E8B2216808613246414676
S31508004980204600F0BCF950B1206C042805D12068F7
S31508004990006840F40070216808600120A4E72068D8
S315080049A0006840F4807021680860434600224FF092
S315080049B001112046009600F0BDF858B1206800683D
S315080049C000F48070B0F5807F02D14FF40070206447
S315080049D0032089E7F8B240F00100216808613346F0
S315080049E042460449204600F0E8F808B101207BE772
S315080049F0002079E7020001002DE9F84304468846BD
S31508004A0015469946DDE908672068006840F4807015
S31508004A1021680860334600224FF0011120460097AE
S31508004A2000F088F860B12068006800F48070B0F57E
S31508004A30807F02D14FF4007020640320BDE8F8831C
S31508004A4008F0FE00216808613B46324621492046A7
S31508004A5000F0B3F808B10120F0E700BF002000908D
S31508004A6020684069009020688069009000BF00BFF8
S31508004A703A463146204600F042F950B1206C0428E7
S31508004A8005D12068006840F400702168086001209C
S31508004A90D4E7B9F1010F03D1E8B22168086117E03C
S31508004AA0C5F30720216808613A463146204600F0DA
S31508004AB026F950B1206C042805D12068006840F416
S31508004AC00070216808600120B8E7E8B2216808612B
S31508004AD00020B3E70200010070B504460D461646ED
S31508004AE020E02046FFF7B8FE08B1012070BD681C1B
S31508004AF0C0B1FDF729F9801BA84200D895B9002056
S31508004B002063202084F83D00002084F83E00206CB5
S31508004B1040F02000206400BF002084F83C0000BF5D
S31508004B200120E3E720684069C0F380000028D8D058
S31508004B300020DBE72DE9F04104460D4617461E46E0
S31508004B40DDF818801CE0701CD0B1FDF7FDF8A0EB6D
S31508004B500800B04200D89EB900202063202084F8BF
S31508004B603D00002084F83E00206C40F020002064C0
S31508004B7000BF002084F83C0000BF0120BDE8F0819A
S31508004B80C5F3074001280AD120684069A9B2084040
S31508004B90A9B2884201D101200BE0002009E0206873
S31508004BA08069A9B20840A9B2884201D1012000E073
S31508004BB00020B842C7D00020E0E72DE9F0410446BE
S31508004BC00D4616461F463DE020684069C0F3802022
S31508004BD0E8B12068006840F40070216808606FF446
S31508004BE080602168486100202063202084F83D0009
S31508004BF0002084F83E00206C40F00400206400BFCA
S31508004C00002084F83C0000BF0120BDE8F081701C3C
S31508004C10C0B1FDF799F8C01BB04200D896B900207C
S31508004C202063202084F83D00002084F83E00206C94
S31508004C3040F02000206400BF002084F83C0000BF3C
S31508004C400120E2E7C5F3074001280AD12068406938
S31508004C50A9B20840A9B2884201D101200BE0002080
S31508004C6009E020688069A9B20840A9B2884201D142
S31508004C70012000E000200028A6D00020C5E770B576
S31508004C8004460D46164632E020684069C0F3001017
S31508004C90A0B16FF010002168486100202063202031
S31508004CA084F83D00002084F83E00206C206400BF94
S31508004CB0002084F83C0000BF012070BDFDF744F8D1
S31508004CC0801BA84200D895B900202063202084F8CC
S31508004CD03D00002084F83E00206C40F0200020644F
S31508004CE000BF002084F83C0000BF0120E5E72068EB
S31508004CF04069C0F380100028C6D00020DDE770B5F3
S31508004D0004460D46164620E02046FFF7A5FD08B1E5
S31508004D10012070BD681CC0B1FDF716F8801BA842BB
S31508004D2000D895B900202063202084F83D00002093
S31508004D3084F83E00206C40F02000206400BF00206C
S31508004D4084F83C0000BF0120E3E720684069C0F30F
S31508004D50C0100028D8D00020DBE7000010B50020DE
S31508004D601D4908600BE01D481B4A1268815C1C48F7
S31508004D70FEF73AFE18480068401C174908601648AE
S31508004D8000680228EFDB0020134908600BE013488F
S31508004D90114A1268815C1348FEF726FE0E48006821
S31508004DA0401C0D4908600C4800680228EFDB022009
S31508004DB0094908600BE00948074A1268815C0A48F5
S31508004DC0FEF712FE04480068401C034908600248C2
S31508004DD000680428EFDB10BDF4000020E80000207E
S31508004DE00005002048050020D8050020F0EE401AEE
S31508004DF0F4EEE01AF1EE10FA02D2B0EE600A70474D
S31508004E00F4EEC11AF1EE10FA02DDB0EE410AF6E749
S31508004E10B0EE610AF3E708B500226B21682000F0BE
S31508004E2053F96420FCF792FE002000F008F964208C
S31508004E30FCF78CFE002000F0F9F86420FCF786FEEB
S31508004E40C82000F023F96420FCF780FE00226A21BE
S31508004E50682000F039F96420FCF778FE0022232147
S31508004E60682000F031F96420FCF770FE6A46752167
S31508004E70682000F0B3F89DF80000682809D10122DF
S31508004E806B2100F021F900226C21682000F01CF942
S31508004E9001E0012008BD0020FCE77CB504466B460E
S31508004EA006223B21682000F0ADF8054635BB9DF883
S31508004EB001009DF8001040EA012000B200EE100A39
S31508004EC0B8EEC00A84ED060A9DF803009DF80210A4
S31508004ED040EA012000B200EE100AB8EEC00A84EDDE
S31508004EE0070A9DF805009DF8041040EA012000B263
S31508004EF000EE100AB8EEC00A84ED080A28467CBD02
S31508004F007CB504466B4606224321682000F07AF8F1
S31508004F10054635BB9DF801009DF8001040EA0120C2
S31508004F2000B200EE100AB8EEC00A84ED060A9DF833
S31508004F3003009DF8021040EA012000B200EE100AB4
S31508004F40B8EEC00A84ED070A9DF805009DF804101E
S31508004F5040EA012000B200EE100AB8EEC00A84ED5D
S31508004F60080A28467CBD000070B52DED068B82B078
S31508004F70044601AB02224121682000F043F80646A8
S31508004F80F6B99DF805009DF8041040EA012005B21F
S31508004F902846FBF75AFB41EC1A0B9FED0C0B53EC1A
S31508004FA0102BFBF7E3FA41EC190B9FED0A0B53ECB8
S31508004FB0102BFBF7C2F941EC180BFBF7A1FB20609D
S31508004FC0F0B202B0BDEC068B70BD00000000000018
S31508004FD00040754000000000D7434240FEB5044635
S31508004FE00D46164640F6FF700121CDE90061029094
S31508004FF0610001232A460248FCF794FF0020FEBD03
S3150800500064040020FEB504460D4616461F4640F6C3
S31508005010FF70610001232A46CDE900760290024816
S31508005020FCF780FF0020FEBD6404002010B504468E
S31508005030E006020E1C21682000F046F810BD10B5E7
S315080050400446E006020E1B21682000F03DF810BD5C
S3150800505070B504460025BC2C01DB012510E0622C46
S3150800506001DB02250CE02A2C01DB032508E0142CC1
S3150800507001DB042504E00A2C01DB052500E00625F2
S315080050802A461A21682000F01FF870BD70B504463C
S31508005090B4F57A7F01DD4FF47A74042C00DA04241F
S315080050A04FF47A7090FBF4F0401EC5B22A461921D7
S315080050B0682000F009F80546264604EBD671C1F3C8
S315080050C04F00FFF7C5FF70BD7FB504460D4616466F
S315080050D000200390039640F6FF70012103AACDE94C
S315080050E000210290610001232A460348FDF794F83F
S315080050F0002004B070BD00006404002010B5094803
S3150800510003F09EFF08490860084803F099FF08491C
S315080051100860084A0021084803F0EBFF07490860C1
S3150800512010BD0000A4B60008A8000020B4B6000808
S31508005130AC00002080B600089D690008A400002085
S3150800514000B587B0142102A8FBF7ECF800BF0020D1
S3150800515001902748006840F0040025490860084681
S31508005160006800F00400019000BF00BF00BF0020E7
S3150800517001900846006840F080000860084600680C
S3150800518000F08000019000BF00BF00BF0020019022
S315080051900846006840F0010008600846006800F00C
S315080051A00100019000BF00BF00BF00200190084623
S315080051B0006840F0020008600846006800F0020037
S315080051C0019000BF00BF00224FF400510948FCF7C8
S315080051D0B5FD4FF400500290012003900020049082
S315080051E0059002A90348FCF7C5FC07B000BD0000FE
S315080051F0303802400008024010B50B480B490860D9
S315080052000B484860002109488160C1604FF480411D
S315080052100161002141618161C1610162FCF79AFD6A
S3150800522008B1FCF768F910BD0054004010040020CE
S31508005230801A060010B50B480B4908600B484860F1
S31508005240002109488160C1604FF480410161002155
S3150800525041618161C1610162FCF77CFD08B1FCF71F
S315080052604AF910BD0058004064040020801A060060
S3150800527000B587B000200590069001900290039033
S3150800528004901B481B4908606320486000211948A0
S3150800529081604FF6FF71C160002101614161816142
S315080052A0FEF79BFA08B1FCF726F900200590069050
S315080052B005A91048FDF798FD08B1FCF71CF9002070
S315080052C0019001200290002003900490002201A979
S315080052D00848FEF713FA08B1FCF70DF9042201A9EC
S315080052E00448FEF70BFA08B1FCF705F907B000BD4C
S315080052F0000001400005002000B587B00020059099
S31508005300069001900290039004904FF080401A494D
S31508005310086063204860002117488160491EC16003
S31508005320002101618161FEF758FA08B1FCF7E3F83C
S3150800533000200590069005A90F48FDF755FD08B110
S31508005340FCF7D9F800200190012002900020039074
S315080053500490002201A90848FEF7D0F908B1FCF725
S31508005360CAF8042201A90448FEF7C8F908B1FCF7EF
S31508005370C2F807B000BD00004805002000B589B096
S315080053800020079008901C216846FAF7CBFF2448AE
S3150800539024490860C720486000212248816042F2FB
S315080053A00F71C160002101618161FEF776FD08B1C8
S315080053B0FCF7A1F800200790089007A91948FDF7FF
S315080053C013FD08B1FCF797F86020009000200190C3
S315080053D002900490002269461248FEF7DCFC08B1E8
S315080053E0FCF789F8042269460E48FEF7D4FC08B192
S315080053F0FCF781F8082269460A48FEF7CCFC08B192
S31508005400FCF779F80C2269460648FEF7C4FC08B191
S31508005410FCF771F80348FEF76FFC09B000BD000001
S31508005420000400409005002000B587B000200590D4
S31508005430069001900290039004901B481B4908604F
S31508005440632048600021194881604FF6FF71C160EA
S31508005450002101618161FEF7C0F908B1FCF74BF83C
S3150800546000200590069005A91048FDF7BDFC08B177
S31508005470FCF741F8002001900120029000200390DB
S315080054800490082201A90948FEF738F908B1FCF783
S3150800549032F80C2201A90548FEF730F908B1FCF7E5
S315080054A02AF807B000BD000000080040D805002013
S315080054B010B50B480B4908604FF4E13048600021ED
S315080054C008488160C16001610C2141610021816148
S315080054D0C161FEF73FFF08B1FCF70DF810BD0000EB
S315080054E0001001402006002010B50B480B49086043
S315080054F04FF4E1304860002108488160C1600161CD
S315080055000C21416100218161C161FEF723FF08B1C9
