S31508000000F8530020710200087D460008313A0008BE
S3150800001079460008751200081D5D000800000000FA
S31508000020000000000000000000000000B101000808
S3150800003079120008000000000D020008735200083B
S315080000408B0200088B0200088B0200088B0200084E
S315080000508B0200088B0200088B0200088B0200083E
S315080000608B0200088B0200088B0200088B0200082E
S315080000708B0200088B0200088B0200088B0200081E
S315080000808B0200088B0200088B02000800000000A3
S315080000900000000000000000000000008B020008BD
S315080000A08B0200085D5300088B0200084D530008B8
S315080000B0755300088B020008855300088B02000858
S315080000C08B0200088B0200088B0200088B020008CE
S315080000D08B020008ED5C0008FD5C000800000000CB
S315080000E08B0200088B0200088B0200080000000043
S315080000F00000000000000000000000008B0200085D
S31508000100000000008B0200088B0200088B02000822
S3150800011000000000000000000000000000000000D1
S315080001208B0200088B0200088B0200088B0200086D
S315080001308B0200080000000000000000000000001C
S315080001400000000000000000000000008B0200080C
S315080001508B0200088B0200088B0200080D5D000860
S315080001608B0200088B020008000000000000000057
S315080001700000000000000000000000000000000071
S31508000180000000008B0200080000000000000000CC
S315080001908B0200088B020008DFF810D000F074FB11
S315080001A000480047E1720008AFF30080F8530020CA
S315080001B02C4B19680868B0E8F04F80F30988BFF33C
S315080001C06F8F4FF0000080F3118870470000000021
S315080001D008480068006880F308884FF0000080F33C
S315080001E0148862B661B6BFF34F8FBFF36F8F00DF17
S315080001F000BF00BF08ED00E0DFF80C00016841F41D
S3150800020070010160704700BF88ED00E0EFF30980D8
S31508000210BFF36F8F134B1A681EF0100F08BF20ED3F
S31508000220108A20E9F04F106009B44FF0500080F3AF
S315080002301188BFF34F8FBFF36F8F08F007FB4FF09E
S31508000240000080F3118809BC19680868B0E8F04F07
S315080002501EF0100F08BFB0EC108A80F30988BFF3B0
S315080002606F8F7047BC000020EFF3058070470000D1
S315080002700648804706480047FEE7FEE7FEE7FEE732
S31508000280FEE7FEE7FEE7FEE7FEE7FEE7395300086E
S31508000290990100082DE9F05F0546002092469B4625
S315080002A088460646814640241BE02846414647467E
S315080002B0224600F01BFA53465A46C01A914110D3FB
S315080002C011461846224600F002FA2D1A67EB010875
S315080002D04F4622460120002100F0F9F917EB0009E4
S315080002E04E41201EA4F10104DFDC484631462A4669
S315080002F04346BDE8F09F40EA01039B0703D009E0A7
S3150800030008C9121F08C0042AFAD203E011F8013BF3
S3150800031000F8013B521EF9D27047D2B201E000F84C
S31508000320012B491EFBD270470022F6E710B513468B
S315080003300A4604461946FFF7F0FF204610BD2DE988
S31508000340FE4F804681EA0300C00F0C46009021F05C
S31508000350004123F00045B8EB0200A94105D240460A
S31508000360214690461C460B46024623F000401043A1
S3150800037047D0270DC7F30A00C3F30A510290401A63
S31508000380019040286BDAC3F3130040F4801B0098F1
S31508000390924620B10023D2EB030A63EB0B0B0198BC
S315080003A05946C0F14002504600F091F906460D46FE
S315080003B050465946019A00F0A9F910EB0800614128
S315080003C0002487EA115284EAE7731A4340D0009A58
S315080003D062B3019A012A4FEA075215DC001B61EB4A
S315080003E002014FF0004202EA0752CDE90042001C22
S315080003F041F5801132462B4600F0E0F903B0BDE81E
S31508000400F08F40462146F9E7001B61EB0201001C0C
S3150800041041F5801300185B412018A2F5001747EB39
S31508000420030140EAD570B6196D4111E06D084FEA2F
S31508000430360645EAC0754FEA0752001B61EB020112
S31508000440001C41F5801149084FEA30000019514156
S3150800045032462B4603B0BDE8F04F00F0A0B900982D
S31508000460012240000023D0EB020263EBE073009800
S3150800047021464FEAE074B8EB000061EB0401E9E7B6
S3150800048083F000435BE781F0004158E72DE9FE4F12
S3150800049081EA030404F0004421F0004100944FF07F
S315080004A0000B23F0004350EA01045ED052EA03042D
S315080004B05BD0C3F30A54C1F30A552C44A4F2F334AF
S315080004C00194A0FB0254C1F3130141F48011C3F354
S315080004D0130343F4801301FB024400FB034E840A12
S315080004E0970A44EA815447EA8357A4FB07680295AA
S315080004F08D0A05FB07854FEA932C04FB0C54270548
S31508000500029D4FEA065847EA1637B5EB08056EEB23
S31508000510070C870E920E47EA811742EA8312A7FB59
S315080005200201B6EB0B0164EB00042B0D43EA0C3316
S315080005305E1844EB1C50DA465146E7FB0201C5F348
S3150800054013044FEA0B3343EA14534FEA0432019C6F
S3150800055043EA0603A4F10C040294009CCDE900B416
S3150800056000F02CF903B0BDE8F08F00200146F9E74A
S315080005702DE9F04D81EA030404F0004B21F0004513
S3150800058014464FF0000A23F0004150EA050220D035
S3150800059054EA01021DD0C5F30A570246C5F31303F0
S315080005A0C1F31300C1F30A5640F4801543F48013CF
S315080005B0A7EB0608101BD64608F2FD3873EB0500B4
S315080005C002D308F1010801E092185B41B8F1000F67
S315080005D003DA00200146BDE8F08D00204FF48011B3
S315080005E0064684460EE0171B73EB050705D3121B58
S315080005F063EB050306434CEA010C49084FEA300051
S3150800060092185B4150EA0107EDD152EA030012D075
S3150800061082EA040083EA0501084305D0101BAB41B2
S3150800062006D20122002306E000224FF0004302E032
S315080006306FF0010253101AEB06004CEB085110EB51
S315080006400A0041EB0B01BDE8F04D00F0A8B80EB565
S31508000650C10F80EAE0700844CA07002140F233431C
S315080006608DE80E000A460B4600F0A8F803B000BD58
S3150800067000F0004230F000400AD0C10D01F560716B
S31508000680C0F3160042EA0151C208400711437047F9
S3150800069000200146704701F0004330B421F00041C4
S315080006A050EA010206D00A0DA2F56072C1F31301E1
S315080006B0002A02DC30BC00207047440F44EAC1041B
S315080006C0C100E01830BC00EBC25000F031B8202A57
S315080006D004DB203A00FA02F1002070479140C2F18B
S315080006E0200320FA03F3194390407047202A04DBBD
S315080006F0203A21FA02F00021704721FA02F3D0408D
S31508000700C2F120029140084319467047202A06DBA9
S31508000710CB17203A41FA02F043EAE07306E041FAC1
S3150800072002F3D040C2F120029140084319467047AF
S315080007300029A8BF7047401C490008BF20F00100E7
S31508000740704710B4B0FA80FC00FA0CF050EA0104C5
S3150800075004BF10BC704749B1CCF1200421FA04F457
S3150800076011FA0CF118BF012121430843A3EB0C0130
S31508000770CB1D4FEA00614FEA102042BF002010BC93
S31508000780704700EBC35010440029A4BF10BC704743
S31508000790401C490008BF20F0010010BC704710B586
S315080007A0141E73F1000408DA401C41F10001921886
S315080007B05B411A4301D120F0010010BD2DE9F04D2F
S315080007C092469B4611B1B1FA81F202E0B0FA80F284
S315080007D020329046FFF77BFF04460F4640EA0A00A0
S315080007E041EA0B0153465A46084313D0114653EAC9
S315080007F0010019D0C8F140025046FFF777FF0546B9
S315080008000E46504659464246FFF761FF084305D053
S31508000810012004E020463946BDE8F08D0020054356
S3150800082046EAE0762C4337430A986305E40AA0EBC8
S3150800083008000022FD0A44EA47540A3002D500207F
S315080008400146E9E7010510196941DDE9084500197E
S315080008506941BDE8F04DA2E730B5041E71F1000408
S3150800086004DB4FF00044404264EB0101141E73F1AF
S31508000870000405DB1C464FF00043524263EB0403B9
S315080008808B4208BF824230BD064C074D06E0E06841
S3150800089040F0010394E8070098471034AC42F6D3B9
S315080008A0FFF77EFC08A4000828A400082DE9F04DEF
S315080008B000231A461B1A8A4103DB00200146BDE8BD
S315080008C0F08DC1F30A52C1F3130141F480154FF0BC
S315080008D0000BD10702D100186D41521E00270446AD
S315080008E040F2FF11384601EB620A3E468046024650
S315080008F000204FF48011FFF7F9FEC2197141BB18A9
S3150800090046EB0100B4EB030C75EB000C04D3E41AB8
S3150800091065EB000517460E46241908F101006D41DE
S3150800092080463428E3DDF91946EB0600091BA84181
S3150800093003D24FF0FF32134601E0002213461BEBA9
S31508000940070046EB0A51BDE8F04DFFF728BF0EB584
S3150800095040F2334102910021CDE900110A460B46C7
S31508000960FFF72CFF03B000BD70B5C1F30A5201F0C2
S3150800097000450024C1F3130140F2FF3341F480110E
S315080009809A4201DA002070BD40F233439A42A2F23D
S31508000990334203DC5242FFF7A9FE00E090402C43A5
S315080009A0F1D0404270BD0000F7B50024AA222146C6
S315080009B0641C2C484254FF222146641C42540322DC
S315080009C02146641C425400222146641C42549DF868
S315080009D000202146641C42549DF801202146641CCF
S315080009E042549DF804202146641C42549DF8052073
S315080009F02146601CC4B21B4842549DF80820214673
S31508000A00601CC4B2174842549DF809202046611C50
S31508000A10CCB214490A5401222046611CCCB21149B1
S31508000A200A54201FC87000250026002007E00D493B
S31508000A30095C2944CDB27119CEB2411CC8B2A04294
S31508000A40F5DB2046611CCCB206490D542046611CD4
S31508000A50CCB204490E5440F6FF732246024802F00F
S31508000A603CFFFEBD5C0100205804002000B52DEDBA
S31508000A70108BA1B0B0EE40AAF0EE60AAB0EE41BA73
S31508000A80F0EE61FAF0EE42BAB0EE62CAF0EE439AC0
S31508000A90F0EE638AB0EE449AFE4890ED000A20EE26
S31508000AA0000A8DED110A90ED000AFB48D0ED000A08
S31508000AB020EE200AF0EE40EAF64890ED000AF748E4
S31508000AC0D0ED000A20EE200A8DED100AF14890EDCF
S31508000AD0000AF348D0ED000A20EE200A8DED0F0A31
S31508000AE0ED4890ED000A20EE000AB0EE40FA90EDCF
S31508000AF0000AEA48D0ED000A20EE200A8DED0E0A1B
S31508000B00E54890ED000AE648D0ED000A20EE200AF6
S31508000B108DED0D0AE14890ED000A20EE000A8DEDF4
S31508000B200C0A90ED000ADE48D0ED000A20EE200AF5
S31508000B308DED0B0A90ED000A20EE000A8DED0A0AEB
S31508000B406FEEAF0A4BEEAB0A4CEE0C0AB0EE600A3B
S31508000B5006F0A8FBB0EE408A2FEE880AF0EE40FABF
S31508000B602BEE880AF0EE40BA2CEE080AB0EE40CA20
S31508000B709DED0D0ADDED100A30EE600AF0EE000A72
S31508000B8020EE200A8DED1A0A9DED0B0A3EEE800A2C
S31508000B90F0EE000A20EE200A8DED190A9DED110AE5
S31508000BA070EE4F0A9DED0C0A70EEC00A9DED0A0A1A
S31508000BB030EE800A8DED180A69EEA90A48EEA80AF1
S31508000BC049EE090AB0EE600A06F06CFBB0EE408A00
S31508000BD029EE880AF0EE409A28EE880AF0EE408A56
S31508000BE029EE080AB0EE409AB0EE000A69EE800ACD
S31508000BF09DED0C0AB6EE001A31EE401A9DED0A0A72
S31508000C0031EE400A20EE800AF0EE000A68EEA01ADD
S31508000C10DDED0E0A9DED0F1A70EEC10A01EEA00A6F
S31508000C20F0EE000A69EE201ADDED0D0A9DED101AA8
S31508000C3070EE810A01EEA00A8DED1F0AB0EE000AD9
S31508000C4029EE801A9DED0E0ADDED0F0A30EE200A18
S31508000C5021EE000AF0EE000A28EEA01AF6EE000AC7
S31508000C6070EECF1ADDED0A0A71EEE00A01EE200AEF
S31508000C70F0EE000A29EE201ADDED0B0A70EEEE0AF8
S31508000C8001EE200A8DED1E0AB0EE000A29EE801A42
S31508000C909DED0D0ADDED100A30EE600A21EE000A20
S31508000CA0F0EE000A28EEA01ADDED0B0A70EEAE0A89
S31508000CB001EE200AF0EE000A29EE201AF6EE000AE6
S31508000CC070EECF1ADDED0C0A71EEE00A01EE200A8D
S31508000CD08DED1D0ADDED1F0A20EEA01ADDED1E0AB8
S31508000CE000EEA01AB0EE410A05F062FD8DED1B0A72
S31508000CF09DED1D0A8DED1C0A9DED1B0AF0EE000AFE
S31508000D0020EE201ADDED0E0A9DED0F0A30EE800A60
S31508000D1061EE000A9DED1C0AB0EE001A60EE011A9B
S31508000D209DED0D0A9DED101A30EE410A41EE800A3E
S31508000D30CDED170A9DED1B0AF0EE000A60EE200ABB
S31508000D40B6EE000A30EE4F1A9DED0A0A31EE400A59
S31508000D5060EE800A9DED1C0AB0EE001A20EE011A1C
S31508000D609DED0B0A3EEE800A41EE000ACDED160A0D
S31508000D709DED1B0AF0EE000A60EE200A9DED0B0AB7
S31508000D8030EE6E0A60EE800A9DED1C0AB0EE001A7F
S31508000D9020EE011AB6EE000A70EE4F1A9DED0C0A07
S31508000DA031EEC00A41EE000ACDED150A9DED180A8E
S31508000DB06BEE800A9DED190A4CEE400A9DED150A68
S31508000DC028EE801A9DED160A09EE401A30EE810AC1
S31508000DD08DED140A9DED1A0A2CEE000ADDED180AAF
S31508000DE00FEEE00ADDED170A29EE201ADDED150AE9
S31508000DF009EEE01A30EE010A8DED130A9DED190A87
S31508000E006FEE800A9DED1A0A4BEEC00A9DED160A92
S31508000E1029EE801A9DED170A08EEC01A30EE810AEF
S31508000E208DED120A9FED1F0A1F4880ED000A9DED01
S31508000E30140AB5EEC00AF1EE10FA7CD09DED130A3D
S31508000E40B5EEC00AF1EE10FA7FD09DED120AB5EEA6
S31508000E50C00AF1EE10FA78D09DED140A1348D0EDC9
S31508000E60000A60EE200A104890ED001A104890ED2E
S31508000E70000A00EE810A80ED000A9DED130A0B4870
S31508000E80D0ED000A60EE200A074890ED001A0948DE
S31508000E9012E00000100000201400002018000020B6
S31508000EA01C0000200AD7A33B0800002004000020ED
S31508000EB0200000202400002090ED000A00EE810AA0
S31508000EC080ED000A9DED120ADD48D0ED000A60EEBD
S31508000ED0200ADC4890ED001ADB4890ED000A00EE87
S31508000EE0810A80ED000AD94890ED001A9DED140A92
S31508000EF0F0EE4A0A41EE000AD54890ED000A30EEB7
S31508000F00800AB0EE40AAD14890ED001A9DED130A6A
S31508000F10F0EE6A0A41EE000ACE4890ED000A30EE7D
S31508000F20800AF0EE40AAC94890ED001A9DED120A13
S31508000F30F0EE4B0A00E008E041EE000AC24890EDE8
S31508000F40000A30EE800AB0EE40BAC348D0ED00CAB7
S31508000F50C24890ED00DAC248D0ED00DAC14890EDFB
S31508000F6000EAB1EE4D0A20EE0A0A0DEEEA0A0EEE86
S31508000F704B0AB44890ED001AF0EE6C0A40EE010AEE
S31508000F80B548C0ED000A2CEE8A0A0DEE8B0A0EEE65
S31508000F906A0AAC4890ED001AF0EE4D0A40EE010AD6
S31508000FA0AE48C0ED000A2CEEAA0A0DEE4B0A0EEE6C
S31508000FB00A0AA44890ED001AF0EE6D0A40EE010AFE
S31508000FC0A748C0ED000A2CEE8B0A0DEE2A0A0DEE94
S31508000FD0CA0A9C4890ED001AF0EE4E0A40EE010A45
S31508000FE0A048C0ED000A9C48D0ED000A60EEA00AB1
S31508000FF09A4890ED001AD0ED001A41EE210A984859
S3150800100090ED001AD0ED001A41EE210A954890EDB0
S31508001010001AD0ED001A41EE210AB0EE600A06F079
S3150800102041F9B0EE408A8C4890ED000A20EE080A95
S3150800103080ED000A894890ED000A20EE080A80ED46
S31508001040000A874890ED000A20EE080A80ED000A9B
S31508001050844890ED000A20EE080A80ED000A7E48D2
S3150800106090ED000A7E48D0ED000A20EE200A7B4863
S31508001070D0ED000A7B4890ED001A00EEC10AF0EEAA
S31508001080000A20EE200A10EE101A0846FFF7F0FABA
S31508001090CDE904019DED040B04F0A6FE8DED060BCB
S315080010A09FED710B53EC102B9DED060B51EC100BBD
S315080010B0FFF7ECF9CDE908019DED080B51EC100B93
S315080010C0FFF7E9FA6A498860634890ED000A20EE5E
S315080010D0000A6248D0ED000A90ED001A00EEC10A37
S315080010E05F48D0ED000A90ED001A00EEC10A5D488F
S315080010F0D0ED000A90ED001A00EE810A10EE101AE3
S315080011000846FFF7B5FACDE90201534890ED000A03
S315080011105248D0ED000A20EE200A5148D0ED000AC8
S31508001120504890ED001A00EE810AF0EE000A20EE13
S31508001130200A10EE101A0846FFF79AFACDE90001C0
S315080011409DED021B9DED000B05F06AF98DED040B74
S315080011509DED040B51EC100B81F000419FED420B05
S3150800116053EC102BCDE906019DED060B51EC100B47
S31508001170FFF78CF9CDE908019DED080B51EC100B32
S31508001180FFF789FA3A494860334890ED000A20EE9D
S31508001190000A3248D0ED000A90ED001A00EE810AE6
S315080011A02F48D0ED000A90ED001A00EEC10A2D482E
S315080011B0D0ED000A90ED001A00EEC10A10EE101AE2
S315080011C00846FFF755FACDE90401234890ED000AD1
S315080011D02448D0ED000A20EE200A2048D0ED000A67
S315080011E01F4890ED001A00EE810AF0EE000A20EE84
S315080011F0200A10EE101A0846FFF73AFACDE902015E
S315080012009DED041B9DED020B05F00AF98DED060B0D
S315080012109FED150B53EC102B9DED060B51EC100BA7
S31508001220FFF734F9CDE908019DED080B51EC100BD9
S31508001230FFF731FA0E49086021B0BDEC108B00BDEE
S3150800124004000020080000202800002000000020DC
S315080012502000002024000020100000201400002098
S31508001260180000201C00002000000020DCA54C40CF
S315080012709C01002000BFFEE7704772B600BFFEE77C
S3150800128010B502F058FE02223721682002F0ACFFA2
S3150800129000226A21682002F0A7FFC82000F018FB88
S315080012A002F085FB0348006800F006F800F00AF92A
S315080012B010BD00004400002010B50446102006F0BA
S315080012C065F82060102006F061F86060102006F0CE
S315080012D05DF8A060082006F059F8E060302006F0B6
S315080012E055F821680860302006F050F861680860F3
S315080012F0302006F04BF8A16808609FED6F0A206859
S31508001300006880ED000A9FED6C0A2068006880ED91
S31508001310000A9FED690A2068006880ED000AB7EEAA
S31508001320000A2068006880ED030AB7EE000A206804
S31508001330006880ED040AB7EE000A2068006880EDB0
S31508001340050A9FED5D0A2068006880ED060A9FED94
S315080013505A0A2068006880ED070A9FED570A206838
S31508001360006880ED080A9FED540A2068006880ED41
S31508001370090A9FED510A2068006880ED0A0A9FED68
S315080013804E0A2068006880ED0B0A4C482168886080
S315080013909FED490A6068006880ED000A9FED460ADD
S315080013A06068006880ED010A9FED430A606800687E
S315080013B080ED020AB7EE000A6068006880ED030A4D
S315080013C0B7EE000A6068006880ED040AB7EE000A06
S315080013D06068006880ED050A9FED370A6068006856
S315080013E080ED060A9FED340A6068006880ED070AFA
S315080013F09FED310A6068006880ED080A9FED2E0AA5
S315080014006068006880ED090A9FED2B0A606800682D
S3150800141080ED0A0A9FED280A6068006880ED0B0ACD
S315080014202748616888609FED240AA068006880EDF7
S31508001430000A9FED210AA068006880ED010A9FED69
S315080014401E0AA068006880ED020AB7EE000AA068C6
S31508001450006880ED030AB7EE000AA068006880ED10
S31508001460040AB7EE000AA068006880ED050A9FED39
S31508001470120AA068006880ED060A9FED0F0AA068A8
S31508001480006880ED070A9FED0C0AA068006880EDE9
S31508001490080A9FED090AA068006880ED090A9FED11
S315080014A0060AA068006880ED0A0A9FED030AA0688C
S315080014B0006880ED0B0A10BD00000000BB3F000865
S315080014C02140000810B5002400BF50E000F0B6F82F
S315080014D0514800680068006890ED060A4F48D0ED4C
S315080014E0000A30EE200A80ED000A4B4800680068C2
S315080014F0006890ED070A4A48D0ED000A30EE200A47
S3150800150080ED000A444800680068006890ED080A03
S315080015104448D0ED000A30EE200A80ED000A3E4825
S3150800152000684068006890ED060A3F48D0ED000A5A
S3150800153030EE200A80ED000A3748006840680068E7
S3150800154090ED070A3948D0ED000A30EE200A80ED02
S31508001550000A314800684068006890ED080A344877
S31508001560D0ED000A30EE200A80ED000A641C642CD7
S31508001570ACDB2A4890ED000ADFED2E0A80EE201A31
S31508001580254800680068006880ED001A244890ED38
S31508001590000ADFED280A80EE201A1F480068006856
S315080015A0006880ED011A1F4890ED000ADFED210A58
S315080015B080EE201A9FED200A31EE400A1648006890
S315080015C00068006880ED020A174890ED000ADFED12
S315080015D0190A80EE201A104800684068006880EDF5
S315080015E0001A124890ED000ADFED120A80EE201A62
S315080015F0094800684068006880ED011A0C4890EDBB
S31508001600000ADFED0C0A80EE201A034800684068DD
S31508001610006880ED021A10BD440000204800002032
S315080016204C000020500000205400002058000020E4
S315080016305C0000200000C8420000804610B56C49D6
S3150800164009684968086802F0EBFC69480068406860
S31508001650006890ED060A6648006840680068D0EDA4
S31508001660000A30EE600A6248006840680068D0EDFB
S31508001670030A20EE200ADFED5F0A80EE201A5C4896
S3150800168000684068006880ED091A59480068406893
S31508001690006890ED070A5648006840680068D0ED73
S315080016A0010A30EE600A5248006840680068D0EDCA
S315080016B0040A20EE200ADFED4F0A80EE201A4C4875
S315080016C000684068006880ED0A1A49480068406862
S315080016D0006890ED080A4648006840680068D0ED42
S315080016E0020A30EE600A4248006840680068D0ED99
S315080016F0050A20EE200ADFED3F0A80EE201A3C4854
S3150800170000684068006880ED0B1A3949096809685D
S31508001710086802F052FC364800680068006890EDD8
S31508001720060A3348006800680068D0ED000A30EE03
S31508001730600A2F48006800680068D0ED030A20EEAA
S31508001740200ADFED2D0A80EE201A29480068006875
S31508001750006880ED091A264800680068006890ED60
S31508001760070A2348006800680068D0ED010A30EED1
S31508001770600A1F48006800680068D0ED040A20EE79
S31508001780200ADFED1D0A80EE201A19480068006855
S31508001790006880ED0A1A164800680068006890ED2F
S315080017A0080A1348006800680068D0ED020A30EE9F
S315080017B0600A0F48006800680068D0ED050A20EE48
S315080017C0200ADFED0D0A80EE201A09480068006835
S315080017D0006880ED0B1A064909688968086803F0ED
S315080017E0D7FC03490968C86802F04EFC10BD000022
S315080017F0440000206F120343022FD14470B50446FB
S31508001800A56D00F063F9064694F83500022808D05D
S315080018108020606500BF002084F8340000BF0120E6
S3150800182070BD2068006820F01600216808602068EE
S31508001830406920F0800021684861206C08B9A06CD6
S3150800184028B12068006820F0080021680860206830
S31508001850006820F001002168086010E000F036F901
S31508001860801B05280BD920206065032084F83500E5
S3150800187000BF002084F8340000BF0320D0E72068AA
S31508001880006800F001000028E8D194F85C103F20B9
S315080018908840A860012084F8350000BF002084F83D
S315080018A0340000BF00BFBBE7014691F835000228A7
S315080018B003D08020486501207047052081F835004F
S315080018C00868006820F001000A6810600020F3E745
S315080018D070B5044600F0FAF806462546681C10B1AD
S315080018E004480078054400BF00F0F0F8801BA842C1
S315080018F0FAD370BD88000020F8B502460B460025CD
S31508001900002400200021C6E0012606FA01F51E681B
S3150800191006EA0504AC4274D11E7906F00306012EC8
S3150800192004D01E7906F00306022E13D190684F00E4
S315080019300326BE40B0434F00DE68BE403043906089
S31508001940506801268E40B0431E79C6F300168E40B5
S31508001950304350601E7906F00306032E09D0D0687E
S315080019604F000326BE40B0434F009E68BE4030433A
S31508001970D0601E7906F00306022E13D1CF0802F1B5
S31508001980200656F827004E07F70E0F26BE40B0432E
S315080019904F07FF0E1E69BE403043CF0802F12006EE
S315080019A046F8270010684F000326BE40B0431E794C
S315080019B006F003064F00BE40304310605E6806F42A
S315080019C04036002E66D000BF00260096344E366894
S315080019D046F48046324F3E603E46366806F48046F8
S315080019E0009600BF00BF2F4E8F0856F827008E07B7
S315080019F0370F0F26BE40B0432B4EB24202D1002607
S31508001A0015E047E0294EB24201D101260FE0284EE3
S31508001A10B24201D102260AE0264EB24201D103267D
S31508001A2005E0254EB24201D1042600E007268F07BD
S31508001A303F0FBE4030431B4E8F0846F827001F4E07
S31508001A403068A0435E6806F4803606B120431B4E14
S31508001A503060361D3068A0435E6806F4003606B16D
S31508001A602043164E361D3060361D3068A0435E682A
S31508001A7006F4801606B12043104E08363060361D2F
S31508001A803068A0435E6806F4001606B120430B4E84
S31508001A900C363060491C1029FFF436AFF8BD00003B
S31508001AA04438024008380140000002400004024061
S31508001AB000080240000C024000100240003C0140B1
S31508001AC00AB1816101E00B0483617047014800682F
S31508001AD0704700008000002070B504460CB901204C
S31508001AE070BD94F83D0028B9002084F83C002046D3
S31508001AF000F006FB242084F83D002068006820F0EA
S31508001B000100216808602068006840F400402168E8
S31508001B1008602068006820F400402168086000F02A
S31508001B205DFD05465C496068884206D85B48854283
S31508001B3001D2012007E0002005E05948854201D27C
S31508001B40012000E00020012800D1C9E75548B5FB6F
S31508001B50F0F62068406820F03F003043216848606E
S31508001B604D496068884201D8701C07E04FF49670AA
S31508001B7070434FF47A71B0FBF1F0401C2168096A92
S31508001B8021F03F010843216808624349606888429A
S31508001B9014D8681E61684900B0FBF1F0401CC0F318
S31508001BA00B00042801D204203DE0681E6168490044
S31508001BB0B0FBF1F0401CC0F30B0034E0A06838B964
S31508001BC0681E616801EB4101B0FBF1F0401C0AE0B8
S31508001BD0681E616801EBC10202EB0111B0FBF1F06E
S31508001BE0401C40F48040C0F30B0008B901201AE0FD
S31508001BF0A06848B9681E616801EB4101B0FBF1F0C5
S31508001C00401CC0F30B000CE0681E616801EBC102C2
S31508001C1002EB0111B0FBF1F0401CC0F30B0040F4DD
S31508001C20804040F400402168C9694CF6FF72914330
S31508001C3008432168C861D4E907010843216809688F
S31508001C4021F0C001084321680860D4E9031008435D
S31508001C502168896848F2FF32914308432168886001
S31508001C60D4E9050108432168C96821F0FF01084342
S31508001C702168C8602068006840F001002168086093
S31508001C8000202064202084F83D000020206384F88A
S31508001C903E0000BF24E70000A086010080841E00E5
S31508001CA000093D0040420F002DE9FC5F04460F463F
S31508001CB090469946DDE90CAB0E9EFFF707FF0546F1
S31508001CC094F83D00202870D119230122B0492046F6
S31508001CD0009502F01DF810B10220BDE8FC9F00BF78
S31508001CE094F83C00012801D10220F6E7012084F887
S31508001CF03C0000BF2068006800F0010028B9206891
S31508001D00006840F00100216808602068006820F437
S31508001D10006021680860222084F83D00402084F88D
S31508001D203E0000202064C4F824A0A4F82AB0608DE0
S31508001D3020859848E0624B46424639462046CDE91A
S31508001D40006501F097FE08B10120C6E7208D88B925
S31508001D5000BF0020019020684069019020688069D2
S31508001D60019000BF00BF2068006840F40070216839
S31508001D70086040E0208D012818D12068006820F40A
S31508001D8080602168086000BF0020019020684069D3
S31508001D90019020688069019000BF00BF2068006834
S31508001DA040F400702168086025E0EFE0208D0228E5
S31508001DB016D12068006820F48060216808602068D1
S31508001DC0006840F400602168086000BF00200190A8
S31508001DD020684069019020688069019000BF0AE088
S31508001DE000BF002001902068406901902068806942
S31508001DF0019000BF00BFBAE0208D03287ED8208D51
S31508001E00012815D12A463146204602F026F808B19F
S31508001E10012062E720680069616A0870606A401CF0
S31508001E206062208D401E2085608D401E60859EE084
S31508001E30208D02282AD1334600225749204600958C
S31508001E4001F066FF08B1012047E72068006840F402
S31508001E5000702168086020680069616A0870606A15
S31508001E60401C6062208D401E2085608D401E608566
S31508001E7020680069616A0870606A401C6062208D8B
S31508001E80401E2085608D401E608570E03346002226
S31508001E9041492046009501F03BFF08B101201CE7A7
S31508001EA02068006820F4806021680860206800695E
S31508001EB0616A0870606A401C6062208D401E208539
S31508001EC0608D401E608533460022334920460095C2
S31508001ED001F01EFF08B10120FFE62068006840F403
S31508001EE000702168086020680069616A0870606A85
S31508001EF0401C6062208D401E208500E010E0608D49
S31508001F00401E608520680069616A0870606A401C26
S31508001F106062208D401E2085608D401E608526E00B
S31508001F202A463146204601F098FF08B10120D4E63A
S31508001F3020680069616A0870606A401C6062208DCA
S31508001F40401E2085608D401E608520684069C0F36C
S31508001F50800060B120680069616A0870606A401C88
S31508001F606062208D401E2085608D401E6085208D14
S31508001F7000287FF441AF202084F83D00002084F833
S31508001F803E0000BF84F83C0000BFA6E60220A4E697
S31508001F90020010000000FFFF040001002DE9FC5FAD
S31508001FA004460F4690469946DDE90CAB0E9EFFF7B0
S31508001FB08DFD054694F83D0020287DD11923012280
S31508001FC04D492046009501F0A3FE10B10220BDE858
S31508001FD0FC9F00BF94F83C00012801D10220F6E7D7
S31508001FE0012084F83C0000BF2068006800F001006A
S31508001FF028B92068006840F0010021680860206858
S31508002000006820F4006021680860212084F83D00FB
S31508002010402084F83E0000202064C4F824A0A4F8D8
S315080020202AB0608D20853548E0624B4642463946DF
S315080020302046CDE9006501F0CDFD08B10120C6E7CF
S3150800204031E02A463146204601F047FF50B1206C60
S31508002050042805D12068006840F4007021680860EB
S315080020600120B4E7606A007821680861606A401C4C
S315080020706062208D401E2085608D401E6085206828
S315080020804069C0F3800070B1208D60B1606A007845
S3150800209021680861606A401C6062208D401E2085A8
S315080020A0608D401E6085208D0028CAD12A4631469B
S315080020B0204601F0FFFD00E01CE050B1206C04282A
S315080020C005D12068006840F4007021680860012086
S315080020D07DE72068006840F40070216808602020C9
S315080020E084F83D00002084F83E0000BF84F83C00D8
S315080020F000BF6CE702206AE7020010000000FFFF3D
S3150800210010B586B00446142101A8FEF70DF93C491E
S31508002110206888422FD100BF002000903948006807
S3150800212040F00200374908600846006800F00200DF
S31508002130009000BF00BFC02001901220029001202D
S315080021400390032004900420059001A92E48FFF768
S31508002150D3FB00BF002000902A481030006840F4E6
S3150800216000102849103108600846006800F400107D
S31508002170009000BF41E02549206888423DD100BF54
S31508002180002000901F48006840F002001D490860C2
S315080021900846006800F00200009000BF00BF08155E
S315080021A0019012200290012003900320049004203D
S315080021B0059001A91448FFF79FFB082001901220FB
S315080021C0029001200390032004900920059001A99C
S315080021D00D48FFF791FB00BF00200090094810301A
S315080021E0006840F480000749103108600846006816
S315080021F000F48000009000BF00BF06B010BD0000CC
S3150800220000540040303802400004024000580040A4
S31508002210034800680349097808440149086070477B
S31508002220800000208800002010B50D48006840F4A2
S3150800223000700B4908600846006840F48060086032
S315080022400846006840F480700860032000F0C8F86B
S31508002250002000F007F800F04BF8002010BD000041
S31508002260003C024070B588B00446002500260022CE
S315080022702146192000F076F8192000F063F800BF0F
S31508002280002001901648006840F4003014490860A0
S315080022900846006800F40030019000BF00BF02A99C
S315080022A003A800F073F900F0A9F905460D48B5FB37
S315080022B0F0F0461E0C480D49086040F2E7310B481D
S315080022C0C160466000210161816000F09DFC20B973
S315080022D0064800F0CDFC08B070BD0120FBE7000001
S315080022E04438024040420F0000440140F0020020FA
S315080022F008B500BF002000901148006840F48040EF
S315080023000F4908600846006800F48040009000BF46
S3150800231000BF00BF00200090081F006840F08050F2
S31508002320091F08600846006800F08050009000BF4A
S3150800233000BF00220F21901E00F014F808BD00000F
S315080023404438024001460846002809DB00F01F030E
S3150800235001229A4043099B0003F1E023C3F80021B8
S3150800236000BF70472DE9F05F80460D4616460027E8
S3150800237003F01AFD074639462A46334601F0070098
S31508002380C0F1070ABAF1040F02D94FF0040A01E0B6
S31508002390C0F1070AD14600F1040ABAF1070F02D2C2
S315080023A04FF0000A01E0A0F1030AD4464FF0010AF3
S315080023B00AFA09FAAAF1010A0AEA020A0AFA0CFA58
S315080023C04FF0010B0BFA0CFBABF1010B0BEA030BFD
S315080023D04AEA0B042146404603F0EEFCBDE8F09FAE
S315080023E000BF00F00702064B19684FF6FF031940B5
S315080023F0044B0B4343EA0221014B196000BF7047A7
S315080024000CED00E00000FA0570B504460D460CB95F
S31508002410012070BD5848006800F00700A84209D29C
S3150800242055490D700846006800F00700A84201D01B
S315080024300120EEE7207800F0020002281DD120785E
S3150800244000F00400042805D14C48006840F4E05028
S315080024504A490860207800F00800082805D147484E
S31508002460006840F46040454908604448006820F028
S31508002470F000A168084341490860207800F001008F
S31508002480A8B36068012807D13C4808380068C0F33B
S315080024904040B8B90120BCE76068022802D06068ED
S315080024A0032807D1354808380068C0F3406048B9A2
S315080024B00120AEE7314808380068C0F3400008B983
S315080024C00120A6E72D48006820F00300616808434C
S315080024D02A490860FFF7FAFA064609E0FFF7F6FA0E
S315080024E0801B41F28831884202D9032091E707E030
S315080024F02248006800F00C006168B0EB810FEDD14E
S315080025001D48006800F00700A84209D91A490D704D
S315080025100846006800F00700A84201D0012078E7C5
S31508002520207800F00400042807D11448006820F435
S31508002530E050E168084311490860207800F0080077
S31508002540082808D10D48006820F46040216940EA4F
S31508002550C1000A49086000F061F808490968C1F332
S315080025600311074A515CC8400649086006480068D6
S31508002570FFF778FE00204CE7003C0240083802408E
S315080025809C99000840000020840000200F22026069
S315080025900D4A126802F0030242600B4A126802F002
S315080025A0F0028260084A126802F4E052C260064AE3
S315080025B0126802F46042D2080261044A126802F004
S315080025C007020A607047000008380240003C0240D3
S315080025D001480068704700004000002000B5FFF77A
S315080025E0F7FF04490968C1F38221034A515CC840D0
S315080025F000BD000008380240AC99000800B5FFF796
S31508002600E7FF04490968C1F34231034A515CC840EF
S3150800261000BD000008380240AC9900082DE9F047D3
S31508002620002400250026A1462548006800F00C0075
S3150800263020B1042805D008283AD105E0DFF88490AF
S3150800264039E0DFF8849036E01D48001F006800F086
S315080026503F041B48001F006800F4800078B11A4840
S315080026601749091F0968C1F38811A0FB01700146C3
S31508002670224600233846FDF70DFE05460EE01148B2
S315080026800F49091F0968C1F38811A0FB01700146AB
S31508002690224600233846FDF7FDFD05460848001F7B
S315080026A00068C0F30140401C4600B5FBF6F902E09D
S315080026B0DFF8109000BF00BF4846BDE8F08700006D
S315080026C0083802400024F40040787D01F8B5044635
S315080026D00CB90120F8BD207800F00100002874D05C
S315080026E0F948006800F00C0004280DD0F648006888
S315080026F000F00C00082813D1F348001F006800F406
S315080027008000B0F5800F0BD1EF4808380068C0F399
S315080027104040002859D06068002856D10120D9E7E2
S3150800272000BF6068B0F5803F08D1E7480838006800
S3150800273040F48030E449083908601EE06068B0F566
S31508002740A02F0DD1E0480838006840F48020DE4903
S31508002750083908600846006840F4803008600CE0D4
S31508002760D9480838006820F48030D7490839086005
S315080027700846006820F48020086000BF606890B1B1
S31508002780FFF7A4F9054606E0FFF7A0F9401B642801
S3150800279001D903209EE7CC4808380068C0F34040BA
S315080027A00028F1D011E0FFF791F9054606E0FFF79A
S315080027B08DF9401B642801D903208BE7C2480838E5
S315080027C00068C0F340400028F1D1207800F00200EC
S315080027D002285FD1BC48006800F00C0058B1BA481E
S315080027E0006800F00C0008281CD1B748001F0068D4
S315080027F000F48000B0B9B44808380068C0F3400057
S3150800280020B1E068012801D0012063E7AE48083806
S31508002810006820F0F800216940EAC100AA49083991
S31508002820086037E0E06800B30120A8490860FFF7B0
S315080028304DF9054606E0FFF749F9401B022801D97C
S31508002840032047E7A04808380068C0F3400000287E
S31508002850F1D09D480838006820F0F800216940EA60
S31508002860C10099490839086014E0002097490860B2
S31508002870FFF72CF9054606E0FFF728F9401B022862
S3150800288001D9032026E7904808380068C0F34000BD
S315080028900028F1D1207800F0080008282CD16069BA
S315080028A0A8B101208A490860FFF710F9054606E035
S315080028B0FFF70CF9401B022801D903200AE78248D2
S315080028C06C300068C0F340000028F1D014E0002006
S315080028D07F490860FFF7FAF8054606E0FFF7F6F8BD
S315080028E0401B022801D90320F4E677486C300068BB
S315080028F0C0F340000028F1D1207800F00400042835
S3150800290070D1002770483830006800F0805090B9C0
S3150800291000BF002000906C483830006840F08050B6
S315080029206949383108600846006800F08050009010
S3150800293000BF00BF01276748006800F48070B0B97F
S315080029406448006840F4807062490860FFF7BEF882
S31508002950054606E0FFF7BAF8401B022801D903200E
S31508002960B8E65C48006800F480700028F2D000BF22
S31508002970A068012808D154486830006840F0010072
S315080029805149683108601DE0A06805280DD14E48F8
S315080029906830006840F004004B4968310860084612
S315080029A0006840F0010008600CE04748683000689D
S315080029B020F001004449683108600846006820F0A4
S315080029C00400086000BFA068A8B1FFF77FF80546B5
S315080029D009E0FFF77BF8401B41F28831884202D9AB
S315080029E0032077E626E0384868300068C0F34000E0
S315080029F00028EED013E0FFF769F8054608E0FFF770
S31508002A0065F8401B41F28831884201D9032061E606
S31508002A102D4868300068C0F340000028EFD1012F28
S31508002A2007D129483830006820F0805026493831C7
S31508002A30086000BFA069002845D02348006800F058
S31508002A400C0008285DD0A069022845D100201F493E
S31508002A500866FFF73BF8054606E0FFF737F8401B20
S31508002A60022801D9032035E6174808380068C0F35C
S31508002A7040600028F1D1D4E907010843616A40EAB9
S31508002A8081110122A06AC2EB500041EA00412C20C4
S31508002A90005D41EA00600C49091F086001200B49E6
S31508002AA00866FFF713F8054606E0FFF70FF8401B20
S31508002AB0022801D903200DE6034808380068C0F348
S31508002AC040600028F1D049E008380240000047423B
S31508002AD0800E474200700040002021490866FEF734
S31508002AE0F5FF054606E0FEF7F1FF401B022801D96F
S31508002AF00320EFE51B480068C0F340600028F2D1C8
S31508002B002CE0A069012800D1E4E51648001D0668F6
S31508002B10A069012820D006F48001E06981421BD112
S31508002B2006F03F01206A814216D147F6C070304050
S31508002B30616AB0EB811F0FD106F440310122A06A09
S31508002B40C2EB5000B1EB004F06D106F070612C20A5
S31508002B50005DB1EB006F01D00120BBE50020B9E5AF
S31508002B6000004742003802407047704730B50246B9
S31508002B700B4600BF92F83C00012801D1022030BD67
S31508002B80012082F83C0000BF022082F83D00106850
S31508002B9044681068816824F0700418680443106853
S31508002BA04460144D1068A84213D01068B0F1804FE5
S31508002BB00FD0114D1068A8420BD0104D1068A842CE
S31508002BC007D00F4D1068A84203D00E4D1068A842D2
S31508002BD005D121F080015868014310688160012001
S31508002BE082F83D0000BF002082F83C0000BF00BF0D
S31508002BF0C5E700000000014000040040000800404E
S31508002C00000C00400040014010B504460CB90120F4
S31508002C1010BD94F83D0028B9002084F83C002046F1
S31508002C2000F025F8022084F83D00211D206802F0F6
S31508002C30B1FB012084F8460000BF84F83E0001215C
S31508002C403F200155402001554120015500BF00BFD6
S31508002C50012084F8420043200155442001554520AF
S31508002C60015500BF012084F83D000020D0E77047D9
S31508002C70014691F83D00012801D001207047022045
S31508002C8081F83D000868C06840F001000B68D8600C
S31508002C90164B0868984213D00868B0F1804F0FD0D9
S31508002CA0134B086898420BD0124B0868984207D015
S31508002CB0114B0868984203D0104B086898420CD10B
S31508002CC00868806800F00702062A0CD008680068C1
S31508002CD040F001000B68186005E00868006840F0DD
S31508002CE001000B6818600020C8E7000000000140DA
S31508002CF00004004000080040000C0040004001406D
S31508002D0070472DE9F04104460D461646002700BFD8
S31508002D1094F83C00012802D10220BDE8F081012088
S31508002D2084F83C0000BF96B9EB68D5E90012206824
S31508002D3002F03EFC2068806920F00C00216888615A
S31508002D4020688069A96808432168886141E0042EE3
S31508002D5013D1EB68D5E90012206802F067FC2068F9
S31508002D60806920F440602168886120688069A968C4
S31508002D7040EA0120216888612BE0082E12D1EB6811
S31508002D80D5E90012206802F06EFC2068C06920F0C0
S31508002D900C002168C8612068C069A96808432168D1
S31508002DA0C86116E00C2E13D1EB68D5E9001220682D
S31508002DB002F075FC2068C06920F440602168C8618B
S31508002DC02068C069A96840EA01202168C86100E056
S31508002DD0012700BF002084F83C0000BF38469CE766
S31508002DE010B504460CB9012010BD94F83D0028B969
S31508002DF0002084F83C00204600F026F8022084F8DB
S31508002E003D00211D206802F0C5FA012084F846001D
S31508002E1000BF84F83E0001213F200155402001559E
S31508002E204120015500BF00BF012084F8420043201D
S31508002E300155442001554520015500BF012084F85D
S31508002E403D000020D0E7000010B586B004461421E6
S31508002E5001A8FDF769FA61492068884240D100BF98
S31508002E60002000905E48006840F001005C49086058
S31508002E700846006800F00100009000BF00BF00BFD0
S31508002E800020009056481438006840F00100544964
S31508002E90143908600846006800F00100009000BF79
S31508002EA000BF4FF44070019002200290002003906A
S31508002EB004900120059001A94A48FEF71DFD00224D
S31508002EC011461920FFF74EFA1920FFF73BFA0022A0
S31508002ED005211B20FFF746FA1B20FFF733FA7BE094
S31508002EE02068B0F1804F39D100BF002000903C48DF
S31508002EF0001F006840F001003949091F08600846AC
S31508002F00006800F00100009000BF00BF00BF00206D
S31508002F10009033481438006840F0010030491439ED
S31508002F2008600846006800F00100009000BF00BF76
S31508002F3003200190022002900020039004900120B3
S31508002F40059001A92748FEF7D7FC002205211C2079
S31508002F50FFF708FA1C20FFF7F5F93DE0224920683B
S31508002F60884239D100BF002000901D48001F006824
S31508002F7040F004001A49091F08600846006800F076
S31508002F800400009000BF00BF00BF00200090144856
S31508002F901438006840F002001149143908600846E0
S31508002FA0006800F00200009000BF00BF4FF44070B8
S31508002FB001900220029000200390049002200590C0
S31508002FC001A90A48FEF798FC002205211E20FFF7F2
S31508002FD0C9F91E20FFF7B6F906B010BD000001407A
S31508002FE04438024000000240000800400004024045
S31508002FF010B5044620680069C0F34000D8B12068BF
S31508003000C068C0F34000B0B16FF0020021680861E3
S31508003010012020772068806900F0030018B1204657
S31508003020FFF76EFE05E0204600F0FCF8204600F0AB
S31508003030C9F90020207720680069C0F38000D8B15C
S315080030402068C068C0F38000B0B16FF00400216842
S315080030500861022020772068806900F4407018B162
S315080030602046FFF74DFE05E0204600F0DBF8204637
S3150800307000F0A8F90020207720680069C0F3C00096
S31508003080D8B12068C068C0F3C000B0B16FF00800BE
S3150800309021680861042020772068C06900F00300D1
S315080030A018B12046FFF72CFE05E0204600F0BAF8D6
S315080030B0204600F087F90020207720680069C0F3D1
S315080030C00010D8B12068C068C0F30010B0B16FF026
S315080030D0100021680861082020772068C06900F47C
S315080030E0407018B12046FFF70BFE05E0204600F0B9
S315080030F099F8204600F066F90020207720680069D4
S3150800310000F0010058B12068C06800F0010030B135
S315080031106FF0010021680861204600F055F9206823
S315080031200069C0F3C01058B12068C068C0F3C01069
S3150800313030B16FF08000216808612046FFF714FD62
S3150800314020680069C0F3801058B12068C068C0F3D1
S31508003150801030B16FF0400021680861204600F009
S315080031603FF920680069C0F3401058B12068C0686C
S31508003170C0F3401030B16FF0200021680861204686
S31508003180FFF7F3FC10BD000010B586B00446142105
S3150800319001A8FDF7C9F81F492068884238D100BF41
S315080031A0002000901C48006840F001001A49086099
S315080031B00846006800F00100009000BF00BF00BF8D
S315080031C0002000900846006840F0020008600846A3
S315080031D0006800F00200009000BF00BFC020019008
S315080031E0022002900020039004900220059001A975
S315080031F00A48FEF781FB0320019002200290002076
S31508003200039004900220059001A90548FEF774FB77
S3150800321006B010BD000400403038024000000240ED
S315080032200004024070472DE9F04104460D46164653
S31508003230002700BF94F83C00012802D10220BDE80F
S31508003240F081012084F83C0000BF36B1042E1BD063
S31508003250082E31D00C2E5ED145E02946206802F0B2
S31508003260EBF82068806940F00800216888612068CA
S31508003270806920F0040021688861206880692969CE
S3150800328008432168886148E02946206802F004F965
S315080032902068806940F40060216888612068806938
S315080032A020F480602168886120688069296940EA7D
S315080032B001202168886130E02946206802F020F95B
S315080032C02068C06940F008002168C8612068C069A4
S315080032D020F004002168C8612068C069296908438C
S315080032E02168C86119E02946206802F03DF920687E
S315080032F0C06940F400602168C8612068C06920F48C
S3150800330080602168C8612068C069296940EA01208F
S315080033102168C86101E0012700BF00BF00BF002087
S3150800332084F83C0000BF384689E710B504460CB956
S31508003330012010BD94F83D0028B9002084F83C000F
S31508003340204600F025F8022084F83D00211D20685B
S3150800335002F020F8012084F8460000BF84F83E00F9
S3150800336001213F200155402001554120015500BF4C
S3150800337000BF012084F8420043200155442001552E
S315080033804520015500BF012084F83D000020D0E704
S3150800339008B50A4A016891420FD100BF0021009181
S315080033A00749096841F00201054A11601146096892
S315080033B001F00201009100BF00BF08BD00040040F3
S315080033C0403802407047000010B50446034920689B
S315080033D0884201D1FEF71CFF10BD000000440140E1
S315080033E070477047704700002DE9F84F044620687B
S315080033F005682068C668206847694FF00009CA460C
S3150800340005F00F09B9F1000F0AD105F0200038B10F
S3150800341006F0200020B1204602F05CFABDE8F88FDD
S31508003420B9F1000F7CD007F0010018B906F49070C6
S31508003430002875D005F0010030B106F4807018B187
S31508003440206C40F00100206405F0040030B107F05C
S31508003450010018B1206C40F00200206405F002005B
S3150800346030B107F0010018B1206C40F00400206468
S3150800347005F0080048B106F0200010B907F0010071
S3150800348018B1206C40F008002064206C002846D053
S3150800349005F0200028B106F0200010B1204602F001
S315080034A019FA20684069C0F3801A206C00F00800F9
S315080034B010B9BAF1000F2DD0204602F0C5F92068E0
S315080034C0406900F04000402820D100BF00BF2168B5
S315080034D0143151E8001F21F040002168143141E8F9
S315080034E00002002AF3D100BFA06B50B17548A16B4A
S315080034F00865A06BFEF7D8F988B1A06B016D8847FF
S315080035000DE02046FFF76EFF09E009E02046FFF7C9
S3150800351069FF04E02046FFF765FF002020647DE789
S31508003520206B012876D105F01000002872D006F02D
S3150800353010000028FAD000BF00200090206800681C
S31508003540009020684068009000BF00BF206840696E
S3150800355000F0400040285ED1A06B006840681FFA62
S3150800356080F8B8F1000F54D0A08D404551DDA4F87D
S315080035702E80A06BC069B0F5807F43D000BF00BF26
S3150800358021680C3151E8001F21F4807021680C3144
S3150800359041E80002002AF3D100BF00BF00BF21683E
S315080035A0143151E8001F21F001002168143141E867
S315080035B00002002AF3D100BF00BF00BF2168143102
S315080035C051E8001F21F040002168143141E800024B
S315080035D0002AF3D100BF202084F83E000020206393
S315080035E000BF00BF21680C3151E8001F21F0100010
S315080035F021680C3141E80002002AF3D100BFA06B14
S31508003600FEF7FCF8A08DE28D801A81B22046FFF7FE
S31508003610E8FE03E740E0A08DE18D401A1FFA80F826
S31508003620E08DC0B3B8F1000F35D000BF00BF2168E8
S315080036300C3151E8001F21F4907021680C3141E8E3
S315080036400002002AF3D100BF00BF00BF2168143171
S3150800365051E8001F21F001002168143141E80002F9
S31508003660002AF3D100BF202084F83E000020206302
S3150800367000BF00BF21680C3151E8001F21F010007F
S3150800368021680C3141E80002002AF3D100BF414607
S315080036902046FFF7A6FEC1E605F0800030B106F029
S315080036A0800018B1204602F0A7FAB7E605F04000F8
S315080036B030B106F0400018B1204602F0FBF8ADE63E
S315080036C000BFABE63558000810B504460CB9012012
S315080036D010BDA06900B100E000BF94F83D0028B90C
S315080036E0002084F83C00204600F028F8242084F8BE
S315080036F03D002068C06820F400502168C860204654
S3150800370002F064F92068006920F490402168086195
S315080037102068406920F02A00216848612068C0684E
S3150800372040F400502168C86000202064202084F8F6
S315080037303D0084F83E000020CAE7000010B586B0B8
S315080037400446142101A8FCF7EFFD5E49206888426B
S3150800375039D100BF002000905B48006840F0100097
S31508003760594908600846006800F01000009000BF3C
S3150800377000BF00BF0020009053481438006840F08E
S3150800378001005149143908600846006800F0010034
S31508003790009000BF00BF4FF4044001900220029041
S315080037A000200390032004900720059001A94748AC
S315080037B0FEF7A2F8002208212520FEF7D3FD2520D2
S315080037C0FEF7C0FD7BE04249206888423AD100BF37
S315080037D0002000903C48001F006840F400303A4939
S315080037E0091F08600846006800F40030009000BF12
S315080037F000BF00BF0020009033481438006840F02E
S3150800380001003149143908600846006800F00100D3
S31508003810009000BF00BF0C200190022002900020FB
S315080038200390032004900720059001A92748FEF776
S3150800383063F8002207212620FEF794FD2620FEF7CE
S3150800384081FD3CE023492068884238D100BF00202A
S3150800385000901D48006840F020001B490860084693
S31508003860006800F02000009000BF00BF00BF0020E5
S31508003870009015481438006840F0010012491439C0
S3150800388008600846006800F00100009000BF00BF0D
S315080038904FF4C050019002200290002003900320AC
S315080038A004900820059001A90848FEF725F800228B
S315080038B006214720FEF756FD4720FEF743FD06B0D2
S315080038C010BD0000001001404438024000000240CC
S315080038D0004400400014014070472DE9F84F0446A3
S315080038E00E46174699464FF0000A94F83D002028E0
S315080038F05AD106B117B90120BDE8F88F00BF94F870
S315080039003C00012801D10220F6E7012084F83C009A
S3150800391000BF00202064212084F83D00FEF7D6F879
S315080039208246A784E784A068B0F5805F04D1206941
S3150800393010B90025B04602E035464FF0000800BF32
S31508003940002084F83C0000BF1BE05346002280217B
S315080039502046CDF8009002F07FF908B10320CBE7A6
S3150800396045B9B8F80000C0F308002168486008F1B6
S31508003970020803E02878216848606D1CE08C401E28
S31508003980E084E08C0028E0D15346002240212046FE
S31508003990CDF8009002F060F908B10320ACE72020CA
S315080039A084F83D000020A7E70220A5E7704710B578
S315080039B05821002000F020F8E021012000F01CF832
S315080039C00021022000F018F810BD0000FEB50446DC
S315080039D00E46154640F6FF70012322463D21CDE9E5
S315080039E0005602900348FEF75FF96420FDF770FF62
S315080039F00020FEBD9C0200207FB504460D4600202F
S31508003A000390039540F6FF70012103AA0B46CDE902
S31508003A100021029022463C210448FEF7BFFA6420A2
S31508003A20FDF756FF002004B070BD00009C02002080
S31508003A3000BFFEE7014608684069C0F38020B0B1C0
S31508003A406FF480600A68506100200863202081F8BE
S31508003A503D00002081F83E00086C40F00400086430
S31508003A6000BF002081F83C0000BF012070470020FD
S31508003A70FCE700002DE9F84304460F46154699462B
S31508003A80DDE908862068006840F4806021680860DF
S31508003A902068006840F48070216808604346002268
S31508003AA04FF001112046009600F032F960B1206807
S31508003AB0006800F48070B0F5807F02D14FF4007082
S31508003AC020640320BDE8F88307F0FE00216808613A
S31508003AD0334642463E49204600F05DF908B10120CA
S31508003AE0F0E700BF00200090206840690090206839
S31508003AF08069009000BF00BF32464146204600F06C
S31508003B00ECF950B1206C042805D12068006840F40F
S31508003B100070216808600120D4E7B9F1010F03D1CC
S31508003B20E8B22168086117E0C5F307202168086133
S31508003B3032464146204600F0D0F950B1206C0428A0
S31508003B4005D12068006840F40070216808600120EB
S31508003B50B8E7E8B22168086132464146204600F0D7
S31508003B60BCF950B1206C042805D12068006840F4DF
S31508003B700070216808600120A4E72068006840F406
S31508003B80807021680860434600224FF001112046E4
S31508003B90009600F0BDF858B12068006800F48070FF
S31508003BA0B0F5807F02D14FF400702064032089E7C6
S31508003BB0F8B240F0010021680861334642460449DC
S31508003BC0204600F0E8F808B101207BE7002079E7F5
S31508003BD0020001002DE9F843044688461546994631
S31508003BE0DDE908672068006840F48070216808608D
S31508003BF0334600224FF001112046009700F088F85E
S31508003C0060B12068006800F48070B0F5807F02D14A
S31508003C104FF4007020640320BDE8F88308F0FE0026
S31508003C20216808613B4632462149204600F0B3F830
S31508003C3008B10120F0E700BF002000902068406925
S31508003C40009020688069009000BF00BF3A46314660
S31508003C50204600F042F950B1206C042805D12068AE
S31508003C60006840F40070216808600120D4E7B9F1C3
S31508003C70010F03D1E8B22168086117E0C5F30720F0
S31508003C80216808613A463146204600F026F950B1C7
S31508003C90206C042805D12068006840F4007021686B
S31508003CA008600120B8E7E8B2216808610020B3E798
S31508003CB00200010070B504460D46164620E020466F
S31508003CC0FFF7B8FE08B1012070BD681CC0B1FDF74A
S31508003CD0FDFE801BA84200D895B90020206320204D
S31508003CE084F83D00002084F83E00206C40F0200057
S31508003CF0206400BF002084F83C0000BF0120E3E7F1
S31508003D0020684069C0F380000028D8D00020DBE78F
S31508003D102DE9F04104460D4617461E46DDF8188083
S31508003D201CE0701CD0B1FDF7D1FEA0EB0800B04234
S31508003D3000D89EB900202063202084F83D0000208A
S31508003D4084F83E00206C40F02000206400BF00206C
S31508003D5084F83C0000BF0120BDE8F081C5F30740A8
S31508003D6001280AD120684069A9B20840A9B2884248
S31508003D7001D101200BE0002009E020688069A9B282
S31508003D800840A9B2884201D1012000E00020B842CB
S31508003D90C7D00020E0E72DE9F04104460D46164657
S31508003DA01F463DE020684069C0F38020E8B12068DE
S31508003DB0006840F40070216808606FF4806021682C
S31508003DC0486100202063202084F83D00002084F804
S31508003DD03E00206C40F00400206400BF002084F8F8
S31508003DE03C0000BF0120BDE8F081701CC0B1FDF7A2
S31508003DF06DFEC01BB04200D896B900202063202073
S31508003E0084F83D00002084F83E00206C40F0200035
S31508003E10206400BF002084F83C0000BF0120E2E7D0
S31508003E20C5F3074001280AD120684069A9B20840AD
S31508003E30A9B2884201D101200BE0002009E02068E0
S31508003E408069A9B20840A9B2884201D1012000E0E0
S31508003E5000200028A6D00020C5E770B504460D4608
S31508003E60164632E020684069C0F30010A0B16FF032
S31508003E7010002168486100202063202084F83D0056
S31508003E80002084F83E00206C206400BF002084F8DF
S31508003E903C0000BF012070BDFDF718FE801BA8423C
S31508003EA000D895B900202063202084F83D00002022
S31508003EB084F83E00206C40F02000206400BF0020FB
S31508003EC084F83C0000BF0120E5E720684069C0F39C
S31508003ED080100028C6D00020DDE770B504460D46E0
S31508003EE0164620E02046FFF7A5FD08B1012070BD63
S31508003EF0681CC0B1FDF7EAFD801BA84200D895B939
S31508003F0000202063202084F83D00002084F83E002D
S31508003F10206C40F02000206400BF002084F83C009C
S31508003F2000BF0120E3E720684069C0F3C0100028FD
S31508003F30D8D00020DBE708B500226B21682000F006
S31508003F4053F96420FDF7C4FC002000F008F964204A
S31508003F50FDF7BEFC002000F0F9F86420FDF7B8FC78
S31508003F60C82000F023F96420FDF7B2FC00226A217C
S31508003F70682000F039F96420FDF7AAFC0022232105
S31508003F80682000F031F96420FDF7A2FC6A46752125
S31508003F90682000F0B3F89DF80000682809D10122CE
S31508003FA06B2100F021F900226C21682000F01CF931
S31508003FB001E0012008BD0020FCE77CB504466B46FD
S31508003FC006223B21682000F0ADF8054635BB9DF872
S31508003FD001009DF8001040EA012000B200EE100A28
S31508003FE0B8EEC00A84ED060A9DF803009DF8021093
S31508003FF040EA012000B200EE100AB8EEC00A84EDCD
S31508004000070A9DF805009DF8041040EA012000B251
S3150800401000EE100AB8EEC00A84ED080A28467CBDF0
S315080040207CB504466B4606224321682000F07AF8E0
S31508004030054635BB9DF801009DF8001040EA0120B1
S3150800404000B200EE100AB8EEC00A84ED060A9DF822
S3150800405003009DF8021040EA012000B200EE100AA3
S31508004060B8EEC00A84ED070A9DF805009DF804100D
S3150800407040EA012000B200EE100AB8EEC00A84ED4C
S31508004080080A28467CBD000070B52DED068B82B067
S31508004090044601AB02224121682000F043F8064697
S315080040A0F6B99DF805009DF8041040EA012005B20E
S315080040B02846FCF7CCFA41EC1A0B9FED0C0B53EC97
S315080040C0102BFCF755FA41EC190B9FED0A0B53EC34
S315080040D0102BFCF734F941EC180BFCF7DCFA2060DE
S315080040E0F0B202B0BDEC068B70BD00000000000007
S315080040F00040754000000000D7434240FEB5044624
S315080041000D46164640F6FF700121CDE90061029082
S31508004110610001232A460248FDF7C6FD0020FEBDC0
S315080041209C020020FEB504460D4616461F4640F67C
S31508004130FF70610001232A46CDE900760290024805
S31508004140FDF7B2FD0020FEBD9C02002010B5044616
S31508004150E006020E1C21682000F046F810BD10B5D6
S315080041600446E006020E1B21682000F03DF810BD4B
S3150800417070B504460025BC2C01DB012510E0622C35
S3150800418001DB02250CE02A2C01DB032508E0142CB0
S3150800419001DB042504E00A2C01DB052500E00625E1
S315080041A02A461A21682000F01FF870BD70B504462B
S315080041B0B4F57A7F01DD4FF47A74042C00DA04240E
S315080041C04FF47A7090FBF4F0401EC5B22A461921C6
S315080041D0682000F009F80546264604EBD671C1F3B7
S315080041E04F00FFF7C5FF70BD7FB504460D4616465E
S315080041F000200390039640F6FF70012103AACDE93B
S3150800420000210290610001232A460348FDF7C6FEF5
S31508004210002004B070BD00009C02002010B50948BB
S3150800422003F010F908490860084803F00BF9084933
S315080042300860084A0021084803F05DF90749086044
S3150800424010BD00007C990008300000208C990008F9
S315080042503400002058990008695200082C000020F4
S3150800426000B587B0142102A8FCF75EF800BF00204D
S3150800427001902748006840F0040025490860084670
S31508004280006800F00400019000BF00BF00BF0020D6
S3150800429001900846006840F08000086008460068FB
S315080042A000F08000019000BF00BF00BF0020019011
S315080042B00846006840F0010008600846006800F0FB
S315080042C00100019000BF00BF00BF00200190084612
S315080042D0006840F0020008600846006800F0020026
S315080042E0019000BF00BF00224FF400510948FDF7B6
S315080042F0E7FB4FF400500290012003900020049041
S31508004300059002A90348FDF7F7FA07B000BD0000BB
S31508004310303802400008024010B50B480B490860C7
S315080043200B484860002109488160C1604FF480410C
S315080043300161002141618161C1610162FDF7CCFB28
S3150800434008B1FCF79AFF10BD00540040480200204F
S31508004350801A060010B50B480B4908600B484860E0
S31508004360002109488160C1604FF480410161002144
S3150800437041618161C1610162FDF7AEFB08B1FCF7DD
S315080043807CFF10BD005800409C020020801A0600E1
S3150800439000B587B000200590069001900290039022
S315080043A004901B481B49086063204860002119488F
S315080043B081604FF6FF71C160002101614161816131
S315080043C0FEF70EFD08B1FCF758FF00200590069091
S315080043D005A91048FEF7CAFB08B1FCF74EFF0020F6
S315080043E0019001200290002003900490002201A968
S315080043F00848FEF786FC08B1FCF73FFF042201A92E
S315080044000448FEF77EFC08B1FCF737FF07B000BD8D
S31508004410000001403803002000B587B00020059051
S31508004420069001900290039004904FF080401A493C
S31508004430086063204860002117488160491EC160F2
S31508004440002101618161FEF7CBFC08B1FCF715FF7D
S3150800445000200590069005A90F48FEF787FB08B1CE
S31508004460FCF70BFF0020019001200290002003902A
S315080044700490002201A90848FEF743FC08B1FCF79E
S31508004480FCFE042201A90448FEF73BFC08B1FCF730
S31508004490F4FE07B000BD00008003002000B589B017
S315080044A00020079008901C216846FBF73DFF24482A
S315080044B024490860C720486000212248816042F2EA
S315080044C00F71C160002101618161FEF72EFF08B1FD
S315080044D0FCF7D3FE00200790089007A91948FEF7B5
S315080044E045FB08B1FCF7C9FE60200090002001904A
S315080044F002900490002269461248FEF794FE08B11D
S31508004500FCF7BBFE042269460E48FEF78CFE08B18E
S31508004510FCF7B3FE082269460A48FEF784FE08B18E
S31508004520FCF7ABFE0C2269460648FEF77CFE08B18E
S31508004530FCF7A3FE0348FEF727FE09B000BD0000FE
S3150800454000040040C803002000B587B0002005908D
S31508004550069001900290039004901B481B4908603E
S31508004560632048600021194881604FF6FF71C160D9
S31508004570002101618161FEF733FC08B1FCF77DFE7D
S3150800458000200590069005A91048FEF7EFFA08B135
S31508004590FCF773FE00200190012002900020039092
S315080045A00490082201A90948FEF7ABFB08B1FCF7FD
S315080045B064FE0C2201A90548FEF7A3FB08B1FCF727
S315080045C05CFE07B000BD0000000800401004002093
S315080045D010B50B480B4908604FF4E13048600021DC
S315080045E008488160C16001610C2141610021816137
S315080045F0C161FFF769F808B1FCF73FFE10BD00007E
S31508004600001001405804002010B50B480B490860FB
S315080046104FF4E1304860002108488160C1600161BB
S315080046200C21416100218161C161FFF74DF808B194
S31508004630FCF723FE10BD0000004400409C04002047
S3150800464010B50B480B4908604FF4E130486000216B
S3150800465008488160C16001610C21416100218161C6
S31508004660C161FFF731F808B1FCF707FE10BD00007D
S3150800467000140140E004002000BFFEE700BFFEE78B
S3150800468070B5002415E004F1B001C8B200F044F991
S31508004690002000F041F9102000F03EF9002504E062
S315080046A0002000F04DF9681CC5B2802DF8DB601CAF
S315080046B0C4B2082CE7DB70BD10B50C233EA200215E
S315080046C0084600F00BF90C233CA200212A2000F032
S315080046D005F90C233AA20021542000F0FFF80C2318
S315080046E038A20121002000F0F9F80C2336A2012196
S315080046F02A2000F0F3F80C2334A20121542000F0FC
S31508004700EDF80C2332A20221002000F0E7F80C2372
S3150800471030A202212A2000F0E1F80C232EA2022161
S31508004720542000F0DBF80C232CA20321002000F013
S31508004730D5F80C232AA203212A2000F0CFF80C234F
S3150800474028A20321542000F0C9F80C2326A204212C
S31508004750002000F0C3F80C2324A204212A2000F02C
S31508004760BDF80C2322A20421542000F0B7F80C232C
S3150800477020A20521002000F0B1F80C231EA2052175
S31508004780402000F0ABF80C231CA20621002000F004
S31508004790A5F80C231AA20621402000F09FF80C2346
S315080047A018A20721002000F099F80C2316A2072169
S315080047B0402000F093F810BD47783D0047793D004A
S315080047C0477A3D0041783D0041793D00417A3D00F8
S315080047D04D783D004D793D004D7A3D0043313D0011
S315080047E043323D0043333D0043343D0043353D00ED
S315080047F043363D004D313D004D323D004D333D00C1
S315080048004D343D00543D0000503D000010B5C82011
S31508004810FDF75EF801F084FA10BD70B504460D4642
S3150800482005F1B001C8B200F077F8102141EA14107A
S3150800483000F072F804F00F0000F06EF870BD00008A
S315080048402DE9F04707460E4690469946002500246E
S31508004850A8F12000C5B27F2F02DD0027B01CC6B222
S31508004860B9F1100F22D131463846FFF7D6FF00249A
S3150800487007E004EB0511174A505C00F061F8601C6C
S31508004880C4B2082CF5DB701CC1B23846FFF7C5FF69
S31508004890002408E004EB051108310E4A505C00F0CC
S315080048A04FF8601CC4B2082CF4DB11E031463846D8
S315080048B0FFF7B3FF002409E005EB4501064A02EBC2
S315080048C04101085D00F03CF8601CC4B2062CF3DB1D
S315080048D0BDE8F087DC9B0008B49900082DE9F04193
S315080048E004460F461546984600260FE0AA5D43463D
S315080048F039462046FFF7A4FF04F10800C4B2782C15
S3150800490002DD0024B81CC7B2701CC6B2A85D002818
S31508004910ECD1BDE8F081000001B584B04FF4807099
S31508004920012104AA0B46CDE9002102900022782134
S315080049300248FDF733FB05B000BD00004802002021
S3150800494001B584B04FF48070012104AA0B46CDE965
S3150800495000210290402278210248FDF71FFB05B08E
S3150800496000BD00004802002000B5A3B018AA062121
S315080049700320FFF72BF878BB9DF861009DF86010BF
S3150800498040EA012000B221909DF865009DF8641068
S3150800499040EA012000B220909DF863009DF862105D
S315080049A040EA012000B21F902198B0F5004F03DBC2
S315080049B02198401C00B221902098B0F5004F03DBE7
S315080049C02098401C00B220901F98B0F5004F03DBDA
S315080049D01F98401C00B21F909FEDFE0A8DED1C0A21
S315080049E09FEDFC0A8DED1D0A1D98FBF741FECDE9EA
S315080049F008019DED080B01F077FE8DED0C0B1F9855
S31508004A00FBF725FECDE90A019DED0C0B53EC102BA7
S31508004A109DED0A0B51EC100BFBF738FDCDE91001A3
S31508004A201D98FBF725FECDE908019DED080B01F061
S31508004A30F7FD8DED0C0B2098FBF709FECDE90A0171
S31508004A409DED0C0B53EC102B9DED0A0B51EC100B46
S31508004A50FBF71CFDCDE90E019DED100B53EC102B59
S31508004A609DED0E0B51EC100BFBF70AFDCDE9140179
S31508004A701D98FBF7FDFDCDE908019DED080B01F03A
S31508004A80CFFD8DED0C0B1C98FBF7F2FDCDE904016B
S31508004A909DED040B01F028FE8DED080B1F98FBF722
S31508004AA0D6FDCDE906019DED080B53EC102B9DEDC7
S31508004AB0060B51EC100BFBF7E9FCCDE90A019DED5D
S31508004AC00C0B53EC102B9DED0A0B51EC100BFBF75E
S31508004AD0DDFCCDE910011D98FBF7CAFDCDE90401FF
S31508004AE09DED040B01F000FE8DED080B1C98FBF7FD
S31508004AF0BFFDCDE900019DED000B01F0F5FD8DED43
S31508004B00040B2098FBF7A3FDCDE902019DED040BEC
S31508004B1053EC102B9DED020B51EC100BFBF7B6FC7A
S31508004B20CDE906019DED080B53EC102B9DED060B08
S31508004B3051EC100BFBF7AAFCCDE90C011C98FBF70E
S31508004B4097FDCDE904019DED040B01F069FD8DED9E
S31508004B50080B2198FBF77BFDCDE906019DED080BB7
S31508004B6053EC102B9DED060B51EC100BFBF78EFC4E
S31508004B70CDE90A019DED0C0B53EC102B9DED0A0BAC
S31508004B8051EC100BFBF7DBFBCDE90E019DED100B8D
S31508004B9053EC102B9DED0E0B51EC100BFBF7CFFBD6
S31508004BA0CDE912019DED141B9DED120B01F038FCA9
S31508004BB08DED160B9DED160B51EC100BFBF76BFDEF
S31508004BC01E909DED1E0AF6EE000A20EE200A8DEDD7
S31508004BD00B0A0B98FBF74CFDCDE90C019DED0C0B70
S31508004BE001F082FD8DED100B9DED1D0AF6EE000A13
S31508004BF020EE200A8DED070A0798FBF739FDCDE967
S31508004C0008019DED080B01F06FFD8DED0C0B9DED78
S31508004C101C0AF6EE000A20EE200A8DED070A079810
S31508004C20FBF726FDCDE908019DED080B01F05CFDBB
S31508004C308DED0A0B9DED0C0B53EC102B9DED0A0B1D
S31508004C4051EC100BFBF722FCCDE90E019DED100B84
S31508004C5053EC102B9DED0E0B51EC100BFBF716FCCD
S31508004C60CDE914019DED1E0AF6EE000A20EE200A93
S31508004C708DED0B0A0B98FBF7FBFCCDE90C019DEDBE
S31508004C800C0B01F0CDFC8DED100B9DED1D0AF6EE1B
S31508004C90000A20EE200A8DED070A0798FBF7E8FCC4
S31508004CA0CDE908019DED080B01F0BAFC8DED0C0B62
S31508004CB09DED1C0AF6EE000A20EE200A8DED070A85
S31508004CC00798FBF7D5FCCDE908019DED080B01F027
S31508004CD0A7FC8DED0A0B9DED0C0B53EC102B9DEDEF
S31508004CE00A0B51EC100BFBF7D1FBCDE90E019DED3C
S31508004CF0100B53EC102B9DED0E0B51EC100BFBF724
S31508004D00C5FBCDE912019DED140B53EC102B9DED5F
S31508004D10120B51EC100BFBF712FBCDE916019DEDBA
S31508004D20160B51EC100BFBF7B6FC2B4908609DEDF2
S31508004D301E0AF6EE000A20EE200A8DED0B0A0B98E5
S31508004D40FBF796FCCDE90C019DED0C0B01F0CCFCB4
S31508004D508DED100B9DED1D0AF6EE000A20EE200AD9
S31508004D608DED070A0798FBF783FCCDE908019DED51
S31508004D70080B01F055FC8DED0C0B9DED1C0AF6EEAB
S31508004D80000A20EE200A8DED070A0798FBF770FC4B
S31508004D90CDE908019DED080B01F0A6FC8DED0A0B87
S31508004DA09DED0C0B53EC102B9DED0A0B51EC100BE3
S31508004DB0FBF76CFBCDE90E019DED100B53EC102BA8
S31508004DC09DED0E0B51EC100BFBF760FBCDE91401C2
S31508004DD004E0000000000000100000209DED1E0AFF
S31508004DE0F6EE000A20EE200A8DED0B0A0B98FBF76B
S31508004DF03FFCCDE90C019DED0C0B01F011FC8DED8E
S31508004E00100B9DED1D0AF6EE000A20EE200A8DED28
S31508004E10070A0798FBF72CFCCDE908019DED080B5E
S31508004E2001F062FC8DED0C0B9DED1C0AF6EE000AF6
S31508004E3020EE200A8DED070A0798FBF719FCCDE945
S31508004E4008019DED080B01F0EBFB8DED0A0B9DEDBE
S31508004E500C0B53EC102B9DED0A0B51EC100BFBF7CA
S31508004E6015FBCDE90E019DED100B53EC102B9DEDB6
S31508004E700E0B51EC100BFBF709FBCDE912019DED6A
S31508004E80140B53EC102B9DED120B51EC100BFBF78A
S31508004E90F7FACDE916019DED160B51EC100BFBF751
S31508004EA0FAFBB84908609DED1E0AF6EE000A20EEE8
S31508004EB0200A8DED0B0A0B98FBF7DAFBCDE90C01FE
S31508004EC09DED0C0B01F010FC8DED100B9DED1D0AF0
S31508004ED0F6EE000A20EE200A8DED070A0798FBF782
S31508004EE0C7FBCDE908019DED080B01F0FDFB8DED33
S31508004EF00C0B9DED1C0AF6EE000A20EE200A8DED3D
S31508004F00070A0798FBF7B4FBCDE908019DED080BE6
S31508004F1001F086FB8DED0A0B9DED0C0B53EC102B67
S31508004F209DED0A0B51EC100BFBF7B0FACDE90E011B
S31508004F309DED100B53EC102B9DED0E0B51EC100B49
S31508004F40FBF7A4FACDE914019DED1E0AF6EE000A58
S31508004F5020EE200A8DED0B0A0B98FBF789FBCDE9AD
S31508004F600C019DED0C0B01F05BFB8DED100B9DED1F
S31508004F701D0AF6EE000A20EE200A8DED070A0798AC
S31508004F80FBF776FBCDE908019DED080B01F048FB20
S31508004F908DED0C0B9DED1C0AF6EE000A20EE200A9C
S31508004FA08DED070A0798FBF763FBCDE908019DED30
S31508004FB0080B01F099FB8DED0A0B9DED0C0B53ECDC
S31508004FC0102B9DED0A0B51EC100BFBF75FFACDE9A0
S31508004FD00E019DED100B53EC102B9DED0E0B51ECB5
S31508004FE0100BFBF753FACDE912019DED140B53ECA8
S31508004FF0102B9DED120B51EC100BFBF7A0F9CDE928
S3150800500016019DED160B51EC100BFBF744FB5E49A0
S3150800501008609DED1E0AF6EE000A20EE200A8DEDC8
S315080050200B0A0B98FBF724FBCDE90C019DED0C0B45
S3150800503001F0F6FA8DED100B9DED1D0AF6EE000A4D
S3150800504020EE200A8DED070A0798FBF711FBCDE93C
S3150800505008019DED080B01F047FB8DED0C0B9DED4E
S315080050601C0AF6EE000A20EE200A8DED070A0798BC
S31508005070FBF7FEFACDE908019DED080B01F034FBBC
S315080050808DED0A0B9DED0C0B53EC102B9DED0A0BC9
S3150800509051EC100BFBF7FAF9CDE90E019DED100B5B
S315080050A053EC102B9DED0E0B51EC100BFBF7EEF9A4
S315080050B0CDE914019DED1E0AF6EE000A20EE200A3F
S315080050C08DED0B0A0B98FBF7D3FACDE90C019DED94
S315080050D00C0B01F009FB8DED100B9DED1D0AF6EE8C
S315080050E0000A20EE200A8DED070A0798FBF7C0FA9A
S315080050F0CDE908019DED080B01F092FA8DED0C0B38
S315080051009DED1C0AF6EE000A20EE200A8DED070A30
S315080051100798FBF7ADFACDE908019DED080B01F0FC
S315080051207FFA8DED0A0B9DED0C0B53EC102B9DEDC4
S315080051300A0B51EC100BFBF7A9F9CDE90E019DED11
S31508005140100B53EC102B9DED0E0B51EC100BFBF7CF
S315080051509DF9CDE912019DED140B53EC102B9DED35
S31508005160120B51EC100BFBF78BF9CDE916019DEDEF
S31508005170160B51EC100BFBF78EFA0449086023B0A6
S3150800518000BD000014000020180000201C000020AC
S315080051907CB504466A4606210320FEF717FC054639
S315080051A0F5BB9DF801009DF8001040EA012000B209
S315080051B000EE100AB8EEC00A84ED060A9DF805004E
S315080051C09DF8041040EA012000B200EE100AB8EE7D
S315080051D0C00A84ED070A9DF803009DF8021040EA0C
S315080051E0012000B200EE100AB8EEC00A84ED080AE3
S315080051F094ED060ADFED1A0AB4EEE00AF1EE10FAAB
S3150800520007DD94ED060ADFED170A30EE600A84ED35
S31508005210060A94ED070ADFED120AB4EEE00A00E08A
S315080052201BE0F1EE10FA07DD94ED070ADFED0D0A33
S3150800523030EE600A84ED070A94ED080ADFED080AE5
S31508005240B4EEE00AF1EE10FA07DD94ED080ADFED98
S31508005250050A30EE600A84ED080A28467CBD00007F
S3150800526000FEFF4600FF7F4700BF012002F0C4F89A
S31508005270FBE710B54FF0E020006904F0C5F80128F7
S3150800528001D003F0DFFB10BD00B593B0302107A8AD
S31508005290FBF74AF8142102A8FBF746F800BF0020DE
S315080052A001902348006840F080502149086008466C
S315080052B0006800F08050019000BF00BF00BF0020CA
S315080052C001901C48006840F440401A4908600846A6
S315080052D0006800F44040019000BF00BF012007901D
S315080052E00004089002200D9041050E910C210F91A3
S315080052F060211091022111910421129107A8FDF74E
S31508005300E5F908B1FBF7B9FF0F20029002200390D8
S31508005310002004904FF48050059000200690032149
S3150800532002A8FDF771F808B1FBF7A7FF13B000BD97
S3150800533040380240007000400348006840F470009E
S31508005340014908607047000088ED00E010B5024882
S31508005350FDF74EFE10BD00003803002010B50348C7
S31508005360FDF746FE0248FDF743FE10BD3803002050
S31508005370F002002010B50248FDF73AFE10BD000005
S315080053808003002010B50248FDF732FE10BD00006C
S315080053901004002010B50268204B98420BD0B0F1DB
S315080053A0804F08D01E4B984205D01E4B984202D01B
S315080053B01D4B984203D122F070024B681A43174BD3
S315080053C0984214D0B0F1804F11D0154B98420ED0A8
S315080053D0144B98420BD0144B984208D0134B984262
S315080053E005D0134B984202D0124B984203D122F4AF
S315080053F04072CB681A4322F080034C6943EA0402E0
S3150800540002608B68C3620B688362044B984201D1C1
S315080054100B6903630123436110BD000000000140CE
S315080054200004004000080040000C00400040014015
S31508005430004401400048014030B5056A25F00105E1
S315080054400562026A4368846924F0700424F0030440
S315080054500D682C4322F002028D682A430D4DA8429E
S3150800546006D100BF22F00802CD682A4322F00402C2
S31508005470084DA84207D123F4807323F400734D69BD
S315080054802B438D692B43436084614D6845630262F3
S3150800549030BD00000000014030B5056A25F0100552
S315080054A00562026A4368846924F4E04424F440747B
S315080054B00D6844EA052422F020028D6842EA0512A6
S315080054C00E4DA84207D100BF22F08002CD6842EAFD
S315080054D0051222F04002094DA84209D123F480633F
S315080054E023F400634D6943EA85038D6943EA85031E
S315080054F0436084614D688563026230BD00000140E7
S3150800550030B5056A25F480750562026A4368C46980
