:020000040800F2
:10000000C024002009010008F11200087312000842
:10001000ED120008A7010008011C00080000000004
:10002000000000000000000000000000C11A0008ED
:10003000AB01000800000000131A0008191B00089B
:100040002301000823010008230100082301000800
:1000500023010008230100082301000823010008F0
:1000600023010008230100082301000823010008E0
:1000700023010008230100082301000823010008D0
:1000800023010008230100082301000823010008C0
:1000900023010008230100082301000823010008B0
:1000A00000000000230100082301000823010008CC
:1000B0002301000823010008230100082301000890
:1000C0002301000823010008230100082301000880
:1000D0002301000823010008230100082301000870
:1000E0002301000823010008230100082301000860
:1000F00023010008DFF80CD000F018F80048004792
:10010000251C0008C02400200648804706480047F8
:10011000FEE7FEE7FEE7FEE7FEE7FEE7FEE7FEE7B7
:10012000FEE7FEE79D1B0008F5000008064C074DA2
:1001300006E0E06840F0010394E8070098471034B7
:10014000AC42F6D3FFF7DAFFAC350008CC35000837
:1001500070B58C1810F8015B15F0070301D110F889
:10016000013B2A1106D110F8012B03E010F8016BB6
:1001700001F8016B5B1EF9D12B0705D40023521E39
:100180000DD401F8013BFAE710F8013BCB1A921CA1
:1001900003E013F8015B01F8015B521EF9D5A1429F
:1001A000D8D3002070BD00BFFEE7704731B50024F2
:1001B00000F0F8F8044600BF00F0F4F8001B0099C6
:1001C0008842F9D338BD000078B5034600220024E8
:1001D0000020CAE0012696400D6805EA0604002CBE
:1001E00071D04D68022D02D04D68122D13D1D60862
:1001F00003F1200555F826005507EE0E0F25B540F2
:10020000A8435607F60E0D69B5402843D60803F1FA
:10021000200545F82600186856000325B540A84378
:100220000D7905F003055600B540284318604D6868
:10023000012D08D04D68022D05D04D68112D02D03A
:100240004D68122D13D1986856000325B540A84378
:100250005600CD68B5402843986058680125954000
:10026000A8430D79C5F30015954028435860D86818
:1002700056000325B540A84356008D68B540284375
:10028000D8604D6805F08055B5F1805F6CD100BF36
:10029000394D2D6845F00105374E356035462D68DE
:1002A00005F00105009500BF00BF344D960855F8D4
:1002B000260095072E0F0F25B540A843304DAB42C1
:1002C00002D1002515E04FE02E4DAB4201D10125B2
:1002D0000FE02D4DAB4201D102250AE02B4DAB4280
:1002E00001D1032505E02A4DAB4201D1042500E0F0
:1002F00005259607360FB5402843204D960845F84A
:100300002600244D2868A0434D6805F48035B5F5D6
:10031000803F00D120431F4D28602D1D2868A04339
:100320004D6805F40035B5F5003F00D12043194D67
:100330002D1D28602D1D2868A0434D6805F48015EB
:10034000B5F5801F00D12043124D083528602D1DC2
:100350002868A0434D6805F40015B5F5001F00D1CD
:1003600020430C4D0C352860521C0D68D540002DE3
:100370007FF430AF78BD0000203802400800014013
:10038000000002400004024000080240000C02404D
:1003900000100240000401400AB1816101E00B0439
:1003A0008361704701480068704700003C1C0020D2
:1003B00002480068401C0149086070473C1C00204E
:1003C00010B5032000F05CF8002000F005F800F004
:1003D00017F8002010BD000070B5044607480068FB
:1003E0004FF47A71B0FBF1F5284600F024FF0022AB
:1003F0002146501E00F005F8002070BD00080020C6
:1004000070472DE9F05F80460D461646002700F044
:1004100071FF074639462A46334601F00700C0F10E
:10042000070ABAF1040F02D94FF0040A01E0C0F143
:10043000070AD14600F1040ABAF1070F02D24FF0C1
:10044000000A01E0A0F1030AD4464FF0010A0AFABB
:1004500009FAAAF1010A0AEA020A0AFA0CFA4FF0AA
:10046000010B0BFA0CFBABF1010B0BEA030B4AEA95
:100470000B042146404600F045FFBDE8F09F000018
:1004800000BF00F00702064B19684FF6FF03194042
:10049000044B0B4343EA0221014B196000BF704734
:1004A0000CED00E00000FA0570B504460D4600268C
:1004B000B348006800F00100A84218D200BF012D27
:1004C00005D1AF48006840F00400AD490860AC4871
:1004D000006820F001002843A949086000BF0846D1
:1004E000006800F00100A84201D0012070BD207812
:1004F00000F00200022807D1A248006820F0F000B6
:10050000A16808439F490860207800F00100002896
:100510007BD06068022821D12020010391FAA1F14B
:10052000B1FA81F108430121B1EB601F03D1954875
:100530000838006802E093482C30006820210A0344
:1005400092FAA2F2B2FA82F2114301F01F020121E3
:100550009140084000286CD10120C7E7606803285B
:1005600020D12020010591FAA1F1B1FA81F10843CF
:100570000121B1EB601F03D182480838006802E016
:1005800080482C30006820210A0592FAA2F2B2FAC3
:1005900082F2114301F01F02012191400840A8BBE3
:1005A0000120A3E76068012820D12020022191FAD0
:1005B000A1F1B1FA81F108430121B1EB601F03D130
:1005C00070480838006802E06E482C30006820212E
:1005D000022292FAA2F2B2FA82F2114301F01F0251
:1005E00001219140084088B901207FE720200101C6
:1005F00091FAA1F1B1FA81F108430121B1EB601F39
:1006000005D160480838006804E069E011E05D4801
:100610002C30006820210A0192FAA2F2B2FA82F28A
:10062000114301F01F0201219140084008B9012047
:100630005CE75448006820F00300616808435149B2
:100640000860FFF7AFFE06466068022810D108E098
:10065000FFF7A8FE801B41F28831884201D90320B0
:1006600044E74848006800F00C000828F0D137E063
:100670006068032810D108E0FFF794FE801B41F268
:100680008831884201D9032030E73E48006800F0F5
:100690000C000C28F0D123E06068012810D108E09C
:1006A000FFF780FE801B41F28831884201D9032088
:1006B0001CE73448006800F00C000428F0D10FE07B
:1006C00008E0FFF76FFE801B41F28831884201D9B4
:1006D00003200BE72B48006800F00C000028F0D145
:1006E0002748006800F00100A84218D900BF012D7A
:1006F00005D12348006840F00400214908602048E3
:10070000006820F0010028431D49086000BF08462A
:10071000006800F00100A84201D00120E6E6207840
:1007200000F00400042807D11648006820F4E060B7
:10073000E168084313490860207800F008000828A1
:1007400008D11048006820F46050216940EAC100D7
:100750000C49086000F022F80A49096801F0F0012C
:10076000F02292FAA2F2B2FA82F2D140064A515C29
:10077000C840064908600020FFF72EFE0020B5E6BD
:10078000003C024008380240D11D0008000800204B
:10079000014800687047000000080020F0B5002103
:1007A00000230024002200250020254E316801F09E
:1007B0000C067EB3042E04D0082E04D00C2E2AD1B1
:1007C00003E020483AE0204838E001F470164FF486
:1007D000701797FAA7F7B7FA87F7FE401B4FBB5D74
:1007E00001F440064FF4400797FAA7F7B7FA87F7E6
:1007F000FE40741C124E366806F4803626B1124E46
:100800005E43B6FBF4F203E00E4E5E43B6FBF4F239
:10081000104613E000E000BF094E361F366806F4AC
:1008200060464FF4604797FAA7F7B7FA87F726FABA
:1008300007F56E1C0127B740F80300BF00BFF0BDED
:10084000083802400024F40000366E01C81D00087C
:10085000F8B504460025207800F00100002879D082
:10086000F748006800F00C0008280CD0F448006835
:1008700000F00C000C282BD1F148006800F4803007
:10088000B0F5803F24D12020010391FAA1F1B1FA03
:1008900081F108430121B1EB601F03D1E84808381A
:1008A000006802E0E6482C30006820210A0392FA32
:1008B000A2F2B2FA82F2114301F01F02012191402B
:1008C00008400028CBD06068002843D10120F8BD43
:1008D00000BF6068012808D1D9480838006840F492
:1008E0008030D749083908602DE0606868B9D4487D
:1008F0000838006820F48030D1490839086008467B
:10090000006820F4802008601DE0606805280DD193
:10091000CB480838006840F48020C949083908608D
:100920000846006840F4803008600CE0C44808388D
:10093000006820F48030C249083908600846006821
:1009400020F48020086000BF606860B3FFF72AFDD4
:10095000054607E052E0FFF725FD401B642801D95A
:100960000320B4E72020010391FAA1F1B1FA81F14B
:1009700008430121B1EB601F03D1B148083800687A
:1009800002E0AF482C30006820210A0392FAA2F25C
:10099000B2FA82F2114301F01F0201219140084096
:1009A0000028D8D02AE0FFF7FDFC054606E0FFF757
:1009B000F9FC401B642801D9032088E720200103AB
:1009C00091FAA1F1B1FA81F108430121B1EB601F65
:1009D00003D19B480838006802E099482C30006831
:1009E00020210A0392FAA2F2B2FA82F2114301F034
:1009F0001F020121914008400028D8D1207800F042
:100A00000200022845D18E48006800F00C0004283E
:100A10000AD08B48006800F00C000C283BD18848B5
:100A2000006800F48030A8BB2020022191FAA1F1D7
:100A3000B1FA81F108430121B1EB601F03D1804875
:100A40000838006802E07E482C300068202102222D
:100A500092FAA2F2B2FA82F2114301F01F020121CE
:100A60009140084020B1E068012801D001202EE724
:100A70007348001F006820F4F8504FF4F85292FABF
:100A8000A2F2B2FA82F22169914008436C49091F2F
:100A900008607DE0FFE7E068F0B3012090FAA0F184
:100AA000B1FA81F1674A42F82100FFF77BFC054665
:100AB00006E0FFF777FC401B022801D9032006E778
:100AC0002020022191FAA1F1B1FA81F1084301211C
:100AD000B1EB601F03D15A480838006802E058485B
:100AE0002C3000682021022292FAA2F2B2FA82F29D
:100AF000114301F01F020121914008400028D8D085
:100B00004F48001F006820F4F8504FF4F85292FA52
:100B1000A2F2B2FA82F200E006E0216991400843B5
:100B20004749091F086033E00020012191FAA1F133
:100B3000B1FA81F1434A42F82100FFF733FC054640
:100B400006E0FFF72FFC401B022801D90320BEE678
:100B50002020022191FAA1F1B1FA81F1084301218B
:100B6000B1EB601F03D136480838006802E0344812
:100B70002C3000682021022292FAA2F2B2FA82F20C
:100B8000114301F01F020121914008400028D8D1F3
:100B9000207800F01000102873D12948006800F078
:100BA0000C0000286ED12020010191FAA1F1B1FAC8
:100BB00081F108430121B1EB601F03D120480838BF
:100BC000006802E01E482C30006820210A0192FAD9
:100BD000A2F2B2FA82F2114301F01F020121914008
:100BE000084018B1A06908B9012070E61449091F2E
:100BF000206A096801F46041884225D9206A00F022
:100C000009FF08B1012062E60D48001F006820F4CA
:100C10006040216A08430A49091F086008460068C5
:100C200020F07F404FF07F4292FAA2F2B2FA82F2B5
:100C3000E169914008430249091F086023E0000070
:100C40000838024000004742FC48006820F4604039
:100C5000216A0843F94908600846006820F07F408F
:100C60004FF07F4292FAA2F2B2FA82F2E169914029
:100C70000843F2490860206A00F0CCFE18B1012058
:100C800025E6A5E01FE04FF4604191FAA1F1B1FA29
:100C900081F1206AC840401C01218140C803E74916
:100CA000091D096801F0F001F02292FAA2F2B2FAED
:100CB00082F2D140E24A515CC840E249086000201B
:100CC000FFF78AFB84E0A069F0B30120010291FAEA
:100CD000A1F1B1FA81F1DC4A42F82100FFF762FB91
:100CE000054606E0FFF75EFB401B022801D9032002
:100CF000EDE52020010191FAA1F1B1FA81F108435B
:100D00000121B1EB601F03D1CC48001F006802E055
:100D1000CA483030006820210A0192FAA2F2B2FAE1
:100D200082F2114301F01F02012191400840002886
:100D3000D8D0C248006820F46040216A0843BF4907
:100D400008600846006800E00DE020F07F404FF0AA
:100D50007F4292FAA2F2B2FA82F2E169914008432C
:100D6000B649086034E000204FF4807191FAA1F197
:100D7000B1FA81F1B44A42F82100FFF713FB0546AE
:100D800006E0FFF70FFB401B022801D903209EE578
:100D90002020010191FAA1F1B1FA81F1084301216A
:100DA000B1EB601F03D1A548001F006802E0A34813
:100DB0003030006820210A0192FAA2F2B2FA82F2DF
:100DC000114301F01F020121914008400028D8D1B1
:100DD000207800F0080008286ED16069A8B30120CF
:100DE00090FAA0F1B1FA81F1974A02EB8101C1F8C2
:100DF0008006FFF7D7FA054606E0FFF7D3FA401B57
:100E0000022801D9032062E54020022191FAA1F1D4
:100E1000B1FA81F108430121B1EB601F03D187488A
:100E2000001F006802E0854830300068402102223F
:100E300092FAA2F2B2FA82F2114301F01F020121EA
:100E4000914008400028D8D036E0FFE7002101207B
:100E500090FAA0F0B0FA80F07B4A02EB8000C0F874
:100E60008016FFF79FFA054606E0FFF79BFA401B46
:100E7000022801D903202AE54020022191FAA1F19C
:100E8000B1FA81F108430121B1EB601F03D16B4836
:100E9000001F006802E069483030006840210222EB
:100EA00092FAA2F2B2FA82F2114301F01F0201217A
:100EB000914008400028D8D1207800F00400042890
:100EC00075D100265D482030006800F0805080B960
:100ED00000BF5A482030006840F080505749203108
:100EE00008600846006800F08050009000BF00BF16
:100EF00001265648006800F48070B0B95348006875
:100F000040F4807051490860FFF74CFA054606E04E
:100F1000FFF748FA401B642801D90320D7E44B4867
:100F2000006800F480700028F2D000BFA06801289B
:100F300008D142483030006840F480703F49303179
:100F400008602DE0A06868B93C483030006820F4A3
:100F500080703A49303108600846006820F48060AB
:100F600008601DE0A06805280DD1344830300068C5
:100F700040F480603149303108600846006840F430
:100F8000807008600CE02D483030006820F48070DC
:100F90002A49303108600846006820F48060086003
:100FA00000BFA06870B3FFF7FDF9054609E06AE0ED
:100FB000FFF7F8F9401B41F28831884201D903203C
:100FC00085E44020C10091FAA1F1B1FA81F1084312
:100FD0000121B1EB601F03D11848001F006802E037
:100FE0001648303000684021CA0092FAA2F2B2FAE4
:100FF00082F2114301F01F020121914008400028B4
:10100000D6D035E0FFF7CEF9054608E0FFF7CAF97C
:10101000401B41F28831884201D9032057E4402027
:10102000C10091FAA1F1B1FA81F108430121B1EBBC
:10103000601F0DD10148001F00680BE0043802401A
:10104000D11D000800080020000047420070004049
:101050006C4800684021CA0092FAA2F2B2FA82F209
:10106000114301F01F020121914008400028CDD119
:10107000012E07D163481038006820F08050614984
:101080001039086000BF606AF0B35E482C38006811
:1010900000F00C000C287AD0606A022879D1002078
:1010A0004FF0807191FAA1F1B1FA81F1564A42F8FC
:1010B0002100FFF777F9054606E0FFF773F9401BBB
:1010C000022801D9032002E42020010591FAA1F1B0
:1010D000B1FA81F108430121B1EB601F03D1494806
:1010E0003438006801E04748006820210A0592FA78
:1010F000A2F2B2FA82F2114301F01F0201219140E3
:1011000008400028D9D100E07AE0D4E90A01084378
:10111000216B08433B492C39096821F47D010843C0
:1011200038492C3908600120010691FAA1F1B1FA81
:1011300081F1354A42F82100FFF734F9054606E00F
:10114000FFF730F9401B022801D9032009E42020D1
:10115000010591FAA1F1B1FA81F108430121B1EB46
:10116000601F03D127483438006801E02548006833
:1011700020210A0592FAA2F2B2FA82F2114301F09A
:101180001F020121914008400028D9D038E035E005
:10119000FFE700214FF0807090FAA0F0B0FA80F0E5
:1011A000194A42F82010FFF7FDF8054606E0FFF760
:1011B000F9F8401B022801D9032058E4202001053A
:1011C00091FAA1F1B1FA81F108430121B1EB601F5D
:1011D00003D10C483438006801E00A480068202137
:1011E0000A0592FAA2F2B2FA82F2114301F01F024A
:1011F0000121914008400028D9D101E0012036E4C6
:10120000002034E43438024000004742042808D16A
:101210004FF0E021096941F004014FF0E022116133
:1012200007E04FF0E021096921F004014FF0E022CE
:1012300011617047704770B504462546681EB0F1CD
:10124000807F01D301200FE0681E4FF0E02148614C
:101250000F214FF0FF3000F055F800204FF0E02153
:10126000886107200861002070BD10B5FFF7E2FF1C
:1012700010BD00BFFEE7000010B5012202210948A1
:10128000FFF78AF8012211460648FFF785F8002289
:1012900002210448FFF780F8002201210148FFF7EE
:1012A0007BF810BD0000024010B50122114607482E
:1012B000FFF772F8002202210448FFF76DF80122BF
:1012C00002210248FFF768F810BD0000000002404C
:1012D00010B5012211460448FFF75EF800220121F3
:1012E0000148FFF759F810BD0000024000BFFEE7BB
:1012F0007047000002480068C0F3022070470000F9
:101300000CED00E010B5002807DA0A07140E054AB4
:1013100000F00F031B1FD45403E00A07130E024A08
:10132000135410BD18ED00E000E400E070B5002497
:101330000CE0002506E00020074901EBC501085537
:10134000681CC5B2802DF6DB601CC4B2082CF0DB33
:1013500000F028F970BD0000401C002070B50B465D
:10136000CE1701EB5676C6F3C702CE1701EB5676C1
:10137000F610A1EBC606F4B20123A340DDB20E4B7A
:1013800003EBC0039B5CDB430B4E06EBC006B35480
:10139000094B03EBC0039B5C2B43074E06EBC006D7
:1013A000B354054B03EBC0039B5CDB43024E06EBDF
:1013B000C006B35470BD0000401C002070B50A4642
:1013C000CE1701EB5676C6F3C703CE1701EB567660
:1013D000F610A1EBC606F4B20122A240D5B2054A2E
:1013E00002EBC002D25C2A43024E06EBC006F25466
:1013F00070BD0000401C002000B587B000BF6148F0
:10140000006840F020005F4908600846006800F06E
:101410002000019000BF00BF00BF0846006840F0F8
:10142000010008600846006800F00100019000BF5C
:1014300000BF00BF0846006840F002000860084690
:10144000006800F00200019000BF00BF48F2FF00FA
:1014500002900120039004900320059002A94A48BD
:10146000FEF7B2FE012248F2FF014748FEF794FF63
:10147000012204214448FEF78FFF6420FEF796FE08
:10148000002204214048FEF787FFC820FEF78EFEA9
:10149000012204213C48FEF77FFF0021AE2000F02E
:1014A0009CFA0021084600F098FA0021102000F074
:1014B00094FA0021402000F090FA0021812000F0F1
:1014C0008CFA0021CF2000F088FA0021A12000F042
:1014D00084FA0021C82000F080FA0021A62000F044
:1014E0007CFA0021A82000F078FA00213F2000F0CB
:1014F00074FA0021D32000F070FA0021084600F0B1
:101500006CFA0021D52000F068FA0021802000F05C
:1015100064FA0021D92000F060FA0021F12000F0E7
:101520005CFA0021DA2000F058FA0021122000F0C5
:1015300054FA0021DB2000F050FA0021402000F096
:101540004CFA0021202000F048FA0021022000F08F
:1015500044FA00218D2000F040FA0021142000F010
:101560003CFA0021A42000F038FA0021A62000F067
:1015700034FA0021AF2000F030FAFFF7D7FE07B0B1
:1015800000BD00001C3802400000024010B50246B9
:10159000012000E050430B1EA1F10104E1B2F9D19A
:1015A00010BD000070B500241CE004F1B001C8B209
:1015B000002100F012FA0021084600F00EFA002186
:1015C000102000F00AFA002508E0084901EBC501E7
:1015D000085D012100F001FA681CC5B2802DF4DB22
:1015E000601CC4B2082CE0DB70BD0000401C002071
:1015F000804689460026002749E03FB9102332463D
:101600001821802000F0C4F8701CC6B2464522D1D3
:101610004FF0000A1AE0002410E000250AE01C4800
:1016200000EBC400415D601E194A02EBC000415549
:10163000681CC5B2082DF2DB601CC4B2902CECDB38
:10164000FFF7B0FF0AF1010000F0FF0A4FEA0910AE
:101650005045E0DC0026781CC7B2102F00D10027CF
:10166000002410E000250AE0094800EBC400415DB9
:10167000601E074A02EBC0004155681CC5B2082D28
:10168000F2DB601CC4B2902CECDBFFF78BFFB4E7FD
:10169000401C00202DE9FF4F81B080460E461C46BD
:1016A00000962046E31704EB5373DB1021464FEA04
:1016B000E47C04EB5C7C4FEAEC0CA4EBCC0CBCF1BE
:1016C000000F02D04FF0010C01E04FF0000C63441A
:1016D000224604EBD27C4FEA6C0C03FB0CF303F0C4
:1016E000FF0B03982038C7B2002547E00C2C07D128
:1016F00007EB4700234901EB800010F805A014E038
:10170000102C05D1204800EB071010F805A00CE0C4
:10171000182C07D107EBC7001C4901EB800010F81B
:1017200005A002E005B0BDE8F08F4FF000091FE012
:101730000AF0800020B131464046FFF73FFE03E04B
:1017400031464046FFF70AFE4FEA4A604FEA106A08
:10175000701CC6B20098301AA04205D1009E08F154
:10176000010000F0FF0806E009F1010000F0FF09A8
:10177000B9F1080FDCDB00BF681CC5B25D45B5DB05
:1017800000BFCFE7E91D00085D2200084D280008D2
:101790002DE9FF4F0746884691461C464FF0000B47
:1017A0000297CDF804802046E11704EB5171C1F394
:1017B000C701009160E009FB04F0C11700EB517113
:1017C0000BEBE101CEB20BF1010000F0FF0B0025A5
:1017D00050E0102C05D12C4800EB0610405D039022
:1017E0001BE0182C07D106EBC600284901EBC0000E
:1017F000405D039011E0202C05D1254800EBC61078
:10180000405D039009E0402C05D1224800EB4620C2
:10181000405D039001E0BDE8FF8F4FF0000A17E044
:10182000039800F0010020B141463846FFF7C6FD9D
:1018300003E041463846FFF791FD039840100390BE
:1018400008F1010000F0FF080AF1010000F0FF0AB2
:10185000BAF1080FE4DB781CC7B20298381AA0422C
:1018600004D1029F01980830C0B20190DDF80480D5
:10187000681CC5B2A542ACDB0098411EC9B20091FC
:10188000002898D100BFC6E70408002064090020A2
:101890003C0A00203C0C00202DE9F04F06468A4609
:1018A00091461F46099C00252CE0781B401EC1B2C2
:1018B0000A20FFF76BFEB9FBF0F00A21B0FBF1F252
:1018C00001FB1208B8F1000F0CD1A34604EBDB7149
:1018D000491001FB0561C8B2234630225146FFF78B
:1018E000D9FE0DE0A34604EBDB71491001FB056155
:1018F000C8B208F13001CAB223465146FFF7CAFE0A
:10190000681CC5B2BD42D0DBBDE8F08F2DE9F05FA9
:1019100005460E4617469846DDF828B04FF00009F8
:10192000CA460024E11704EB5171C910A4EBC101B0
:1019300001B901E0601CC4B2344614E021462846D7
:1019400000F036F8AA460AE01BF80900012100F071
:1019500044F809F101090AF1010000F0FF0ABA4553
:10196000F2DB601CC4B24445E8DBBDE8F09FF0B593
:1019700006460F4614461D4613E022782B4639468C
:101980003046FFF787FE284605EBD07106EB610174
:10199000CEB2C5F18000B04202DA0026B81CC7B250
:1019A000641C2078202802DB20787E28E5DDF0BD4D
:1019B00070B504460D4605F1B001C8B2002100F033
:1019C0000CF8102141EA1410002100F006F804F090
:1019D0000F00002100F001F870BD70B505460C46FF
:1019E000FFF74AFC782000F06DF8FFF771FC1CB19E
:1019F000402000F067F802E0002000F063F8FFF7F5
:101A000067FC284600F05EF8FFF762FCFFF74CFC2D
:101A100070BD704718B502460023002125480068B4
:101A200000F0F00050BB23481C30006800F08050EC
:101A300020B12148006800F4C05318E000BF1D48E1
:101A40001C30006840F080501A4C1C342060204646
:101A5000006800F08050009000BF00BF164800688A
:101A600000F4C0532046006820F080502060B3F599
:101A7000C05F03D1B2F5404F00D1012100BF012961
:101A800005D10E48006840F004000C4C20600B4863
:101A9000006820F001000843084C206000BF204689
:101AA000006800F00100884201D0012018BD00202C
:101AB000FCE700000838024000700040003C024093
:101AC0007047000070B50446002520E00022012187
:101AD0001048FEF761FC04F0800028B101220221C9
:101AE0000C48FEF759FC04E0002202210948FEF7E9
:101AF00053FC012211460748FEF74EFC002201214B
:101B00000448FEF749FC6006040E681CC5B2082DA7
:101B1000DCDB70BD0000024010B5FEF749FCFFF7AA
:101B2000A4FB10BD10B592B01B48006820F4C05053
:101B300040F40060184908600220059001200890D8
:101B40001020099002200E9000210F911091410564
:101B5000119105A8FEF77CFE0F2000900320019054
:101B6000002002900390049001216846FEF79CFC3F
:101B7000FEF70EFE4FF47A71B0FBF1F42046FFF74A
:101B80005AFB0420FFF742FB00221146501EFEF7CD
:101B900038FC12B010BD000000700040144800680E
:101BA00040F48070124908601148083000681149FB
:101BB00008400F49083108600D4800680E49084088
:101BC0000B4908600846006820F480200860084837
:101BD0000830006820F47D000549083108600020C5
:101BE000091D08604FF0006004490860704700005C
:101BF000003802400CC0FF88FEFFFEEE08ED00E05A
:101C000000BFFEE702E008C8121F08C1002AFAD18F
:101C100070477047002001E001C1121F002AFBD16C
:101C20007047000008B52024FEF7CAFBFFF77AFFD3
:101C3000FFF7E2FB0022A1025548FEF7ADFBA6E04C
:101C4000544808238022002100900846FFF75EFEDA
:101C50004FF4FA70FEF7AAFAFFF768FB1023002290
:101C600011461046FFF794FD102301220021122097
:101C7000FFF78EFD1023022200212420FFF788FDAC
:101C80001023032200213620FFF782FD10230422B7
:101C900000214820FFF77CFD1023052200215A2057
:101CA000FFF776FD1023062200216C20FFF770FD60
:101CB000102339A219460820FFF759FE10233AA233
:101CC00020211420FFF753FE10233AA230210020D8
:101CD000FFF74DFE102339A230213F20FFF747FECA
:101CE0001023224630210846FFF7D4FC601CC4B202
:101CF0007E2C00DD2024102003232246302100907A
:101D00006720FFF7C9FDFFF74DFC4FF4FA70FEF7AF
:101D10004DFAFFF70BFB1023002211461046FFF788
:101D200037FD1823002211461020FFF731FD202334
:101D3000002214211820FFF72BFD4023002211461A
:101D40001846FFF725FDFFF72DFC4FF4FA70FEF75C
:101D50002DFAFFF7EBFA0C231AA200210846FFF731
:101D600006FE102317A20C210020FFF700FE182307
:101D700014A21C210020FFF7FAFDFFF713FC4FF41B
:101D8000FA70FEF713FA04210B20FFF731FC57E736
:101D900000000240000000205A484F4E474A494E7A
:101DA000475955414E000000323031342F30352F25
:101DB0003031000041534349493A0000434F444504
:101DC0003A00000041424300030406080C101820AA
:101DD00030000000000000000001020304060708B4
:101DE00009000000000102030400000000000000E0
:101DF0000000000000000000003F40000000000064
:101E00000000003000400030004000000009000BDE
:101E1000C03D000BC03D00090018C024407FE022F7
:101E20004031800000180024C01B000D80324001AA
:101E30008003801C4027401C800740004010006049
:101E40000000000000000000000000000000001F73
:101E500080204040200000402020401F80000000E3
:101E600000090006001F80060009000000040004AD
:101E7000003F80040004000000001000600000002B
:101E8000000000000004000400040004000400003E
:101E900000000000400000000000000000002001E1
:101EA000C006003800400000001F80204020402075
:101EB000401F800000000010403FC00040000000B4
:101EC0000018C0214022402440184000001080200B
:101ED00040244024401B80000002000D0011003F00
:101EE000C0014000003C8024402440244023800066
:101EF000001F802440244034400380000030002034
:101F00000027C03800200000001B8024402440240B
:101F1000401B8000001C0022C0224022401F800085
:101F20000000000000084000000000000000000069
:101F3000000460000000000000000004000A00111E
:101F40000020804040090009000900090009000044
:101F50000000004040208011000A0004001800200A
:101F60000023402400180000001F80204027402943
:101F7000401F400000004007C039000F0001C000B2
:101F80004020403FC0244024401B8000001F802090
:101F900040204020403080000020403FC0204020B2
:101FA000401F80000020403FC024402E4030C00031
:101FB0000020403FC024402E00300000000F0010E1
:101FC00080204022403380020020403FC0040004B3
:101FD000003FC02040204020403FC0204020400023
:101FE000000060202020203FC02000200020403F33
:101FF000C024400B0030C0204020403FC0204000A3
:1020000040004000C03FC03C0003C03C003FC00057
:102010000020403FC00C4023003FC020001F802014
:1020200040204020401F80000020403FC02440242A
:1020300000180000001F802140214020E01FA00068
:102040000020403FC02440260019C0004018C02492
:10205000402440224031800000300020403FC0201A
:10206000403000000020003F80004000403F8020C2
:102070000020003E0001C0070038002000380007A3
:10208000C03C0007C038000000204039C0060039BD
:10209000C0204000002000384007C0384020000029
:1020A00000304021C02640384020C0000000000021
:1020B000007FE0402040200000000070000C000382
:1020C00080004000000000402040207FE000000031
:1020D0000000002000400020000000000000100070
:1020E0001000100010001000100000000040000060
:1020F0000000000000000002800540054003C00011
:102100004020003FC0044004400380000000000362
:102110008004400440064000000000038004402486
:10212000403FC000400000038005400540034000E0
:1021300000000004401FC024402440200000000292
:10214000E0055005500650042020403FC0044004E4
:102150000003C000400000044027C0004000000011
:102160000000100010041027E00000000020403F95
:10217000C00140070004C00440204020403FC00090
:10218000400040000007C0040007C0040003C00076
:1021900000044007C00440040003C00040000003E6
:1021A000800440044003800000041007F004500441
:1021B0004003800000000003800440045007F0004A
:1021C00010044007C00240040004000000000006A4
:1021D000400540054004C00000000004001F8004CA
:1021E0004000400000040007800040044007C00099
:1021F000400400070004C00180060004000600013E
:10220000C0070001C006000000044006C00100062F
:10221000C0044000000410071004E0018006000420
:10222000000000044005C00640044000000000001B
:102230000004007BE040200000000000000000FFE0
:10224000F000000000000040207BE00400000000DF
:1022500000400080004000200020004000000000FE
:10226000000000000000000000000000000000006E
:102270000000001FCC000C0000000000000000085F
:102280000030006000080030006000000002200301
:10229000FC1E20022003FC1E200220000000000E75
:1022A0001811043FFF10840C78000000000F00108C
:1022B000840F3800C0077818840078000000780F79
:1022C0008410C411240E9800E400840008080068FB
:1022D000007000000000000000000000000000008E
:1022E00000000007E0181820044002000000004031
:1022F000022004181807E00000000000000240025D
:102300004001800FF0018002400240000000800088
:102310008000800FF8008000800080000000010035
:102320000D000E0000000000000000000000000092
:10233000800080008000800080008000800000001D
:102340000C000C0000000000000000000000000075
:102350000600180060018006001800200000000739
:10236000F0080810041004080807F0000000000836
:102370000408041FFC000400040000000000000E1C
:102380000C10141024104411840E0C000000000CDA
:102390001810041104110412880C700000000000D1
:1023A000E00320042408241FFC0024000000001F78
:1023B00098108411041104108810700000000007A8
:1023C000F008881104110418880070000000001C37
:1023D00000100010FC13001C001000000000000E94
:1023E0003811441084108411440E38000000000796
:1023F00000088C10441044088807F000000000001A
:10240000000000030C030C000000000000000000AE
:1024100000000101060000000000000000000000B4
:10242000800140022004100808100400000220026D
:1024300020022002200220022002200000000010C2
:102440000408080410022001400080000000000E73
:10245000001200100C106C10800F00000003E00C44
:102460001813E4142417C4082807D000000004003F
:102470003C03C41C40074000E4001C000410041F7F
:10248000FC1104110411040E880070000003E00C1C
:102490001810041004100410081C10000010041F71
:1024A000FC100410041004080807F0000010041FBA
:1024B000FC1104110417C410040818000010041FB4
:1024C000FC1104110017C010000800000003E00C0C
:1024D000181004100410441C780040000010041F61
:1024E000FC10840080008010841FFC100400001089
:1024F0000410041FFC10041004000000000003007E
:1025000001100110011FFE10001000000010041F38
:10251000FC110403801464181C1004000010041F34
:10252000FC1004000400040004000C000010041F50
:10253000FC1F0000FC1F001FFC1004000010041F03
:10254000FC0C04030000E010181FFC100007F0084A
:1025500008100410041004080807F0000010041FFD
:10256000FC10841080108010800F00000007F0081D
:102570001810241024101C080A07F2000010041F71
:10258000FC1104110011C011300E0C000400000EEB
:102590001C11041084108410441C38000018001012
:1025A0000010041FFC100410001800000010001F91
:1025B000F810040004000410041FF8100010001E9E
:1025C0000011E0001C007013801C0010001FC010E0
:1025D0003C00E01F0000E0103C1FC0000010041889
:1025E0000C163401C001C01634180C100410001C65
:1025F00000130400FC13041C001000000008041069
:102600001C1064108413041C041018000000000047
:102610000000007FFE400240024002000000003047
:10262000000C0003800060001C000300000000405C
:1026300002400240027FFE00000000000000000097
:102640000020004000400040002000000000010089
:102650000100010001000100010001000100004033
:10266000004000200000000000000000000000000A
:1026700098012401440144014400FC000410001F9F
:10268000FC008801040104008800700000000000C4
:1026900070008801040104010400880000000000AB
:1026A0007000880104010411081FFC0004000000F0
:1026B000F8014401440144014400C8000000000145
:1026C0000401040FFC1104110411001800000000A3
:1026D000D601290129012901C90106000010041FA2
:1026E000FC008401000100010400FC000400000162
:1026F00004190419FC00040004000000000000009C
:102700000300010101190119FE0000000010041F5F
:10271000FC0024004001B4010C0104000000001082
:102720000410041FFC000400040000000001040168
:10273000FC0104010001FC0104010000FC01040192
:10274000FC008401000100010400FC000400000002
:10275000F8010401040104010400F8000001010172
:10276000FF008501040104008800700000000000E3
:1027700070008801040104010501FF00010104014A
:102780000401FC008401040100018000000000003D
:10279000CC0124012401240124019800000000013F
:1027A00000010007F801040104000000000100011D
:1027B000F8000400040004010801FC000401000109
:1027C000800170000C001001600180010001F00127
:1027D0000C003001C00030010C01F00100000001CC
:1027E00004018C00740170018C01040000010101DE
:1027F000810171000E0018016001800100000001DC
:1028000084010C013401440184010C00000000002B
:10281000000000000001003EFC40024002000000F9
:102820000000000000FFFF0000000000000000406A
:102830000240023EFC0100000000000000000060B9
:1028400000800080004000400020002000000000C8
:102850000000000000000000000000000000000078
:102860000000000000000000000000000000000068
:102870000000000000000000000000000000000058
:102880000F80380FFE380F80380000000000000075
:102890000000000000000000000000010000060031
:1028A000000C00003800003100000600000C0000A1
:1028B00038000030000000000000000000618000CF
:1028C00067F807F980006180006180006180006125
:1028D000800067F807F980006180000000000000B8
:1028E00000000001C0E003E0F00630080418081FF3
:1028F000FFFE040E080787F00381E00000000000DF
:102900000001F000060C00040408060C7001F9C078
:10291000000E00003BE000EC18070808040C18004B
:1029200003E00000000001E00007F003F818041CB9
:102930000804170807E1D003C0E00023B0003C08FA
:10294000002008000010000000000000010000311D
:1029500000003200001C0000000000000000000029
:102960000000000000000000000000000000000067
:10297000000000000000000000000000007F0001D7
:10298000FFC00780F00C00181000042000020000B7
:10299000000000002000021000040C00180780F066
:1029A00001FFC0007F0000000000000000000000E8
:1029B0000000000000000000004200006600006609
:1029C00000003C0000180003FFC0001800003C009D
:1029D00000660000660000420000000000080000E1
:1029E000080000080000080000080001FFC00008FF
:1029F00000000800000800000800000800000000B7
:102A000000000100003100003200001C0000000046
:102A100000000000000000000000000000000000B6
:102A20000000000000080000080000080000080086
:102A3000000800000800000800000800000800006E
:102A40000800000000000000000000000038000046
:102A50003800003800000000000000000000000006
:102A60000000000000000000000000000000060060
:102A7000001C000070000180000E0000380000C043
:102A8000000700001C0000300000000000000000F3
:102A9000007F8001FFE00380700600180400080436
:102AA000000806001803807001FFE0007F8000002E
:102AB00000000000000000010008010008010008FB
:102AC00003FFF807FFF800000800000800000800F6
:102AD000000000000000000001C03802C0580400DF
:102AE00098040118040218040418061C1803F818A6
:102AF00001E0F800000000000000000001C0E00359
:102B0000C0F004000804080804080806180803F4C4
:102B10001801E7F00001E0000000000000000000E4
:102B2000000300000D000011000061000081080397
:102B3000010807FFF80FFFF8000108000108000076
:102B4000000000000000E007FCD00608080610089E
:102B5000061008061008061838060FF00607C00011
:102B60000000000000000000003F8001FFE003843F
:102B70003002081804100804100804100807181080
:102B8000030FF00007C00000000000000000000379
:102B9000C0000700000600000600F80607F8061847
:102BA0000006E00007000006000000000000000032
:102BB00001E1E003F7F006341004180804180804D3
:102BC0000C08040C0806161803F3F001C1E000001D
:102BD0000000000000F80003FC300306380402087F
:102BE0000402080402080404100308F001FFC000F6
:102BF0007F00000000000000000000000000000056
:102C000000000000007038007038007038000000CC
:102C100000000000000000000000000000000000B4
:102C2000000000000000000000301A00301C00000E
:102C30000000000000000000000000000000000094
:102C40000000000008000014000022000041000005
:102C500080800100400200200400100800080000ED
:102C600000000000002100002100002100002100E0
:102C700000210000210000210000210000210000AF
:102C8000210000000000000000000008000804000F
:102C9000100200200100400080800041000022005E
:102CA00000140000080000000000000003C0000441
:102CB000C000040000080038080F38080838081061
:102CC000000C300007E00003C0000000000000001E
:102CD000003F8000FFE0038070020F100670880440
:102CE000C088048308047F8802C09003012000FE8E
:102CF000400000080000180001F8003E0801C20072
:102D000007020007E20000FE00001FC80001F800F3
:102D1000003800000804000807FFF807FFF804085F
:102D20000804080804080804080806180803F4182A
:102D300001E7F00001E0000000000000003F80011A
:102D4000FFE003807002001804000804000804007B
:102D5000080400100600200780C0000000040008DE
:102D600007FFF807FFF8040008040008040008043F
:102D7000001802001003807001FFE0007F80000057
:102D80000004000807FFF807FFF804080804080813
:102D9000040808040808043E080400080600180196
:102DA000006000000004000807FFF807FFF80408AF
:102DB00008040800040800040800043E000600009F
:102DC000060000018000000000000000003F8001BC
:102DD000FFE00380700600180400080402080402E3
:102DE000080203F00783F00002000002000400085C
:102DF00007FFF807FFF804080800080000080000B3
:102E0000080000080004080807FFF807FFF804009E
:102E10000800000000000004000804000804000886
:102E200007FFF807FFF80400080400080400080082
:102E30000000000000000000000006000007000085
:102E40000104000104000104000307FFFE07FFFC6A
:102E500004000004000004000004000807FFF80755
:102E6000FFF8040C08001800003E0004C7800503AA
:102E7000C80600F804003804001800000804000820
:102E800007FFF807FFF8040008000008000008002A
:102E900000080000080000080000180000600000A2
:102EA0000004000807FFF807800807FC00007FC047
:102EB0000003F80007C000780007800807FFF80744
:102EC000FFF804000804000807FFF807000803C023
:102ED0000000E000003800001E000007000001C0F4
:102EE0000400F007FFF8040000000000007F8001EC
:102EF000FFE00380700600180400080400080600C4
:102F00001803003001FFE0007F800000000400088B
:102F100007FFF807FFF80404080404000404000491
:102F20000400040400060C0003F80001F000000097
:102F300000000000007F8001FFE003807006008831
:102F40000400880400C806003C03003E01FFE600C0
:102F50007F8400000004000807FFF807FFF804085A
:102F600008040800040C00040F00040BC00610F055
:102F700003F03801E00800000800000001E0F80359
:102F8000F030063010041808041808040C08040C6B
:102F9000080206180207F00781E000000001800027
:102FA00006000004000004000004000807FFF80702
:102FB000FFF804000804000004000006000001807F
:102FC0000004000007FFE007FFF0040018000008FD
:102FD00000000800000800000800000804001007B6
:102FE000FFE004000004000006000007E00007FE08
:102FF00000041FE00001F80000380001E0043E007A
:1030000007C00006000004000004000007E00007FD
:10301000FFC0041FF80007C007F80007FF80043F47
:10302000F80007C004F800070000040000000000DA
:1030300004000806001807C07805F1C8003E00002B
:103040001F800463E80780F80600180400080000E9
:103050000004000006000007800007E008047C0868
:10306000001FF80007F800180804E0080700000631
:103070000000040000000000010008060038040001
:10308000F80403E8040F08047C0805F00807C008EA
:1030900007001804006000000000000000000000AD
:1030A00000000000000000003FFFFE2000022000A2
:1030B00002200002200002200002000000000000A8
:1030C00000000008000007000000C00000380000F9
:1030D00006000001C000003000000E0000010000EA
:1030E000000000000000002000022000022000027A
:1030F0002000022000023FFFFE0000000000000050
:1031000000000000000000000000000000000800B7
:10311000001000003000002000003000001000000F
:103120000800000000000000000000010000010095
:10313000000100000100000100000100000100008A
:10314000010000010000010000010000010000007A
:10315000000000000000200000200000100000100F
:10316000000000000000000000000000000000005F
:10317000000000000000F00019F8001B18002208F1
:10318000002608002408002410003FF8001FF80063
:10319000000800001800000004000007FFF80FFFFF
:1031A000F00018180010080020080020080030184F
:1031B000001FF0000FC00000000000000007C0006A
:1031C0001FF0001830002008002008002008003CF4
:1031D00008001C100000600000000000000000005B
:1031E0000007C0001FF00038180020080020080069
:1031F000200804101007FFF80FFFF0000010000077
:10320000000000000000000007C0001FF0001230A6
:10321000002218002208002208003208001E1000B8
:103220000E20000000000000002000002008002008
:103230000801FFF803FFF80620080420080420080E
:1032400007200003000000000000000000000E0046
:103250000E6E001FF30031B10020B10020B100312B
:1032600091001F13002E1E00200E003000000000F1
:1032700004000807FFF80FFFF80010080020000006
:103280002000002008003FF8001FF80000080000A0
:1032900000000000000000002008002008002008B6
:1032A000063FF8063FF8000008000008000008008C
:1032B000000000000000000000000000000300000B
:1032C00003002001002001002003063FFE063FFC12
:1032D00000000000000000000000000004000807DB
:1032E000FFF80FFFF8000188000300002FC000382E
:1032F000F80020380020080000080000000000004E
:1033000000000004000804000804000807FFF80F8C
:10331000FFF800000800000800000800000000009E
:1033200000002008003FF8003FF8001008002000CF
:10333000003FF8003FF8001008002000003FF800B0
:103340003FF8000008000000002008003FF8003FA0
:10335000F8001008001000002000002008003FF8CE
:10336000001FF80000080000000000000007C00077
:103370000FF000183000300800200800200800304E
:1033800008001830000FF00007C000000000000027
:10339000002001003FFF003FFF0010110020090046
:1033A0002008002008003038001FF0000FC0000087
:1033B000000000000007C0001FF0003818002008BF
:1033C000002008002009001011001FFF003FFF002F
:1033D0000001000000002008002008002008003F35
:1033E000F8003FF80008080010080020080020003E
:1033F000003000003000000000000000000000006D
:103400000C78001E18003308002308002108002152
:10341000880021980030F0003860000000000000B3
:1034200000200000200000200000FFF003FFF80053
:1034300020080020080020080000300000000000E4
:1034400000000000002000003FF0007FF80000189E
:10345000000008000008002010003FF8007FF00086
:103460000010000000000000002000003000003CC0
:1034700000003F800023F0000078000070002380EF
:10348000003C00003000002000002000003C000054
:103490003FE00023F80000E0002700003E00003F6E
:1034A000E00021F80001E0003E00002000000000E4
:1034B000002008002008003838003E6800278000FF
:1034C00003C8002CF800383800201800200800003D
:1034D00000000000002000003003003C01003F839A
:1034E0000023EC000070002380003C00002000005E
:1034F000200000000000000000000000380800204C
:10350000380020F80023E8002F88003E0800380823
:103510000020180000700000000000000000000003
:1035200000000000000000000008000014001FF769
:10353000FC30000620000200000000000000000037
:10354000000000000000000000000000000000FF7C
:10355000FFFF00000000000000000000000000006D
:10356000000000000000002000023000061FF7FCF1
:10357000001400000800000000000000000000002F
:103580000000000000000000180000600000400083
:1035900000400000200000100000080000040000AF
:1035A0000400000C0000100000000000CC350008F2
:1035B00000000020401C000050010008A039000855
:1035C000401C002080080000141C000811100A0391
:1035D000050911FF118905C312E012F072F8073DC9
:1035E0004428FF11AA44700B8301384482929274DC
:1035F000018328087C44FF017D7D7D044905647DAD
:1036000001FF9A0102818A010B013669419949FA49
:103610000101011D38083F3F0303F31311011E018F
:10362000F1116181312D816111F1393B4141072C4B
:1036300001C1211EAB21C114390139360738D333FA
:1036400003033F3F23E0E06A7FA81A7FBF4C0618C0
:10365000060A213640407F40401C1F204001AB201D
:103660001F14113A600E6C300C034601361C07071C
:10367000060178090404048444444484071C048437
:10368000C405790E09110A7911294003410707265B
:1036900010181412112E0F1010100F0F331F1026B8
:1036A000081012120D22186B0D120A592959070120
:1036B000605A8001013D20087F030C300C037F25F8
:1036C00038545458257C04047805223C40407C172B
:1036D000FFAAAAAA28080A2CFF681E2649494932CF
:1036E000101D020408100F100A03050911FF1189AB
:1036F00005C312E012F072F8073D4428FF11AA44F6
:10370000700B830138448292927401831E7C44FFC3
:10371000017D01990559BB9A0102818A010B01368D
:1037200069419949FA010101204BF808011135F866
:1037300018608035806018F82B202006312BE010AF
:103740001EAB10E014613937043E8868186A7FA701
:103750001A7FBE4C0618060A114640407F40401CA6
:103760001F204001AB201F141162603A602F0144FA
:103770001E40202020C0ED190729EA2A4005115AD1
:10378000600E8918792959070149260C0A0A090C83
:10379000360F0808080F2C080F08151D0809090E18
:1037A0000719181C09090918190A5929590701602C
:1037B0005A8001013D20087F030C300C037F25381F
:1037C000545458257C04047805223C40407C17FF63
:1037D000AAAAAA28080A2CFF681E264949493210BD
:1037E00016020408107F3468FF1F1BF010012AFF27
:1037F0000552F01B0F04012AFF05320F1809404043
:10380000405F55555575041A5F0C1911180C200F9F
:10381000094989790909090F200F112FFE02424A2F
:10382000CA4A032C4202FE99380C40504C43404097
:103830004F50505C409E1BF888012AFF0552F81B30
:103840001F08012A7F10149F80F03B8082016009CD
:10385000E2A2928A868280801B4080AC6117242479
:10386000A4FEA3221B22CC5A4115080601FF2A01FF
:103870009E1604FF02020239BC5B90086312081016
:10388000100444827F01808040432C1028468180B0
:1038900019281E84E43C2724011AE40C11140402A4
:1038A000011AFFBD19C4496415FE225A862BFE92E7
:1038B0000129BF111DFF040807C51F20030C142296
:1038C00041E1178040201806802D071820409E12E5
:1038D00001100B20702826212020243860230101AC
:1038E0003B10123C3D9212120240211A3F948B1061
:1038F0003FC54BC080014BFC84080336C0C03CFF71
:103900007F40014AFF075B40FF600138034A7F7038
:103910000373FCF86CFFFE02018BFFFF0B026803D0
:103920006C1F1F04017BFFFF0B02741F038C7F3F82
:1039300007FFF8F8F0F0702001E60214801AFF018A
:1039400009122C09132D01FF01C0EDFFFFFE060136
:103950001AFF01F915391603FF070201D10C12FFF6
:10396000FFFF1409101509151601FF01C1EDFFFF36
:10397000FF18011914091015391601FF01D204129C
:103980000201011AFF01011209122A01FF01D71ACF
:10399000FF0101FF01FD05FF1F1F0F0F01E40000E4
:04000005080000F5FA
:00000001FF
