:020000040800F2
:1000000028060020AD010008C9380008612B00084F
:100010009536000899080008F14600080000000025
:10002000000000000000000000000000CB3C0008C1
:100030009D08000800000000813C0008CD3C00083D
:10004000C7010008C7010008C7010008C701000870
:10005000C7010008C7010008C7010008C701000860
:10006000C7010008C7010008C7010008C701000850
:10007000C7010008C7010008C7010008C701000840
:10008000C7010008C7010008C70100080000000000
:10009000000000000000000000000000C701000890
:1000A000C7010008C7010008C7010008C701000810
:1000B000A13D0008C7010008B13D0008C7010008C4
:1000C000C7010008C7010008C7010008C7010008F0
:1000D000C7010008E1460008C70100080000000051
:1000E000C7010008C7010008C701000800000000A0
:1000F000000000000000000000000000C701000830
:1001000000000000C7010008C7010008C70100087F
:1001100000000000000000000000000000000000DF
:10012000C7010008C7010008C7010008C70100088F
:10013000C7010008000000000000000000000000EF
:10014000000000000000000000000000C7010008DF
:10015000C7010008C7010008C7010008C70100085F
:10016000C7010008C70100080000000000000000EF
:10017000000000000000000000000000000000007F
:1001800000000000C701000800000000000000009F
:10019000C7010008C7010008DFF80CD000F06AFBB7
:1001A000004800471D4B00082806002006488047ED
:1001B00006480047FEE7FEE7FEE7FEE7FEE7FEE74C
:1001C000FEE7FEE7FEE7FEE7853D0008990100082F
:1001D0002DE9F05F0546002092469B46884606467C
:1001E000814640241BE0284641464746224600F00F
:1001F0008AFA53465A46C01A914110D311461846FE
:10020000224600F071FA2D1A67EB01084F4622468C
:100210000120002100F068FA17EB00094E41201E72
:10022000A4F10104DFDC484631462A464346BDE8D6
:10023000F09FD2B201E000F8012B491EFBD27047BB
:100240000022F6E710B513460A4604461946FFF7A2
:10025000F0FF204610BD421C10F8011B0029FBD105
:10026000801A70472DE9FE4F804681EA0300C00FD7
:100270000C46009021F0004123F00045B8EB02004D
:10028000A94105D24046214690461C460B460246EF
:1002900023F00040104347D0270DC7F30A00C3F3F3
:1002A0000A510290401A019040286BDAC3F3130000
:1002B00040F4801B0098924620B10023D2EB030A41
:1002C00063EB0B0B01985946C0F14002504600F019
:1002D0000BFA06460D4650465946019A00F023FA9D
:1002E00010EB08006141002487EA115284EAE773A9
:1002F0001A4340D0009A62B3019A012A4FEA07528A
:1003000015DC001B61EB02014FF0004202EA0752CC
:10031000CDE90042001C41F5801132462B4600F029
:100320005AFA03B0BDE8F08F40462146F9E7001BBA
:1003300061EB0201001C41F5801300185B4120189D
:10034000A2F5001747EB030140EAD570B6196D41DD
:1003500011E06D084FEA360645EAC0754FEA0752CC
:10036000001B61EB0201001C41F5801149084FEAB6
:1003700030000019514132462B4603B0BDE8F04F22
:1003800000F01ABA0098012240000023D0EB0202CC
:1003900063EBE073009821464FEAE074B8EB00008D
:1003A00061EB0401E9E783F000435BE781F0004182
:1003B00058E72DE9FE4F81EA030404F0004421F0E0
:1003C000004100944FF0000B23F0004350EA010479
:1003D0005ED052EA03045BD0C3F30A54C1F30A555A
:1003E0002C44A4F2F3340194A0FB0254C1F3130192
:1003F00041F48011C3F3130343F4801301FB02445F
:1004000000FB034E840A970A44EA815447EA835763
:10041000A4FB076802958D0A05FB07854FEA932C1C
:1004200004FB0C542705029D4FEA065847EA16378D
:10043000B5EB08056EEB070C870E920E47EA8117A5
:1004400042EA8312A7FB0201B6EB0B0164EB000446
:100450002B0D43EA0C335E1844EB1C50DA46514630
:10046000E7FB0201C5F313044FEA0B3343EA1453CD
:100470004FEA0432019C43EA0603A4F10C040294FF
:10048000009CCDE900B400F0A6F903B0BDE8F08F00
:1004900000200146F9E72DE9F04D81EA030404F05C
:1004A000004B21F0004514464FF0000A23F00041B4
:1004B00050EA050220D054EA01021DD0C5F30A57C4
:1004C0000246C5F31303C1F31300C1F30A5640F407
:1004D000801543F48013A7EB0608101BD64608F2DC
:1004E000FD3873EB050002D308F1010801E0921812
:1004F0005B41B8F1000F03DA00200146BDE8F08D42
:1005000000204FF48011064684460EE0171B73EB63
:10051000050705D3121B63EB050306434CEA010CE8
:1005200049084FEA300092185B4150EA0107EDD1CB
:1005300052EA030012D082EA040083EA050108436C
:1005400005D0101BAB4106D20122002306E0002299
:100550004FF0004302E06FF0010253101AEB060067
:100560004CEB085110EB0A0041EB0B01BDE8F04DDC
:1005700000F022B90EB540F2334102910021CDE9DD
:1005800000110A460B4600F026F903B000BD70B515
:10059000C1F30A5201F000450024C1F3130140F2F7
:1005A000FF3341F480119A4201DA002070BD40F21D
:1005B00033439A42A2F2334203DC524200F0A3F8E2
:1005C00000E090402C43F1D0404270BDC1F30A528C
:1005D00010B5C1F3130140F2FF3341F480119A4288
:1005E00001DA002010BD40F233439A42A2F23342B6
:1005F00003DC524200F087F810BD904010BD00F0BF
:10060000004230F000400AD0C10D01F56071C0F326
:10061000160042EA0151C20840071143704700200A
:100620000146704730B5041E71F1000404DB4FF041
:100630000044404264EB0101141E73F1000405DB29
:100640001C464FF00043524263EB04038B4208BF49
:10065000824230BD30B5041E71F1000404DB4FF05E
:100660000044404264EB0101141E73F1000405DBF9
:100670001C464FF00043524263EB0403994208BF0B
:10068000904230BD01F0004330B421F0004150EA07
:10069000010206D00A0DA2F56072C1F31301002A0F
:1006A00002DC30BC00207047440F44EAC104C100A2
:1006B000E01830BC00EBC25000F047B830B50B4634
:1006C000014600202022012409E021FA02F59D4282
:1006D00005D303FA02F5491B04FA02F52844151E56
:1006E000A2F10102F1DC30BD202A04DB203A00FA3D
:1006F00002F1002070479140C2F1200320FA03F379
:10070000194390407047202A04DB203A21FA02F076
:100710000021704721FA02F3D040C2F1200291403B
:10072000084319467047202A06DBCB17203A41FAC6
:1007300002F043EAE07306E041FA02F3D040C2F16E
:10074000200291400843194670470029A8BF70470E
:10075000401C490008BF20F00100704710B4B0FAF7
:1007600080FC00FA0CF050EA010404BF10BC704792
:1007700049B1CCF1200421FA04F411FA0CF118BFAC
:10078000012121430843A3EB0C01CB1D4FEA00617B
:100790004FEA102042BF002010BC704700EBC3504E
:1007A00010440029A4BF10BC7047401C490008BF7A
:1007B00020F0010010BC704710B5141E73F1000446
:1007C00008DA401C41F1000192185B411A4301D143
:1007D00020F0010010BD2DE9F04D92469B4611B16D
:1007E000B1FA81F202E0B0FA80F220329046FFF7CF
:1007F0007BFF04460F4640EA0A0041EA0B015346DC
:100800005A46084313D0114653EA010019D0C8F1E3
:1008100040025046FFF777FF05460E4650465946C0
:100820004246FFF761FF084305D0012004E020465F
:100830003946BDE8F08D0020054346EAE0762C43BA
:1008400037430A986305E40AA0EB08000022FD0A7A
:1008500044EA47540A3002D500200146E9E7010581
:1008600010196941DDE9084500196941BDE8F04DFD
:10087000A2E70000064C074D06E0E06840F00103E7
:1008800094E8070098471034AC42F6D3FFF788FC91
:10089000D4560008F456000800BFFEE770477047C2
:1008A00010B502F013FC0221372002F051FD0021A7
:1008B0006A2002F04DFDC82000F018F802F010F98F
:1008C00010BD014691F83500022803D0802048650C
:1008D00001207047052081F835000868006820F085
:1008E00001000A6810600020F3E7000070B50446BC
:1008F00000F0FAF806462546681C10B10448007856
:10090000054400BF00F0F0F8801BA842FAD370BD88
:1009100008000020F8B503460A4600250024002000
:100920000021CDE0012606FA01F5166806EA050465
:10093000AC4273D15668012E08D05668022E05D0FD
:100940005668112E02D05668122E13D198684F00A7
:100950000326BE40B0434F00D668BE403043986087
:10096000586801268E40B0431679C6F300168E40B3
:1009700030435860D8684F000326BE40B0434F0054
:100980009668BE403043D8605668022E02D0566842
:10099000122E13D1CF0803F1200656F827004E0778
:1009A000F70E0F26BE40B0434F07FF0E1669BE403C
:1009B0003043CF0803F1200646F8270018684F009F
:1009C0000326BE40B043167906F003064F00BE4032
:1009D00030431860566806F08056B6F1805F6ED1DD
:1009E00000BF00260096384E366846F48046364FE3
:1009F0003E603E46366806F48046009600BF00BF63
:100A0000324E8F0856F827008E07370F0F26BE404C
:100A1000B0432F4EB34202D1002615E04FE02D4ED9
:100A2000B34201D101260FE02B4EB34201D1022681
:100A30000AE02A4EB34201D1032605E0284EB34214
:100A400001D1042600E007268F073F0FBE40304348
:100A50001E4E8F0846F82700224E3068A043566885
:100A600006F48036B6F5803F00D120431D4E30603D
:100A7000361D3068A043566806F40036B6F5003FD0
:100A800000D12043174E361D3060361D3068A0431C
:100A9000566806F48016B6F5801F00D12043114E2B
:100AA00008363060361D3068A043566806F40016DC
:100AB000B6F5001F00D120430A4E0C363060491CA9
:100AC0001029FFF42FAFF8BD443802400838014028
:100AD000000002400004024000080240000C0240F6
:100AE00000100240003C01400148006870470000CF
:100AF0000000002070B504460CB9012070BD94F8C8
:100B00003D0028B9002084F83C00204600F006FB98
:100B1000242084F83D002068006820F0010021684E
:100B200008602068006840F4004021680860206880
:100B3000006820F400402168086000F015FD0546BB
:100B40005C496068884206D85B48854201D2012032
:100B500007E0002005E05948854201D2012000E06D
:100B60000020012800D1C9E75548B5FBF0F6206800
:100B7000406820F03F003043216848604D4960687C
:100B8000884201D8701C07E04FF4967070434FF410
:100B90007A71B0FBF1F0401C2168096A21F03F0135
:100BA00008432168086243496068884214D8681E77
:100BB00061684900B0FBF1F0401CC0F30B00042851
:100BC00001D204203DE0681E61684900B0FBF1F0ED
:100BD000401CC0F30B0034E0A06838B9681E61689F
:100BE00001EB4101B0FBF1F0401C0AE0681E6168B6
:100BF00001EBC10202EB0111B0FBF1F0401C40F42B
:100C00008040C0F30B0008B901201AE0A06848B981
:100C1000681E616801EB4101B0FBF1F0401CC0F3BC
:100C20000B000CE0681E616801EBC10202EB0111D0
:100C3000B0FBF1F0401CC0F30B0040F4804040F4E6
:100C400000402168C9694CF6FF729143084321684E
:100C5000C861D4E9070108432168096821F0C0018F
:100C6000084321680860D4E90310084321688968B3
:100C700048F2FF329143084321688860D4E90501B6
:100C800008432168C96821F0FF0108432168C86052
:100C90002068006840F0010021680860002020649E
:100CA000202084F83D000020206384F83E0000BF2F
:100CB00024E70000A086010080841E0000093D009A
:100CC00040420F002DE9FC5F04460F4690469946CE
:100CD000DDE90CAB0E9EFFF707FF054694F83D00DB
:100CE000202870D119230122B0492046009502F036
:100CF000A7F810B10220BDE8FC9F00BF94F83C00AB
:100D0000012801D10220F6E7012084F83C0000BF51
:100D10002068006800F0010028B92068006840F0F1
:100D20000100216808602068006820F400602168E4
:100D30000860222084F83D00402084F83E00002016
:100D40002064C4F824A0A4F82AB0608D20859848B7
:100D5000E0624B46424639462046CDE9006501F047
:100D600021FF08B10120C6E7208D88B900BF00200F
:100D7000019020684069019020688069019000BF5F
:100D800000BF2068006840F400702168086040E0FF
:100D9000208D012818D12068006820F48060216827
:100DA000086000BF00200190206840690190206821
:100DB0008069019000BF00BF2068006840F40070A7
:100DC0002168086025E0EFE0208D022816D1206818
:100DD000006820F48060216808602068006840F4A2
:100DE00000602168086000BF002001902068406911
:100DF000019020688069019000BF0AE000BF0020D8
:100E0000019020684069019020688069019000BFCE
:100E100000BFBAE0208D03287ED8208D012815D18F
:100E20002A463146204602F0B0F808B1012062E7B8
:100E300020680069616A0870606A401C6062208DE9
:100E4000401E2085608D401E60859EE0208D02281A
:100E50002AD13346002257492046009501F0F0FF81
:100E600008B1012047E72068006840F4007021685D
:100E7000086020680069616A0870606A401C6062EE
:100E8000208D401E2085608D401E60852068006991
:100E9000616A0870606A401C6062208D401E208577
:100EA000608D401E608570E0334600224149204637
:100EB000009501F0C5FF08B101201CE7206800681B
:100EC00020F480602168086020680069616A087009
:100ED000606A401C6062208D401E2085608D401E2F
:100EE00060853346002233492046009501F0A8FF73
:100EF00008B10120FFE62068006840F40070216816
:100F0000086020680069616A0870606A401C60625D
:100F1000208D401E208500E010E0608D401E608521
:100F200020680069616A0870606A401C6062208DF8
:100F3000401E2085608D401E608526E02A46314691
:100F4000204602F022F808B10120D4E620680069AA
:100F5000616A0870606A401C6062208D401E2085B6
:100F6000608D401E608520684069C0F3800060B1DC
:100F700020680069616A0870606A401C6062208DA8
:100F8000401E2085608D401E6085208D00287FF4E6
:100F900041AF202084F83D00002084F83E0000BFCF
:100FA00084F83C0000BFA6E60220A4E60200100080
:100FB0000000FFFF040001002DE9FC5F04460F461E
:100FC00090469946DDE90CAB0E9EFFF78DFD054678
:100FD00094F83D0020287DD1192301224D49204657
:100FE000009501F02DFF10B10220BDE8FC9F00BF6D
:100FF00094F83C00012801D10220F6E7012084F892
:101000003C0000BF2068006800F0010028B920689B
:10101000006840F00100216808602068006820F442
:10102000006021680860212084F83D00402084F899
:101030003E0000202064C4F824A0A4F82AB0608DEB
:1010400020853548E0624B46424639462046CDE988
:10105000006501F057FE08B10120C6E731E02A46DD
:101060003146204601F0D1FF50B1206C042805D153
:101070002068006840F40070216808600120B4E72F
:10108000606A007821680861606A401C6062208D97
:10109000401E2085608D401E608520684069C0F339
:1010A000800070B1208D60B1606A007821680861AD
:1010B000606A401C6062208D401E2085608D401E4D
:1010C0006085208D0028CAD12A463146204601F08D
:1010D00089FE00E01CE050B1206C042805D1206896
:1010E000006840F400702168086001207DE72068F6
:1010F000006840F4007021680860202084F83D00FA
:10110000002084F83E0000BF84F83C0000BF6CE77C
:1011100002206AE7020010000000FFFF10B586B051
:101120000446142101A8FFF78BF83C492068884247
:101130002FD100BF002000903948006840F0020025
:10114000374908600846006800F00200009000BFC0
:1011500000BFC020019012200290012003900320C4
:1011600004900420059001A92E48FFF7D3FB00BF8F
:10117000002000902A481030006840F400102849F0
:10118000103108600846006800F40010009000BFAD
:1011900041E02549206888423DD100BF00200090F1
:1011A0001F48006840F002001D49086008460068BA
:1011B00000F00200009000BF00BF0815019012204F
:1011C000029001200390032004900420059001A9BF
:1011D0001448FFF79FFB0820019012200290012085
:1011E0000390032004900920059001A90D48FFF702
:1011F00091FB00BF0020009009481030006840F4C7
:1012000080000749103108600846006800F480003B
:10121000009000BF00BF06B010BD000000540040A9
:101220003038024000040240005800400348006883
:10123000034909780844014908607047000000200C
:101240000800002010B50D48006840F400700B49FC
:1012500008600846006840F480600860084600683E
:1012600040F480700860032000F0A2F8002000F035
:1012700007F800F02BF8002010BD0000003C0240F1
:1012800070B504460E4800784FF47A71B1FBF0F067
:101290000C490968B1FBF0F5284600F021FC08B1C3
:1012A000012070BD102C07D200222146501E00F0F4
:1012B00041F80548046001E00120F2E70020F0E772
:1012C000080000200C0000200400002008B500BF2A
:1012D000002000900E48006840F480400C490860EF
:1012E0000846006800F48040009000BF00BF00BFC7
:1012F00000200090081F006840F08050091F08601F
:101300000846006800F08050009000BF00BF08BD94
:101310004438024001460846002809DB00F01F035C
:1013200001229A4043099B0003F1E023C3F8002106
:1013300000BF70472DE9F05F80460D461646002736
:1013400003F018FA074639462A46334601F00700EB
:10135000C0F1070ABAF1040F02D94FF0040A01E004
:10136000C0F1070AD14600F1040ABAF1070F02D210
:101370004FF0000A01E0A0F1030AD4464FF0010A41
:101380000AFA09FAAAF1010A0AEA020A0AFA0CFAA6
:101390004FF0010B0BFA0CFBABF1010B0BEA030B4B
:1013A0004AEA0B042146404603F0ECF9BDE8F09F01
:1013B00000BF00F00702064B19684FF6FF03194003
:1013C000044B0B4343EA0221014B196000BF7047F5
:1013D0000CED00E00000FA0570B504460D460CB9AE
:1013E000012070BD5848006800F00F00A84209D2E3
:1013F00055490D700846006800F00F00A84201D062
:101400000120EEE7207800F0020002281DD12078AC
:1014100000F00400042805D14C48006840F4E05076
:101420004A490860207800F00800082805D147489C
:10143000006840F46040454908604448006820F076
:10144000F000A168084341490860207800F00100DD
:10145000A8B36068012807D13C4808380068C0F389
:101460004040B8B90120BCE76068022802D060683B
:10147000032807D1354808380068C0F3406048B9F0
:101480000120AEE7314808380068C0F3400008B9D1
:101490000120A6E72D48006820F00300616808439A
:1014A0002A490860FFF720FB064609E0FFF71CFB0E
:1014B000801B41F28831884202D9032091E707E07E
:1014C0002248006800F00C006168B0EB810FEDD19C
:1014D0001D48006800F00F00A84209D91A490D7094
:1014E0000846006800F00F00A84201D0012078E70C
:1014F000207800F00400042807D11448006820F484
:10150000E050E168084311490860207800F00800C5
:10151000082808D10D48006820F46040216940EA9D
:10152000C1000A49086000F03FF808490968C1F3A2
:101530000311074A515CC840064908600648006824
:10154000FFF79EFE00204CE7003C024008380240B6
:10155000564E00080C0000200400002001480068DE
:10156000704700000C00002000B5FFF7F7FF0449AA
:101570000968C1F38221034A515CC84000BD0000E4
:1015800008380240664E000800B5FFF7E7FF04493F
:101590000968C1F34231034A515CC84000BD0000F4
:1015A00008380240664E00082DE9F0470024002567
:1015B0000026A1462548006800F00C0020B1042850
:1015C00005D008283AD105E0DFF8849039E0DFF84B
:1015D000849036E01D48001F006800F03F041B485F
:1015E000001F006800F4800078B11A481749091FED
:1015F0000968C1F38811A0FB01700146224600234F
:101600003846FEF7E5FD05460EE011480F49091F73
:101610000968C1F38811A0FB01700146224600232E
:101620003846FEF7D5FD05460848001F0068C0F3A0
:101630000140401C4600B5FBF6F902E0DFF81090CF
:1016400000BF00BF4846BDE8F087000008380240F0
:101650000024F40040787D01F8B504460CB901205F
:10166000F8BD207800F00100002874D0F948006827
:1016700000F00C0004280DD0F648006800F00C00C3
:10168000082813D1F348001F006800F48000B0F56B
:10169000800F0BD1EF4808380068C0F340400028A5
:1016A00059D06068002856D10120D9E700BF606892
:1016B000B0F5803F08D1E7480838006840F4803032
:1016C000E449083908601EE06068B0F5A02F0DD12C
:1016D000E0480838006840F48020DE490839086096
:1016E0000846006840F4803008600CE0D9480838AB
:1016F000006820F48030D74908390860084600683F
:1017000020F48020086000BF606890B1FFF7ECF91A
:10171000054606E0FFF7E8F9401B642801D90320DD
:101720009EE7CC4808380068C0F340400028F1D05C
:1017300011E0FFF7D9F9054606E0FFF7D5F9401BA0
:10174000642801D903208BE7C24808380068C0F339
:1017500040400028F1D1207800F0020002285FD13B
:10176000BC48006800F00C0058B1BA48006800F0AE
:101770000C0008281CD1B748001F006800F4800046
:10178000B0B9B44808380068C0F3400020B1E06840
:10179000012801D0012063E7AE480838006820F036
:1017A000F800216940EAC100AA490839086037E019
:1017B000E06800B30120A8490860FFF795F90546E5
:1017C00006E0FFF791F9401B022801D9032047E703
:1017D000A04808380068C0F340000028F1D09D48B8
:1017E0000838006820F0F800216940EAC1009949F2
:1017F0000839086014E0002097490860FFF774F981
:10180000054606E0FFF770F9401B022801D90320C6
:1018100026E7904808380068C0F340000028F1D15E
:10182000207800F0080008282CD16069A8B10120B8
:101830008A490860FFF758F9054606E0FFF754F9B2
:10184000401B022801D903200AE782486C30006857
:10185000C0F340000028F1D014E000207F49086068
:10186000FFF742F9054606E0FFF73EF9401B022864
:1018700001D90320F4E677486C300068C0F34000DB
:101880000028F1D1207800F00400042870D100274E
:1018900070483830006800F0805090B900BF0020D8
:1018A00000906C483830006840F080506949383109
:1018B00008600846006800F08050009000BF00BF3C
:1018C00001276748006800F48070B0B96448006878
:1018D00040F4807062490860FFF706F9054606E0AB
:1018E000FFF702F9401B022801D90320B8E65C4843
:1018F000006800F480700028F2D000BFA0680128C2
:1019000008D154486830006840F0010051496831FE
:1019100008601DE0A06805280DD14E4868300068B9
:1019200040F004004B49683108600846006840F008
:10193000010008600CE047486830006820F00100B2
:101940004449683108600846006820F004000860D7
:1019500000BFA068A8B1FFF7C7F8054609E0FFF788
:10196000C3F8401B41F28831884202D9032077E650
:1019700026E0384868300068C0F340000028EED008
:1019800013E0FFF7B1F8054608E0FFF7ADF8401B9C
:1019900041F28831884201D9032061E62D48683040
:1019A0000068C0F340000028EFD1012F07D129487B
:1019B0003830006820F0805026493831086000BF78
:1019C000A069002845D02348006800F00C000828D2
:1019D0005DD0A069022845D100201F490866FFF7A5
:1019E00083F8054606E0FFF77FF8401B022801D97F
:1019F000032035E6174808380068C0F34060002827
:101A0000F1D1D4E907010843616A40EA811101225A
:101A1000A06AC2EB500041EA00412C20005D41EA7F
:101A200000600C49091F086001200B490866FFF798
:101A30005BF8054606E0FFF757F8401B022801D97E
:101A400003200DE6034808380068C0F34060002812
:101A5000F1D03FE00838024000004742800E474284
:101A60000070004000201C490866FFF73DF805465D
:101A700006E0FFF739F8401B022801D90320EFE503
:101A800016480068C0F340600028F2D122E0A06947
:101A9000012800D1E4E51148001D066806F4800124
:101AA000E069814214D106F03F01206A81420FD1E2
:101AB00047F6C0703040616A884209D106F440316F
:101AC000A06A814204D106F07061E06A814201D0CF
:101AD0000120C5E50020C3E5000047420038024070
:101AE00070B504462546681EB0F1807F01D3012001
:101AF0000FE0681E4FF0E02148610F214FF0FF30EA
:101B000002F040FE00204FF0E021886107200861CC
:101B1000002070BD7047704730B502460B4600BFCD
:101B200092F83C00012801D1022030BD012082F84A
:101B30003C0000BF022082F83D0010684468106835
:101B4000816824F070041868044310684460144DE0
:101B50001068A84213D01068B0F1804F0FD0114D1B
:101B60001068A8420BD0104D1068A84207D00F4D46
:101B70001068A84203D00E4D1068A84205D121F08C
:101B800080015868014310688160012082F83D009F
:101B900000BF002082F83C0000BF00BFC5E7000086
:101BA000000001400004004000080040000C00401C
:101BB0000040014010B52DED028B04462068B0F1C5
:101BC000804F6ED10020FE49086024E1207FFD494E
:101BD000FB4A1268895C884271D1FB4890ED050A86
:101BE00010EE101A0846FEF70AFD41EC180B9FEDA7
:101BF000F70B53EC102BFEF72DFD60D20120F549B9
:101C00000860F548EE490968405C10B1012866D1CA
:101C100066E0002021684862F048E9490968405CB4
:101C200030B92068006A20F00A00216808621FE0CD
:101C3000EA48E3490968405C042806D12068006A44
:101C400020F0A0002168086212E0E448DC4909683D
:101C5000405C082806D12068006A20F420602168D2
:101C6000086205E02068006A20F4204021680862CC
:101C7000DA48D3490968405C30B92068006A40F00E
:101C800002002168086221E0D448CD490968405C1F
:101C9000042807D12068006A40F02000216808620B
:101CA00014E0BEE0CD48C6490968405C082807D169
:101CB0002068006A40F400702168086206E09EE037
:101CC0002068006A40F4005021680862C248BC499C
:101CD0000968405C401CC049B94A126888548DE0CC
:101CE000BE48B74A1268815C204600F040FDBC49FE
:101CF000B34A126841F822000846B149096850F811
:101D0000210040F6C411884213D8B548AC4909688F
:101D100050F8210000EE100AB8EE400ADFEDB10ADB
:101D200080EE201AA848A649096800EB810080EDE2
:101D3000001AAA49A24A1268885CA349A04A1268FC
:101D400001EB8201D1ED000AB0EE600A01F0CAFC9D
:101D5000A2489B490968405C30B92068006A20F0BD
:101D60000A00216808621FE09C4895490968405CA8
:101D7000042806D12068006A20F0A00021680862CB
:101D800012E096488E490968405C082806D1206810
:101D9000006A20F420602168086205E02068006A7B
:101DA00020F42040216808628C4885490968405C1D
:101DB00020B92068006A2168086219E087488049D4
:101DC0000968405C042804D12068006A2168086220
:101DD0000EE082487A490968405C082804D12068EE
:101DE000006A2168086203E02068006A21680862CE
:101DF00000207949724A1268885400BF00BF7548B4
:101E0000006818B100207349086009E06C48006858
:101E1000401C6B4908606A4800680428FFF6D6AE8B
:101E20004DE1714920688842FAD104206449086074
:101E30003FE1217F62480068801E624A105C814257
:101E400075D101206349086063485D490968405CB9
:101E500010B101286AD16BE000202168486258481F
:101E60000068801E5D49085C30B92068006A20F077
:101E70000A002168086221E051480068801E574925
:101E8000085C042806D12068006A20F0A0002168C0
:101E9000086213E04A480068801E5049085C082820
:101EA00006D12068006A20F420602168086205E0FD
:101EB0002068006A20F420402168086240480068D9
:101EC000801E4649085C30B92068006A40F0020074
:101ED0002168086221E03A480068801E3F49085C9A
:101EE000042806D12068006A40F0200021680862BA
:101EF00013E033480068801E3849085C082806D182
:101F00002068006A40F400702168086205E02068DB
:101F1000006A40F40050216808622F482849096887
:101F2000405C401C2C49264A12688854B4E0B4E056
:101F300023480068801E294A115C204600F017FCE7
:101F400027491F4A126841F8220008461C490968BF
:101F500050F8210040F6C411884213D8204818498F
:101F6000096850F8210000EE100AB8EE400ADFEDD3
:101F70001D0A80EE201A14481149096800EB8100FF
:101F800080ED001A104890ED050A10EE101A084670
:101F9000FEF735FB41EC180B9FED140B53EC102BA7
:101FA000FEF740FB01D801F08BFB05480068801E5E
:101FB0000A49085C08BB2068006A20F00A0019E0A2
:101FC00040000020300000200C020020EC51B81E20
:101FD00085EBB13F44000020380000203400002091
:101FE000F401002000409C4600080040295C8FC29C
:101FF000F528AC3F2168086221E032480068801E65
:102000003149085C042806D12068006A20F0A0004D
:102010002168086213E02B480068801E2A49085C8A
:10202000082806D12068006A20F420602168086230
:1020300005E02068006A20F42040216808622148F9
:102040000068801E2049085C20B92068006A216869
:1020500008621BE01B480068801E1B49085C0428BE
:1020600004D12068006A216808620FE01548006802
:10207000801E1549085C082804D12068006A216880
:10208000086203E02068006A2168086200200F49A6
:102090000C4A1268885400BF00BF0D48006818B190
:1020A00000200B49086009E006480068401C05490B
:1020B0000860044800680628FFF6BBAE00BFBDEC10
:1020C000028B10BD400000203400002038000020AA
:1020D000440000202DE9F04104460D46164600BF9D
:1020E00094F83C00012802D10220BDE8F0810120D3
:1020F00084F83C0000BF022084F83D0096B9EB68EC
:10210000D5E90012206801F07BFF2068806920F08B
:102110000C002168886120688069A96808432168EB
:1021200088613DE0042E13D1EB68D5E900122068E8
:1021300001F0A4FF2068806920F440602168886174
:1021400020688069A96840EA01202168886127E049
:10215000082E12D1EB68D5E90012206801F0ABFF20
:102160002068C06920F00C002168C8612068C0693F
:10217000A96808432168C86112E0EB68D5E900123C
:10218000206801F0B4FF2068C06920F44060216835
:10219000C8612068C069A96840EA01202168C86157
:1021A000012084F83D0000BF002084F83C0000BFFF
:1021B00000BF9AE710B504460CB9012010BD94F891
:1021C0003D0028B9002084F83C00204600F00CF8BF
:1021D000022084F83D00211D206801F0F1FD01205E
:1021E00084F83D000020E9E710B586B004461421CC
:1021F00001A8FEF725F82068B0F1804F37D100BF65
:10220000002000903948006840F00100374908601C
:102210000846006800F00100009000BF00BF00BF4A
:102220000020009031481038006840F001002F492C
:10223000103908600846006800F00100009000BFF7
:1022400000BF0F2001900220029003900020049014
:102250000120059001A92648FEF75CFB01221146EA
:102260001C20FFF767F81C20FFF754F83BE02149DA
:102270002068884237D100BF002000901B480068CA
:1022800040F00400194908600846006800F00400A6
:10229000009000BF00BF00BF00200090134810381E
:1022A000006840F0020011491039086008460068D3
:1022B00000F00200009000BF00BF4FF4407001909A
:1022C000022002900390002004900220059001A9B2
:1022D0000948FEF71FFB002201211E20FFF72AF804
:1022E0001E20FFF717F806B010BD0000403802406E
:1022F00000000240000800400004024070B504469F
:102300000D4635B1042D0BD0082D10D00C2D1CD14D
:1023100014E02068C06840F002002168C86015E041
:102320002068C06840F004002168C8600EE02068A2
:10233000C06840F008002168C86007E02068C068F5
:1023400040F010002168C86000E000BF00BF01221B
:102350002946206801F086FD2068806800F00706A5
:10236000062E05D02068006840F001002168086052
:10237000002070BD10B5044620680069C0F340001D
:10238000D8B12068C068C0F34000B0B16FF002005F
:1023900021680861012020772068806900F003002F
:1023A00018B12046FFF706FC05E0204600F0FCF8D7
:1023B000204600F0B3F90020207720680069C0F3C0
:1023C0008000D8B12068C068C0F38000B0B16FF061
:1023D000040021680861022020772068806900F4E9
:1023E000407018B12046FFF7E5FB05E0204600F0FD
:1023F000DBF8204600F092F9002020772068006981
:10240000C0F3C000D8B12068C068C0F3C000B0B14C
:102410006FF0080021680861042020772068C069F7
:1024200000F0030018B12046FFF7C4FB05E020468A
:1024300000F0BAF8204600F071F9002020772068FB
:102440000069C0F30010D8B12068C068C0F3001064
:10245000B0B16FF010002168086108202077206873
:10246000C06900F4407018B12046FFF7A3FB05E0F7
:10247000204600F099F8204600F050F9002020771F
:102480002068006900F0010058B12068C06800F0C1
:10249000010030B16FF0010021680861204600F0B2
:1024A00065F920680069C0F3C01058B12068C068A1
:1024B000C0F3C01030B16FF0800021680861204681
:1024C000FFF728FB20680069C0F3801058B120682E
:1024D000C068C0F3801030B16FF04000216808611F
:1024E000204600F05DF920680069C0F3401058B143
:1024F0002068C068C0F3401030B16FF02000216840
:1025000008612046FFF707FB10BD000010B586B03C
:102510000446142101A8FDF793FE1F492068884254
:1025200038D100BF002000901C48006840F0010036
:102530001A4908600846006800F00100009000BFDA
:1025400000BF00BF002000900846006840F0020075
:1025500008600846006800F00200009000BF00BF5D
:10256000C0200190022002900020039004900220DD
:10257000059001A90A48FEF7CDF903200190022039
:1025800002900020039004900220059001A90548C4
:10259000FEF7C0F906B010BD00040040303802401C
:1025A0000000024000040240704770B504460D462A
:1025B000164600BF94F83C00012801D1022070BDEE
:1025C000012084F83C0000BF022084F83D0036B1B1
:1025D000042E1BD0082E31D00C2E5ED145E02946AA
:1025E000206801F051FC2068806940F008002168F3
:1025F00088612068806920F0040021688861206873
:102600008069296908432168886147E02946206874
:1026100001F06AFC2068806940F4006021688861EC
:102620002068806920F48060216888612068806962
:10263000296940EA0120216888612FE02946206845
:1026400001F086FC2068C06940F008002168C8617C
:102650002068C06920F004002168C8612068C06952
:10266000296908432168C86118E02946206801F0FB
:10267000A3FC2068C06940F400602168C86120683C
:10268000C06920F480602168C8612068C069296938
:1026900040EA01202168C86100E000BF00BF0120BE
:1026A00084F83D0000BF002084F83C0000BF00BF5C
:1026B00085E710B504460CB9012010BD94F83D0023
:1026C00028B9002084F83C00204600F00DF80220D4
:1026D00084F83D00211D206801F072FB012084F880
:1026E0003D000020E9E7000008B50A4A0168914270
:1026F0000FD100BF002100910749096841F0020194
:10270000054A11601146096801F00201009100BFFD
:1027100000BF08BD00040040403802407047000080
:1027200070B504460E4601223146206801F09AFB3E
:102730000D492068884201D1012000E0002028B125
:102740002068406C40F4004021684864206880683C
:1027500000F00705062D05D02068006840F0010054
:1027600021680860002070BD0000014070470246EB
:10277000002031B1042907D0082908D00C290CD138
:1027800008E01368586B09E01368986B06E013685B
:10279000D86B03E01368186C00E000BF00BF7047FF
:1027A000704770472DE9F0470446206805682068A7
:1027B000C668206847694FF00008C14605F00F0859
:1027C000B8F1000F0AD105F0200038B106F0200062
:1027D00020B1204601F0D3FCBDE8F087B8F1000F2E
:1027E00072D007F0010018B906F4907000286BD081
:1027F00005F0010030B106F4807018B1E06B40F0D4
:102800000100E06305F0040030B107F0010018B1E9
:10281000E06B40F00200E06305F0020030B107F029
:10282000010018B1E06B40F00400E06305F008001F
:1028300048B106F0200010B907F0010018B1E06BB4
:1028400040F00800E063E06B70B305F0200028B1B1
:1028500006F0200010B1204601F091FC206840698C
:10286000C0F38019E06B00F0080010B9B9F1000F57
:1028700023D0204601F063FC2068406900F040004E
:10288000402816D12068406920F040002168486146
:10289000606B50B11748616B0865606BFEF711F80B
:1028A00010B1606B016D88470CE02046FFF779FF9F
:1028B00008E02046FFF775FF04E02046FFF771FFB0
:1028C0000020E06388E7FFE705F0800030B106F004
:1028D000800018B1204601F099FE7DE705F0400028
:1028E00030B106F0400018B1204601F038FC73E723
:1028F00000BF71E72B41000810B504460CB9012058
:1029000010BDA06900B100E000BF94F8390028B9FB
:10291000002084F83800204600F028F8242084F8AD
:1029200039002068C06820F400502168C860204643
:1029300001F078FC2068006920F49040216808616B
:102940002068406920F02A00216848612068C0683A
:1029500040F400502168C8600020E063202084F823
:10296000390084F83A000020CAE7000010B586B0AC
:102970000446142101A8FDF763FC1F492068884222
:1029800038D100BF002000901C48006840F01000C3
:102990001A4908600846006800F01000009000BF67
:1029A00000BF00BF0020009014481438006840F0B9
:1029B00001001249143908600846006800F001005F
:1029C000009000BF00BF4FF4C06001900220029051
:1029D00000200390032004900720059001A90848D7
:1029E000FDF798FF002202212520FEF7A3FC2520F9
:1029F000FEF790FC06B010BD0010014044380240C4
:102A00000000024070472DE9F84304460D46164683
:102A10001F464FF0000994F8390020285DD105B118
:102A200016B90120BDE8F88300BF94F838000128EA
:102A300001D10220F6E7012084F8380000BF002011
:102A4000E063212084F83900FEF74EF88146A68421
:102A5000E68400BF002084F8380000BF2BE0E08C43
:102A6000401EE084A068B0F5805F16D14B4600227E
:102A700080212046009701F0FDFD08B10320D1E739
:102A8000A846B8F80000C0F3080021684860206933
:102A900008B9AD1C0FE06D1C0DE04B4600228021F3
:102AA0002046009701F0E6FD08B10320BAE715F8CB
:102AB000010B21684860E08C0028D0D14B460022F1
:102AC00040212046009701F0D5FD08B10320A9E779
:102AD000202084F839000020A4E70220A2E77047F4
:102AE00010B55021002000F01FF8E021012000F077
:102AF0001BF80021022000F017F810BDFEB50446B7
:102B00000E46154640F6FF70012322463D21CDE9D1
:102B1000005602900348FEF7D5F86420FDF7E6FE64
:102B20000020FEBDA00000207FB504460D46002019
:102B30000390039540F6FF70012103AA0B46CDE9EF
:102B40000021029022463C210448FEF735FA642019
:102B5000FDF7CCFE002004B070BD0000A0000020F6
:102B600000BFFEE7014608684069C0F38020B0B1AD
:102B70006FF480600A68506100200863202081F8AB
:102B80003D00002081F83E00086C40F0040008641D
:102B900000BF002081F83C0000BF012070470020EA
:102BA000FCE700002DE9F84304460F461546994618
:102BB000DDE908862068006840F4806021680860CC
:102BC0002068006840F48070216808604346002255
:102BD0004FF001112046009600F032F960B12068F4
:102BE000006800F48070B0F5807F02D14FF400706F
:102BF00020640320BDE8F88307F0FE002168086127
:102C0000334642463E49204600F05DF908B10120B6
:102C1000F0E700BF00200090206840690090206825
:102C20008069009000BF00BF32464146204600F058
:102C3000ECF950B1206C042805D12068006840F4FC
:102C40000070216808600120D4E7B9F1010F03D1B9
:102C5000E8B22168086117E0C5F307202168086120
:102C600032464146204600F0D0F950B1206C04288D
:102C700005D12068006840F40070216808600120D8
:102C8000B8E7E8B22168086132464146204600F0C4
:102C9000BCF950B1206C042805D12068006840F4CC
:102CA0000070216808600120A4E72068006840F4F3
:102CB000807021680860434600224FF001112046D1
:102CC000009600F0BDF858B12068006800F48070EC
:102CD000B0F5807F02D14FF400702064032089E7B3
:102CE000F8B240F0010021680861334642460449C9
:102CF000204600F0E8F808B101207BE7002079E7E2
:102D0000020001002DE9F84304468846154699461D
:102D1000DDE908672068006840F480702168086079
:102D2000334600224FF001112046009700F088F84A
:102D300060B12068006800F48070B0F5807F02D137
:102D40004FF4007020640320BDE8F88308F0FE0013
:102D5000216808613B4632462149204600F0B3F81D
:102D600008B10120F0E700BF002000902068406912
:102D7000009020688069009000BF00BF3A4631464D
:102D8000204600F042F950B1206C042805D120689B
:102D9000006840F40070216808600120D4E7B9F1B0
:102DA000010F03D1E8B22168086117E0C5F30720DD
:102DB000216808613A463146204600F026F950B1B4
:102DC000206C042805D12068006840F40070216858
:102DD00008600120B8E7E8B2216808610020B3E785
:102DE0000200010070B504460D46164620E020465C
:102DF000FFF7B8FE08B1012070BD681CC0B1FDF737
:102E000073FE801BA84200D895B9002020632020C3
:102E100084F83D00002084F83E00206C40F0200043
:102E2000206400BF002084F83C0000BF0120E3E7DD
:102E300020684069C0F380000028D8D00020DBE77C
:102E40002DE9F04104460D4617461E46DDF8188070
:102E50001CE0701CD0B1FDF747FEA0EB0800B042AB
:102E600000D89EB900202063202084F83D00002077
:102E700084F83E00206C40F02000206400BF002059
:102E800084F83C0000BF0120BDE8F081C5F3074095
:102E900001280AD120684069A9B20840A9B2884235
:102EA00001D101200BE0002009E020688069A9B26F
:102EB0000840A9B2884201D1012000E00020B842B8
:102EC000C7D00020E0E72DE9F04104460D46164644
:102ED0001F463DE020684069C0F38020E8B12068CB
:102EE000006840F40070216808606FF48060216819
:102EF000486100202063202084F83D00002084F8F1
:102F00003E00206C40F00400206400BF002084F8E4
:102F10003C0000BF0120BDE8F081701CC0B1FDF78E
:102F2000E3FDC01BB04200D896B9002020632020EA
:102F300084F83D00002084F83E00206C40F0200022
:102F4000206400BF002084F83C0000BF0120E2E7BD
:102F5000C5F3074001280AD120684069A9B208409A
:102F6000A9B2884201D101200BE0002009E02068CD
:102F70008069A9B20840A9B2884201D1012000E0CD
:102F800000200028A6D00020C5E770B504460D46F5
:102F9000164632E020684069C0F30010A0B16FF01F
:102FA00010002168486100202063202084F83D0043
:102FB000002084F83E00206C206400BF002084F8CC
:102FC0003C0000BF012070BDFDF78EFD801BA842B4
:102FD00000D895B900202063202084F83D0000200F
:102FE00084F83E00206C40F02000206400BF0020E8
:102FF00084F83C0000BF0120E5E720684069C0F389
:1030000080100028C6D00020DDE770B504460D46CC
:10301000164620E02046FFF7A5FD08B1012070BD4F
:10302000681CC0B1FDF760FD801BA84200D895B9AF
:1030300000202063202084F83D00002084F83E001A
:10304000206C40F02000206400BF002084F83C0089
:1030500000BF0120E3E720684069C0F3C0100028EA
:10306000D8D00020DBE7000010B50020134908602D
:103070000BE01348114A1268815C1248FFF73EF9D1
:103080000E480068401C0D4908600C480068042880
:10309000EFDB0320094908600BE00948074A126882
:1030A000815C0948FFF72AF904480068401C03497D
:1030B0000860024800680528EFDB10BD40000020D2
:1030C00034000020F40000207401002010B580219D
:1030D0006B2000F03DF900216B2000F039F903204E
:1030E00000F0F4F8002000F0E9F8322000F013F9C5
:1030F0000021382000F02CF900216A2000F028F986
:103100000021232000F024F98021372000F020F94D
:10311000752000F0A3F80446682C0BD101216B2028
:1031200000F016F900216C2000F012F9322000F0B6
:10313000F2F801E0012010BD0020FCE72DE9FC4180
:1031400004460D4616466A4606213B2000F0A0F8CC
:103150000746A7B99DF801009DF8001040EA01203C
:1031600020809DF803009DF8021040EA012028808D
:103170009DF805009DF8041040EA01203080384693
:10318000BDE8FC812DE9FC4104460D4616466A4621
:103190000621432000F07CF80746A7B99DF80100FE
:1031A0009DF8001040EA012020809DF803009DF862
:1031B000021040EA012028809DF805009DF80410C7
:1031C00040EA012030803846BDE8FC8110B52DED85
:1031D0000A8B82B001AA0221412000F059F89DF823
:1031E00005009DF8041040EA0120C4B22046FDF716
:1031F000C1F941EC1C0B9FED120B53EC102BFDF7AA
:103200004AF941EC1B0B9FED100B53EC102BFDF713
:1032100029F841EC1A0B9FED0E0B53EC102BFDF728
:10322000C8F841EC190BFDF72DFA08EE100ADFED96
:103230000A0A88EE200A02B0BDEC0A8B10BD00001D
:103240000000000000407540A4703D0AD743424092
:1032500000000000000059400000C8421FB50446AD
:103260000120039040F6FF70012103AA0B46CDE92F
:10327000002102902246D1210448FDF723FD64205D
:10328000FDF734FB9DF80C0004B010BDA000002039
:10329000FEB504460E46154640F6FF700123224651
:1032A000D121CDE9005602900348FDF70BFD6420C3
:1032B000FDF71CFB0020FEBDA000002010B5044659
:1032C000E006010E1C2000F043F810BD10B50446C6
:1032D000E006010E1B2000F03BF810BD70B504465F
:1032E0000025BC2C01DB012510E0622C01DB02254E
:1032F0000CE02A2C01DB032508E0142C01DB04255B
:1033000004E00A2C01DB052500E0062529461A20E9
:1033100000F01EF870BD70B50446B4F57A7F01DD8B
:103320004FF47A74042C00DA04244FF47A7090FB82
:10333000F4F0401EC5B22946192000F009F80546F0
:10334000264604EBD671C1F34F00FFF7C7FF70BDEF
:103350007FB504460D4600200390039540F6FF70AC
:10336000012103AA0B46CDE9002102902246D0217B
:103370000448FDF721FE6420FDF7B8FA002004B0F0
:1033800070BD0000A000002008B500BF0020009024
:103390001D48006840F004001B49086008460068AA
:1033A00000F00400009000BF00BF00BF00200090AC
:1033B0000846006840F0800008600846006800F099
:1033C0008000009000BF00BF00BF002000900846B2
:1033D000006840F0010008600846006800F0010045
:1033E000009000BF00BF00BF0020009008460068AA
:1033F00040F0020008600846006800F002000090FB
:1034000000BF00BF08BD00003038024010B50B48B7
:103410000B4908600B484860002109488160C16081
:103420004FF480410161002141618161C16101620C
:10343000FDF760FB08B1FDF732FA10BD0054004003
:103440004C000020A086010010B50B480B49086015
:103450000B484860002109488160C1604FF48041F9
:103460000161002141618161C1610162FDF742FB9F
:1034700008B1FDF714FA10BD00580040A00000206C
:10348000A086010000B587B000200590069001904D
:103490000290039004904FF080402249086063201E
:1034A000486000211F488160491EC1600021016100
:1034B0008161FEF77FFE08B1FDF7F1F9002005906C
:1034C000069005A91748FEF727FB08B1FDF7E7F9B5
:1034D000002001900120029000200390049000221F
:1034E00001A91048FEF7F6FD08B1FDF7D8F904224E
:1034F00001A90C48FEF7EEFD08B1FDF7D0F908224E
:1035000001A90848FEF7E6FD08B1FDF7C8F90C224D
:1035100001A90448FEF7DEFD08B1FDF7C0F907B0C8
:1035200000BD0000F400002000B589B00020079025
:1035300008901C216846FCF783FE24482449086053
:10354000C720486000212248816042F20F71C160AB
:10355000002101618161FFF7ACF808B1FDF79FF927
:1035600000200790089007A91948FEF7D5FA08B17E
:10357000FDF795F9602000900020019002900490E2
:10358000002269461248FFF710F808B1FDF787F9E5
:10359000042269460E48FFF708F808B1FDF77FF9E5
:1035A000082269460A48FFF700F808B1FDF777F9E5
:1035B0000C2269460648FEF7F8FF08B1FDF76FF9DF
:1035C0000348FEF7A3FF09B000BD0000000400405F
:1035D0003401002000B587B00020059006900190CE
:1035E0000290039004901B481B49086063204860C8
:1035F0000021194881604FF6FF71C160002101610F
:103600008161FEF7D7FD08B1FDF749F9002005906B
:10361000069005A91048FEF77FFA08B1FDF73FF9BB
:1036200000200190012002900020039004900822C5
:1036300001A90948FEF74EFD08B1FDF730F90C224B
:1036400001A90548FEF746FD08B1FDF728F907B0C6
:1036500000BD0000000800407401002010B50B48B8
:103660000B4908604FF4E130486000210848816050
:10367000C16001610C21416100218161C161FFF7DD
:103680003BF908B1FDF70BF910BD00000010014037
:10369000B401002000BFFEE710B500210748FFF786
:1036A0003FF804210548FFF73BF808210348FFF7DE
:1036B00037F80C210148FFF733F810BD3401002022
:1036C0004FF4FA7006490968486305490968886338
:1036D00003490968C8630249096808647047000023
:1036E0003401002010B52DED0C8BB0EE408A04465D
:1036F00064BB18EE100AFCF782FF41EC1D0B9FED36
:103700005A0B53EC102BFCF74EFE41EC1C0B9FEDBB
:10371000580B53EC102BFCF74CFE41EC1B0B9FEDB0
:10372000520B53EC102BFCF7B6FE41EC1A0B9FED3D
:10373000500B53EC102BFCF795FD41EC190BFCF7EB
:1037400026FFC8384C490968486389E0042C2CD10D
:1037500018EE100AFCF753FF41EC1D0B9FED420BD6
:1037600053EC102BFCF71FFE41EC1C0B9FED400BA4
:1037700053EC102BFCF71DFE41EC1B0B9FED3A0B9D
:1037800053EC102BFCF787FE41EC1A0B9FED380B26
:1037900053EC102BFCF766FD41EC190BFCF7F7FE20
:1037A000C8383549096888635AE0082C2CD118EECE
:1037B000100AFCF724FF41EC1D0B9FED2B0B53EC83
:1037C000102BFCF7F0FD41EC1C0B9FED290B53EC8B
:1037D000102BFCF7EEFD41EC1B0B9FED230B53EC84
:1037E000102BFCF758FE41EC1A0B9FED210B53EC0C
:1037F000102BFCF737FD41EC190BFCF7C8FEC8385D
:103800001D490968C8632BE018EE100AFCF7F7FEA3
:1038100041EC1D0B9FED140B53EC102BFCF7C3FD7B
:1038200041EC1C0B9FED120B53EC102BFCF7C1FD70
:1038300041EC1B0B9FED0C0B53EC102BFCF72BFEFC
:1038400041EC1A0B9FED0A0B53EC102BFCF70AFD11
:1038500041EC190BFCF79BFEC8380749096808645E
:10386000BDEC0C8B10BD00009A9999999999A93FCC
:103870000000000000407F403401002010B54FF4EC
:103880007A701049096848630E49096888630D49D0
:103890000968C8630B49096808644000FDF726F809
:1038A0004FF4FA7007490968486306490968886354
:1038B00004490968C8630349096808648000FDF782
:1038C00015F810BD34010020704770B5002415E0D4
:1038D00004F1B001C8B200F0ABF9002000F0A8F983
:1038E000102000F0A5F9002504E0002000F0B4F954
:1038F000681CC5B2802DF8DB601CC4B2082CE7DB65
:1039000070BD000010B50C233EA20021084600F057
:103910004FF90C233CA200212A2000F049F90C2386
:103920003AA20021542000F043F90C2338A20121CF
:10393000002000F03DF90C2336A201212A2000F0DE
:1039400037F90C2334A20121542000F031F90C2363
:1039500032A20221002000F02BF90C2330A2022118
:103960002A2000F025F90C232EA20221542000F079
:103970001FF90C232CA20321002000F019F90C23BD
:103980002AA203212A2000F013F90C2328A20321E4
:10399000542000F00DF90C2326A20421002000F091
:1039A00007F90C2324A204212A2000F001F90C239A
:1039B00022A20421542000F0FBF80C2320A20521B0
:1039C000002000F0F5F80C231EA20521402000F095
:1039D000EFF80C231CA20621002000F0E9F80C23CC
:1039E0001AA20621402000F0E3F80C2318A20721B8
:1039F000002000F0DDF80C2316A20721402000F083
:103A0000D7F810BD47783D0047793D00477A3D0023
:103A100041783D0041793D00417A3D004D783D00BF
:103A20004D793D004D7A3D0043313D0043323D002C
:103A300043333D0043343D0043353D0043363D00B4
:103A40004D313D004D323D004D333D004D343D0084
:103A5000543D0000503D000010B5C820FCF746FF63
:103A600000F048FE10BD70B504460D4605F1B001EA
:103A7000C8B200F0DDF8102141EA141000F0D8F8C7
:103A800004F00F0000F0D4F870BD00002DE9F047FD
:103A900007460E469046994600250024A8F12000CE
:103AA000C5B27F2F02DD0027B01CC6B2B9F1100FDE
:103AB00022D131463846FFF7D6FF002407E004EB59
:103AC0000511174A505C00F0C7F8601CC4B2082CFE
:103AD000F5DB701CC1B23846FFF7C5FF002408E0D3
:103AE00004EB051108310E4A505C00F0B5F8601C7B
:103AF000C4B2082CF4DB11E031463846FFF7B3FFBF
:103B0000002409E005EB4501064A02EB4101085D8E
:103B100000F0A2F8601CC4B2062CF3DBBDE8F0870D
:103B2000965000086E4E00082DE9FF5F074691464B
:103B30001E460E9D4FF0000A002435E0301B401E4B
:103B4000C1B20A2001F07CF9B9FBF0F00A21B0FB08
:103B5000F1F201FB1208BAF1000F14D1701EA0425D
:103B600011DDB8F1000F0CD1AB4605EBDB7149104C
:103B700001FB0471C8B22B4620220199FFF786FF92
:103B800010E04FF0010AAB4605EBDB71491001FB79
:103B90000471C8B208F13001CAB22B460199FFF78F
:103BA00075FF00BF601CC4B2B442C7DBBDE8FF9F15
:103BB0002DE9F04104460F461546984600260FE0D1
:103BC000AA5D434639462046FFF760FF04F108002E
:103BD000C4B2782C02DD0024B81CC7B2701CC6B277
:103BE000A85D0028ECD1BDE8F081F8B504460D468B
:103BF00017461E4600BF00BF00BF00BF0C200323B6
:103C00002246314600901620FFF78EFF0C2003233A
:103C10002A46314600904020FFF786FF0C20032300
:103C20003A46314600906A20FFF77EFFF8BD00005B
:103C300001B584B04FF48070012104AA0B46CDE990
:103C400000210290002278210248FDF7B5F905B065
:103C500000BD00004C00002001B584B04FF480701E
:103C6000012104AA0B46CDE90021029040227821CF
:103C70000248FDF7A1F905B000BD00004C0000208E
:103C800070472DE9FC4104460D4616466A4606215A
:103C90000320FEF733FF0746A7B99DF801009DF802
:103CA000001000EB012020809DF803009DF8021019
:103CB00000EB012028809DF805009DF8041000EB22
:103CC000012030803846BDE8FC81704710B5FDF713
:103CD000ADFA10BD00B593B0302107A8FCF7B0FADB
:103CE000142102A8FCF7ACFA00BF00200190234881
:103CF000006840F08050214908600846006800F0E4
:103D00008050019000BF00BF00BF002001901C4800
:103D1000006840F440401A4908600846006800F412
:103D20004040019000BF00BF0120079000040890B0
:103D300002200D9041050E910C210F9160211091F0
:103D4000022111910421129107A8FDF785FC08B109
:103D5000FCF7A5FD0F2002900220039000200490A4
:103D60004FF48050059000200690032102A8FDF733
:103D700033FB08B1FCF793FD13B000BD403802409F
:103D8000007000400548006840F470000349086076
:103D90004FF00060014980390860704788ED00E00D
:103DA00010B50248FEF7E6FA10BD0000F40000204E
:103DB00010B50248FEF7DEFA10BD000074010020C5
:103DC00010B50268204B98420BD0B0F1804F08D05C
:103DD0001E4B984205D01E4B984202D01D4B984274
:103DE00003D122F070024B681A43174B984214D04B
:103DF000B0F1804F11D0154B98420ED0144B984221
:103E00000BD0144B984208D0134B984205D0134B5B
:103E1000984202D0124B984203D122F44072CB68F0
:103E20001A4322F080034C6943EA040202608B6863
:103E3000C3620B688362044B984201D10B69036330
:103E40000123436110BD0000000001400004004058
:103E500000080040000C00400040014000440140C8
:103E60000048014030B501F01F05012404FA05F3B4
:103E7000046A9C430462046A01F01F0502FA05F516
:103E80002C43046230BD000030B5056A25F0010501
:103E90000562026A4368846924F0700424F0030414
:103EA0000D682C4322F002028D682A430D4DA84272
:103EB00006D100BF22F00802CD682A4322F0040296
:103EC000084DA84207D123F4807323F400734D6991
:103ED0002B438D692B43436084614D6845630262C7
:103EE00030BD00000000014030B5056A25F0100526
:103EF0000562026A4368846924F4E04424F440744F
:103F00000D6844EA052422F020028D6842EA051279
:103F10000E4DA84207D100BF22F08002CD6842EAD0
:103F2000051222F04002094DA84209D123F4806312
:103F300023F400634D6943EA85038D6943EA8503F1
:103F4000436084614D688563026230BD00000140BA
:103F500030B5056A25F480750562026A4368C46954
:103F600024F0700424F003040D682C4322F4007242
:103F70008D6842EA05220F4DA84207D100BF22F406
:103F80000062CD6842EA052222F48062094DA8420F
:103F900009D123F4805323F400534D6943EA0513F8
:103FA0008D6943EA05134360C4614D68C5630262CD
:103FB00030BD00000000014030B5056A25F4805591
:103FC0000562036A4468C26922F4E04222F4407246
:103FD0000D6842EA052223F400538D6843EA053355
:103FE000064DA84204D124F480444D6944EA851466
:103FF0004460C2614D680564036230BD0000014049
:1040000070B50C461546066A26F0010606628169FF
:10401000026A154EB0420ED0B0F1804F0BD0134E55
:10402000B04208D0124EB04205D0124EB04202D07B
:10403000114EB04201D1012600E000261EB121F050
:104040000301294301E041F0010121F0F001F026D4
:1040500006EA0316314322F00A0204F00A0632434C
:104060008161026270BD0000000001400004004058
:1040700000080040000C00400040014070B50C46B4
:104080001546066A26F0100606628169026A21F466
:10409000407141EA052121F470414FF4704606EA6F
:1040A0000336314322F0A002A02606EA041632436A
:1040B0008161026270BD70B50C461546066A26F431
:1040C00080760662C169026A21F00301294321F06A
:1040D000F001F02606EA0316314322F420624FF481
:1040E000206606EA04263243C161026270BD70B5E3
:1040F0000C461546066A26F480560662C169026AB5
:1041000021F4407141EA052121F470414FF47046D9
:1041100006EA0336314322F420424FF4204606EAF1
:1041200004363243C161026270BD70B50546AC6BA6
:104130000020E085E0842046FEF733FB70BD016877
:10414000C96821F490710268D1600168496921F061
:10415000010102685161202180F83A10704710B5C2
:1041600004462068C06820F040002168C860202014
:1041700084F839002046FEF7B2FC002010BD70B56F
:10418000044694F83A0022284AD1A068B0F5805F2E
:1041900013D1A56A206940B920684068C0F30800BF
:1041A0002880A06A801CA06219E020684068C0B224
:1041B0002880A06A401CA06211E0206938B92068FC
:1041C0004068C1B2A26A501CA062117007E020686A
:1041D000406800F07F01A26A501CA0621170E08D5F
:1041E000401E80B2E085C8B92068C06820F0200079
:1041F0002168C8602068C06820F480702168C860A9
:104200002068406920F0010021684861202084F87E
:104210003A002046FEF7F6FB002070BD0020FCE7C8
:104220000220FAE72DE9F84F04462068006920F4DF
:104230004050E1680843216808612169A06808438B
:1042400061690843E169084300902068C06849F249
:104250000C618843009908432168C8602068406960
:1042600020F44070A169084321684861E069B0F515
:10427000004F75D1E3492068884203D0E2492068A5
:1042800088426FD1FDF780F9814602206168A0FB6A
:1042900001510B461920A9FB00712A463846FBF74D
:1042A00097FF6421B0FBF1F04FEA001A0220616829
:1042B000A0FB01510B461920A9FB00712A46384684
:1042C000FBF786FF074602206168A0FB01510B4601
:1042D0001920A9FB00B12A465846FBF779FF642153
:1042E000B0FBF1F000EBC00101EB0010A7EB800088
:1042F000322101EBC0006421B0FBF1F000F0F800C6
:104300000AEB400A02206168A0FB01510B4619200C
:10431000A9FB00712A463846FBF75AFF07460220E0
:104320006168A0FB01510B461920A9FB00B12A4688
:104330005846FBF74DFF6421B0FBF1F000EBC001E4
:1043400001EB0010A7EB8000322101EBC0006421DB
:10435000B0FBF1F000F007005044216888604FE1A5
:104360006EE0FFE7FDF700F9814602206168A0FBDF
:1043700001510B461920A9FB00712A463846FBF76C
:1043800027FF6421B0FBF1F04FEA001A02206168B8
:10439000A0FB01510B461920A9FB00712A463846A3
:1043A000FBF716FF074602206168A0FB01510B4690
:1043B0001920A9FB00B12A465846FBF709FF6421E2
:1043C000B0FBF1F000EBC00101EB0010A7EB8000A7
:1043D000322101EBC0006421B0FBF1F000F0F800E5
:1043E0000AEB400A02206168A0FB01510B4619202C
:1043F000A9FB00712A463846FBF7EAFE0746022071
:104400006168A0FB015003461920A9FB00B12A46B0
:104410005846FBF7DDFE6421B0FBF1F000EBC00174
:1044200001EB0010A7EB8000322101EBC0006421FA
:10443000B0FBF1F000F00700504421688860DFE035
:1044400070492068884203D06F49206888426BD148
:10445000FDF79AF8814604206168A0FB01510B46E4
:104460001920A9FB00712A463846FBF7B1FE8246A7
:1044700004206168A0FB01510B461920A9FB0071C3
:104480002A463846FBF7A4FE6421B0FBF1F000EBAE
:10449000C00101EB0010AAEB8000322101EB0010FB
:1044A0006421B0FBF1F000F0F00A04206168A0FB89
:1044B000015003461920A9FB00712A463846FBF734
:1044C00087FE6421B0FBF1F00AEB001A042061685A
:1044D000A0FB01510B461920A9FB00712A46384662
:1044E000FBF776FE074604206168A0FB01500346F7
:1044F0001920A9FB00B12A465846FBF769FE642142
:10450000B0FBF1F000EBC00101EB0010A7EB800065
:10451000322101EB00106421B0FBF1F000F00F003C
:104520005044216888606BE0FDF71EF88146042046
:104530006168A0FB015003461920A9FB00712A46BF
:104540003846FBF745FE824604206168A0FB015017
:1045500003461920A9FB00712A463846FBF738FEAE
:104560006421B0FBF1F000EBC00101EB0010AAEBFD
:104570008000322101EB00106421B0FBF1F000F06B
:10458000F00A04206168A0FB015003461920A9FB32
:1045900000712A463846FBF71BFE6421B0FBF1F0A0
:1045A0000AEB001A04206168A0FB01700346192081
:1045B000A9FB005001463A462846FBF709FE07468C
:1045C00004206168A0FB015003461920A9FB00B13B
:1045D0002A465846FBF7FCFD6421B0FBF1F000EBE6
:1045E000C00101EB0010A7EB8000322101EB0010AD
:1045F0006421B0FBF1F000F00F00504421688860A6
:10460000BDE8F88F0010014000140140014691F808
:10461000390021282CD18868B0F5805F0FD10A6A53
:104620001088C0F308000B685860086918B9086A58
:10463000801C086209E0086A401C086205E00B6AF9
:10464000581C086218780B685860C88C401E80B2ED
:10465000C88458B90868C06820F080000B68D8602A
:104660000868C06840F040000B68D86000207047C0
:104670000220FCE72DE9F04104460D461746984616
:10468000069E21E0701CF8B12EB1FCF72DFAA0EBCC
:104690000800B04218D92068C06820F4D0702168A2
:1046A000C8602068406920F001002168486120202E
:1046B00084F8390084F83A0000BF002084F83800FC
:1046C00000BF0320BDE8F081206800682840A842B0
:1046D00001D1012000E00020B842D3D00020F1E752
:1046E00010B50248FEF75EF810BD0000B4010020CE
:1046F00000BFFEE73EB5002400BF0FE04FF480711D
:104700000122084820441346CDE9012100900022EF
:1047100078210548FCF750FC601CC4B21B2CEDDB73
:104720003EBD0000140000204C0000200FB4054BDB
:1047300010B503A9044A029800F048F810BC5DF8CF
:1047400014FB0000014B0008480000200FB4084B88
:1047500010B504A902AA039800F038F8044602A98B
:10476000002000F00FF9204610BC5DF814FB00009B
:104770008549000802480068C0F302207047000025
:104780000CED00E010B5002804DB0A07130E054A03
:10479000135406E00A07140E034A00F00F031B1F10
:1047A000D45410BD00E400E018ED00E002E008C8B9
:1047B000121F08C1002AFAD170477047002001E09B
:1047C00001C1121F002AFBD1704700002DE9FF4FE5
:1047D0008BB09A460F460546002606E025280BD0EA
:1047E00052460D9990476D1C761C28780028F5D10B
:1047F0000FB03046BDE8F08F0024A046012260498A
:1048000000E0044315F8013F203B02FA03F00842A0
:10481000F7D128782E2817D115F8010F44F0040499
:104820002A280ED06FF02F022878A0F13001092934
:104830000AD808EB880102EB410100EB01086D1C6E
:10484000F2E757F8048B6D1C287869283ED006DC07
:104850000028CDD063280BD0642804D136E073281B
:1048600010D075284BD052460D999047761C85E0A4
:1048700017F8040B8DF8000000208DF80100E946C0
:10488000012003E057F8049B4FF0FF3061074FF021
:10489000000401D40AE0641C44450DDA8442FADBCA
:1048A00019F804100029F6D106E0641C8442FCDBF0
:1048B00019F804100029F8D1264404E019F8010B76
:1048C00052460D999047641EF8D257E001CF4FF041
:1048D0000A0B002802DA40422D2102E0210504D50E
:1048E0002B218DF82410012103E0E10705D02021C0
:1048F000F7E70DF1200908910CE00021F9E701CF5D
:104900004FF00A0BF9E75946FBF7D8FE01F13002E8
:1049100009F8012D0028F6D1ADEB090000F1200BBC
:10492000600701D44FF00108D84502DDA8EB0B0069
:1049300000E000208046002406E009A85246005D01
:104940000D999047641C761C08988442F5DB04E0BE
:10495000302052460D999047761CB8F10001A8F11D
:104960000108F5DC05E019F8010B52460D99904756
:10497000761CBBF10001ABF1010BF4DC6D1C34E7DC
:10498000092801000A68531C0B6010707047000072
:1049900010B515A000F0A6F84FF47A70FBF7A6FF4B
:1049A00014A000F09FF84FF47A70FBF79FFF15A05A
:1049B00000F098F84FF47A70FBF798FF1CA000F015
:1049C00091F84FF47A70FBF791FF27A000F08AF876
:1049D0004FF47A70FBF78AFF27A000F083F84FF4BA
:1049E0007A70FBF783FF10BD41542B5253540D0ACC
:1049F0000000000041542B43574D4F44453D320DBC
:104A00000A00000041542B43575341503D22577533
:104A1000687554616B654F6666222C2275657374E8
:104A200063343034222C31312C340D0A0000000064
:104A300041542B43495041503D223139322E3136B9
:104A4000382E342E31222C223139322E3136382E66
:104A5000342E31222C223235352E3235352E323558
:104A6000352E30220D0A000041542B4349504D553C
:104A7000583D310D0A00000041542B434950534525
:104A8000525645523D312C383038300D0A00000066
:104A900030B589B004462046FBF7DDFB05462A46C3
:104AA00009A101A8FFF752FE01A800F01BF864203D
:104AB000FBF71CFF214609A0FFF738FE6420FBF737
:104AC00015FF09B030BD000041542B4349505345F8
:104AD0004E443D302C25640D0A00000025730D0A5C
:104AE0000000000010B50446214602A0FFF71EFE9C
:104AF00010BD00002573000010B5FFF749FF10BD81
:104B000013B50C464FF6FF73012269460248FDF7C4
:104B10007AFF00981CBD0000B40100202DED048B2D
:104B2000B2B0FCF78FFBFFF7D5F8FEF72DFCFEF7D0
:104B30006DFCFEF789FCFEF7A5FCFEF7F5FCFEF721
:104B400049FDFEF78BFDFEF787FFFEF7BEFEFFF780
:104B5000D3FFFEF7BAFE10237FA203210820FFF740
:104B600027F881A0FFF794FF4FF47A70FBF7BEFEA1
:104B7000FEF792FDFEF7A9FE102380A203210C2070
:104B8000FFF716F881A0FFF783FF4FF47A70FBF769
:104B9000ADFEFBF785FEFEF798FE10237FA20321F2
:104BA0000C20FFF705F881A0FFF772FF4FF47A7031
:104BB000FBF79CFEFEF789FE102380A203210C2048
:104BC000FEF7F6FF81A0FFF763FF4FF47A70FBF763
:104BD0008DFEFEF753FEFEF778FE10237FA2032121
:104BE0000620FEF7E5FF81A0FFF752FF4FF47A7031
:104BF000FBF77CFEFEF738FAFEF767FE102380A273
:104C000003210020FEF7D4FF82A0FFF741FF40F60A
:104C1000B830FBF76BFEFEF758FEFEF773FE99E027
:104C200031AA911E30A8FEF7ADFA2FAA911E2EA828
:104C3000FEF784FA2DAA911E2CA8FFF722F8002473
:104C40001FE07A4800EB8400D0ED000A9FED781A4F
:104C5000B1EE040A10EE810A10EE101A0846FBF7B6
:104C6000CEFC41EC190B9FED730B53EC102BFBF7B3
:104C700012FC41EC180BFBF7A9FC26A941F8240013
:104C8000641C062CDDDBBDF8C420BDF8C210BDF8E5
:104C9000C0000023FEF7A9FFBDF8BC20BDF8BA1084
:104CA000BDF8B8000123FEF7A0FFBDF8B420BDF8A1
:104CB000B210BDF8B0000223FEF797FF289B9AB20E
:104CC000279B99B2269B98B20323FEF78EFF2B9B5E
:104CD0009AB22A9B99B2299B98B20423FEF785FFCA
:104CE000FEF774FABCEEC00A10EE104A0C20022344
:104CF0002246072100901820FEF716FFDDE9282341
:104D0000DDE92A10CDE90923CDE90B10BDF8B42067
:104D1000BDF8B230DDE92610CDE90532CDE9071046
:104D2000BDF8B000BDF8BC10BDF8BA20BDF8B83071
:104D3000CDE90132CDE90310BDF8C4000090BDF803
:104D4000C230BDF8C0203D490DA8FFF7FFFC0DA8FB
:104D5000FFF79EFE64E70000455350383236365F59
:104D6000496E6974204F4B00455350383236365FD8
:104D7000496E6974204F4B0D0A0000004D6F746F2F
:104D8000725F496E6974204F4B0000004D6F746F65
:104D9000725F496E6974204F4B0D0A0047593836CF
:104DA0005F496E6974204F4B000000004759383648
:104DB0005F496E6974204F4B0D0A00004D6F746F90
:104DC000725F556E6C6F636B000000004D6F746F07
:104DD000725F556E6C6F636B0D0A00004D6F746FE0
:104DE000725F556E6C6F636B204F4B004D6F746F2D
:104DF000725F556E6C6F636B204F4B0D0A000000A5
:104E0000496E7075745F436170747572655F496E49
:104E100069740000496E7075745F436170747572D7
:104E2000655F496E6974204F4B0D0A000C0200202B
:104E30000000C8429A9999999999A93F8856000803
:104E400010B50246012000E050430B1EA1F1010401
:104E5000E1B2F9D110BD0000000000000000010225
:104E60000304060708090000000001020304000013
:104E7000000000000000002F0000000007000700F5
:104E800000147F147F1400242A7F2A120062640811
:104E9000132300364955225000000503000000008E
:104EA0001C224100000041221C000014083E08148E
:104EB0000008083E0808000000A06000000808087C
:104EC0000808000060600000002010080402003E96
:104ED0005149453E0000427F400000426151494631
:104EE000002141454B31001814127F100027454521
:104EF0004539003C4A494930000171090503003633
:104F00004949493600064949291E00003636000045
:104F1000000056360000000814224100001414144A
:104F20001414000041221408000201510906003245
:104F30004959513E007C1211127C007F4949493683
:104F4000003E41414122007F4141221C007F4949EE
:104F50004941007F09090901003E4149497A007F22
:104F60000808087F0000417F4100002040413F01C8
:104F7000007F08142241007F40404040007F020C27
:104F8000027F007F0408107F003E4141413E007FC8
:104F900009090906003E4151215E007F0919294691
:104FA0000046494949310001017F0101003F40406D
:104FB000403F001F2040201F003F4038403F00631B
:104FC000140814630007087008070061514945433D
:104FD00000007F41410000552A552A5500004141FB
:104FE0007F000004020102040040404040400000F5
:104FF00001020400002054545478007F484444388F
:1050000000384444442000384444487F0038545415
:10501000541800087E0901020018A4A4A47C007F93
:10502000080404780000447D4000004080847D0036
:10503000007F102844000000417F4000007C0418DD
:105040000478007C0804047800384444443800FCA8
:10505000242424180018242418FC007C08040408C4
:1050600000485454542000043F444020003C404039
:10507000207C001C2040201C003C4030403C004470
:1050800028102844001CA0A0A07C004464544C4478
:105090001414141414140000000000000000000098
:1050A000000000000000000000F800000000000008
:1050B00000333000000000100C06100C0600000049
:1050C00000000000000040C07840C0784000043F6D
:1050D00004043F040400007088FC0830000000183D
:1050E00020FF211E0000F008F000E0180000002161
:1050F0001C031E211E0000F00888700000001E2105
:1051000023241927211010160E00000000000000B3
:10511000000000000000000000E018040200000091
:1051200000071820400000020418E00000000040C2
:10513000201807000000404080F08040400002023C
:10514000010F01020200000000F000000000010158
:10515000011F01010100000000000000000080B0FC
:1051600070000000000000000000000000000001CE
:1051700001010101010100000000000000000030F9
:105180003000000000000000000080601804006093
:1051900018060100000000E010080810E000000FF1
:1051A000102020100F00001010F800000000002058
:1051B000203F2020000000700808088870000030A0
:1051C0002824222130000030088888483000001848
:1051D000202020110E000000C02010F80000000761
:1051E0000424243F240000F80888880808000019D7
:1051F000212020110E0000E0108888180000000F08
:10520000112020110E0000380808C83808000000DE
:10521000003F000000000070880808887000001C33
:10522000222121221C0000E010080810E0000000EC
:10523000312222110F00000000C0C0000000000059
:10524000003030000000000000800000000000007E
:105250008060000000000000804020100800000175
:105260000204081020004040404040404000040438
:105270000404040404000008102040800000002002
:10528000100804020100007048080808F00000003F
:10529000003036010000C030C828E810E0000718D0
:1052A000272423140B000000C038E0000000203C3D
:1052B00023020227382008F8888888700000203FE1
:1052C000202020110E00C0300808080838000718F8
:1052D00020202010080008F808080810E000203FEF
:1052E000202020100F0008F88888E8081000203FD0
:1052F00020202320180008F88888E8081000203FA4
:10530000200003000000C03008080838000007181B
:105310002020221E020008F808000008F808203F9C
:10532000210101213F20000808F8080800000020A2
:10533000203F2020000000000808F8080800C08076
:1053400080807F00000008F888C028180800203FEF
:1053500020012638200008F8080000000000203F47
:1053600020202020300008F8F800F8F80800203F3E
:10537000003F003F200008F830C00008F808203F38
:10538000200007183F00E01008080810E0000F1088
:10539000202020100F0008F808080808F000203F1F
:1053A000210101010000E01008080810E0000F18BA
:1053B000242438504F0008F8888888887000203FDF
:1053C0002000030C302000708808080838000038DE
:1053D000202121221C00180808F8080818000000E5
:1053E000203F2000000008F808000008F808001F0F
:1053F000202020201F000878880000C838080000FE
:1054000007380E010000F80800F80008F800033C17
:105410000700073C030008186880806818082030DF
:105420002C03032C30200838C800C83808000000BE
:10543000203F2000000010080808C8380800203865
:10544000262120201800000000FE020202000000B9
:10545000007F40404000000C30C000000000000011
:1054600000010638C00000020202FE0000000040F9
:1054700040407F000000000004020202040000001F
:10548000000000000000000000000000000080801C
:105490008080808080800002020400000000000004
:1054A00000000000000000008080808000000019E3
:1054B000242222223F2008F8008080000000003FC4
:1054C000112020110E000000008080800000000EDE
:1054D000112020201100000000808088F800000EBC
:1054E000112020103F200000808080800000001FDD
:1054F000222222221300008080F088888818002051
:10550000203F202000000000808080808000006B11
:1055100094949493600008F8008080800000203FFD
:10552000210000203F20008098980000000000200B
:10553000203F20200000000000809898000000C05C
:105540008080807F000008F8000080808000203F7D
:1055500024022D302000000808F800000000002080
:10556000203F202000008080808080808000203FBD
:1055700020003F20003F8080008080800000203F8E
:10558000210000203F200000808080800000001F5C
:10559000202020201F00808000808000000080FFED
:1055A000A12020110E000000008080808000000EED
:1055B000112020A0FF80808080008080800020203B
:1055C0003F212000010000008080808080000033A7
:1055D000242424241900008080E080800000000042
:1055E000001F202000008080000000808000001F3D
:1055F000202020103F2080808000008080800001DB
:105600000E300806010080800080008080800F300E
:105610000C030C300F000080800080808000002090
:10562000312E0E31200080808000008080808081BB
:105630008E7018060100008080808080800000212C
:10564000302C2221300000000000807C020200008B
:105650000000003F404000000000FF00000000008C
:105660000000FF0000000002027C800000000040FB
:10567000403F000000000006010102020404000097
:1056800000000000000000007B2247223A2225642F
:1056900020256420256422092241223A2225642003
:1056A00025642025642209224D223A2225642025E2
:1056B0006420256422092243223A2225642025649D
:1056C000202564202564202564202564220D0A7D80
:1056D00000000000F4560008000000204C0000000C
:1056E000AC470008405700084C000020DC050000D3
:1056F000BC4700080000000010000000010000008E
:105700000024F40000000000AE001040B081FFA1B2
:10571000A6A83FC8D300D580D805D9F1DA12D83071
:105720008D14AF00010204080004080C0000000002
:105730000000000000000000000000000000000069
:040000050800019955
:00000001FF
