:020000040800F2
:100000008028002479030008991F0008371F000882
:10001000951F0008110500081137000800000000B6
:10002000000000000000000000000000552800084B
:100030003105000800000000392700085129000898
:100040009303000893030008930300089303000838
:100050009303000893030008930300089303000828
:100060009303000893030008930300089303000818
:100070009303000893030008930300089303000808
:1000800093030008930300089303000893030008F8
:1000900093030008930300089303000893030008E8
:1000A00093030008930300089303000893030008D8
:1000B00093030008930300089303000893030008C8
:1000C00093030008930300089303000893030008B8
:1000D00093030008C1360008930300089303000847
:1000E0009303000893030008000000009303000836
:1000F0009303000893030008930300089303000888
:100100009303000893030008930300089303000877
:100110009303000893030008930300089303000867
:100120009303000893030008930300089303000857
:100130009303000893030008930300089303000847
:1001400000000000000000000000000000000000AF
:100150009303000893030008930300089303000827
:100160009303000893030008930300089303000817
:100170009303000893030008930300089303000807
:1001800093030008930300089303000893030008F7
:1001900093030008930300089303000893030008E7
:1001A00093030008930300089303000893030008D7
:1001B00093030008930300089303000893030008C7
:1001C00093030008930300089303000893030008B7
:1001D00093030008930300089303000893030008A7
:1001E0009303000893030008930300089303000897
:1001F0009303000893030008930300089303000887
:100200009303000893030008930300089303000876
:100210009303000893030008930300089303000866
:1002200093030008930300089303000800000000F4
:1002300093030008930300080000000093030008E4
:100240009303000893030008930300089303000836
:100250009303000893030008930300089303000826
:100260009303000893030008930300089303000816
:1002700093030008930300089303000800000000A4
:100280009303000893030008930300080000000094
:10029000000000009303000800F002F800F05CF892
:1002A0000AA090E8000C82448344AAF10107DA45D1
:1002B00001D100F051F8AFF2090EBAE80F0013F0C7
:1002C000010F18BFFB1A43F001031847504F0000FD
:1002D000704F00000A444FF0000C10F8013B13F07F
:1002E000070408BF10F8014B1D1108BF10F8015B8F
:1002F000641E05D010F8016B641E01F8016BF9D182
:1003000013F0080F1EBF10F8014BAD1C0C1B09D1D8
:100310006D1E58BF01F801CBFAD505E014F8016B4A
:1003200001F8016B6D1EF9D59142D6D370470000DC
:100330000023002400250026103A28BF78C1FBD8EE
:10034000520728BF30C148BF0B6070471FB503F08C
:100350002FFB1FBD10B510BD00F0A8F81146FFF728
:10036000F5FF03F02FFA00F0C6F803B4FFF7F2FF31
:1003700003BC03F0EBF90000094880470948004737
:10038000FEE7FEE7FEE7FEE7FEE7FEE7FEE7FEE745
:10039000FEE7FEE704480549054A064B70470000A2
:1003A000592900089902000880220024802800248E
:1003B000802400248024002453EA020C00F0698089
:1003C0002DE9F04B4FF00006002B1FBFB3FA83F569
:1003D00003FA05F424FA05F65E4012BF1643B2FA9A
:1003E00082F502FA05F4C5F120051EBF22FA05FCCC
:1003F00044EA0C04203556EA044C4FEA144418BF72
:10040000641C4FF000084FF00009904271EB030CA0
:1004100039D3002919BFB1FA81F701FA07F6B0FA0A
:1004200080F700FA07F6C7F120071EBF20FA07FC85
:1004300046EA0C062037B6FBF4FCA7EB0507103F95
:1004400007F01F0BCBF120060CFA0BFB2CFA06F67B
:1004500044BFB3460026202FA4BF5E464FF0000BDA
:100460005BEA060C08BF4FF0010B19EB0B09ABFB65
:10047000027C48EB0608C01B06FB02CC0BFB03CC3E
:1004800071EB0C01C1E70B46024641464846BDE808
:10049000F08B13B54FF000004FF00001AFF3008078
:1004A000BDE81C407047704770477047754600F0C4
:1004B0002BF8AE4605006946534620F007008546F6
:1004C00018B020B5FFF766FFBDE820404FF00006EA
:1004D0004FF000074FF000084FF0000B21F007012C
:1004E000AC46ACE8C009ACE8C009ACE8C009ACE86F
:1004F000C0098D46704710B50446AFF30080204612
:10050000BDE81040FFF731BF0048704720220024AB
:1005100000BFFEE710B502F05FF902F00FF90348E3
:10052000006840F004000149086010BD9CEF00E045
:100530007047000010B504460CB9012010BD94F8B6
:100540003500022803D0802060650120F6E7344999
:100550002068884205D333492068884201D80120A9
:1005600000E00020C0B1042084F835002C49206848
:1005700088420AD32B492068884206D82068006840
:1005800020F001002168086048E02068006820F041
:1005900001002168086041E02068006820F00E003A
:1005A000216808601E49206888420AD31D492068D6
:1005B000884206D82068006820F0010021680860A1
:1005C00005E02068006820F0010021680860206EC6
:1005D000006820F48070216E086094F85C1001209F
:1005E000884011490860D4E919104860E06E40B1B4
:1005F000E06E006820F48070E16E0860D4E91C10A1
:10060000486000BF002084F8340000BF012084F857
:100610003500206D10B12046216D884700208DE700
:1006200010000240B8040240045402580348006815
:1006300040F00100014908607047000020040058A4
:10064000F8B502460B460021002600240020824D0A
:1006500000BFFCE0012707FA01F61F6807EA06045D
:10066000B4427CD15F68022F02D05F68122F1AD18A
:100670004FEAD10C02F1200757F82C004F074FEA40
:10068000D76C0F2707FA0CF7B8434FEA417C4FEAC3
:10069000DC6C1F6907FA0CF738434FEAD10C02F102
:1006A000200747F82C0010684FEA410C032707FA8F
:1006B0000CF7B8431F7907F003074FEA410C07FA1C
:1006C0000CF7384310605F68012F08D05F68022F75
:1006D00005D05F68112F02D05F68122F17D1906884
:1006E0004FEA410C032707FA0CF7B8434FEA410CD5
:1006F000DF6807FA0CF738439060506801278F4095
:10070000B8431F79C7F300178F4038435060D06853
:100710004FEA410C032707FA0CF7B8434FEA410CA4
:100720009F6807FA0CF73843D0605F6807F080577E
:10073000B7F1805F95D100BF484F3F6847F002078F
:10074000DFF818C1CCF8007067463F6807F0020771
:10075000009700BF00BF424F4FEA910C00E075E0E8
:1007600057F82C008F074FEA177C0F2707FA0CF772
:10077000B8433C4FBA4201D100272DE03A4FBA426C
:1007800001D1012728E0394FBA4201D1022723E0E5
:10079000374FBA4201D103271EE0364FBA4201D18A
:1007A000042719E0344FBA4201D1052714E0334F32
:1007B000BA4201D106270FE0314FBA4201D10727D3
:1007C0000AE0304FBA4201D1082705E02E4FBA4265
:1007D00001D1092700E00A274FEA817C4FEA1C7CFF
:1007E00007FA0CF738431E4F4FEA910C47F82C00DC
:1007F0002868A0435F6807F48037B7F5803F00D1D1
:10080000204328606868A0435F6807F40037B7F5A5
:10081000003F00D1204368604FF0B0473868A043E4
:100820005F6807F48017B7F5801F00D120434FF0B1
:10083000B04738607868A0435F6807F40017B7F5E1
:10084000001F00D120434FF0B0477860491C1029A9
:10085000FFF400AFF8BD000080000058F4440258D7
:10086000080400580000025800040258000802580A
:10087000000C0258001002580014025800180258C8
:10088000001C025800200258002402580AB10183BB
:1008900000E0418370470000014800687047000095
:1008A00014080024034800680349097808440149F2
:1008B00008607047140800241C08002410B50320A9
:1008C00000F07EF80F2000F007F808B1012010BDFD
:1008D00000F028F80020FAE770B504460E480078CA
:1008E0004FF47A71B1FBF0F00C490968B1FBF0F5F7
:1008F000284601F0DFF808B1012070BD102C07D2A6
:1009000000222146501E00F01EF80548046001E058
:100910000120F2E70020F0E71C0800240008002472
:1009200018080024704701460846002809DB00F03B
:100930001F0301229A4043099B0003F1E023C3F8FF
:10094000002100BF70472DE9F05F80460D46164636
:1009500002F0E0FE074639462A46334601F007001A
:10096000C0F1070ABAF1040F02D94FF0040A01E0FE
:10097000C0F1070AD14600F1040ABAF1070F02D20A
:100980004FF0000A01E0A0F1030AD4464FF0010A3B
:100990000AFA09FAAAF1010A0AEA020A0AFA0CFAA0
:1009A0004FF0010B0BFA0CFBABF1010B0BEA030B45
:1009B0004AEA0B042146404602F0B4FEBDE8F09F2F
:1009C00000BF00F00702064B19684FF6FF031940FD
:1009D000044B0B4343EA0221014B196000BF7047EF
:1009E0000CED00E00000FA0510B500F0CBFB094962
:1009F000096801F470614FF4807292FAA2F2B2FABF
:100A000082F2D140044A515CC8400449086008465B
:100A1000006810BD18440258EA3900080008002494
:100A200010B500F067FB0749096801F0700110225A
:100A300092FAA2F2B2FA82F2D140034A515CC84063
:100A400010BD000020440258EA39000870B5014684
:100A500000220120002300249FED811AB0EE410AFC
:100A60009FED7F1AF0EE410A7E4D2D6805F00302DE
:100A70007C4D2D68C5F305307A4D2D1D2D6805F090
:100A80001003784D14352D68C5F3CC0515FB03F51F
:100A900001EE105AB8EE411AB0EE410A22B1012A15
:100AA0004DD0022A7DD169E06E4D283D2D68C5F3F9
:100AB00040152DB36B4D283D2D68C5F3C1066A4D19
:100AC00025FA06F4B4FBF0F501EE105AF8EE411ADF
:100AD0009FED661A80EE012A624D10352D68C5F330
:100AE000080501EE105AB8EE411A32EE011AB7EEBF
:100AF000002A31EE021A21EE811AF0EE410A1DE0C1
:100B0000594DB5FBF0F501EE105AF8EE411A9FED84
:100B1000571A80EE012A534D10352D68C5F308058C
:100B200001EE105AB8EE411A32EE011AB7EE002A61
:100B300031EE021A21EE811AF0EE410A5EE04C4DD0
:100B4000B5FBF0F501EE105AB8EE412A9FED471AB9
:100B5000C0EE011A434D10352D68C5F3080501EEAE
:100B6000105AB8EE411A31EE811AF7EE001A31EE42
:100B7000211A22EE011AF0EE410A3FE03D4DB5FB8D
:100B8000F0F501EE105AF8EE411A9FED381A80EE9A
:100B9000012A344D10352D68C5F3080501EE105AB1
:100BA00000E00CE0B8EE411A32EE011AB7EE002A6E
:100BB00031EE021A21EE811AF0EE410A1EE02C4DB0
:100BC000B5FBF0F501EE105AB8EE412A9FED271A59
:100BD000C0EE011A234D10352D68C5F3080501EE4E
:100BE000105AB8EE411A31EE811AF7EE001A31EEC2
:100BF000211A22EE011AF0EE410A00BF00BF194D82
:100C000010352D68C5F346256D1C01EE105AB8EE5F
:100C1000411AC0EE811ABCEEE11A81ED001A114DA5
:100C200010352D68C5F306456D1C01EE105AB8EE5F
:100C3000411AC0EE811ABCEEE11A81ED011A094D8C
:100C400010352D68C5F306656D1C01EE105AB8EE1F
:100C5000411AC0EE811ABCEEE11A81ED021A70BD94
:100C600000000000284402580090D0030000004615
:100C700000093D0000127A0070B5014600220120F3
:100C8000002300249FED811AB0EE410A9FED7F1AE8
:100C9000F0EE410A7E4D2D6805F003027C4D2D6873
:100CA000C5F305507A4D2D1D2D6805F48073784DE0
:100CB0001C352D68C5F3CC0515FB03F501EE105A64
:100CC000B8EE411AB0EE410A22B1012A4DD0022AF3
:100CD0007DD169E06E4D283D2D68C5F340152DB3DB
:100CE0006B4D283D2D68C5F3C1066A4D25FA06F403
:100CF000B4FBF0F501EE105AF8EE411A9FED661ABA
:100D000080EE012A624D18352D68C5F3080501EE05
:100D1000105AB8EE411A32EE011AB7EE002A31EE3F
:100D2000021A21EE811AF0EE410A1DE0594DB5FB81
:100D3000F0F501EE105AF8EE411A9FED571A80EEC9
:100D4000012A534D18352D68C5F3080501EE105AD8
:100D5000B8EE411A32EE011AB7EE002A31EE021A4D
:100D600021EE811AF0EE410A5EE04C4DB5FBF0F544
:100D700001EE105AB8EE412A9FED471AC0EE011A53
:100D8000434D18352D68C5F3080501EE105AB8EE2D
:100D9000411A31EE811AF7EE001A31EE211A22EED5
:100DA000011AF0EE410A3FE03D4DB5FBF0F501EED2
:100DB000105AF8EE411A9FED381A80EE012A344D90
:100DC00018352D68C5F3080501EE105A00E00CE057
:100DD000B8EE411A32EE011AB7EE002A31EE021ACD
:100DE00021EE811AF0EE410A1EE02C4DB5FBF0F524
:100DF00001EE105AB8EE412A9FED271AC0EE011AF3
:100E0000234D18352D68C5F3080501EE105AB8EECC
:100E1000411A31EE811AF7EE001A31EE211A22EE54
:100E2000011AF0EE410A00BF00BF194D18352D68B8
:100E3000C5F346256D1C01EE105AB8EE411AC0EEFE
:100E4000811ABCEEE11A81ED001A114D18352D689A
:100E5000C5F306456D1C01EE105AB8EE411AC0EEFE
:100E6000811ABCEEE11A81ED011A094D18352D6881
:100E7000C5F306656D1C01EE105AB8EE411AC0EEBE
:100E8000811ABCEEE11A81ED021A70BD000000006B
:100E9000284402580090D0030000004600093D009D
:100EA00000127A0070B504460D4600268D48006891
:100EB00000F00700A8420ED28A48006820F0070020
:100EC0002843884908600846006800F00700A842E7
:100ED00001D0012070BD207800F00200022807D167
:100EE0008148006820F00F00E16808437E490860EF
:100EF000207800F00100002851D07B48006820F4E1
:100F00007060A1680843784908606068022807D1CA
:100F1000754818380068C0F34040F8B90120D9E797
:100F20006068032807D1704818380068C0F3406033
:100F3000A0B90120CEE76068012807D16A481838B7
:100F40000068C0F3002048B90120C3E7664818389C
:100F50000068C0F3800008B90120BBE76248083888
:100F6000006820F00700616808435F49083908609D
:100F7000FFF792FC06466068022811D108E0FFF7EF
:100F80008BFC801B41F28831884201D90320A1E704
:100F900055480838006800F038001028EFD13AE0D2
:100FA0006068032811D108E0FFF776FC801B41F24E
:100FB0008831884201D903208CE74B480838006803
:100FC00000F038001828EFD125E06068012811D121
:100FD00008E0FFF761FC801B41F28831884201D9AB
:100FE000032077E740480838006800F038000828F8
:100FF000EFD110E008E0FFF74FFC801B41F2883191
:10100000884201D9032065E737480838006800F0B6
:1010100038000028EFD13348006800F00700A842EC
:101020000ED93048006820F0070028432D49086099
:101030000846006800F00700A84201D0012049E7F7
:10104000207800F00400042807D12748006820F029
:1010500070002169084324490860207800F00800E6
:10106000082809D12048001D006820F0700061693F
:1010700008431D49091D0860207800F01000102861
:1010800009D11948001D006820F4E060A1690843F7
:101090001549091D0860207800F02000202809D19A
:1010A00011480830006820F07000E16908430E49DB
:1010B0000831086000F066F80B49096801F47061B6
:1010C0004FF4807292FAA2F2B2FA82F2D140074A49
:1010D000515CC840064908600F20FFF7FDFB002067
:1010E000F8E600000020005218440258EA390008CF
:1010F0000008002410B5FFF777FC0949096801F0E2
:101100000F01012292FAA2F2B2FA82F2D140054A0C
:10111000515CC840044908600846006810BD0000E2
:1011200018440258EA3900080408002410B5FFF7F3
:10113000E1FF0749096801F07001102292FAA2F25A
:10114000B2FA82F2D140034A515CC84010BD00009F
:101150001C440258EA39000810B5FFF7CBFF0749D5
:10116000096801F4E0614FF4807292FAA2F2B2FAD7
:1011700082F2D140024A515CC84010BD1C44025862
:10118000EA39000870B5012500EE905A00220121CD
:1011900000230024DFED861AB0EE610ADFED841A29
:1011A000B0EE611A0020834D2D6805F0380535B189
:1011B000082D15D0102D15D0182D7CD114E07D4DA3
:1011C000103D2D68C5F3401545B17A4D103D2D6891
:1011D000C5F3C106784D25FA06F000E07648E5E053
:1011E0007648E3E07648E1E0724D18352D6805F069
:1011F0000302704D18352D68C5F305116D4D1C3572
:101200002D6805F001036B4D24352D68C5F3CC0521
:1012100015FB03F501EE905AF8EE611AB0EE610A83
:1012200022B1012A4FD0022A7DD16BE0614D103DE1
:101230002D68C5F340152DB35E4D103D2D68C5F3E7
:10124000C1065D4D25FA06F4B4FBF1F501EE905AA6
:10125000B8EE612ADFED5B1AC0EE212A554D20352C
:101260002D68C5F3080501EE905AF8EE611A72EE8A
:10127000A11AF7EE002A71EEA21A62EE211AB0EE60
:10128000611A1FE04C4DB5FBF1F501EE905AB8EE36
:10129000612ADFED4C1AC0EE212A464D20352D681B
:1012A000C5F3080501EE905AF8EE611A72EEA11A24
:1012B000F7EE002A00E077E071EEA21A62EE211A42
:1012C000B0EE611A5EE03D4DB5FBF1F501EE905ACE
:1012D000B8EE612ADFED3B1AC0EE212A354D2035EC
:1012E0002D68C5F3080501EE905AF8EE611A72EE0A
:1012F000A11AF7EE002A71EEA21A62EE211AB0EEE0
:10130000611A3FE02E4DB5FBF1F501EE905AB8EEB3
:10131000612ADFED2C1AC0EE212A264D20352D68DA
:10132000C5F3080500E00EE001EE905AF8EE611AF0
:1013300072EEA11AF7EE002A71EEA21A62EE211ADD
:10134000B0EE611A1EE01D4DB5FBF1F501EE905AAD
:10135000F8EE612ADFED1B1A80EE212A154D2035AB
:101360002D68C5F3080501EE905AF8EE611A72EE89
:10137000211AB7EE002A71EE821A62EEA11AB0EEBF
:10138000611A00BF00BF0B4D20352D68C5F34625FF
:101390006D1C00EE905AF8EE601A81EE212AFCEEE8
:1013A000C21A11EE900A01E0044800BF00BF70BDF0
:1013B00000000000104402580090D00300093D00D6
:1013C00000127A000000004670B50446002520781F
:1013D00000F00100002872D0F948006800F03800E1
:1013E00010280CD0F648006800F03800182812D1F8
:1013F000F3481830006800F0030002280BD1F048D1
:1014000010380068C0F3404000286DD060680028A4
:101410006AD1012070BD00BF6068B0F5803F08D17F
:10142000E7481038006840F48030E549103908601A
:101430002EE0606868B9E2481038006820F4803017
:10144000DF49103908600846006820F480200860F1
:101450001EE06068B0F5A02F0DD1D94810380068A3
:1014600040F48020D649103908600846006840F4EE
:10147000803008600CE0D2481038006820F48030DA
:10148000CF49103908600846006820F480200860C1
:1014900000BF6068A0B1FFF7FFF9054608E0FFF75D
:1014A000FBF9401B41F28831884201D90320B1E7A2
:1014B000C34810380068C0F340400028EFD013E064
:1014C000FFF7EAF9054608E0FFF7E6F9401B41F2AD
:1014D0008831884201D903209CE7B9481038006858
:1014E000C0F340400028EFD1207800F0020002282D
:1014F00047D1B348006800F0380058B1B0480068E0
:1015000000F0380018283ED1AD481830006800F0CF
:101510000300B8BBAA4810380068C0F3800018B1B7
:10152000E06808B9012075E7A5481038006820F088
:101530001900E1680843A24910390860FFF7ACF9C7
:10154000054606E0FFF7A8F9401B022801D9032051
:1015500060E79B4810380068C0F380000028F1D095
:1015600097480C38006820F47C304FF47C3292FAB3
:10157000A2F2B2FA82F221699140084390490C39F3
:1015800008604AE0FFE7E06868B38D4810380068FB
:1015900020F01900E1680843894910390860FFF715
:1015A0007BF9054606E0FFF777F9401B022801D9D1
:1015B00003202FE7824810380068C0F3800000281D
:1015C000F1D07F480C38006820F47C304FF47C3236
:1015D00092FAA2F2B2FA82F2216991400843784964
:1015E0000C39086019E076481038006820F00100D6
:1015F000734910390860FFF74FF9054606E0FFF719
:101600004BF9401B022801D9032003E76C4810382E
:101610000068C0F380000028F1D1207800F01000AD
:10162000102877D16648006800F0380008280CD0F0
:101630006348006800F03800182823D1604818304B
:10164000006800F0030001281CD15D4810380068D4
:10165000C0F3002020B1E069802801D00120D9E644
:1016600057480C38006820F0F8404FF0F84292FAE2
:10167000A2F2B2FA82F2216A9140084350490C3931
:10168000086047E0E06958B34D481038006840F002
:1016900080004B4910390860FFF7FEF8054606E068
:1016A000FFF7FAF8401B022801D90320B2E64448AC
:1016B00010380068C0F300200028F1D040480C38F2
:1016C000006820F0F8404FF0F84292FAA2F2B2FA25
:1016D00082F2216A9140084339490C39086019E0C7
:1016E00037481038006820F080003549103908600C
:1016F000FFF7D2F8054606E0FFF7CEF8401B0228B8
:1017000001D9032086E62E4810380068C0F3002077
:101710000028F1D1207800F00800082836D160694F
:10172000D0B127486430006840F00100244964319A
:101730000860FFF7B1F8054606E0FFF7ADF8401B7B
:10174000022801D9032065E61D4864300068C0F313
:1017500040000028F1D019E019486430006820F0FA
:101760000100174964310860FFF796F8054606E066
:10177000FFF792F8401B022801D903204AE61048DF
:1017800064300068C0F340000028F1D1207800F0F8
:101790002000202834D1A069D8B109481038006849
:1017A00040F48050064910390860FFF775F8054687
:1017B00008E0FFF771F8401B022803D9032029E64F
:1017C00010440258AF480068C0F340300028F0D001
:1017D00016E0AC48006820F48050AA490860FFF782
:1017E0005BF8054606E0FFF757F8401B022801D9D1
:1017F00003200FE6A3480068C0F340300028F2D170
:10180000207800F0040004287DD19F48006840F44F
:1018100080709D490860FFF73FF8054606E0FFF736
:101820003BF8401B642801D90320F3E59648006883
:1018300000F480700028F2D000BFA068012808D111
:1018400090487030006840F001008E4970310860A7
:101850002DE0A06868B98B487030006820F0010066
:101860008849703108600846006820F0040008606C
:101870001DE0A06805280DD182487030006840F056
:1018800004008049703108600846006840F001009B
:1018900008600CE07B487030006820F00100794956
:1018A000703108600846006820F00400086000BF3E
:1018B000A068A0B1FEF7F0FF054608E0FEF7ECFFD8
:1018C000401B41F28831884201D90320A2E56D48CE
:1018D00070300068C0F340000028EFD013E0FEF73E
:1018E000DBFF054608E0FEF7D7FF401B41F28831D9
:1018F000884201D903208DE5624870300068C0F34A
:1019000040000028EFD1606A00287CD05D4810308C
:10191000006800F03800182876D0606A022874D178
:101920005848006820F0807056490860FEF7B4FF00
:10193000054606E0FEF7B0FF401B022801D9032050
:1019400068E550480068C0F340600028F2D100BF4D
:10195000D4E90A1041EA00104A492831096840F2E6
:10196000F33291430843474928310860208E401ED6
:10197000C0F30800616B491E4FF47E4202EA412128
:101980000843218F491ED20102EA014108433C214C
:10199000095D491E120202EA0161084339493031EA
:1019A000086000BF081D00684FF6F87188434FF6C5
:1019B000F87292FAA2F2B2FA82F2A16C9140084354
:1019C0003049343108602F482C30006820F00C007A
:1019D000216C08432B492C3108600846006820F030
:1019E0000200616C084327492C31086008460068F2
:1019F00040F4803008600846006840F40030086019
:101A00000846006802E03BE038E01FE040F4802038
:101A100008600846006840F0010008601948006846
:101A200040F0807017490860FEF736FF054606E073
:101A3000FEF732FF401B022801D90320EAE41148D7
:101A40000068C0F340600028F2D019E00D4800683B
:101A500020F080700B490860FEF71EFF054606E087
:101A6000FEF71AFF401B022801D90320D2E40548E3
:101A70000068C0F340600028F2D101E00120C9E411
:101A80000020C7E40044025800480258042808D146
:101A90004FF0E021096941F004014FF0E0221161AB
:101AA00007E04FF0E021096921F004014FF0E02246
:101AB0001161704770B504462546681EB0F1807FFD
:101AC00001D301200FE0681E4FF0E02148610F2193
:101AD0004FF0FF3001F026FE00204FF0E02188613A
:101AE00007200861002070BD704770470146002242
:101AF000002391F8792091F87A3042EA0300704788
:101B00002DE9F04104462068C5692068076820680F
:101B1000866805F00F08B8F1000F0DD105F0200020
:101B200050B107F0200010B906F0805020B12046D7
:101B300001F037F8BDE8F081B8F1000F72D05D48D0
:101B4000304018B907F4907000287AD005F00100F1
:101B500048B107F4807030B1012021680862E06F5D
:101B600040F00100E06705F0020048B106F0010016
:101B700030B1022021680862E06F40F00400E067A5
:101B800005F0040048B106F0010030B104202168DE
:101B90000862E06F40F00200E06705F0080078B1ED
:101BA00007F0200028B906F0805010B906F00100B7
:101BB00030B1082021680862E06F40F00800E0675B
:101BC000E06F70B305F0200040B107F0200010B9BD
:101BD00006F0805010B1204600F0E3FFE06F00F007
:101BE000080020B92068806800F0400018B3204643
:101BF00000F0B7FF2068806800F04000B8B12068AE
:101C0000806820F0400021688860606F58B12A48E1
:101C1000616F0865606FFEF78DFC10B1606F016D3C
:101C200088470DE00DE02046FFF75FFF08E0204603
:101C3000FFF75BFF04E02046FFF757FF0020E06757
:101C400078E705F4801078B106F4800060B14FF4B5
:101C5000801021680862202084F8790084F87A00D6
:101C60002046FFF741FF65E705F0800048B107F027
:101C7000800010B906F4000018B1204601F0A8FC5D
:101C800058E705F0400030B107F0400018B1204699
:101C900000F077FF4EE705F4000040B107F0804008
:101CA00028B12068006820F080402168086000BFEB
:101CB00040E70000010000104B2B000810B504465F
:101CC0000CB9012010BDA06900B100E000BF94F87C
:101CD000790028B9002084F87800204600F02AF81E
:101CE000242084F879002068006820F00100216831
:101CF0000860204600F09AFF012800D1E2E7606BFF
:101D000010B1204600F072FE2068406820F4904038
:101D1000216848602068806820F02A002168886077
:101D20002068006840F0010021680860204600F04B
:101D3000D2FEC7E710B586B0044621492068884224
:101D40003BD100BF1F48006840F001001D490860FA
:101D50000846006800F00100009000BF00BF00BF0F
:101D600018481030006840F0100016491031086023
:101D70000846006800F01000009000BF00BF4FF45C
:101D80000070019002200290012003900220049034
:101D90000720059001A90C48FEF752FC4FF4806023
:101DA000019001A90848FEF74BFC2520FEF7BBFD7A
:101DB000032211462520FEF7C6FD06B010BD000027
:101DC00000100140E04402580000025810B50346DC
:101DD00093F87A00202867D101B10AB9012010BD1B
:101DE00000BF93F87800012801D10220F7E7012015
:101DF00083F8780000BF5966A3F86820A3F86A202A
:101E000000BF9868B0F5805F0AD1186920B940F228
:101E1000FF10A3F86C001CE0FF20A3F86C0018E092
:101E2000986848B9186918B9FF20A3F86C0010E049
:101E30007F20A3F86C000CE09868B0F1805F08D1B7
:101E4000186918B97F20A3F86C0002E03F20A3F8BE
:101E50006C0000BF0020D867222083F87A0000BF02
:101E6000002083F8780000BF1868806840F0010007
:101E70001C68A0601868006800F0005060B1186825
:101E8000006840F480701C6820601868806840F02A
:101E900080501C68A06005E01868006840F49070ED
:101EA0001C68206000209AE7022098E71D4A01681C
:101EB000914236D11C49098801F4004189BB1A4975
:101EC000098801F4804171B1184909780A2903D0C1
:101ED0000021154A118024E01349098841F400418A
:101EE000114A11801DE0114909780D2906D10E49CA
:101EF000098841F480410C4A118012E00B490978AD
:101F0000094A1288C2F30D02094B995406490988FF
:101F1000491C054A118011460988C72901DD0021A5
:101F2000118070470010014010080024120800249E
:101F3000581C0024704700BFFEE7000000B587B0C2
:101F400000BF1248006840F00200104908600846CF
:101F5000006800F00200019000BF00BF4FF4406035
:101F600002900120039004900320059002A90848E4
:101F7000FEF766FB012291020548FEF787FC01226D
:101F8000D1020348FEF782FC07B000BDE0440258CE
:101F90000004025800BFFEE77047000070B500243F
:101FA0000CE0002506E00020074901EBC5010855BB
:101FB000681CC5B2802DF6DB601CC4B2082CF0DBB7
:101FC00000F056F970BD0000A01D002470B50B464E
:101FD000CE1701EB5676C6F3C702CE1701EB567645
:101FE000F610A1EBC606F4B20123A340DDB20E4BFE
:101FF00003EBC0039B5CDB430B4E06EBC006B35404
:10200000094B03EBC0039B5C2B43074E06EBC0065A
:10201000B354054B03EBC0039B5CDB43024E06EB62
:10202000C006B35470BD0000A01D002470B50A4660
:10203000CE1701EB5676C6F3C703CE1701EB5676E3
:10204000F610A1EBC606F4B20122A240D5B2054AB1
:1020500002EBC002D25C2A43024E06EBC006F254E9
:1020600070BD0000A01D002400B587B000BF7648F9
:10207000006840F00100744908600846006800F0FC
:102080000100019000BF00BF00BF0846006840F09B
:10209000020008600846006800F00200019000BFDE
:1020A00000BF00BF0846006840F004000860084612
:1020B000006800F00400019000BF00BF00BF0846A8
:1020C000006840F0100008600846006800F010004A
:1020D000019000BF00BFA020029001200390049057
:1020E0000320059002A95948FEF7AAFA0122A0216F
:1020F0005648FEF7CBFB0720029001200390049086
:102100000320059002A95248FEF79AFA01220721FE
:102110004F48FEF7BBFB3020029001200390049053
:102120000320059002A94B48FEF78AFA01223021CC
:102130004848FEF7ABFB012210214648FEF7A6FBFC
:10214000642001F00FFB002210214248FEF79EFBA5
:10215000C82001F007FB012210213E48FEF796FB44
:102160000021AE2000F0A2FA0021084600F09EFAFD
:102170000021102000F09AFA0021402000F096FA89
:102180000021812000F092FA0021CF2000F08EFA89
:102190000021A12000F08AFA0021C82000F086FA70
:1021A0000021A62000F082FA0021A82000F07EFA8B
:1021B00000213F2000F07AFA0021D32000F076FAC7
:1021C0000021084600F072FA0021D52000F06EFAD6
:1021D0000021802000F06AFA0021D92000F066FA80
:1021E0000021F12000F062FA0021DA2000F05EFA0E
:1021F0000021122000F05AFA0021DB2000F056FAEC
:102200000021402000F052FA0021202000F04EFA78
:102210000021022000F04AFA00218D2000F046FA49
:102220000021142000F042FA0021A42000F03EFA20
:102230000021A62000F03AFA0021AF2000F036FA83
:10224000FFF7ACFE07B000BDE044025800000258A2
:10225000000402580008025810B50246012000E0B0
:1022600050430B1EA1F10104E1B2F9D110BD0000F1
:1022700070B500241CE004F1B001C8B2002100F0E8
:1022800015FA0021084600F011FA0021102000F094
:102290000DFA002508E0084901EBC501085D0121A0
:1022A00000F004FA681CC5B2802DF4DB601CC4B2D7
:1022B000082CE0DB70BD0000A01D0024804689468C
:1022C0000026002749E03FB910233246182180201C
:1022D00000F0C4F8701CC6B2464522D14FF0000A87
:1022E0001AE0002410E000250AE01C4800EBC400BE
:1022F000415D601E194A02EBC0004155681CC5B221
:10230000082DF2DB601CC4B2902CECDBFFF7B0FFB1
:102310000AF1010000F0FF0A4FEA09105045E0DC25
:102320000026781CC7B2102F00D10027002410E02F
:1023300000250AE0094800EBC400415D601E074A21
:1023400002EBC0004155681CC5B2082DF2DB601CD1
:10235000C4B2902CECDBFFF78BFFB4E7A01D002488
:102360002DE9FF4F81B080460E461C460096204660
:10237000E31704EB5373DB1021464FEAE47C04EBD4
:102380005C7C4FEAEC0CA4EBCC0CBCF1000F02D04F
:102390004FF0010C01E04FF0000C6344224604EBC7
:1023A000D27C4FEA6C0C03FB0CF303F0FF0B039899
:1023B0002038C7B2002547E00C2C07D107EB4700B7
:1023C000234901EB800010F805A014E0102C05D182
:1023D000204800EB071010F805A00CE0182C07D1DE
:1023E00007EBC7001C4901EB800010F805A002E0D4
:1023F00005B0BDE8F08F4FF000091FE00AF0800043
:1024000020B131464046FFF711FE03E03146404619
:10241000FFF7DCFD4FEA4A604FEA106A701CC6B253
:102420000098301AA04205D1009E08F1010000F08A
:10243000FF0806E009F1010000F0FF09B9F1080FFB
:10244000DCDB00BF681CC5B25D45B5DB00BFCFE774
:102450005A3A0008CE3E0008BE4400082DE9FF4F5E
:102460000746884691461C464FF0000B0297CDF870
:1024700004802046E11704EB5171C1F3C7010091BC
:1024800060E009FB04F0C11700EB51710BEBE101B7
:10249000CEB20BF1010000F0FF0B002550E0102C34
:1024A00005D12C4800EB0610405D03901BE0182C72
:1024B00007D106EBC600284901EBC000405D039040
:1024C00011E0202C05D1254800EBC610405D03909B
:1024D00009E0402C05D1224800EB4620405D0390E6
:1024E00001E0BDE8FF8F4FF0000A17E0039800F00D
:1024F000010020B141463846FFF798FD03E0414610
:102500003846FFF763FD03984010039008F101007F
:1025100000F0FF080AF1010000F0FF0ABAF1080F0D
:10252000E4DB781CC7B20298381AA04204D1029F9B
:1025300001980830C0B20190DDF80480681CC5B273
:10254000A542ACDB0098411EC9B20091002898D189
:1025500000BFC6E71D0800247D090024550A002499
:10256000550C00242DE9F04F06468A4691461F4639
:10257000099C00252CE0781B401EC1B20A20FFF701
:102580006BFEB9FBF0F00A21B0FBF1F201FB12087F
:10259000B8F1000F0CD1A34604EBDB71491001FB2D
:1025A0000561C8B2234630225146FFF7D9FE0DE03F
:1025B000A34604EBDB71491001FB0561C8B208F1C9
:1025C0003001CAB223465146FFF7CAFE681CC5B2A5
:1025D000BD42D0DBBDE8F08F2DE9F05F05460E4629
:1025E00017469846DDF828B04FF00009CA46002487
:1025F000E11704EB5171C910A4EBC10101B901E06D
:10260000601CC4B2344614E02146284600F036F877
:10261000AA460AE01BF80900012100F047F809F179
:1026200001090AF1010000F0FF0ABA45F2DB601C63
:10263000C4B24445E8DBBDE8F09FF0B506460F465E
:1026400014461D4613E022782B4639463046FFF7E4
:1026500087FE284605EBD07106EB6101CEB2C5F1CD
:102660008000B04202DA0026B81CC7B2641C207891
:10267000202802DB20787E28E5DDF0BD70B5044619
:102680000D4605F1B001C8B2002100F00FF810218D
:1026900041EA1410002100F009F804F00F0141F0A4
:1026A0000100002100F002F870BD000070B5044682
:1026B0000E462EB1012220211C48FEF7E7F804E067
:1026C000002220211948FEF7E1F8002201211848D4
:1026D000FEF7DCF800251BE0002220211548FEF75C
:1026E000D5F804F0800028B1012280211148FEF7BE
:1026F000CDF804E0002280210E48FEF7C7F8012241
:1027000020210C48FEF7C2F86006040E681CC5B212
:10271000082DE1DB012211460548FEF7B7F801223A
:1027200020210248FEF7B2F870BD000000080258F0
:1027300000040258000002587047000010B5002342
:10274000234C236000BF00BF00BFBFF34F8F00BF0B
:1027500000BF00BF231F1868C0F34E3100BFC0F395
:10276000C90200BF43F6E07303EA41134FF040444F
:1027700004EA82742343174C236000BF00BF131E7A
:10278000A2F10102EED10B1EA1F10101E7D100BFC0
:1027900000BF00BFBFF34F8F00BF00BF00BF0C4B97
:1027A000703B1B6843F48033094C703C236000BFCE
:1027B00000BF00BFBFF34F8F00BF00BF00BF00BF0F
:1027C00000BF00BFBFF36F8F00BF00BF00BF10BDD1
:1027D00084ED00E060EF00E000BF00BF00BFBFF38A
:1027E0004F8F00BF00BF00BF00BF00BF00BFBFF3DF
:1027F0006F8F00BF00BF00BF00201449086000BFFA
:1028000000BF00BFBFF34F8F00BF00BF00BF00BFBE
:1028100000BF00BFBFF36F8F00BF00BF00BF0C48F9
:10282000006840F400300A49086000BF00BF00BFE4
:10283000BFF34F8F00BF00BF00BF00BF00BF00BF8E
:10284000BFF36F8F00BF00BF00BF704750EF00E0C5
:1028500014ED00E0704700002DE9F0419CB0804687
:102860000C4615461E4600273748006820F0040035
:102870003549086000BF0020009033480C300068E4
:1028800040F4404030490C3108600846006800F4CC
:102890004040009000BF00BF00BF2B480C300068D4
:1028A00000F40050B0F5005FF7D101200190000462
:1028B000029000200490089002200A9002210B91BF
:1028C000CDF834800C940E950F96002112910821BA
:1028D000119101A8FEF778FD07460FB100BFFEE792
:1028E0003F20149003201590002016900820179088
:1028F0004020199000011A904020189050201B9001
:10290000022114A8FEF7CEFA07460FB100BFFEE77A
:102910000E48006840F080000C49086000BF0B487A
:10292000F430006840F002000849F43108600846BD
:10293000006800F00200009000BF00BFFDF776FEC7
:102940001CB0BDE8F08100000C4802580044025859
:1029500010B5FDF7A7FF10BD2048006840F47000D7
:102960001E4908601E48006840F001001C490860CC
:1029700000201B49103108601948006819490840B7
:10298000174908600020164918310860091D0860C1
:10299000091D0860124928310860091D0860091DD9
:1029A0000860091D0860091D0860091D0860091DEF
:1029B0000860091D08600A48006820F48020084962
:1029C000086000200649603108600120064908605F
:1029D000C0060249803908607047000088ED00E0B9
:1029E000004402587FEDF6EA0881005190F8341057
:1029F00001F0010139B10168496821F40031826BAD
:102A000011430268516090F8341001F0020139B1AD
:102A10000168496821F48031C26B1143026851603A
:102A200090F8341001F0040139B10168496821F4CB
:102A30008021026C11430268516090F8341001F05B
:102A4000080139B10168496821F40041426C114321
:102A50000268516090F8341001F0100139B101683A
:102A6000896821F48051826C11430268916090F86A
:102A7000341001F0200139B10168896821F4005156
:102A8000C26C11430268916090F8341001F040016B
:102A900099B10168496821F48011026D11430268FF
:102AA0005160016DB1F5801F07D10168496821F4BB
:102AB000C001426D11430268516090F8341001F07A
:102AC000800139B10168496821F40021826D114308
:102AD00002685160704738B5044600250020E06761
:102AE000FDF7DAFE05462068006800F008000828B7
:102AF0000CD16FF07E402B4600224FF40011009065
:102B0000204600F0A6FD08B1032038BD206800680B
:102B100000F0040004280CD16FF07E402B46002208
:102B20004FF480010090204600F093FD08B103208F
:102B3000EBE7202084F8790084F87A0000BF0020B9
:102B400084F8780000BF00BFDFE770B50546AC6BC6
:102B50000020A4F86A00A4F862002046FEF7C5FF32
:102B600070BD0168096821F4907102681160016804
:102B7000896821F0010102689160202180F87A10B3
:102B8000704710B504462068006820F040002168B6
:102B90000860202084F879002046FFF7CBF9002058
:102BA00010BD2DE9F0410446B4F86C7094F87A0039
:102BB000222833D12068858CA068B0F5805F09D1C8
:102BC000206938B9666E05EA07003080606E801CA7
:102BD000606605E0F8B22840626E511C61661070B4
:102BE000B4F86A00401E80B2A4F86A00A0B9206858
:102BF000006820F49070216808602068806820F0E8
:102C0000010021688860202084F87A002046FFF7C0
:102C10004DF90020BDE8F0810020FBE72068008B23
:102C200040F00800216808830220F3E72DE9F04F07
:102C300089B0044600254FF08008A946AA46002026
:102C40000890FA492068884201D1012000E0002064
:102C500000B100E000BFA06AB0F1005F00D100BF8A
:102C60002169A068084361690843E16940EA0105F8
:102C7000A06A054320680068ED49084028432168A0
:102C800008602068406820F44050E16808432168EB
:102C90004860A569E5492068884201D1012000E02B
:102CA000002008B9206A0543A06AB0F1005F03D193
:102CB000D4E90B010843054320688068DD490840DA
:102CC0002843216888602068C06A20F00F00616A8C
:102CD00008432168C86200BFD7492068884224D1D0
:102CE000D648006800F03800182814D005DC48B138
:102CF00008280AD0102817D10AE020280ED028284A
:102D000012D10EE04FF001080EE04FF004080BE086
:102D10004FF0400808E04FF0080805E04FF01008B9
:102D200002E04FF0200800BF17E1C5492068884243
:102D30001DD1C248006800F00700062816D2DFE85F
:102D400000F00306090C0F124FF000080EE04FF0E0
:102D500004080BE04FF0400808E04FF0080805E0D9
:102D60004FF0100802E04FF0200800BFF5E0B54931
:102D7000206888421DD1B148006800F0070006288D
:102D800016D2DFE800F00306090C0F124FF000081E
:102D90000EE04FF004080BE04FF0400808E04FF061
:102DA000080805E04FF0100802E04FF0200800BFCF
:102DB000D3E0A549206888421DD1A048006800F0F2
:102DC0000700062816D2DFE800F00306090C0F12F0
:102DD0004FF000080EE04FF004080BE04FF0400801
:102DE00008E04FF0080805E04FF0100802E04FF04F
:102DF000200800BFB1E09549206888421DD18F4866
:102E0000006800F00700062816D2DFE800F003068D
:102E1000090C0F124FF000080EE04FF004080BE011
:102E20004FF0400808E04FF0080805E04FF01008A8
:102E300002E04FF0200800BF8FE0854920688842FB
:102E400024D17E48006800F03800182814D005DC32
:102E500048B108280AD0102817D10AE020280ED03F
:102E6000282812D10EE04FF001080EE04FF00408C0
:102E70000BE04FF0400808E04FF0080805E04FF085
:102E8000100802E04FF0200800BF66E0714920689A
:102E900088421DD16948006800F00700062816D254
:102EA000DFE800F00306090C0F124FF000080EE0F7
:102EB0004FF004080BE04FF0400808E04FF008081E
:102EC00005E04FF0100802E04FF0200800BF44E09A
:102ED0006149206888421DD15848006800F0070009
:102EE000062816D2DFE800F00306090C0F124FF097
:102EF00000080EE04FF004080BE04FF0400808E037
:102F00004FF0080805E04FF0100802E04FF02008ED
:102F100000BF22E04549206888421ED14748001D75
:102F2000006800F00700062816D2DFE800F003066C
:102F3000090C0F124FF002080EE04FF004080BE0EE
:102F40004FF0400808E04FF0080805E04FF0100887
:102F500002E04FF0200800BF00BF00BF33492068E7
:102F6000884201D1012000E0002000285DD000252A
:102F7000B8F1100F33D009DCB8F1020F10D0B8F15E
:102F8000040F11D0B8F1080F2ED117E0B8F1200FBF
:102F900027D0B8F1400F0CD0B8F1800F24D124E035
:102FA000FDF73EFD054623E005A8FDF74FFD069D14
:102FB0001EE002A8FDF760FE039D19E01F4854388B
:102FC0000068C0F3401040B11C4854380068C0F39A
:102FD000C101224820FA01F500E0204D08E0204D13
:102FE00006E04FF4004503E000BF0120089000BF59
:102FF00000BF002D0AD0606800EB4000A84203D853
:1030000060680003A84202D201200890D4E2B8F11F
:10301000100F7CD026DCB8F1020F2DD0B8F1040FD0
:1030200052D0B8F1080F73D19EE03FE1000C005878
:10303000F369FFCFFFF4FF11001001405444025820
:103040000044004000480040004C00400050004058
:103050000014014000780040007C00400090D00344
:1030600000093D00B8F1200F7DD0B8F1400F54D0D9
:10307000B8F1800FD7D109E1FDF7D2FC0027064651
:10308000FB49606A31F810C062463B46304639461B
:10309000FDF792F94FF4807600220346A3FB060762
:1030A00001FB067103FB02136168490806467118AB
:1030B0005A41CDE90012666832460023084601995C
:1030C000FDF77AF90546E4E005A8FDF7BFFCDDF859
:1030D00018C0E749606A31F810B05A4600236046CC
:1030E0001946FDF769F94FF4807C0022A0FB0C3BE8
:1030F00001FB0CB100FB0210616849085E1840EB4F
:103100000201D4F804C062460023304601E079E0B1
:10311000BBE0FDF751F90546BBE002A8FDF7ACFDA9
:10312000DDF80CC0D249606A31F810B05A4600236D
:1031300060461946FDF740F94FF4807C0022A0FB61
:103140000C3B01FB0CB100FB0210616849085E18E2
:1031500040EB0201D4F804C0624600233046FDF77C
:103160002BF9054695E06EE0C2480068C0F34010B8
:1031700038B3C0480068C0F3C101BF4820FA01FC61
:10318000BB49606A31F810B05A46002360461946C0
:10319000FDF712F94FF4807C0022A0FB0C3B01FBF1
:1031A0000CB100FB0210616849085E1840EB020197
:1031B000D4F804C0624600233046FDF7FDF805460A
:1031C0001FE0AB49606A31F810C062460023AA488C
:1031D0001946FDF7F1F84FF4807C0022A0FB0C3B70
:1031E00001FB0CB100FB0210616849085E1840EB5E
:1031F0000201D4F804C0624600233046FDF7DCF833
:10320000054646E09A49606A31F810C062460023DC
:103210009A481946FDF7D0F84FF4807C0022A0FBB5
:103220000C3B01FB0CB100FB0210616849085E1801
:1032300040EB0201D4F804C0624600233046FDF79B
:10324000BBF8054625E08A49606A31F810C062463D
:1032500000234FF400401946FDF7AEF84FF4807C90
:103260000022A0FB0C3B01FB0CB100FB02106168CB
:1032700049085E1840EB0201D4F804C062460023FE
:103280003046FDF799F8054603E000BF012008909D
:1032900000BF00BFB5F5407F05D3B5F5801F02D252
:1032A0002068C56088E10120089085E1E069B0F5FB
:1032B000004F7CD1B8F1100F7AD00CDCB8F1000FC0
:1032C00013D0B8F1010F21D0B8F1040F2FD0B8F10D
:1032D000080F6ED151E0B8F1200F6BD0B8F1400F5C
:1032E00038D0B8F1800F64D197E0FDF71FFF604A36
:1032F000616A32F81110B0FBF1F04000616800EB38
:103300005100B0FBF1F01FFA80FA89E0FDF724FFCD
:10331000574A616A32F81110B0FBF1F04000616861
:1033200000EB5100B0FBF1F01FFA80FA78E005A83D
:10333000FDF78CFB06994E4A606A32F81000B1FB2B
:10334000F0F04000616800EB5100B0FBF1F01FFAB3
:1033500080FA65E002A8FDF78FFC0399444A606A91
:1033600032F81000B1FBF0F04000616800EB510052
:10337000B0FBF1F01FFA80FA52E03E480068C0F35B
:103380004010C0B13B480068C0F3C1013A48C84092
:10339000374A616A32F81110B0FBF1F04000616801
:1033A00000EB5100B0FBF1F01FFA80FA12E044E0AC
:1033B00011E031E01FE02E49606A31F810002E491B
:1033C000B1FBF0F04000616800EB5100B0FBF1F0A0
:1033D0001FFA80FA24E02649606A31F81000274974
:1033E000B1FBF0F04000616800EB5100B0FBF1F080
:1033F0001FFA80FA14E01E49606A31F810004FF499
:103400000041B1FBF0F04000616800EB5100B0FBFF
:10341000F1F01FFA80FA03E000BF0120089000BF1E
:1034200000BF4FF6F0700AEA0009CAF3420049EA09
:1034300000092068C0F80C90BEE0B8F1100F7CD0F5
:103440000CDCB8F1000F1BD0B8F1010F29D0B8F196
:10345000040F37D0B8F1080F70D159E0B8F1200F40
:103460006DD0B8F1400F40D0B8F1800F66D19FE029
:10347000FA390008004402580090D00300093D00CA
:10348000FDF754FE4E4A616A32F81110B0FBF1F0BC
:10349000616800EB5100B0FBF1F080B22168C860B8
:1034A00089E0FDF759FE464A616A32F81110B0FB17
:1034B000F1F0616800EB5100B0FBF1F080B22168DF
:1034C000C86078E005A8FDF7C1FA06993C4A606A31
:1034D00032F81000B1FBF0F0616800EB5100B0FB76
:1034E000F1F080B22168C86065E002A8FDF7C4FB76
:1034F0000399334A606A32F81000B1FBF0F061685A
:1035000000EB5100B0FBF1F080B22168C86052E0DE
:103510002C480068C0F34010C0B12A480068C0F3CE
:10352000C1012948C840264A616A32F81110B0FB2F
:10353000F1F0616800EB510002E017E037E025E0B0
:10354000B0FBF1F080B22168C8600EE01C49606AEF
:1035500031F810001C49B1FBF0F0616800EB51003C
:10356000B0FBF1F080B22168C86024E01449606AC1
:1035700031F810001549B1FBF0F0616800EB510023
:10358000B0FBF1F080B22168C86014E00C49606AB9
:1035900031F810004FF40041B1FBF0F0616800EB2E
:1035A0005100B0FBF1F080B22168C86003E000BFB9
:1035B0000120089000BF00BF089809B0BDE8F08F57
:1035C000FA390008004402580090D00300093D0079
:1035D000014691F87900212839D1B1F86200C8B9C3
:1035E0000868006800F0005030B10868806820F476
:1035F00000000B68986005E00868006820F0800013
:103600000B6818600868006840F040000B6818609C
:10361000002070478868B0F5805F0BD1086948B911
:10362000CA6D1088C0F308000B681885C86D801C2F
:10363000C86505E0CB6D581CC86518780B681885FF
:10364000B1F86200401EA1F862000020E1E702200C
:10365000DFE72DE9F04104460D4617469846069EE1
:1036600021E0701CF8B12EB1FDF716F9A0EB0800AF
:10367000B04218D92068006820F4D0702168086032
:103680002068806820F0010021688860202084F88C
:10369000790084F87A0000BF002084F8780000BF29
:1036A0000320BDE8F0812068C0692840A84201D10C
:1036B000012000E00020B842D3D00020F1E7000054
:1036C00070B500240F4D1048FEF71AFA00BF03E052
:1036D000641CAC4200D904E00B48FEF707FA20282E
:1036E000F6D100BF002403E0641CAC4200D906E020
:1036F000012206490448FEF769FB0028F4D100BF07
:1037000070BD0000FFFF0100201D002412080024EE
:1037100000BFFEE702480068C0F3022070470000C7
:103720000CED00E010B5002804DB0A07130E054A73
:10373000135406E00A07140E034A00F00F031B1F80
:10374000D45410BD00E400E018ED00E000BF704765
:1037500010B504460420FEF799F90148046010BD35
:103760000808002430B50446002504E04FF47A70C0
:1037700000F004F86D1CA542F8D330BD70B50346C7
:1037800000224FF0E02675690D4E366803FB06F403
:103790004FF0E026B16910E04FF0E026B0698842B2
:1037A0000BD0884202D20E1A324402E02E1A0E4486
:1037B00032440146A24200D300E0EDE700BF70BDF5
:1037C0000808002408B5FCF7A5FEFDF777F80423E8
:1037D00002220521A020FFF73FF84FF4C870FFF741
:1037E000B7FF4FF4E13000F0C7F8FEF7A7FBFEF794
:1037F0003BFCA6E0534808238022002100900846A5
:10380000FEF7EAFE4FF4FA70FFF7ACFFFEF7C6FBD7
:103810001023002211461046FEF720FE102301223D
:1038200000211220FEF71AFE10230222002124207C
:10383000FEF714FE1023032200213620FEF70EFEB1
:103840001023042200214820FEF708FE1023052241
:1038500000215A20FEF702FE1023062200216C20D0
:10386000FEF7FCFD102338A219460820FEF7E5FEFE
:10387000102339A220211420FEF7DFFE102339A2E5
:1038800030210020FEF7D9FE102338A230213F203E
:10389000FEF7D3FE1023224630210846FEF760FDD6
:1038A000601CC4B27E2C00DD20241020032322469D
:1038B000302100906720FEF755FEFEF7D9FC4FF44B
:1038C000FA70FFF74FFFFEF769FB10230022114645
:1038D0001046FEF7C3FD1823002211461020FEF704
:1038E000BDFD2023002214211820FEF7B7FD402340
:1038F000002211461846FEF7B1FDFEF7B9FC4FF461
:10390000FA70FFF72FFFFEF749FB0C2319A20021E5
:103910000846FEF792FE102316A20C210020FEF7A7
:103920008CFE182313A21C210020FEF786FEFEF752
:103930009FFC4FF4FA70FFF715FF04210B20FEF7F0
:10394000BDFC57E7000000245A484F4E474A494EF5
:10395000475955414E000000323031342F30352F59
:103960003031000041534349493A0000434F444538
:103970003A0000004142430010B5044609480A4994
:1039800008600846446000218160C1600161816176
:103990000C214161FEF792F9012204490248FEF729
:1039A00015FA10BD00100140201D0024120800244B
:1039B0004FF04070E1EE100A704701000200040071
:1039C000060008000A000C001000200040008000E3
:1039D0000001010002000400060008000A000C00BB
:1039E00010002000400080000001000000000102E3
:1039F0000304010203040607080901000200040091
:103A0000060008000A000C001000200040008000A2
:103A10000001010002000400060008000A000C007A
:103A2000100020004000800000010100020004009E
:103A3000060008000A000C00100020004000800072
:103A40000001010002000400060008000A000C004A
:103A50001000200040008000000100000000000075
:103A6000000000000000000000003F4000000000D7
:103A7000000000003000400030004000000009005D
:103A80000BC03D000BC03D00090018C024407FE082
:103A9000224031800000180024C01B000D803240FD
:103AA000018003801C4027401C800740004010001C
:103AB00060000000000000000000000000000000A6
:103AC0001F80204040200000402020401F80000038
:103AD0000000090006001F80060009000000040025
:103AE00004003F800400040000000010006000009B
:103AF00000000000000004000400040004000400B2
:103B00000000000000400000000000000000002055
:103B100001C006003800400000001F802040204007
:103B200020401F800000000010403FC00040000007
:103B3000000018C02140224024401840000010809E
:103B40002040244024401B80000002000D00110092
:103B50003FC0014000003C8024402440244023809A
:103B600000001F80244024403440038000003000C7
:103B7000200027C03800200000001B802440244083
:103B800024401B8000001C0022C0224022401F80D5
:103B900000000000000008400000000000000000DD
:103BA00000000460000000000000000004000A00A3
:103BB00011002080404009000900090009000900A7
:103BC000000000004040208011000A00040018009E
:103BD000200023402400180000001F8020402740C0
:103BE00029401F400000004007C039000F0001C0FD
:103BF000004020403FC0244024401B8000001F8024
:103C00002040204020403080000020403FC0204025
:103C100020401F80000020403FC024402E4030C084
:103C2000000020403FC024402E00300000000F0064
:103C30001080204022403380020020403FC004001A
:103C400004003FC02040204020403FC02040204092
:103C500000000060202020203FC0200020002040E5
:103C60003FC024400B0030C0204020403FC02040D7
:103C70000040004000C03FC03C0003C03C003FC0CB
:103C8000000020403FC00C4023003FC020001F80A8
:103C90002040204020401F80000020403FC02440A2
:103CA0002400180000001F802140214020E01FA0B8
:103CB000000020403FC02440260019C0004018C02A
:103CC00024402440224031800000300020403FC08A
:103CD00020403000000020003F80004000403F8036
:103CE000200020003E0001C00700380020003800FE
:103CF00007C03C0007C038000000204039C0060063
:103D000039C0204000002000384007C03840200063
:103D10000000304021C02640384020C00000000094
:103D200000007FE0402040200000000070000C00F8
:103D30000380004000000000402040207FE00000A1
:103D400000000000200040002000000000000010E3
:103D500000100010001000100010000000004000D3
:103D6000000000000000000002800540054003C084
:103D7000004020003FC004400440038000000000D9
:103D8000038004400440064000000000038004401B
:103D900024403FC000400000038005400540034030
:103DA0000000000004401FC0244024402000000008
:103DB00002E0055005500650042020403FC004405A
:103DC000040003C000400000044027C00040000081
:103DD000000000100010041027E000000000204048
:103DE0003FC00140070004C00440204020403FC0C5
:103DF00000400040000007C0040007C0040003C0EA
:103E00000000044007C00440040003C0004000005C
:103E100003800440044003800000041007F00450B5
:103E2000044003800000000003800440045007F0B9
:103E30000010044007C0024004000400000000001D
:103E400006400540054004C00000000004001F803B
:103E5000044000400000040007800040044007C008
:103E600000400400070004C00180060004000600B2
:103E700001C0070001C006000000044006C00100A8
:103E800006C0044000000410071004E00180060092
:103E900004000000044005C006400440000000008B
:103EA000000004007BE04020000000000000000053
:103EB000FFF000000000000040207BE00400000054
:103EC0000000400080004000200020004000000072
:103ED00000000000000000000000000000000000E2
:103EE000000000001FCC000C0000000000000000DB
:103EF0000800300060000800300060000000022070
:103F000003FC1E20022003FC1E20022000000000F3
:103F10000E1811043FFF10840C78000000000F0001
:103F200010840F3800C007781884007800000078EB
:103F30000F8410C411240E9800E4008400080800C7
:103F40006800700000000000000000000000000099
:103F50000000000007E018182004400200000000E4
:103F600040022004181807E0000000000000024092
:103F7000024001800FF001800240024000000080FA
:103F8000008000800FF800800080008000000001A9
:103F9000000D000E00000000000000000000000006
:103FA0000080008000800080008000800080000091
:103FB000000C000C000000000000000000000000E9
:103FC00000060018006001800600180020000000B4
:103FD00007F0080810041004080807F000000000AB
:103FE000080408041FFC0004000400000000000096
:103FF0000E0C10141024104411840E0C000000004C
:104000000C1810041104110412880C700000000038
:1040100000E00320042408241FFC0024000000000A
:104020001F98108411041104108810700000000003
:1040300007F00888110411041888007000000000BF
:104040001C00100010FC13001C00100000000000F9
:104050000E3811441084108411440E380000000002
:104060000700088C10441044088807F00000000086
:1040700000000000030C030C000000000000000022
:104080000000000101060000000000000000000028
:1040900000800140022004100808100400000220E3
:1040A0000220022002200220022002200000000044
:1040B00010040808041002200140008000000000E5
:1040C0000E001200100C106C10800F00000003E0B6
:1040D0000C1813E4142417C4082807D000000004A7
:1040E000003C03C41C40074000E4001C0004100412
:1040F0001FFC1104110411040E880070000003E07D
:104100000C1810041004100410081C1000001004F7
:104110001FFC100410041004080807F0000010042D
:104120001FFC1104110417C4100408180000100427
:104130001FFC1104110017C010000800000003E06C
:104140000C181004100410441C78004000001004E7
:104150001FFC10840080008010841FFC10040000ED
:10416000100410041FFC10041004000000000003E1
:104170000001100110011FFE1000100000001004CB
:104180001FFC110403801464181C100400001004A8
:104190001FFC1004000400040004000C00001004C4
:1041A0001FFC1F0000FC1F001FFC10040000100477
:1041B0001FFC0C04030000E010181FFC100007F0A7
:1041C0000808100410041004080807F00000100488
:1041D0001FFC10841080108010800F00000007F07A
:1041E000081810241024101C080A07F200001004FC
:1041F0001FFC1104110011C011300E0C000400004E
:104200000E1C11041084108410441C380000180087
:10421000100010041FFC1004100018000000100013
:104220001FF810040004000410041FF81000100010
:104230001E0011E0001C007013801C0010001FC045
:10424000103C00E01F0000E0103C1FC00000100404
:10425000180C163401C001C01634180C10041000DC
:104260001C00130400FC13041C00100000000804D0
:10427000101C1064108413041C04101800000000AB
:10428000000000007FFE40024002400200000000EB
:1042900030000C0003800060001C000300000000E0
:1042A0004002400240027FFE0000000000000000CB
:1042B00000002000400040004000200000000001FD
:1042C00000010001000100010001000100010000E7
:1042D000400040002000000000000000000000003E
:1042E0000098012401440144014400FC0004100032
:1042F0001FFC008801040104008800700000000019
:10430000007000880104010401040088000000001E
:10431000007000880104010411081FFC0004000063
:1043200000F8014401440144014400C800000000B9
:10433000010401040FFC1104110411001800000015
:1043400000D601290129012901C901060000100434
:104350001FFC008401000100010400FC00040000B7
:104360000104190419FC000400040000000000000E
:10437000000300010101190119FE000000001004F2
:104380001FFC0024004001B4010C010400000000E7
:10439000100410041FFC00040004000000000104CD
:1043A00001FC0104010001FC0104010000FC010406
:1043B00001FC008401000100010400FC0004000075
:1043C00000F8010401040104010400F800000101E7
:1043D00001FF008501040104008800700000000056
:1043E0000070008801040104010501FF00010104BF
:1043F000010401FC008401040100018000000000B0
:1044000000CC0124012401240124019800000000B3
:104410000100010007F80104010400000000010090
:1044200001F8000400040004010801FC000401007C
:1044300001800170000C001001600180010001F09A
:10444000010C003001C00030010C01F0010000003F
:104450000104018C00740170018C01040000010151
:1044600001810171000E001801600180010000004F
:104470000184010C013401440184010C000000009E
:1044800000000000000001003EFC4002400200006D
:10449000000000000000FFFF00000000000000001E
:1044A000400240023EFC010000000000000000004D
:1044B00060008000800040004000200020000000DC
:1044C00000000000000000000000000000000000EC
:1044D00000000000000000000000000000000000DC
:1044E00000000000000000000000000000000000CC
:1044F000000F80380FFE380F8038000000000000E9
:1045000000000000000000000000000001000006A4
:1045100000000C00003800003100000600000C0014
:104520000038000030000000000000000000618042
:104530000067F807F98000618000618000618000F9
:1045400061800067F807F9800061800000000000CA
:104550000000000001C0E003E0F006300804180885
:104560001FFFFE040E080787F00381E00000000033
:10457000000001F000060C00040408060C7001F9AC
:10458000C0000E00003BE000EC18070808040C18FF
:104590000003E00000000001E00007F003F8180449
:1045A0001C0804170807E1D003C0E00023B0003C5A
:1045B00008002008000010000000000000010000BA
:1045C0003100003200001C0000000000000000006C
:1045D00000000000000000000000000000000000DB
:1045E00000000000000000000000000000007F004C
:1045F00001FFC00780F00C0018100004200002002A
:1046000000000000002000021000040C00180780C9
:10461000F001FFC0007F000000000000000000006B
:1046200000000000000000000000420000660000E2
:104630006600003C0000180003FFC0001800003CAA
:104640000000660000660000420000000000080054
:1046500000080000080000080000080001FFC0007A
:104660000800000800000800000800000800000022
:104670000000000100003100003200001C000000BA
:10468000000000000000000000000000000000002A
:1046900000000000000008000008000008000008FA
:1046A00000000800000800000800000800000800E2
:1046B00000080000000000000000000000003800BA
:1046C000003800003800000000000000000000007A
:1046D00000000000000000000000000000000006D4
:1046E00000001C000070000180000E000038000077
:1046F000C0000700001C00003000000000000000A7
:1047000000007F8001FFE0038070060018040008AD
:1047100004000806001803807001FFE0007F80009D
:104720000000000000000000010008010008010076
:104730000803FFF807FFF800000800000800000861
:1047400000000000000000000001C03802C0580452
:104750000098040118040218040418061C1803F831
:104760001801E0F800000000000000000001C0E0B7
:1047700003C0F00400080408080408080618080329
:10478000F41801E7F00001E0000000000000000064
:1047900000000300000D000011000061000081080E
:1047A00003010807FFF80FFFF800010800010800E7
:1047B00000000000000000E007FCD006080806101A
:1047C00008061008061008061838060FF00607C07D
:1047D000000000000000000000003F8001FFE00337
:1047E0008430020818041008041008041008071880
:1047F00010030FF00007C0000000000000000000E0
:1048000003C0000700000600000600F80607F806CF
:10481000180006E00007000006000000000000008D
:104820000001E1E003F7F00634100418080418084A
:10483000040C08040C0806161803F3F001C1E0008C
:10484000000000000000F80003FC300306380402FA
:10485000080402080402080404100308F001FFC061
:10486000007F0000000000000000000000000000C9
:104870000000000000007038007038007038000040
:104880000000000000000000000000000000000028
:1048900000000000000000000000301A00301C0082
:1048A0000000000000000000000000000000000008
:1048B0000000000000080000140000220000410079
:1048C0000080800100400200200400100800080061
:1048D0000000000000002100002100002100002154
:1048E0000000210000210000210000210000210023
:1048F0000021000000000000000000000800080483
:1049000000100200200100400080800041000022D1
:104910000000140000080000000000000003C000B8
:1049200004C000040000080038080F3808083808E0
:1049300010000C300007E00003C000000000000081
:1049400000003F8000FFE0038070020F10067088B7
:1049500004C088048308047F8802C09003012000FB
:10496000FE400000080000180001F8003E0801C2E7
:104970000007020007E20000FE00001FC80001F867
:1049800000003800000804000807FFF807FFF804DB
:10499000080804080804080804080806180803F4AE
:1049A0001801E7F00001E0000000000000003F8077
:1049B00001FFE003807002001804000804000804EE
:1049C00000080400100600200780C000000004005A
:1049D0000807FFF807FFF8040008040008040008AF
:1049E00004001802001003807001FFE0007F8000C7
:1049F000000004000807FFF807FFF804080804088F
:104A000008040808040808043E0804000806001802
:104A100001006000000004000807FFF807FFF80429
:104A20000808040800040800040800043E0006000A
:104A300000060000018000000000000000003F8030
:104A400001FFE00380700600180400080402080457
:104A500002080203F00783F00002000002000400D5
:104A60000807FFF807FFF80408080008000008001E
:104A700000080000080004080807FFF807FFF80412
:104A80000008000000000000040008040008040002
:104A90000807FFF807FFF8040008040008040008EE
:104AA00000000000000000000000000600000700F9
:104AB000000104000104000104000307FFFE07FFDA
:104AC000FC04000004000004000004000807FFF8D4
:104AD00007FFF8040C08001800003E0004C780051A
:104AE00003C80600F8040038040018000008040099
:104AF0000807FFF807FFF804000800000800000896
:104B00000000080000080000080000180000600015
:104B1000000004000807FFF807800807FC00007F7A
:104B2000C00003F80007C000780007800807FFF8FE
:104B300007FFF804000804000807FFF8070008034F
:104B4000C00000E000003800001E00000700000167
:104B5000C00400F007FFF8040000000000007F80A0
:104B600001FFE00380700600180400080400080636
:104B7000001803003001FFE0007F80000000040007
:104B80000807FFF807FFF804040804040004040001
:104B9000040400040400060C0003F80001F0000007
:104BA0000000000000007F8001FFE003807006002D
:104BB000880400880400C806003C03003E01FFE6AC
:104BC000007F8400000004000807FFF807FFF804D6
:104BD0000808040800040C00040F00040BC00610B1
:104BE000F003F03801E00800000800000001E0F8E0
:104BF00003F030063010041808041808040C0804E8
:104C00000C080206180207F00781E000000001808E
:104C10000006000004000004000004000807FFF87C
:104C200007FFF8040008040000040000060000016B
:104C3000800004000007FFE007FFF00400180000F8
:104C40000800000800000800000800000804001028
:104C500007FFE004000004000006000007E0000772
:104C6000FE00041FE00001F80000380001E0043EEF
:104C70000007C00006000004000004000007E00078
:104C800007FFC0041FF80007C007F80007FF8004F3
:104C90003FF80007C004F80007000004000000000F
:104CA0000004000806001807C07805F1C8003E009F
:104CB000001F800463E80780F8060018040008005D
:104CC000000004000006000007800007E008047CE4
:104CD00008001FF80007F800180804E008070000A3
:104CE000060000040000000000010008060038046F
:104CF00000F80403E8040F08047C0805F00807C066
:104D00000807001804006000000000000000000018
:104D10000000000000000000003FFFFE2000022015
:104D2000000220000220000220000200000000001B
:104D30000000000008000007000000C0000038006C
:104D40000006000001C000003000000E000001005D
:104D500000000000000000002000022000022000EF
:104D6000022000022000023FFFFE000000000000C1
:104D7000000000000000000000000000000000082B
:104D80000000100000300000200000300000100083
:104D90000008000000000000000000000100000109
:104DA00000000100000100000100000100000100FE
:104DB00000010000010000010000010000010000EE
:104DC0000000000000000020000020000010000093
:104DD00010000000000000000000000000000000C3
:104DE00000000000000000F00019F8001B1800226D
:104DF00008002608002408002410003FF8001FF8CF
:104E000000000800001800000004000007FFF80F71
:104E1000FFF00018180010080020080020080030DB
:104E200018001FF0000FC00000000000000007C0C5
:104E3000001FF000183000200800200800200800A3
:104E40003C08001C10000060000000000000000092
:104E5000000007C0001FF0003818002008002008DC
:104E600000200804101007FFF80FFFF000001000EA
:104E700000000000000000000007C0001FF000124A
:104E800030002218002208002208003208001E10FC
:104E9000000E20000000000000002000002008009C
:104EA000200801FFF803FFF806200804200804206A
:104EB0000807200003000000000000000000000EB2
:104EC000000E6E001FF30031B10020B10020B100D0
:104ED0003191001F13002E1E00200E003000000034
:104EE0000004000807FFF80FFFF80010080020007A
:104EF000002000002008003FF8001FF80000080014
:104F00000000000000000000002008002008002031
:104F100008063FF8063FF8000008000008000008F7
:104F2000000000000000000000000000000003007E
:104F30000003002001002001002003063FFE063F81
:104F4000FC00000000000000000000000004000859
:104F500007FFF80FFFF8000188000300002FC000D2
:104F600038F8002038002008000008000000000089
:104F70000000000004000804000804000807FFF80F
:104F80000FFFF80000080000080000080000000003
:104F90000000002008003FF8003FF8001008002043
:104FA00000003FF8003FF8001008002000003FF824
:104FB000003FF8000008000000002008003FF80053
:104FC0003FF8001008001000002000002008003FFB
:104FD000F8001FF80000080000000000000007C0F3
:104FE000000FF000183000300800200800200800F2
:104FF0003008001830000FF00007C000000000006B
:1050000000002001003FFF003FFF001011002009B9
:10501000002008002008003038001FF0000FC000FA
:1050200000000000000007C0001FF000381800203A
:1050300008002008002009001011001FFF003FFF9A
:1050400000000100000000200800200800200800E7
:105050003FF8003FF8000808001008002008002072
:1050600000003000003000000000000000000000E0
:10507000000C78001E1800330800230800210800E7
:1050800021880021980030F0003860000000000006
:105090000000200000200000200000FFF003FFF8C7
:1050A0000020080020080020080000300000000058
:1050B0000000000000002000003FF0007FF800002A
:1050C00018000008000008002010003FF8007FF0E2
:1050D0000000100000000000000020000030000070
:1050E0003C00003F800023F00000780000700023A7
:1050F00080003C00003000002000002000003C0048
:10510000003FE00023F80000E0002700003E000020
:105110003FE00021F80001E0003E00002000000018
:1051200000002008002008003838003E6800278072
:105130000003C8002CF800383800201800200800B0
:105140000000000000002000003003003C01003F90
:10515000830023EC000070002380003C000020004E
:1051600000200000000000000000000000380800DF
:1051700020380020F80023E8002F88003E0800387F
:10518000080020180000700000000000000000006F
:105190000000000000000000000008000014001FD4
:1051A000F7FC3000062000020000000000000000B4
:1051B00000000000000000000000000000000000EF
:1051C000FFFFFF00000000000000000000000000E2
:1051D00000000000000000002000023000061FF761
:1051E000FC001400000800000000000000000000A7
:1051F00000000000000000000018000060000040F7
:105200000000400000200000100000080000040022
:10521000000400000C000010000000003C520008D8
:1052200000000024581C0000D40200081456000896
:10523000581C0024280C00003003000811100A0339
:10524000050911FF118905C312E012F072F8073D3C
:105250004428FF11AA44700B83013844829292744F
:10526000018328087C44FF017D7D7D044905647D20
:1052700001FF9A0102818A010B013669419949FABD
:105280000101011D38083F3F0303F31311011E0103
:10529000F1116181312D816111F1393B4141072CBF
:1052A00001C1211EAB21C114390139360738D3336E
:1052B00003033F3F23E0E06A7FA81A7FBF4C061834
:1052C000060A213640407F40401C1F204001AB2091
:1052D0001F14113A600E6C300C034601361C070790
:1052E000060178090404048444444484071C0484AB
:1052F000C405790E09110A791129400341070726CF
:1053000010181412112E0F1010100F0F331F10262B
:10531000081012120D22186B0D120A592959070193
:10532000605A8001013D20087F030C300C037F256B
:1053300038545458257C04047805223C40407C179E
:10534000FFAAAAAA28080A2CFF681E264949493242
:10535000101D020408100F100A03050911FF11891E
:1053600005C312E012F072F8073D4428FF11AA4469
:10537000700B830138448292927401831E7C44FF37
:10538000017D01990559BB9A0102818A010B013601
:1053900069419949FA010101204BF808011135F8DA
:1053A00018608035806018F82B202006312BE01023
:1053B0001EAB10E014613937043E8868186A7FA775
:1053C0001A7FBE4C0618060A114640407F40401C1A
:1053D0001F204001AB201F141162603A602F01446E
:1053E0001E40202020C0ED190729EA2A4005115A45
:1053F000600E8918792959070149260C0A0A090CF7
:10540000360F0808080F2C080F08151D0809090E8B
:105410000719181C09090918190A5929590701609F
:105420005A8001013D20087F030C300C037F253892
:10543000545458257C04047805223C40407C17FFD6
:10544000AAAAAA28080A2CFF681E26494949321030
:105450001D020408100F3C90D00304F13210220109
:105460001BF010012AFF0552F01B0F04012AFF0553
:10547000320F18094040405F55555575041A5F0CAE
:105480001911180C200F094989790909090F200FF2
:10549000112FFE02424ACA4A032C4202FEB2380CC5
:1054A00040504C4340404F50505C40B71BF888017F
:1054B0002AFF0552F81B1F08012A7F10149F80F055
:1054C0003B8082016009E2A2928A868280801B4032
:1054D00080B661172424A4FEA3221B22CC5A4115B6
:1054E000080601FF2A019E1604FF02020239BC5B76
:1054F000900863120810100444827F0180804043AA
:105500002C102846818019281E84E43C2724011A87
:10551000E40C11140402011AFFBD19C4496415FEFC
:10552000225A862BFE920129BF111DFF040807C5D0
:105530001F20030C142241E1178040201806802D03
:10554000071820409E1201100B20702826212020D1
:105550002438602301013B10123C3D92121202409C
:10556000211A3F948B103FC54BC080014BFC84082F
:105570000336C0C03CFF7F40014AFF075B40FF602D
:105580000138034A7F700373FCF86CFFFE02018B45
:10559000FFFF0B0268036C1F1F04017BFFFF0B0260
:1055A000741F038C7F3F07FFF8F8F0F0702001E6CE
:1055B0000214801AFF0109122C09132D01FF01C0EA
:1055C000EDFFFFFE06011AFF01F915391603FF076B
:1055D0000201D10C12FFFFFF140910150915160165
:1055E000FF01C1EDFFFFFF1801191409101539164D
:1055F00001FF01D204120201011AFF010112091276
:105600002A01FF01D71AFF0101FF01FD05FF1F1F3E
:045610000F0F01E394
:040000050800029954
:00000001FF
