:020000040800F2
:10000000306D00206D020008092500080920000855
:10001000052500089D030008E12D000800000000F0
:10002000000000000000000000000000AD0100081A
:10003000A1030008000000000902000817250008BD
:10004000870200088702000887020008870200086C
:10005000870200088702000887020008870200085C
:10006000870200088702000887020008870200084C
:10007000870200088702000887020008870200083C
:1000800087020008870200088702000800000000BD
:1000900000000000000000000000000087020008CF
:1000A000870200080126000887020008F1250008E1
:1000B0001926000887020008292600088702000880
:1000C00087020008870200088702000887020008EC
:1000D00087020008B12D0008C12D000800000000B3
:1000E000870200088702000887020008000000005D
:1000F000000000000000000000000000870200086F
:10010000000000008702000887020008870200083C
:1001100000000000000000000000000000000000DF
:10012000870200088702000887020008870200088B
:10013000870200080000000000000000000000002E
:10014000000000000000000000000000870200081E
:10015000870200088702000887020008D12D0008E6
:10016000870200088702000800000000000000006D
:10017000000000000000000000000000000000007F
:1001800000000000870200080000000000000000DE
:100190008702000887020008DFF80CD000F0ECF8B6
:1001A00000480047412E0008306D00202C4B196894
:1001B0000868B0E8F04F80F30988BFF36F8F4FF005
:1001C000000080F3118870470000000008480068B4
:1001D000006880F308884FF0000080F3148862B64E
:1001E00061B6BFF34F8FBFF36F8F00DF00BF00BF5B
:1001F00008ED00E0DFF80C00016841F470010160D7
:10020000704700BF88ED00E0EFF30980BFF36F8F08
:10021000134B1A681EF0100F08BF20ED108A20E95A
:10022000F04F106009B44FF0500080F31188BFF315
:100230004F8FBFF36F8F03F075FF4FF0000080F317
:10024000118809BC19680868B0E8F04F1EF0100F5B
:1002500008BFB0EC108A80F30988BFF36F8F704736
:1002600034000020EFF30580704700000648804707
:1002700006480047FEE7FEE7FEE7FEE7FEE7FEE78B
:10028000FEE7FEE7FEE7FEE7DD250008990100082E
:100290002DE9F05F0546002092469B4688460646BB
:1002A000814640241BE0284641464746224600F04E
:1002B00053F853465A46C01A914110D31146184676
:1002C000224600F03AF82D1A67EB01084F46224605
:1002D0000120002100F031F817EB00094E41201EEB
:1002E000A4F10104DFDC484631462A464346BDE816
:1002F000F09F40EA01039B0703D009E008C9121FE1
:1003000008C0042AFAD203E011F8013B00F8013BCF
:10031000521EF9D27047D2B201E000F8012B491EFB
:10032000FBD270470022F6E710B513460A46044692
:100330001946FFF7F0FF204610BD202A04DB203AC3
:1003400000FA02F1002070479140C2F1200320FA28
:1003500003F3194390407047202A04DB203A21FA26
:1003600002F00021704721FA02F3D040C2F12002CE
:100370009140084319467047064C074D06E0E06877
:1003800040F0010394E8070098471034AC42F6D3DC
:10039000FFF706FF7C5100089C51000800BFFEE7F4
:1003A000704772B600BFFEE770B50446A56D00F059
:1003B0004FF9064694F83500022808D08020606581
:1003C00000BF002084F8340000BF012070BD206809
:1003D000006820F01600216808602068406920F05D
:1003E000800021684861206C08B9A06C28B12068A1
:1003F000006820F00800216808602068006820F08C
:1004000001002168086010E000F022F9801B052837
:100410000BD920206065032084F8350000BF002040
:1004200084F8340000BF0320D0E72068006800F0A3
:1004300001000028E8D194F85C103F208840A860B3
:10044000012084F8350000BF002084F8340000BF8C
:1004500000BFBBE7014691F83500022803D0802099
:10046000486501207047052081F83500086800685C
:1004700020F001000A6810600020F3E7F8B502469A
:100480000B460025002400200021C6E0012606FAC4
:1004900001F51E6806EA0504AC4274D11E7906F027
:1004A0000306012E04D01E7906F00306022E13D196
:1004B00090684F000326BE40B0434F00DE68BE4048
:1004C00030439060506801268E40B0431E79C6F3D9
:1004D00000168E40304350601E7906F00306032E4E
:1004E00009D0D0684F000326BE40B0434F009E683D
:1004F000BE403043D0601E7906F00306022E13D1B1
:10050000CF0802F1200656F827004E07F70E0F26F7
:10051000BE40B0434F07FF0E1E69BE403043CF08B8
:1005200002F1200646F8270010684F000326BE405F
:10053000B0431E7906F003064F00BE403043106002
:100540005E6806F44036002E66D000BF0026009696
:10055000344E366846F48046324F3E603E4636683A
:1005600006F48046009600BF00BF2F4E8F0856F855
:1005700027008E07370F0F26BE40B0432B4EB242E6
:1005800002D1002615E047E0294EB24201D10126F2
:100590000FE0284EB24201D102260AE0264EB242B6
:1005A00001D1032605E0254EB24201D1042600E028
:1005B00007268F073F0FBE4030431B4E8F0846F87B
:1005C00027001F4E3068A0435E6806F4803606B1EF
:1005D00020431B4E3060361D3068A0435E6806F431
:1005E000003606B12043164E361D3060361D306889
:1005F000A0435E6806F4801606B12043104E08360C
:100600003060361D3068A0435E6806F4001606B1FF
:1006100020430B4E0C363060491C1029FFF436AFD6
:10062000F8BD000044380240083801400000024094
:100630000004024000080240000C0240001002408A
:10064000003C01400AB1816101E00B048361704705
:1006500001480068704700002400002070B504467F
:100660000CB9012070BD94F83D0028B9002084F831
:100670003C00204600F0DAF8242084F83D00206891
:10068000006820F00100216808602068006840F4DC
:100690000040216808602068006820F4004021685C
:1006A000086000F031FB05465C496068884206D866
:1006B0005B48854201D2012007E0002005E059484F
:1006C000854201D2012000E00020012800D1C9E7C5
:1006D0005548B5FBF0F62068406820F03F003043F5
:1006E000216848604D496068884201D8701C07E065
:1006F0004FF4967070434FF47A71B0FBF1F0401CE8
:100700002168096A21F03F010843216808624349D2
:100710006068884214D8681E61684900B0FBF1F037
:10072000401CC0F30B00042801D204203DE0681EE9
:1007300061684900B0FBF1F0401CC0F30B0034E0ED
:10074000A06838B9681E616801EB4101B0FBF1F0A7
:10075000401C0AE0681E616801EBC10202EB011156
:10076000B0FBF1F0401C40F48040C0F30B0008B92E
:1007700001201AE0A06848B9681E616801EB4101D8
:10078000B0FBF1F0401CC0F30B000CE0681E616888
:1007900001EBC10202EB0111B0FBF1F0401CC0F310
:1007A0000B0040F4804040F400402168C9694CF6D9
:1007B000FF72914308432168C861D4E907010843E7
:1007C0002168096821F0C001084321680860D4E964
:1007D000031008432168896848F2FF3291430843B7
:1007E00021688860D4E9050108432168C96821F0BF
:1007F000FF0108432168C8602068006840F00100DC
:100800002168086000202064202084F83D0000203A
:10081000206384F83E0000BF24E70000A0860100AA
:1008200080841E0000093D0040420F0010B586B0D4
:100830000446142101A8FFF775FD3C492068884251
:100840002FD100BF002000903948006840F002001E
:10085000374908600846006800F00200009000BFB9
:1008600000BFC020019012200290012003900320BD
:1008700004900420059001A92E48FFF7FFFD00BF5A
:10088000002000902A481030006840F400102849E9
:10089000103108600846006800F40010009000BFA6
:1008A00041E02549206888423DD100BF00200090EA
:1008B0001F48006840F002001D49086008460068B3
:1008C00000F00200009000BF00BF08150190122048
:1008D000029001200390032004900420059001A9B8
:1008E0001448FFF7CBFD0820019012200290012050
:1008F0000390032004900920059001A90D48FFF7FB
:10090000BDFD00BF0020009009481030006840F491
:1009100080000749103108600846006800F4800034
:10092000009000BF00BF06B010BD000000540040A2
:10093000303802400004024000580040034800687C
:1009400003490978084401490860704724000020E1
:100950002C00002010B50D48006840F400700B49D1
:1009600008600846006840F4806008600846006837
:1009700040F480700860032000F0C8F8002000F008
:1009800007F800F04BF8002010BD0000003C0240CA
:1009900070B588B0044600250026002221461920A3
:1009A00000F076F8192000F063F800BF00200190F5
:1009B0001648006840F40030144908600846006892
:1009C00000F40030019000BF00BF02A903A800F0AE
:1009D00073F900F0A9F905460D48B5FBF0F0461E85
:1009E0000C480D49086040F2E7310B48C160466091
:1009F00000210161816000F09DFC20B9064800F0F3
:100A0000CDFC08B070BD0120FBE700004438024077
:100A100040420F00004401401020002008B500BFF4
:100A2000002000901148006840F480400F490860A1
:100A30000846006800F48040009000BF00BF00BF7F
:100A400000200090081F006840F08050091F0860D7
:100A50000846006800F08050009000BF00BF0022F0
:100A60000F21901E00F014F808BD00004438024029
:100A700001460846002809DB00F01F0301229A40C6
:100A800043099B0003F1E023C3F8002100BF704736
:100A90002DE9F05F80460D461646002702F0A2F9C8
:100AA000074639462A46334601F00700C0F1070AD7
:100AB000BAF1040F02D94FF0040A01E0C0F1070AAD
:100AC000D14600F1040ABAF1070F02D24FF0000A32
:100AD00001E0A0F1030AD4464FF0010A0AFA09FA2C
:100AE000AAF1010A0AEA020A0AFA0CFA4FF0010B0B
:100AF0000BFA0CFBABF1010B0BEA030B4AEA0B04FC
:100B00002146404602F076F9BDE8F09F00BF00F0B4
:100B10000702064B19684FF6FF031940044B0B43BD
:100B200043EA0221014B196000BF70470CED00E061
:100B30000000FA0570B504460D460CB9012070BDE1
:100B40005848006800F00700A84209D255490D70C6
:100B50000846006800F00700A84201D00120EEE737
:100B6000207800F0020002281DD1207800F0040057
:100B7000042805D14C48006840F4E0504A49086018
:100B8000207800F00800082805D14748006840F4A4
:100B90006040454908604448006820F0F000A168C2
:100BA000084341490860207800F00100A8B360685C
:100BB000012807D13C4808380068C0F34040B8B964
:100BC0000120BCE76068022802D06068032807D1D2
:100BD000354808380068C0F3406048B90120AEE7E6
:100BE000314808380068C0F3400008B90120A6E782
:100BF0002D48006820F00300616808432A49086016
:100C0000FFF726FD064609E0FFF722FD801B41F2B3
:100C10008831884202D9032091E707E02248006822
:100C200000F00C006168B0EB810FEDD11D48006849
:100C300000F00700A84209D91A490D70084600685B
:100C400000F00700A84201D0012078E7207800F0EA
:100C50000400042807D11448006820F4E050E1683B
:100C6000084311490860207800F00800082808D1DE
:100C70000D48006820F46040216940EAC1000A493B
:100C8000086000F061F808490968C1F30311074AD8
:100C9000515CC8400649086006480068FFF778FEC6
:100CA00000204CE7003C024008380240F0500008A9
:100CB00030000020280000200F2202600D4A126838
:100CC00002F0030242600B4A126802F0F0028260F6
:100CD000084A126802F4E052C260064A126802F43E
:100CE0006042D2080261044A126802F007020A60F8
:100CF0007047000008380240003C0240014800688C
:100D0000704700003000002000B5FFF7F7FF0449EE
:100D10000968C1F38221034A515CC84000BD00004C
:100D2000083802400051000800B5FFF7E7FF04490A
:100D30000968C1F34231034A515CC84000BD00005C
:100D400008380240005100082DE9F0470024002532
:100D50000026A1462548006800F00C0020B10428B8
:100D600005D008283AD105E0DFF8849039E0DFF8B3
:100D7000849036E01D48001F006800F03F041B48C7
:100D8000001F006800F4800078B11A481749091F55
:100D90000968C1F38811A0FB0170014622460023B7
:100DA0003846FFF775FA05460EE011480F49091F4E
:100DB0000968C1F38811A0FB017001462246002397
:100DC0003846FFF765FA05460848001F0068C0F37B
:100DD0000140401C4600B5FBF6F902E0DFF8109038
:100DE00000BF00BF4846BDE8F08700000838024059
:100DF0000024F40040787D01F8B504460CB90120C8
:100E0000F8BD207800F00100002874D0F94800688F
:100E100000F00C0004280DD0F648006800F00C002B
:100E2000082813D1F348001F006800F48000B0F5D3
:100E3000800F0BD1EF4808380068C0F3404000280D
:100E400059D06068002856D10120D9E700BF6068FA
:100E5000B0F5803F08D1E7480838006840F480309A
:100E6000E449083908601EE06068B0F5A02F0DD194
:100E7000E0480838006840F48020DE4908390860FE
:100E80000846006840F4803008600CE0D948083813
:100E9000006820F48030D7490839086008460068A7
:100EA00020F48020086000BF606890B1FFF7D0FB9D
:100EB000054606E0FFF7CCFB401B642801D9032060
:100EC0009EE7CC4808380068C0F340400028F1D0C5
:100ED00011E0FFF7BDFB054606E0FFF7B9FB401B3D
:100EE000642801D903208BE7C24808380068C0F3A2
:100EF00040400028F1D1207800F0020002285FD1A4
:100F0000BC48006800F00C0058B1BA48006800F016
:100F10000C0008281CD1B748001F006800F48000AE
:100F2000B0B9B44808380068C0F3400020B1E068A8
:100F3000012801D0012063E7AE480838006820F09E
:100F4000F800216940EAC100AA490839086037E081
:100F5000E06800B30120A8490860FFF779FB054667
:100F600006E0FFF775FB401B022801D9032047E785
:100F7000A04808380068C0F340000028F1D09D4820
:100F80000838006820F0F800216940EAC10099495A
:100F90000839086014E0002097490860FFF758FB03
:100FA000054606E0FFF754FB401B022801D9032049
:100FB00026E7904808380068C0F340000028F1D1C7
:100FC000207800F0080008282CD16069A8B1012021
:100FD0008A490860FFF73CFB054606E0FFF738FB4F
:100FE000401B022801D903200AE782486C300068C0
:100FF000C0F340000028F1D014E000207F490860D1
:10100000FFF726FB054606E0FFF722FB401B022800
:1010100001D90320F4E677486C300068C0F3400043
:101020000028F1D1207800F00400042870D10027B6
:1010300070483830006800F0805090B900BF002040
:1010400000906C483830006840F080506949383171
:1010500008600846006800F08050009000BF00BFA4
:1010600001276748006800F48070B0B964480068E0
:1010700040F4807062490860FFF7EAFA054606E02E
:10108000FFF7E6FA401B022801D90320B8E65C48C6
:10109000006800F480700028F2D000BFA06801282A
:1010A00008D154486830006840F001005149683167
:1010B00008601DE0A06805280DD14E486830006822
:1010C00040F004004B49683108600846006840F071
:1010D000010008600CE047486830006820F001001B
:1010E0004449683108600846006820F00400086040
:1010F00000BFA068A8B1FFF7ABFA054609E0FFF70B
:10110000A7FA401B41F28831884202D9032077E6D2
:1011100026E0384868300068C0F340000028EED070
:1011200013E0FFF795FA054608E0FFF791FA401B38
:1011300041F28831884201D9032061E62D486830A8
:101140000068C0F340000028EFD1012F07D12948E3
:101150003830006820F0805026493831086000BFE0
:10116000A069002845D02348006800F00C0008283A
:101170005DD0A069022845D100201F490866FFF70D
:1011800067FA054606E0FFF763FA401B022801D91B
:10119000032035E6174808380068C0F3406000288F
:1011A000F1D1D4E907010843616A40EA81110122C3
:1011B000A06AC2EB500041EA00412C20005D41EAE8
:1011C00000600C49091F086001200B490866FFF701
:1011D0003FFA054606E0FFF73BFA401B022801D91B
:1011E00003200DE6034808380068C0F3406000287B
:1011F000F1D049E00838024000004742800E4742E3
:1012000000700040002021490866FFF721FA0546DA
:1012100006E0FFF71DFA401B022801D90320EFE585
:101220001B480068C0F340600028F2D12CE0A069A0
:10123000012800D1E4E51648001D0668A0690128D0
:1012400020D006F48001E06981421BD106F03F0105
:10125000206A814216D147F6C0703040616AB0EB17
:10126000811F0FD106F440310122A06AC2EB500069
:10127000B1EB004F06D106F070612C20005DB1EBA0
:10128000006F01D00120BBE50020B9E50000474216
:10129000003802407047704730B502460B4600BF29
:1012A00092F83C00012801D1022030BD012082F8D3
:1012B0003C0000BF022082F83D00106844681068BE
:1012C000816824F070041868044310684460144D69
:1012D0001068A84213D01068B0F1804F0FD0114DA4
:1012E0001068A8420BD0104D1068A84207D00F4DCF
:1012F0001068A84203D00E4D1068A84205D121F015
:1013000080015868014310688160012082F83D0027
:1013100000BF002082F83C0000BF00BFC5E700000E
:10132000000001400004004000080040000C0040A4
:101330000040014010B504460CB9012010BD94F8DE
:101340003D0028B9002084F83C00204600F025F834
:10135000022084F83D00211D206801F06DF9012074
:1013600084F8460000BF84F83E0001213F2001556B
:10137000402001554120015500BF00BF012084F8E5
:10138000420043200155442001554520015500BF2E
:10139000012084F83D000020D0E77047014691F815
:1013A0003D00012801D001207047022081F83D0056
:1013B0000868C06840F001000B68D860164B0868E8
:1013C000984213D00868B0F1804F0FD0134B0868D3
:1013D00098420BD0124B0868984207D0114B08680E
:1013E000984203D0104B086898420CD10868806876
:1013F00000F00702062A0CD00868006840F00100DF
:101400000B68186005E00868006840F001000B6890
:1014100018600020C8E70000000001400004004000
:1014200000080040000C00400040014070472DE9DA
:10143000F04104460D461646002700BF94F83C00D4
:10144000012802D10220BDE8F081012084F83C008F
:1014500000BF96B9EB68D5E90012206801F0FAF9EF
:101460002068806920F00C0021688861206880690C
:10147000A96808432168886141E0042E13D1EB6814
:10148000D5E90012206801F023FA2068806920F471
:1014900040602168886120688069A96840EA01206D
:1014A000216888612BE0082E12D1EB68D5E9001283
:1014B000206801F02AFA2068C06920F00C00216839
:1014C000C8612068C069A96808432168C86116E03E
:1014D0000C2E13D1EB68D5E90012206801F031FA27
:1014E0002068C06920F440602168C8612068C06934
:1014F000A96840EA01202168C86100E0012700BF17
:10150000002084F83C0000BF38469CE710B5044634
:101510000CB9012010BD94F83D0028B9002084F8D2
:101520003C00204600F026F8022084F83D00211DF2
:10153000206801F081F8012084F8460000BF84F89B
:101540003E0001213F200155402001554120015519
:1015500000BF00BF012084F8420043200155442011
:1015600001554520015500BF012084F83D000020B1
:10157000D0E7000010B586B00446142101A8FEF79C
:10158000D1FE61492068884240D100BF0020009010
:101590005E48006840F001005C4908600846006849
:1015A00000F00100009000BF00BF00BF00200090CD
:1015B00056481438006840F0010054491439086056
:1015C0000846006800F00100009000BF00BF4FF423
:1015D00040700190022002900020039004900120AE
:1015E000059001A94A48FEF749FF0022114619203B
:1015F000FFF74EFA1920FFF73BFA002205211B20C6
:10160000FFF746FA1B20FFF733FA7BE02068B0F1C2
:10161000804F39D100BF002000903C48001F006877
:1016200040F001003949091F08600846006800F0D1
:101630000100009000BF00BF00BF002000903348B1
:101640001438006840F00100304914390860084639
:10165000006800F00100009000BF00BF032001906F
:10166000022002900020039004900120059001A91F
:101670002748FEF703FF002205211C20FFF708FA88
:101680001C20FFF7F5F93DE022492068884239D156
:1016900000BF002000901D48001F006840F00400BB
:1016A0001A49091F08600846006800F0040000900D
:1016B00000BF00BF00BF002000901448143800682D
:1016C00040F002001149143908600846006800F033
:1016D0000200009000BF00BF4FF440700190022054
:1016E00002900020039004900220059001A90A486E
:1016F000FEF7C4FE002205211E20FFF7C9F91E20B7
:10170000FFF7B6F906B010BD0000014044380240B2
:1017100000000240000800400004024010B50446EA
:1017200020680069C0F34000D8B12068C068C0F3E9
:101730004000B0B16FF002002168086101202077FD
:101740002068806900F0030018B12046FFF76EFEA4
:1017500005E0204600F0FCF8204600F0C9F9002022
:10176000207720680069C0F38000D8B12068C06885
:10177000C0F38000B0B16FF004002168086102205E
:1017800020772068806900F4407018B12046FFF788
:101790004DFE05E0204600F0DBF8204600F0A8F9F9
:1017A0000020207720680069C0F3C000D8B120680D
:1017B000C068C0F3C000B0B16FF0080021680861D4
:1017C000042020772068C06900F0030018B120468B
:1017D000FFF72CFE05E0204600F0BAF8204600F0A6
:1017E00087F90020207720680069C0F30010D8B185
:1017F0002068C068C0F30010B0B16FF0100021681D
:101800000861082020772068C06900F4407018B192
:101810002046FFF70BFE05E0204600F099F8204631
:1018200000F066F9002020772068006900F00100D0
:1018300058B12068C06800F0010030B16FF00100BD
:1018400021680861204600F055F920680069C0F35E
:10185000C01058B12068C068C0F3C01030B16FF03C
:101860008000216808612046FFF714FD20680069A8
:10187000C0F3801058B12068C068C0F3801030B148
:101880006FF0400021680861204600F03FF92068B1
:101890000069C0F3401058B12068C068C0F3401020
:1018A00030B16FF02000216808612046FFF7F3FC9B
:1018B00010BD000010B586B00446142101A8FEF743
:1018C00031FD1F492068884238D100BF00200090B8
:1018D0001C48006840F001001A490860084600688A
:1018E00000F00100009000BF00BF00BF002000908A
:1018F0000846006840F0020008600846006800F0F2
:101900000200009000BF00BFC020019002200290A2
:101910000020039004900220059001A90A48FEF7D8
:10192000ADFD03200190022002900020039004905E
:101930000220059001A90548FEF7A0FD06B010BDE4
:101940000004004030380240000002400004024021
:1019500070472DE9F04104460D461646002700BFAA
:1019600094F83C00012802D10220BDE8F08101205A
:1019700084F83C0000BF36B1042E1BD0082E31D0B5
:101980000C2E5ED145E02946206800F0A7FE2068B5
:10199000806940F00800216888612068806920F033
:1019A00004002168886120688069296908432168EA
:1019B000886148E02946206800F0C0FE2068806900
:1019C00040F40060216888612068806920F48060AC
:1019D0002168886120688069296940EA01202168BE
:1019E000886130E02946206800F0DCFE2068C0698C
:1019F00040F008002168C8612068C06920F0040038
:101A00002168C8612068C069296908432168C861E4
:101A100019E02946206800F0F9FE2068C06940F40A
:101A200000602168C8612068C06920F48060216876
:101A3000C8612068C069296940EA01202168C8613D
:101A400001E0012700BF00BF00BF002084F83C0078
:101A500000BF384689E710B504460CB9012010BD17
:101A600094F83D0028B9002084F83C00204600F09E
:101A700025F8022084F83D00211D206800F0DCFDDF
:101A8000012084F8460000BF84F83E0001213F2079
:101A90000155402001554120015500BF00BF0120E4
:101AA00084F842004320015544200155452001554A
:101AB00000BF012084F83D000020D0E708B50A4AA5
:101AC000016891420FD100BF0021009107490968C8
:101AD00041F00201054A11601146096801F0020156
:101AE000009100BF00BF08BD000400404038024024
:101AF0007047000010B5044603492068884201D1B0
:101B0000FEF71CFF10BD0000004401407047704705
:101B1000704700002DE9F84F0446206805682068EA
:101B2000C668206847694FF00009CA4605F00F09EA
:101B3000B9F1000F0AD105F0200038B106F02000FD
:101B400020B1204600F071FFBDE8F88FB9F1000F19
:101B50007CD007F0010018B906F49070002875D009
:101B600005F0010030B106F4807018B1206C40F02F
:101B70000100206405F0040030B107F0010018B145
:101B8000206C40F00200206405F0020030B107F044
:101B9000010018B1206C40F00400206405F008003A
:101BA00048B106F0200010B907F0010018B1206C10
:101BB00040F008002064206C002846D005F020008A
:101BC00028B106F0200010B1204600F02EFF20685A
:101BD0004069C0F3801A206C00F0080010B9BAF117
:101BE000000F2DD0204600F0DAFE2068406900F09A
:101BF0004000402820D100BF00BF2168143151E8C7
:101C0000001F21F040002168143141E80002002A41
:101C1000F3D100BFA06B50B17548A16B0865A06BF4
:101C2000FEF718FC88B1A06B016D88470DE02046D7
:101C3000FFF76EFF09E009E02046FFF769FF04E0C7
:101C40002046FFF765FF002020647DE7206B012818
:101C500076D105F01000002872D006F010000028A0
:101C6000FAD000BF00200090206800680090206833
:101C70004068009000BF00BF2068406900F040004D
:101C800040285ED1A06B006840681FFA80F8B8F168
:101C9000000F54D0A08D404551DDA4F82E80A06BDC
:101CA000C069B0F5807F43D000BF00BF21680C3110
:101CB00051E8001F21F4807021680C3141E80002D6
:101CC000002AF3D100BF00BF00BF2168143151E8E2
:101CD000001F21F001002168143141E80002002AB0
:101CE000F3D100BF00BF00BF2168143151E8001FCD
:101CF00021F040002168143141E80002002AF3D1AC
:101D000000BF202084F83E000020206300BF00BFF9
:101D100021680C3151E8001F21F0100021680C31BE
:101D200041E80002002AF3D100BFA06BFEF73CFBA4
:101D3000A08DE28D801A81B22046FFF7E8FE03E70E
:101D400040E0A08DE18D401A1FFA80F8E08DC0B30D
:101D5000B8F1000F35D000BF00BF21680C3151E849
:101D6000001F21F4907021680C3141E80002002A24
:101D7000F3D100BF00BF00BF2168143151E8001F3C
:101D800021F001002168143141E80002002AF3D15A
:101D900000BF202084F83E000020206300BF00BF69
:101DA00021680C3151E8001F21F0100021680C312E
:101DB00041E80002002AF3D100BF41462046FFF768
:101DC000A6FEC1E605F0800030B106F0800018B133
:101DD000204600F0BDFFB7E605F0400030B106F048
:101DE000400018B1204600F010FEADE600BFABE6A3
:101DF0008B29000810B504460CB9012010BDA0695C
:101E000000B100E000BF94F83D0028B9002084F83C
:101E10003C00204600F028F8242084F83D0020688B
:101E2000C06820F400502168C860204600F07AFEA7
:101E30002068006920F490402168086120684069AA
:101E400020F02A00216848612068C06840F40050F2
:101E50002168C86000202064202084F83D0084F8B8
:101E60003E000020CAE7000010B586B004461421E9
:101E700001A8FEF757FA5E492068884239D100BFB1
:101E8000002000905B48006840F01000594908604D
:101E90000846006800F01000009000BF00BF00BFBF
:101EA0000020009053481438006840F00100514968
:101EB000143908600846006800F00100009000BF77
:101EC00000BF4FF4044001900220029000200390D4
:101ED000032004900720059001A94748FEF7CEFA99
:101EE000002208212520FEF7D3FD2520FEF7C0FDA6
:101EF0007BE04249206888423AD100BF0020009030
:101F00003C48001F006840F400303A49091F08604F
:101F10000846006800F40030009000BF00BF00BF1A
:101F20000020009033481438006840F00100314927
:101F3000143908600846006800F00100009000BFF6
:101F400000BF0C200190022002900020039003208B
:101F500004900720059001A92748FEF78FFA002278
:101F600007212620FEF794FD2620FEF781FD3CE0A8
:101F700023492068884238D100BF002000901D48C6
:101F8000006840F020001B4908600846006800F027
:101F90002000009000BF00BF00BF00200090154847
:101FA0001438006840F001001249143908600846EE
:101FB000006800F00100009000BF00BF4FF4C05067
:101FC000019002200290002003900320049008203A
:101FD000059001A90848FEF751FA00220621472082
:101FE000FEF756FD4720FEF743FD06B010BD00008A
:101FF000001001404438024000000240004400400C
:10200000001401407047704700BFFEE710B51E483E
:1020100000F08CFF1D4908601D4800F087FF1D4936
:1020200008601D4A00211D4800F0D9FF1C490860C6
:102030001C4A00211C4800F0D2FF1C4908601C4AC1
:1020400000211C4800F0CBFF1B4908601B4A0021FF
:102050001B4800F0C4FF1B4908601B4A00211B48B5
:1020600000F0BDFF1A4908601A4A00211A4800F022
:10207000B6FF1A4908601A4A00211A4800F0AFFF5B
:102080001949086010BD0000D05000081C00002055
:10209000E050000820000020D44F00080D25000863
:1020A00000000020F84F00088129000804000020EB
:1020B0001C50000885290008080000204050000836
:1020C000892900080C000020645000087F290008BE
:1020D0001000002088500008872900081400002004
:1020E000AC500008832900081800002000B587B014
:1020F000142102A8FEF716F900BF0020019027481E
:10210000006840F00400254908600846006800F0B7
:102110000400019000BF00BF00BF002001900846EE
:10212000006840F0800008600846006800F0800009
:10213000019000BF00BF00BF00200190084600686A
:1021400040F0010008600846006800F001000190BE
:1021500000BF00BF00BF002001900846006840F0AB
:10216000020008600846006800F00200019000BF0D
:1021700000BF00224FF400510948FEF763FA4FF404
:10218000005002900120039000200490059002A9C5
:102190000348FEF773F907B000BD00003038024075
:1021A0000008024010B50B480B4908600B48486016
:1021B000002109488160C1604FF480410161002124
:1021C00041618161C1610162FEF748FA08B1FEF721
:1021D000E8F810BD005400407C1D0020801A060065
:1021E00010B50B480B4908600B48486000210948AE
:1021F0008160C1604FF480410161002141618161D2
:10220000C1610162FEF72AFA08B1FEF7CAF810BDF3
:1022100000580040D01D0020801A060000B587B08D
:1022200000200590069001900290039004901B48B6
:102230001B490860002048600021194881604FF662
:10224000FF71C1600021016141618161FFF75EF9A9
:1022500008B1FEF7A6F800200590069005A91048E1
:10226000FFF71AF808B1FEF79CF800200190012052
:102270000290002003900490002201A90848FFF773
:10228000D6F808B1FEF78DF8042201A90448FFF73B
:10229000CEF808B1FEF785F807B000BD0000014098
:1022A000241E002000B587B0002005900690019004
:1022B0000290039004904FF080401A49086000207B
:1022C0004860002117488160491EC16000210161FA
:1022D0008161FFF71BF908B1FEF763F80020059054
:1022E000069005A90F48FEF7D7FF08B1FEF759F889
:1022F0000020019001200290002003900490002211
:1023000001A90848FFF793F808B1FEF74AF804223C
:1023100001A90448FFF78BF808B1FEF742F807B0AF
:1023200000BD00006C1E002000B589B000200790A1
:1023300008901C216846FDF7F5FF244824490860F1
:10234000C720486000212248816042F20F71C160BD
:10235000002101618161FFF77EFB08B1FEF721F8E2
:1023600000200790089007A91948FEF795FF08B1CB
:10237000FEF717F860200090002001900290049072
:10238000002269461248FFF7E4FA08B1FEF709F89F
:10239000042269460E48FFF7DCFA08B1FEF701F89F
:1023A000082269460A48FFF7D4FA08B1FDF7F9FF99
:1023B0000C2269460648FFF7CCFA08B1FDF7F1FF99
:1023C0000348FFF777FA09B000BD000000040040A1
:1023D000B41E002000B587B0002005900690019043
:1023E0000290039004901B481B490860002048603D
:1023F0000021194881604FF6FF71C1600021016121
:102400008161FFF783F808B1FDF7CBFF002005904D
:10241000069005A91048FEF73FFF08B1FDF7C1FF80
:1024200000200190012002900020039004900822D7
:1024300001A90948FEF7FBFF08B1FDF7B2FF0C2226
:1024400001A90548FEF7F3FF08B1FDF7AAFF07B0A1
:1024500000BD000000080040FC1E002010B50B4825
:102460000B4908604FF4E130486000210848816062
:10247000C16001610C21416100218161C161FFF7EF
:10248000B9FC08B1FDF78DFF10BD00000010014040
:10249000441F002010B50B480B4908604FF4E13091
:1024A0004860002108488160C16001610C214161E0
:1024B00000218161C161FFF79DFC08B1FDF771FF4B
:1024C00010BD000000440040881F002010B50B48DC
:1024D0000B4908604FF4E1304860002108488160F2
:1024E000C16001610C21416100218161C161FFF77F
:1024F00081FC08B1FDF755FF10BD0000001401403C
:10250000CC1F002000BFFEE700BFFEE700BF012098
:1025100000F0B6FCFBE710B54FF0E020006902F0D8
:1025200003FB012801D001F0F9FE10BD00B593B006
:10253000302107A8FDF7F6FE142102A8FDF7F2FEF0
:1025400000BF002001902348006840F080502149DE
:1025500008600846006800F08050019000BF00BF8E
:1025600000BF002001901C48006840F440401A4918
:1025700008600846006800F44040019000BF00BFBA
:10258000012007900004089002200D9041050E9153
:102590000C210F91602110910221119104211291BF
:1025A00007A8FEF729FC08B1FDF7FBFE0F200290FB
:1025B00002200390002004904FF4805005900020EA
:1025C0000690032102A8FEF7B5FA08B1FDF7E9FE6F
:1025D00013B000BD4038024000700040034800685E
:1025E00040F47000014908607047000088ED00E089
:1025F00010B50248FFF792F810BD0000241E00201D
:1026000010B50348FFF78AF80248FFF787F810BDB6
:10261000241E00201020002010B50248FFF77EF88D
:1026200010BD00006C1E002010B50248FFF776F8C0
:1026300010BD0000FC1E002010B50268204B98421F
:102640000BD0B0F1804F08D01E4B984205D01E4BE6
:10265000984202D01D4B984203D122F070024B6881
:102660001A43174B984214D0B0F1804F11D0154B3C
:1026700098420ED0144B98420BD0144B984208D07D
:10268000134B984205D0134B984202D0124B9842FC
:1026900003D122F44072CB681A4322F080034C69C4
:1026A00043EA040202608B68C3620B688362044BD6
:1026B000984201D10B6903630123436110BD0000FF
:1026C000000001400004004000080040000C0040F1
:1026D00000400140004401400048014030B5056A17
:1026E00025F001050562026A4368846924F07004DC
:1026F00024F003040D682C4322F002028D682A4363
:102700000D4DA84206D100BF22F00802CD682A4331
:1027100022F00402084DA84207D123F4807323F469
:1027200000734D692B438D692B43436084614D6871
:102730004563026230BD00000000014030B5056A0B
:1027400025F010050562026A4368846924F4E044B8
:1027500024F440740D6844EA052422F020028D68B8
:1027600042EA05120E4DA84207D100BF22F08002B6
:10277000CD6842EA051222F04002094DA84209D173
:1027800023F4806323F400634D6943EA85038D6974
:1027900043EA8503436084614D688563026230BD0E
:1027A0000000014030B5056A25F480750562026AB3
:1027B0004368C46924F0700424F003040D682C43BA
:1027C00022F400728D6842EA05220F4DA84207D11B
:1027D00000BF22F40062CD6842EA052222F4806242
:1027E000094DA84209D123F4805323F400534D69C5
:1027F00043EA05138D6943EA05134360C4614D68DC
:10280000C563026230BD00000000014030B5056ABA
:1028100025F480550562036A4468C26922F4E042E7
:1028200022F440720D6842EA052223F400538D68B9
:1028300043EA0533064DA84204D124F480444D698F
:1028400044EA85144460C2614D680564036230BD8A
:102850000000014070B50C461546066A26F00106D8
:1028600006628169026A154EB0420ED0B0F1804F07
:102870000BD0134EB04208D0124EB04205D0124ECB
:10288000B04202D0114EB04201D1012600E0002634
:102890001EB121F00301294301E041F0010121F0C3
:1028A000F001F02606EA0316314322F00A0204F092
:1028B0000A0632438161026270BD000000000140DF
:1028C0000004004000080040000C004000400140AF
:1028D00070B50C461546066A26F010060662816938
:1028E000026A21F4407141EA052121F470414FF45C
:1028F000704606EA0336314322F0A002A02606EA1B
:10290000041632438161026270BD70B50C461546F3
:10291000066A26F480760662C169026A21F0030124
:10292000294321F0F001F02606EA0316314322F490
:1029300020624FF4206606EA04263243C161026237
:1029400070BD70B50C461546066A26F480560662C0
:10295000C169026A21F4407141EA052121F4704104
:102960004FF4704606EA0336314322F420424FF416
:10297000204606EA04363243C161026270BD7047E8
:102980007047704770477047704770B50546AC6B2D
:102990000020E085E0842046FFF7BAF870BD00BF54
:1029A00000BF02680C3252E8002F22F490710268D6
:1029B0000C3242E80013002BF3D100BF00BF00BF70
:1029C0000268143252E8002F22F00101026814322A
:1029D00042E80013002BF3D100BF016B01290ED197
:1029E00000BF00BF02680C3252E8002F22F0100135
:1029F00002680C3242E80013002BF3D100BF202103
:102A000080F83E1000210163704710B5044620682D
:102A1000C06820F040002168C860202084F83D0094
:102A20002046FFF7F0FA002010BDF8B5044694F8F0
:102A30003E00222873D1A068B0F5805F0CD12069D8
:102A400050B90025A66A20684068C0F308003080AD
:102A5000A06A801CA06215E0A56A0026A068B0F5F7
:102A6000805F03D0A06828B9206918B92068406841
:102A7000287004E02068406800F07F002870A06A99
:102A8000401CA062E08D401E80B2E085002844D149
:102A90002068C06820F020002168C8602068C068F5
:102AA00020F480702168C8602068406920F001002F
:102AB00021684861202084F83E00206B012826D13F
:102AC0000020206300BF00BF21680C3151E8001FC7
:102AD00021F0100021680C3141E80002002AF3D1F6
:102AE00000BF2068006800F0100010280AD100BF65
:102AF00000200090206800680090206840680090E6
:102B000000BF00BFA18D2046FFF701F802E020467C
:102B1000FFF778FA0020F8BD01E00020FBE7022073
:102B2000F9E700002DE9F84F04462068006920F419
:102B30004050E1680843216808612169A0680843A2
:102B400061690843E169084300902068C06849F260
:102B50000C618843009908432168C8602068406977
:102B600020F44070A16908432168486176492068D3
:102B7000884203D075492068884203D1FEF7D4F813
:102B8000814602E0FEF7C0F88146E069B0F5004FEB
:102B90006CD102206168A0FB015003461920A9FBFB
:102BA000007001462A463846FDF772FB6421B0FBEF
:102BB000F1F04FEA001A02206168A0FB01510B46B8
:102BC0001920A9FB00712A463846FDF761FB8346B0
:102BD00002206168A0FB015003461920A9FB007187
:102BE0002A463846FDF754FB6421B0FBF1F000EBB8
:102BF000C00101EB0010ABEB8000322101EBC00003
:102C00006421B0FBF1F000F0F8000AEB400A02206A
:102C10006168A0FB015003461920A9FB0070014622
:102C20002A463846FDF734FB834602206168A0FB44
:102C3000015003461920A9FB00712A463846FDF7CA
:102C400027FB6421B0FBF1F000EBC00101EB0010A9
:102C5000ABEB8000322101EBC0006421B0FBF1F04E
:102C600000F007005044216888606AE00420616831
:102C7000A0FB015003461920A9FB007001462A461B
:102C80003846FDF705FB824604206168A0FB015031
:102C900003461920A9FB007001462A463846FDF775
:102CA000F7FA6421B0FBF1F000EBC00101EB00107A
:102CB000AAEB8000322101EB00106421B0FBF1F09F
:102CC00000F0F00A04206168A0FB0170034619209F
:102CD000A9FB00513A462846FDF7DAFA6421B0FB19
:102CE000F1F00AEB001A04206168A0FB01510B46C9
:102CF0001920A9FB00712A463846FDF7C9FA834618
:102D000004206168A0FB015003461920A9FB007054
:102D100001462A463846FDF7BBFA6421B0FBF1F0C4
:102D200000EBC00101EB0010ABEB8000322101EBA6
:102D300000106421B0FBF1F000F00F005044216856
:102D40008860BDE8F88F00000010014000140140C9
:102D5000014691F83D00212828D18868B0F5805FB0
:102D60000BD1086948B90A6A1088C0F308000B68DB
:102D70005860086A801C086205E00B6A581C0862EB
:102D800018780B685860C88C401E80B2C88458B947
:102D90000868C06820F080000B68D8600868C068C8
:102DA00040F040000B68D860002070470220FCE72C
:102DB00010B50248FEF7AEFE10BD0000441F002013
:102DC00010B50248FEF7A6FE10BD0000881F0020C7
:102DD00010B50248FEF79EFE10BD0000CC1F00207B
:102DE00000BFFEE702480068C0F302207047000001
:102DF0000CED00E010B5002804DB0A07130E054AAD
:102E0000135406E00A07140E034A00F00F031B1FB9
:102E1000D45410BD00E400E018ED00E0EFF30580AD
:102E2000704702E008C8121F08C1002AFAD1704793
:102E30007047002001E001C1121F002AFBD170473A
:102E4000FDF788FDFFF772FBFFF750F9FFF7AAF9CE
:102E5000FFF7C6F9FFF7E2F9FFF724FAFFF764FA84
:102E6000FFF7B8FAFFF7FAFAFFF714FBFFF72EFBAC
:102E700000F016F8FFF7CAF800F028F800BFFEE7E8
:102E800070B50546FFF7CAFF10B16FF0050404E006
:102E9000002415B1284601F065F8204670BD0000F9
:102EA00010B5FFF7BBFF10B16FF0050409E006484D
:102EB000006820B9012004490860002401E04FF0B7
:102EC000FF34204610BD00008400002070B5FFF7DD
:102ED000A5FF10B16FF005041FE01148006801283C
:102EE00019D100BF801F0021002804DB0A07130E40
:102EF0000C4A135406E00A07150E0B4A00F00F03A4
:102F00001B1FD55400BF00BF02200549086001F017
:102F1000A5F8002401E04FF0FF34204670BD00000A
:102F20008400002000E400E018ED00E02DE9F04707
:102F300004460026FFF772FF00284DD10CB16768E8
:102F400000E0002707F0010008B1012500E000259E
:102F500007F0080008283FD04FF0FF3874B1A06890
:102F600028B1E068502802D34FF0010808E0A068BB
:102F700030B9E06820B94FF0000801E04FF00008D8
:102F8000B8F1010F0CD12DB10420A16801F0F1F9C5
:102F9000064612E00120A16801F0EBF906460CE0BC
:102FA000B8F1000F09D125B1042001F0D1F906468E
:102FB00003E0012001F0CCF906464EB114B1D4F87B
:102FC000009001E04FF000094946304600F08EFFC6
:102FD00016B10DB146F001063046BDE8F0872DE987
:102FE000FF4780468946144600200390FFF716FFEE
:102FF00000284ED1B8F1000F4BD08026182582460C
:10300000471E44B3206808B1D4F800A0A06900B1FD
:10301000A5692DB1382D03D8207900F0010018B131
:10302000002004B0BDE8F087606908B160698608D7
:10303000A06840B1E0685C2805D3206918B16069D8
:1030400008B1012708E0A06830B9E06820B920691C
:1030500010B9002700E00027012F0CD12169A068DA
:103060004B463246CDE9005102905146404601F0B0
:10307000FDFC03900DE067B903A8B2B24B46514680
:10308000CDE90050404601F0BFFC012801D00020EE
:1030900003900398C5E700002DE9F04105460E4670
:1030A0001648076816480068001D00F0D3FD681C2C
:1030B00038B936B112480168091D124800F020FEE7
:1030C0001AE07C190E4800684460BC4207D20C48E4
:1030D0000168091D0C48006800F0F8FD0CE0084884
:1030E0000168091D0948006800F0F0FD0848006803
:1030F000844201D206480460BDE8F0814800002007
:1031000034000020482500203C000020380000202A
:103110006400002010B5044600F0FEFD244800685D
:10312000401C234908602348006840B921480460D6
:103130000846006801280DD100F00CFA0AE01E488C
:10314000006838B91B480068C06AE16A884201D843
:103150001848046019480068401C1849086008466F
:10316000006860641649E06A0968884202D9144917
:10317000E06A0860E16A01EB8101124A02EB81001A
:10318000211D00F0BDFD00F0F1FD0B48006868B1A5
:1031900008480068C06AE16A884207D24FF0805050
:1031A00009490860BFF34F8FBFF36F8F10BD000058
:1031B0004400002034000020500000206000002067
:1031C0004C0000209820002004ED00E008B500F03D
:1031D000A3FD12480068E8B9114800F067FD1148E6
:1031E00000F064FD0E48104908600E480F49086061
:1031F00000200F4B0F4A102100900A2001F0FBF82D
:10320000064908600846006820B10BA10348006821
:1032100000F06CFE00F0AAFD08BD00007800002060
:103220005C25002070250020700000207400002024
:1032300084250020D4250020546D72510000000028
:1032400010B516E000F068FD0C48C068C468201D89
:1032500000F000FD0A480068401E0949086009485E
:103260000068401E0749086000F080FD204600F01D
:103270005FF8044800680028E4D110BD3425002020
:10328000440000204000002070B504460D46206C2C
:1032900070B1216CE0680144E160D4E90210884219
:1032A00001D32168E1602846226CE168FDF721F82E
:1032B00070BD2DE9F04104460F4615464FF0000859
:1032C000A66B206C48B9206800282CD1A06801F0BA
:1032D000E3FC80460020A06025E07DB93946226CE1
:1032E0006068FDF706F8216C606808446060D4E906
:1032F0000101884217D32068606014E03946226CCF
:10330000E068FCF7F6FF216CE068411AE160216893
:10331000E068884203D2216CA068411AE160022D66
:1033200001D106B1761E701CA0634046BDE8F08155
:1033300010B5044694F8590030B9206B00F034FD04
:10334000204600F031FD1AE094F85900012803D11D
:10335000204600F029FD12E094F85900022801D11E
:10336000012000E0002050B900BF502080F31188F8
:10337000BFF34F8FBFF36F8F00BF00BFFEE710BDDD
:103380000146084A126812680AB9012200E00022C8
:103390000A600A6822B9034A1268D268106800E01D
:1033A000002070477000002030B54FF4705317486C
:1033B00000F007042CB1C01D20F00700134C041BC3
:1033C0001B1B0246124C22600024114D6C60D01869
:1033D000083820F007000F4C206000240D4D2D68A8
:1033E0006C600C4D2D682C601146441A4C60094CE1
:1033F00024680C60084D4C682C60084D4C682C60AB
:103400004FF00044064D2C6030BD00002C2D0020F4
:1034100088000020900000209800002094000020E8
:10342000A400002000BFFFF70BFF0648006801283A
:10343000F9D94FF0805004490860BFF34F8FBFF3B4
:103440006F8FF0E79820002004ED00E010B50446EF
:1034500054B10020A06020600021E16000231A46E2
:103460001946204601F084F810BD2DE9F0410646CA
:103470000D4617469846069C0DB9246000E027606B
:10348000E66325640121204601F026F884F84C808B
:10349000BDE8F0812DE9F05F82460E4690469B46DE
:1034A0000A9F0C9C4FEA8801A522206BFCF733FF92
:1034B000A8F10100216B01EB800929F0070909F04F
:1034C000070008B9012000E0002050B900BF5020DB
:1034D00080F31188BFF34F8FBFF36F8F00BF00BF22
:1034E000FEE786B1002507E0715D04F13400415527
:1034F000705D00B902E06D1C102DF5D300BF0021F6
:103500004320015502E0002084F83400382F00D316
:103510003727E762E76400202065201D00F0D3FB19
:1035200004F1180000F0CFFB2461C7F13800A0615E
:1035300064620020606584F858005A465146484647
:1035400000F072FB20600B9808B10B980460BDE896
:10355000F09F000010B5002407E004EB84010F4A3F
:1035600002EB810000F0A2FB641C382CF5D30C4860
:1035700000F09CFB0B4800F099FB0B4800F096FB19
:103580000A4800F093FB0A4800F090FB0448094900
:10359000086004480849086010BD00009820002019
:1035A000F82400200C2500202025002034250020B0
:1035B00048250020380000203C00002010B50146BE
:1035C000164800E0006803688B42FBD3024643685C
:1035D00013448B4204D143684C6823444360014642
:1035E0000A464B6813440468A34211D10C4C03688B
:1035F0002468A34208D04B680468646823444B6085
:1036000003681B680B6005E0054B1B680B6001E05D
:1036100003680B60884200D0016010BD8800002064
:10362000900000202DE9F04104460D4616461F4645
:103630004FF0000865602461B5420CD8F01BA16909
:10364000884202D34FF0010811E0211D09480068AB
:1036500000F03CFB0BE0BE4204D2BD4202D34FF06F
:10366000010804E0211D0448006800F02FFB4046DB
:10367000BDE8F081740000207000002070B50546A0
:1036800000F04AFBA86B08B9012400E0002400F018
:103690006DFB204670BD70B5054600F03DFBA86B84
:1036A000E96B884201D1012400E0002400F05EFBB8
:1036B000204670BDF8B505460F461A480068C06838
:1036C000C468201D00F0C6FA94F8280000F0040039
:1036D000E8B1A06941192B463A462046FFF7A2FF00
:1036E000D8B1002003462A4601460090204601F04A
:1036F0002FFC064656B900BF502080F31188BFF357
:103700004F8FBFF36F8F00BF00BFFEE705E094F857
:10371000280020F0010084F828002046216A88470C
:10372000F8BD000070000020F0B587B0A0E003985D
:10373000002811DA04AE56B900BF502080F311887A
:10374000BFF34F8FBFF36F8F00BF00BFFEE7D6E917
:103750000020B168904700BF03980028E6DB059C75
:10376000606908B9012000E0002010B9201D00F0B8
:1037700071FA02A800F0DEF8054603980A2875D20F
:10378000DFE800F009050739416306083A4200BF47
:1037900000BF00BF00BF94F8280040F0010084F88B
:1037A00028000498A269811803462A462046FFF79C
:1037B00039FFF8B12046216A884794F8280000F0C4
:1037C0000400B8B1002000900498A16942180023B9
:1037D0001946204601F0BCFB074657B900BF5020F0
:1037E00080F31188BFF34F8FBFF36F8F00BF00BF0F
:1037F000FEE700BF3BE000BF94F8280020F0010086
:1038000084F8280033E000BF94F8280040F001005D
:1038100084F828000498A061A06908B1012000E0A4
:10382000002050B900BF502080F31188BFF34F8FA4
:10383000BFF36F8F00BF00BFFEE7A06941192B46A1
:103840002A462046FFF7EEFE11E094F8280000F02B
:10385000020018B9204600F0A7FA05E094F8280005
:1038600020F0010084F8280001E0FFE700BF00BF5E
:10387000002203A90448006800F0CCFF00287FF470
:1038800056AF07B0F0BD000078000020F8B505463F
:103890000C4600F03FFC684600F04CF806460098E5
:1038A00020BB44B9B54206D801F094FA3146284607
:1038B000FFF700FF1CE03CB10E480068006808B943
:1038C000012000E000200446A91B22460A480068A7
:1038D00000F022FB01F07EFA50B94FF0805007490A
:1038E0000860BFF34F8FBFF36F8F01E001F072FAF2
:1038F000F8BD0000740000207800002004ED00E016
:103900000A490968096809B9012100E0002121B1CB
:103910004FF0FF31064A116006E004490968C968A2
:10392000C868034A416811607047000038000020F1
:103930006400002070B5044601F006F9054607480A
:103940000068854204D200F00BF80120206001E0FD
:103950000020206001480560284670BD80000020DE
:103960002DE9F84334E025480068C068056823481D
:103970000068C068C468201D00F06CF92046216A08
:10398000884794F8280000F0040008B3A06946199D
:10399000AE4207D966602461211D1848006800F016
:1039A00095F915E0002003462A460146009020467E
:1039B00001F0CEFA074657B900BF502080F31188B6
:1039C000BFF34F8FBFF36F8F00BF00BFFEE700BF95
:1039D0000A480068006808B9012000E000200028BB
:1039E000C1D00648D0F80080054800680349086047
:1039F0000348C0F80080BDE8F88300007000002094
:103A0000740000200E480068401C08B9012000E046
:103A1000002050B900BF502080F31188BFF34F8FB2
:103A2000BFF36F8F00BF00BFFEE700BF502080F3E1
:103A30001188BFF34F8FBFF36F8F00BF00BFFEE74A
:103A4000A800002008B500BF6846FFF799FC0446AF
:103A500020460099FFF71AFFFFF766FEF4E770B5FE
:103A6000044600F059F994F9455010E0606A08B92D
:103A7000012000E0002038B904F1240001F05EF9D3
:103A800018B100F0A9FA00E003E0681E45B2002D6D
:103A9000ECDC00BFFF2084F8450000F067F900F07F
:103AA0003BF994F9445010E0206908B9012000E086
:103AB000002048B904F1100001F040F908B100F00D
:103AC0008BFA681E45B200E001E0002DECDC00BF7F
:103AD000FF2084F8440000F049F970BD2DE9F04161
:103AE00004464FF0000800F015FB4948006808B98B
:103AF000FFF75AFC474800682040002870D1D4B135
:103B0000083404F00700B0B104F00700C0F1080069
:103B1000044404F0070008B9012000E0002050B977
:103B200000BF502080F31188BFF34F8FBFF36F8F1A
:103B300000BF00BFFEE7002C52D037480068844227
:103B40004ED8364E3046056801E02E462D6868682E
:103B5000A04202D228680028F7D12D48006885428B
:103B60003ED0306800F10808286830606868001BA3
:103B7000102819D92F1907F0070008B9012000E013
:103B8000002050B900BF502080F31188BFF34F8F41
:103B9000BFF36F8F00BF00BFFEE76868001B78604F
:103BA0006C603846FFF70AFD1B4968680968081A07
:103BB000194908600846006819490968884203D213
:103BC0001548006816490860124968680968084382
:103BD00068600020286013480068401C1149086094
:103BE00001F0F8F808F0070008B9012000E0002013
:103BF00050B900BF502080F31188BFF34F8FBFF33F
:103C00006F8F00BF00BFFEE74046BDE8F0810000B7
:103C100090000020A40000209400002088000020D4
:103C2000980000209C000020001F4FF0807303606C
:103C3000001F21F001030360001F054B03601438CF
:103C40000260001F6FF0020303602038704700001D
:103C5000053A000801460A69D1E901309860D1E9C6
:103C6000010358605068884201D188685060002084
:103C700008611068401E106010687047034B0360B5
:103C8000034B0B60802313607047000074260020F4
:103C9000D0260020034B0360034B0B604FF480736E
:103CA00013607047D02800202C29002000F1080163
:103CB00041604FF0FF31816000F10801C160016196
:103CC00000210160704700210161704710B5024674
:103CD0000B685C1C0CB9106907E002F1080000E0F9
:103CE0004068446824689C42FAD944684C604C6837
:103CF000A160886041600A611468641C146010BD92
:103D000042684A6093688B6093685960916008616B
:103D100003685B1C0360704700BF502080F311886C
:103D2000BFF34F8FBFF36F8F00BF0E480068401C7A
:103D30000C49086008460068012812D10A4800684A
:103D4000C0B208B9012000E0002050B900BF5020E7
:103D500080F31188BFF34F8FBFF36F8F00BF00BF99
:103D6000FEE77047A800002004ED00E00D48006861
:103D700050B900BF502080F31188BFF34F8FBFF3BD
:103D80006F8F00BF00BFFEE706480068401E054970
:103D900008600846006820B9002080F3118800BF41
:103DA00000BF7047A800002070B506463546002EBB
:103DB00044D0083D2C46224960680968084008B193
:103DC000012000E0002050B900BF502080F311888E
:103DD000BFF34F8FBFF36F8F00BF00BFFEE72068B8
:103DE00008B9012000E0002050B900BF502080F346
:103DF0001188BFF34F8FBFF36F8F00BF00BFFEE787
:103E00000F49606809680840C0B12068B0B90C4922
:103E1000606809688843606000F07CF9094960685F
:103E200009680844074908602046FFF7C7FB0648B1
:103E30000068401C0449086000F0CCFF70BD000021
:103E4000A400002094000020A000002000204FF0DB
:103E5000E02108618861064800684FF47A71B0FB80
:103E6000F1F0401E4FF0E0214861072008617047E3
:103E70003000002070B5FCF7F5F90446102C16D37D
:103E800004F1E02090F8F05315480078854201DBFA
:103E9000012000E0002050B900BF502080F31188BD
:103EA000BFF34F8FBFF36F8F00BF00BFFEE70D481A
:103EB000006800F4E0600C490968884201D80120DC
:103EC00000E0002050B900BF502080F31188BFF3FC
:103ED0004F8FBFF36F8F00BF00BFFEE770BD0000C4
:103EE000AC0000200CED00E0B000002002460020F5
:103EF0000BE0084B53F8303033B9064B43F8301021
:103F000003EBC0035A6002E0401C0828F1D300BF55
:103F100070470000582000202DE9F04105460E466C
:103F200017462C46FFF7F8FE94F94400401C10B9E0
:103F3000002084F8440094F94500401C10B900208A
:103F400084F84500FFF712FFA06B28B93A463146C6
:103F500004F1240000F062F82046FFF780FDBDE880
:103F6000F081000070B504460025D4B11248006805
:103F700008B9012000E0002050B900BF502080F3B4
:103F80001188BFF34F8FBFF36F8F00BF00BFFEE7F5
:103F900000F0C0F800212046FFF77EF800F01AFF7D
:103FA00005463DB94FF0805004490860BFF34F8F7C
:103FB000BFF36F8F70BD00006C00002004ED00E0C7
:103FC00003490968016003490968416070470000BE
:103FD0005C00002048000020012001490860704773
:103FE0005800002070B504460D4654B900BF50205B
:103FF00080F31188BFF34F8FBFF36F8F00BF00BFF7
:10400000FEE70548016818312046FFF75FFE0121F1
:104010002846FFF741F870BD3400002070B5054612
:104020000E46144655B900BF502080F31188BFF3E7
:104030004F8FBFF36F8F00BF00BFFEE706480168D8
:1040400018312846FFF75CFE0CB14FF0FF362146D1
:104050003046FFF721F870BD3400002010B586B05F
:1040600000200590049003AA04A905A8FFF706FE06
:104070000022DDE904101346CDE9002102901EA1C3
:104080001F48039A00F0F2FC1E49086008460068C9
:1040900008B1012400E00024012C02D100F01CFF33
:1040A0000446012C15D100BF502080F31188BFF3C6
:1040B0004F8FBFF36F8F00BF4FF0FF301249086082
:1040C00001201249086000201149086000F072F8D0
:1040D00010E0601C08B1012000E0002050B900BFD2
:1040E000502080F31188BFF34F8FBFF36F8F00BF55
:1040F00000BFFEE706B010BD49444C45000000007B
:1041000025340008680000206400002050000020D2
:104110004800002002480068401C014908607047C0
:104120006C0000201E48006818B101201D4908607D
:1041300034E000201B4908601B4801680CE051B9BD
:1041400000BF502080F31188BFF34F8FBFF36F8FF4
:1041500000BF00BFFEE7491E01EB8100134A52F881
:10416000200008B9012000E000200028E7D101EB81
:1041700081020E4B03EB820042685268426000F1FC
:1041800008024368934202D1426852684260426822
:10419000D268074B1A600448016000BF70470000F6
:1041A0006C000020580000204C00002098200020C7
:1041B000340000201CB5524800685249884201D0A2
:1041C000012000E0002050B900BF502080F311888A
:1041D000BFF34F8FBFF36F8F00BF00BFFEE74848AC
:1041E00000684849491E884201D0012000E00020B3
:1041F00050B900BF502080F31188BFF34F8FBFF339
:104200006F8F00BF00BFFEE73F490846007801906E
:10421000FF200A4610700846007800909DF80000C4
:1042200000F0F0009DF80020904201D1012000E054
:10423000002050B900BF502080F31188BFF34F8F8A
:10424000BFF36F8F00BF00BFFEE79DF8000000F0D6
:1042500050002E4A107007202D4A106009E02C48AB
:104260000068401E2A4A10609DF800004006000EBB
:1042700000909DF8000000F080008028EFD02448D6
:104280000068C0F10700042801D1012000E00020EF
:1042900050B900BF502080F31188BFF34F8FBFF398
:1042A0006F8F00BF00BFFEE7194800680002184A80
:1042B00010601046008800F4E0601060124A019817
:1042C00010700F482030006840F470000C49203115
:1042D00008600846006840F070400860FFF7B6FDCF
:1042E00000200C490860FBF785FF0B48006840F090
:1042F000404009490860FBF769FF00201CBD000031
:1043000000ED00E071C20F4100E400E0AC000020CD
:10431000B0000020A800002034EF00E010B500BF7E
:10432000502080F31188BFF34F8FBFF36F8F00BF12
:1043300000F010FC18B14FF080500449086000BF35
:10434000002080F3118800BF10BD000004ED00E0E4
:104350002DE9F041044601260027224600210120D4
:1043600000F01CF805462846FFF770F82846BDE81F
:10437000F0812DE9F84304460D4601274FF000086F
:104380002B46002211460120009400F034F8064626
:104390003046FFF75BF83046BDE8F8832DE9F84377
:1043A00005460E4617460DB1012000E0002050B929
:1043B00000BF502080F31188BFF34F8FBFF36F8F82
:1043C00000BF00BFFEE705FB06F808F15000FFF74D
:1043D00085FB044664B1A14609F15009002084F828
:1043E00046003B464A46314628460094FFF73DF8D2
:1043F0002046BDE8F8832DE9F84380460E4617466F
:104400001D46DDF82090B8F1000F01D0012000E03A
:10441000002050B900BF502080F31188BFF34F8FA8
:10442000BFF36F8F00BF00BFFEE70DB1012000E0BA
:10443000002050B900BF502080F31188BFF34F8F88
:10444000BFF36F8F00BF00BFFEE707B10EB10120C1
:1044500000E0002050B900BF502080F31188BFF366
:104460004F8FBFF36F8F00BF00BFFEE707B90EB9D4
:10447000012000E0002050B900BF502080F31188D7
:10448000BFF34F8FBFF36F8F00BF00BFFEE7502019
:1044900000900098502801D1012000E0002050B980
:1044A00000BF502080F31188BFF34F8FBFF36F8F91
:1044B00000BF00BFFEE700BF2C464CB1012084F8CE
:1044C00046004B463A46314640460094FEF7CDFF43
:1044D0002046BDE8F883000070B505460E462C4620
:1044E00054B900BF502080F31188BFF34F8FBFF342
:1044F0006F8F00BF00BFFEE7FFF70EFCD4E90F127D
:10450000206801FB0200A0600020A06320686060BA
:10451000E06B401E226C216800FB0211E160FF206D
:1045200084F8440084F845009EB9206908B9012048
:1045300000E00020A8B904F1100000F0FFFB80B1FA
:104540004FF0805009490860BFF34F8FBFF36F8F62
:1045500007E004F11000FFF7A9FB04F12400FFF7C6
:10456000A5FBFFF703FC012070BD000004ED00E097
:104570002DE9FF4383B0064688461D464FF00009EB
:10458000344654B900BF502080F31188BFF34F8FD9
:10459000BFF36F8F00BF00BFFEE7B8F1000F01D17E
:1045A000206C08B9012000E0002050B900BF502065
:1045B00080F31188BFF34F8FBFF36F8F00BF00BF31
:1045C000FEE7022D02D1E06B012801D1012000E0BD
:1045D000002050B900BF502080F31188BFF34F8FE7
:1045E000BFF36F8F00BF00BFFEE700F09DFA08B970
:1045F000059808B9012000E0002050B900BF502004
:1046000080F31188BFF34F8FBFF36F8F00BF00BFE0
:10461000FEE700BFFFF780FBA06BE16B884201D390
:10462000022D28D12A4641462046FEF742FE074683
:10463000606A08B9012000E0002068B904F1240094
:1046400000F07CFB88B14FF0805032490860BFF326
:104650004F8FBFF36F8F08E03FB14FF080502D496F
:104660000860BFF34F8FBFF36F8FFFF77FFB012011
:1046700007B0BDE8F083059818B9FFF777FB002075
:10468000F6E7B9F1000F04D101A8FFF799FC4FF04C
:104690000109FFF76BFBFFF73DFDFFF73DFB94F9C9
:1046A0004400401C10B9002084F8440094F94500EF
:1046B000401C10B9002084F84500FFF757FB05A9FE
:1046C00001A800F05BF9F0B92046FEF7E4FFA0B1C5
:1046D00004F110000599FFF785FC2046FFF7BFF9AC
:1046E00000F078FB002895D14FF080500949086010
:1046F000BFF34F8FBFF36F8F8CE72046FFF7AFF903
:1047000000F068FB86E72046FFF7A9F900F062FB9E
:104710000020ADE704ED00E02DE9F84F07468A469A
:1047200090461E463C4654B900BF502080F3118885
:10473000BFF34F8FBFF36F8F00BF00BFFEE7BAF12B
:10474000000F01D1206C08B9012000E0002050B911
:1047500000BF502080F31188BFF34F8FBFF36F8FDE
:1047600000BF00BFFEE7022E02D1E06B012801D19D
:10477000012000E0002050B900BF502080F31188D4
:10478000BFF34F8FBFF36F8F00BF00BFFEE7FFF790
:1047900071FB00BF5021EFF3118081F31188BFF34B
:1047A0004F8FBFF36F8F00BF0546A06BE16B884250
:1047B00001D3022E25D194F945B0A06B009032466A
:1047C00051462046FEF775FD0BF1010088B9606A7D
:1047D00008B9012000E0002050B904F1240000F0E5
:1047E000ADFA28B1B8F1000F02D00120C8F80000DE
:1047F00004E00BF1010040B284F845004FF00109DC
:1048000001E04FF0000900BF85F3118800BF484662
:10481000BDE8F88F2DE9F74183B005460E464FF00D
:1048200000082C4654B900BF502080F31188BFF314
:104830004F8FBFF36F8F00BF00BFFEE70EB9206C34
:1048400008B9012000E0002050B900BF502080F3DB
:104850001188BFF34F8FBFF36F8F00BF00BFFEE71C
:1048600000F062F908B9059808B9012000E00020BD
:1048700050B900BF502080F31188BFF34F8FBFF3B2
:104880006F8F00BF00BFFEE700BFFFF745FAA76BC1
:10489000F7B131462046FEF7F7FC781EA063206989
:1048A00008B9012000E0002060B904F1100000F018
:1048B00045FA38B14FF080502F490860BFF34F8F51
:1048C000BFF36F8FFFF752FA012006B0BDE8F08109
:1048D000059818B9FFF74AFA0020F6E7B8F1000F7B
:1048E00004D101A8FFF76CFB4FF00108FFF73EFA77
:1048F000FFF710FCFFF710FA94F94400401C10B9C0
:10490000002084F8440094F94500401C10B90020B0
:1049100084F84500FFF72AFA05A901A800F02EF84F
:10492000F0B92046FEF7AAFEA0B104F124000599D3
:10493000FFF758FB2046FFF792F800F04BFA0028EB
:10494000A3D14FF080500C490860BFF34F8FBFF3E5
:104950006F8F9AE72046FFF782F800F03BFA94E762
:104960002046FFF77CF800F035FA2046FEF786FE79
:1049700000288AD00020A8E704ED00E070B50546C5
:104980000C4655B900BF502080F31188BFF34F8FFC
:10499000BFF36F8F00BF00BFFEE754B900BF5020C8
:1049A00080F31188BFF34F8FBFF36F8F00BF00BF3D
:1049B000FEE7FFF7B1F9124802686868131A206829
:1049C000401C08B9002617E00E492868096888428B
:1049D00004D06868904201D801260DE02068984212
:1049E00007D92068C01A20602846FFF7E9FA002698
:1049F00002E0002020600126FFF7B8F9304670BDC4
:104A0000480000205C0000202DE9FF4F85B0804663
:104A100089461746DDE912ABB800FFF75FF8064696
:104A200056B15C20FFF75AF804460CB1266304E047
:104A30003046FFF7B9F900E000248CB1002084F87B
:104A40005900CDE900ABCDE902403A46494640461F
:104A5000089BFEF71FFD2046FEF75CFB012501E0E9
:104A60004FF0FF35284609B0BDE8F08F2DE9F04F33
:104A700085B00746884691469A46DDE90EB6109CF9
:104A80000EB1012000E0002050B900BF502080F39B
:104A90001188BFF34F8FBFF36F8F00BF00BFFEE7DA
:104AA0000CB1012000E0002050B900BF502080F37D
:104AB0001188BFF34F8FBFF36F8F00BF00BFFEE7BA
:104AC0005C20039003985C2801D1012000E00020C5
:104AD00050B900BF502080F31188BFF34F8FBFF350
:104AE0006F8F00BF00BFFEE700BFB4B1AEB1254677
:104AF0002C462E63022085F85900002004A9534655
:104B00004A46CDE900B1CDE9025041463846FEF7AC
:104B1000C1FC2846FEF7FEFA01E00020049004984C
:104B200005B0BDE8F08F00000549096809B901200A
:104B300005E00449096809B9022000E00020704737
:104B4000500000206C0000200149086870470000F8
:104B5000480000202DE9F0414FF00008434800686C
:104B600000287BD142480068451C4148056015BBC0
:104B700040480068006808B9012000E0002050B9F2
:104B800000BF502080F31188BFF34F8FBFF36F8FAA
:104B900000BF00BFFEE7374807683748006835495F
:104BA00008603548076035480068401C3349086094
:104BB000FEF7A6FE00BF3248006885423BD300BF27
:104BC0002C480068006808B9012000E0002020B1EE
:104BD0004FF0FF302A4908602CE026480068C06882
:104BE000C4686668B54202D22548066022E0201DEE
:104BF000FFF730F8A06A18B104F11800FFF72AF89F
:104C00002049E06A0968884202D91E49E06A0860C2
:104C1000E16A01EB81011C4A02EB8100211DFFF7D3
:104C20006FF81A49E06A0968C96A8842C8D34FF028
:104C30000108C5E700BF15480068C06A00EB8000A6
:104C4000114951F82000012801D94FF001081048FE
:104C5000006808B14FF0010805E0FFE70D48006863
:104C6000401C0C4908604046BDE8F0816C00002003
:104C700048000020380000203C0000205C0000209C
:104C8000640000204C000020982000203400002008
:104C9000580000205400002070B505462C46002620
:104CA000002D43D022480068844201D1012000E059
:104CB000002050B900BF502080F31188BFF34F8F00
:104CC000BFF36F8F00BF00BFFEE7206D50B900BF7C
:104CD000502080F31188BFF34F8FBFF36F8F00BF59
:104CE00000BFFEE7206D401E2065E16CE06A88424F
:104CF0001CD0206DD0B9201DFEF7ACFFE06CE06247
:104D0000E06AC0F13800A0610A49E06A0968884297
:104D100002D90849E06A0860E16A01EB8101064AAC
:104D200002EB8100211DFEF7EBFF0126304670BD2E
:104D3000340000204C0000209820002070B506466A
:104D4000F068C46854B900BF502080F31188BFF3E5
:104D50004F8FBFF36F8F00BF00BFFEE704F1180055
:104D6000FEF778FF15480068A0B9201DFEF772FF16
:104D70001349E06A0968884202D91149E06A08606B
:104D8000E16A01EB81010F4A02EB8100211DFEF770
:104D9000B7FF04E004F118010B48FEF7B1FF0B491F
:104DA000E06A0968C96A884204D9012501200849D6
:104DB000086000E00025284670BD00006C0000205F
:104DC0004C000020982000202025002034000020E6
:104DD0005800002070B5002400263648006850B9FD
:104DE00000BF502080F31188BFF34F8FBFF36F8F48
:104DF00000BF00BFFEE7FEF78FFF2E480068401E91
:104E00002C4908600846006800284ED12A480068EE
:104E100000284AD023E02948C068C46804F118007B
:104E2000FEF718FF201DFEF715FF2549E06A096807
:104E3000884202D92249E06A0860E16A01EB8101F7
:104E4000204A02EB8100211DFEF75AFF1E49E06A4D
:104E50000968C96A884202D301201C4908601748C2
:104E6000006808B9012000E000200028D3D00CB170
:104E7000FEF746FD1648056865B100BFFFF76AFEFC
:104E800010B10120114908606D1E002DF6D10020DF
:104E90000F4908600D48006838B1012630070D49F8
:104EA0000860BFF34F8FBFF36F8FFEF75FFF304691
:104EB00070BD00006C000020440000202025002070
:104EC0004C000020982000203400002058000020D2
:104ED0005400002004ED00E010B586B00024FEF779
:104EE00075F916480068D0B100200590049003AA17
:104EF00004A905A8FEF7CEFE0222DDE90410002376
:104F0000CDE9002102900EA10F48039AFFF7AEFDF4
:104F10000E4908600846006800B1012400BF54B97A
:104F200000BF502080F31188BFF34F8FBFF36F8F06
:104F300000BF00BFFEE7204606B010BD780000208D
:104F4000546D722053766300453A00087C000020BF
:104F50002DE9FF4704460D4616461F46DDF8308012
:104F60004FF0000954B900BF502080F31188BFF3FF
:104F70004F8FBFF36F8F00BF00BFFEE7144800687C
:104F800010B3009501960294062D15DAFFF7CCFDBB
:104F9000022808D10023424669460D480068FFF701
:104FA000E7FA814610E000231A466946084800687F
:104FB000FFF7DEFA814607E000233A4669460448D7
:104FC0000068FFF7A9FB8146484604B0BDE8F087BA
:104FD000780000202C5100080000000000000000B4
:104FE00000000000000000000002000018000000A7
:104FF0000000000000000000385100080000000020
:10500000B40800205C000000B4000020000800008C
:1050100031000000000000000000000054510008B2
:1050200000000000100B00205C00000010090020B0
:10503000000200003200000000000000000000003C
:1050400014510008000000006C0F00205C000000FC
:105050006C0B002000040000330000000000000082
:10506000000000002051000800000000C8170020C8
:105070005C000000C80F00200008000019000000BC
:1050800000000000000000000851000800000000BF
:10509000241A00205C0000002418002000020000F8
:1050A0002200000000000000000000004451000841
:1050B00000000000801C00205C000000801A00201E
:1050C00000020000340000000000000000000000AA
:1050D0006051000800000000DC1C002050000000AF
:1050E0006C510008000000002C1D00205000000042
:1050F0000000000000000000010203040607080988
:1051000000000000010203045461736B5F4F4C45C3
:10511000440000005461736B5F504944000000007C
:105120005461736B5F414E4F00000000646566611F
:10513000756C745461736B005461736B5F416E677F
:10514000656C00005461736B5F45787453656E73D2
:105150006F7200005461736B5F4869676874000088
:10516000475938364D75746578000000526563659F
:10517000697665724D757465780000009C51000871
:1051800000000020B4000000222E00085052000849
:10519000B40000207C6C0000322E000800000000EB
:1051A00000000000000000000000000000000000FF
:1051B00000000000000000000000000000000000EF
:1051C0000000000010000000010000000024F400B6
:1051D00000000000000000000000000000000000CF
:1051E00000000000000000000000000000000000BF
:1051F00000000000000000000000000000000000AF
:10520000000000000000000000000000000000009E
:10521000000000000000000000000000000000008E
:10522000000000000000000000000000000000007E
:10523000000000000000000000000000000000006E
:1052400000000000AAAAAAAA0000000000000000B6
:040000050800019955
:00000001FF
