:020000040800F2
:10000000585300207102000899320008F1260008B8
:1000100095320008A10300088D3E00080000000092
:10002000000000000000000000000000B101000816
:10003000A5030008000000000D020008D3350008E9
:100040008B0200088B0200088B0200088B0200085C
:100050008B0200088B0200088B0200088B0200084C
:100060008B0200088B0200088B0200088B0200083C
:100070008B0200088B0200088B0200088B0200082C
:100080008B0200088B0200088B02000800000000B1
:100090000000000000000000000000008B020008CB
:1000A0008B020008AD3600088B0200088B020008A6
:1000B0008B0200088B0200088B0200088B020008EC
:1000C0008B0200088B0200088B0200088B020008DC
:1000D0008B0200088B0200088B0200080000000061
:1000E0008B0200088B0200088B0200080000000051
:1000F0000000000000000000000000008B0200086B
:10010000000000008B0200088B0200088B02000830
:1001100000000000000000000000000000000000DF
:100120008B0200088B0200088B0200088B0200087B
:100130008B0200080000000000000000000000002A
:100140000000000000000000000000008B0200081A
:100150008B0200088B0200088B0200088B0200084B
:100160008B0200088B020008000000000000000065
:10017000000000000000000000000000000000007F
:10018000000000008B0200080000000000000000DA
:100190008B0200088B020008DFF810D000F0EEF8A8
:1001A00000480047F1400008AFF30080585300209A
:1001B0002C4B19680868B0E8F04F80F30988BFF34A
:1001C0006F8F4FF0000080F311887047000000002F
:1001D00008480068006880F308884FF0000080F34A
:1001E000148862B661B6BFF34F8FBFF36F8F00DF25
:1001F00000BF00BF08ED00E0DFF80C00016841F42B
:1002000070010160704700BF88ED00E0EFF30980E6
:10021000BFF36F8F134B1A681EF0100F08BF20ED4D
:10022000108A20E9F04F106009B44FF0500080F3BD
:100230001188BFF34F8FBFF36F8F05F0B3F84FF006
:10024000000080F3118809BC19680868B0E8F04F15
:100250001EF0100F08BFB0EC108A80F30988BFF3BE
:100260006F8F704718000020EFF305807047000083
:100270000648804706480047FEE7FEE7FEE7FEE740
:10028000FEE7FEE7FEE7FEE7FEE7FEE79936000839
:10029000990100082DE9F05F0546002092469B4633
:1002A00088460646814640241BE02846414647468C
:1002B000224600F053F853465A46C01A914110D3D3
:1002C00011461846224600F03AF82D1A67EB01084D
:1002D0004F4622460120002100F031F817EB0009BB
:1002E0004E41201EA4F10104DFDC484631462A4677
:1002F0004346BDE8F09F40EA01039B0703D009E0B5
:1003000008C9121F08C0042AFAD203E011F8013B01
:1003100000F8013B521EF9D27047D2B201E000F85A
:10032000012B491EFBD270470022F6E710B5134699
:100330000A4604461946FFF7F0FF204610BD202A62
:1003400004DB203A00FA02F1002070479140C2F12C
:10035000200320FA03F3194390407047202A04DB5E
:10036000203A21FA02F00021704721FA02F3D0402E
:10037000C2F120029140084319467047064C074DD0
:1003800006E0E06840F0010394E807009847103465
:10039000AC42F6D3FFF704FF246A0008446A000861
:1003A00000BFFEE7704772B600BFFEE710B502F06F
:1003B00022FC02223721682002F036FD00226A2149
:1003C000682002F031FDC82000F09EFA02F065F9C5
:1003D0000248006800F004F810BD000098000020FA
:1003E00010B50446102003F0C3FE2060102003F077
:1003F000BFFE6060102003F0BBFEA060302003F061
:10040000B7FE21680860302003F0B2FE6168086022
:10041000302003F0ADFEA16808609FED6F0A2068F0
:10042000006880ED000A9FED6C0A2068006880ED8E
:10043000000A9FED690A2068006880ED000AB7EEA7
:10044000000A2068006880ED030AB7EE000A206801
:10045000006880ED040AB7EE000A2068006880EDAD
:10046000050A9FED5D0A2068006880ED060A9FED91
:100470005A0A2068006880ED070A9FED570A206835
:10048000006880ED080A9FED540A2068006880ED3E
:10049000090A9FED510A2068006880ED0A0A9FED65
:1004A0004E0A2068006880ED0B0A4C48216888607D
:1004B0009FED490A6068006880ED000A9FED460ADA
:1004C0006068006880ED010A9FED430A606800687B
:1004D00080ED020AB7EE000A6068006880ED030A4A
:1004E000B7EE000A6068006880ED040AB7EE000A03
:1004F0006068006880ED050A9FED370A6068006853
:1005000080ED060A9FED340A6068006880ED070AF6
:100510009FED310A6068006880ED080A9FED2E0AA1
:100520006068006880ED090A9FED2B0A606800682A
:1005300080ED0A0A9FED280A6068006880ED0B0ACA
:100540002748616888609FED240AA068006880EDF4
:10055000000A9FED210AA068006880ED010A9FED66
:100560001E0AA068006880ED020AB7EE000AA068C3
:10057000006880ED030AB7EE000AA068006880ED0D
:10058000040AB7EE000AA068006880ED050A9FED36
:10059000120AA068006880ED060A9FED0F0AA068A5
:1005A000006880ED070A9FED0C0AA068006880EDE6
:1005B000080A9FED090AA068006880ED090A9FED0E
:1005C000060AA068006880ED0A0A9FED030AA06889
:1005D000006880ED0B0A10BD000000007B2C0008B5
:1005E000DB2C000810B5064909684968086802F064
:1005F00074FB034909680968086802F03EFB10BDF6
:100600009800002070B503460C46154600204DE0CA
:10061000461C31B246E001EB410604EBC60606EB90
:100620008006D6ED000A00EB400604EBC60606EB9A
:10063000800696ED001A80EE810AB5EEC00AF1EE52
:1006400010FA2DD002461BE001EB410604EBC60672
:1006500006EB8206D6ED000A00EB400604EBC60668
:1006600006EB820696ED001A40EE410A01EB4106C8
:1006700004EBC60606EB8206C6ED000A561C32B233
:10068000062AE1DB03EB8106D6ED000A03EB8006C8
:1006900096ED001A40EE410A03EB8106C6ED000A12
:1006A0004E1C31B20629B6DB461C30B20628AFDB41
:1006B000052045E000EB400604EBC60606EB80068D
:1006C000D6ED000A03EB800696ED001AC1EE201A63
:1006D00003EB8006C6ED001AF7EE000A00EB4006B9
:1006E00004EBC60606EB8006C6ED000A002123E0F7
:1006F00001EB410604EBC60606EB8006D6ED000AC8
:10070000B0EE600A03EB8106D6ED000A03EB80062B
:1007100096ED001A40EE410A03EB8106C6ED000A91
:10072000DFED100A01EB410604EBC60606EB80067E
:10073000C6ED000A4E1C31B28142D9DB461E30B2F2
:100740000028B7DA002109E003EB8106D6ED000AA4
:1007500005EB8106C6ED000A4E1C31B20629F3DB1B
:1007600070BD000000000000F0B52DED048BB7B0A7
:1007700006460C461546B0EE408A00279FED480A13
:10078000F0EE408A9FED470AB0EE409A9FED460A90
:100790008DED330A8DED320A8DED310AB7EE000A88
:1007A000C0EE080ACDED360ACDED350ACDED340A9E
:1007B0004EE001A925A802F0E5FE334631AA01A9C1
:1007C00025A803F083FA2BAA01A925A8FFF71AFF91
:1007D0009DED2B0A20EE000ADDED2C0A9DED2C1A72
:1007E00000EE810ADDED2D0A9DED2D1A00EE810A45
:1007F000DDED2E0A9DED2E1A00EE810ADDED2F0AA9
:100800009DED2F1A00EE810ADDED300A9DED301AC4
:1008100000EE810AB0EE409A002012E031A901EB0F
:10082000800191ED000A2BA901EB8001D1ED000AB6
:1008300030EE600A31A901EB800181ED000A411C14
:10084000C8B20628EADB38467F1C642800D904E0D9
:10085000B4EEE89AF1EE10FAABDC00BF9DED340A7D
:1008600020EE080A85ED000A9DED350A20EE080A03
:1008700085ED010A9DED360A20EE080A85ED020A93
:100880009DED310A84ED000A9DED320A84ED010AE6
:100890009DED330A84ED020A37B0BDEC048BF0BD48
:1008A00095BFD6330000C8420000000010B52DED02
:1008B000028BB7EE000AB0EE408A1048006800686C
:1008C000006800F10C020D4800680068B0EE480AAC
:1008D00001680B48FFF748FF084800684068006857
:1008E00000F10C02054800684068B0EE480A016853
:1008F0000448FFF739FFBDEC028B10BD98000020C3
:100900007C4C0020C44C002070B5044600F0FAF87E
:1009100006462546681C10B104480078054400BF0F
:1009200000F0F0F8801BA842FAD370BD1000002040
:10093000F8B502460B460025002400200021C6E041
:10094000012606FA01F51E6806EA0504AC4274D1D8
:100950001E7906F00306012E04D01E7906F0030668
:10096000022E13D190684F000326BE40B0434F00C3
:10097000DE68BE4030439060506801268E40B04330
:100980001E79C6F300168E40304350601E7906F083
:100990000306032E09D0D0684F000326BE40B043A3
:1009A0004F009E68BE403043D0601E7906F00306BB
:1009B000022E13D1CF0802F1200656F827004E0769
:1009C000F70E0F26BE40B0434F07FF0E1E69BE4014
:1009D0003043CF0802F1200646F8270010684F0088
:1009E0000326BE40B0431E7906F003064F00BE400A
:1009F000304310605E6806F44036002E66D000BFBB
:100A000000260096344E366846F48046324F3E60EB
:100A10003E46366806F48046009600BF00BF2F4E63
:100A20008F0856F827008E07370F0F26BE40B043B9
:100A30002B4EB24202D1002615E047E0294EB242C9
:100A400001D101260FE0284EB24201D102260AE070
:100A5000264EB24201D1032605E0254EB24201D115
:100A6000042600E007268F073F0FBE4030431B4E91
:100A70008F0846F827001F4E3068A0435E6806F4D2
:100A8000803606B120431B4E3060361D3068A043CF
:100A90005E6806F4003606B12043164E361D3060FF
:100AA000361D3068A0435E6806F4801606B1204308
:100AB000104E08363060361D3068A0435E6806F47C
:100AC000001606B120430B4E0C363060491C10292D
:100AD000FFF436AFF8BD000044380240083801404A
:100AE000000002400004024000080240000C0240E6
:100AF00000100240003C01400AB1816101E00B049A
:100B000083617047014800687047000008000020BA
:100B100070B504460CB9012070BD94F83D0028B9A9
:100B2000002084F83C00204600F006FB242084F8D6
:100B30003D002068006820F00100216808602068FE
:100B4000006840F40040216808602068006820F4D4
:100B500000402168086000F05DFD05465C49606862
:100B6000884206D85B48854201D2012007E0002078
:100B700005E05948854201D2012000E0002001280B
:100B800000D1C9E75548B5FBF0F62068406820F071
:100B90003F003043216848604D496068884201D871
:100BA000701C07E04FF4967070434FF47A71B0FBFD
:100BB000F1F0401C2168096A21F03F0108432168D7
:100BC000086243496068884214D8681E6168490019
:100BD000B0FBF1F0401CC0F30B00042801D204204C
:100BE0003DE0681E61684900B0FBF1F0401CC0F3B5
:100BF0000B0034E0A06838B9681E616801EB410160
:100C0000B0FBF1F0401C0AE0681E616801EBC10214
:100C100002EB0111B0FBF1F0401C40F48040C0F346
:100C20000B0008B901201AE0A06848B9681E616885
:100C300001EB4101B0FBF1F0401CC0F30B000CE0F4
:100C4000681E616801EBC10202EB0111B0FBF1F01B
:100C5000401CC0F30B0040F4804040F40040216889
:100C6000C9694CF6FF72914308432168C861D4E911
:100C7000070108432168096821F0C0010843216881
:100C80000860D4E9031008432168896848F2FF32FC
:100C90009143084321688860D4E90501084321682D
:100CA000C96821F0FF0108432168C8602068006816
:100CB00040F001002168086000202064202084F8B2
:100CC0003D000020206384F83E0000BF24E70000C0
:100CD000A086010080841E0000093D0040420F00F4
:100CE0002DE9FC5F04460F4690469946DDE90CABC2
:100CF0000E9EFFF707FF054694F83D00202870D1AF
:100D000019230122B0492046009501F061FE10B17F
:100D10000220BDE8FC9F00BF94F83C00012801D1EF
:100D20000220F6E7012084F83C0000BF206800683C
:100D300000F0010028B92068006840F00100216837
:100D400008602068006820F40060216808602220A4
:100D500084F83D00402084F83E0000202064C4F860
:100D600024A0A4F82AB0608D20859848E0624B4604
:100D7000424639462046CDE9006501F0DBFC08B16A
:100D80000120C6E7208D88B900BF002001902068AF
:100D90004069019020688069019000BF00BF206811
:100DA000006840F400702168086040E0208D012850
:100DB00018D12068006820F480602168086000BFB6
:100DC00000200190206840690190206880690190AE
:100DD00000BF00BF2068006840F400702168086010
:100DE00025E0EFE0208D022816D12068006820F46D
:100DF0008060216808602068006840F40060216815
:100E0000086000BF002001902068406901902068C0
:100E10008069019000BF0AE000BF002001902068B7
:100E20004069019020688069019000BF00BFBAE06E
:100E3000208D03287ED8208D012815D12A463146E1
:100E4000204601F06AFE08B1012062E720680069CF
:100E5000616A0870606A401C6062208D401E2085B7
:100E6000608D401E60859EE0208D02282AD1334689
:100E7000002257492046009501F0AAFD08B1012043
:100E800047E72068006840F4007021680860206827
:100E90000069616A0870606A401C6062208D401EB3
:100EA0002085608D401E608520680069616A087039
:100EB000606A401C6062208D401E2085608D401E4F
:100EC000608570E03346002241492046009501F0DC
:100ED0007FFD08B101201CE72068006820F48060D5
:100EE0002168086020680069616A0870606A401CB7
:100EF0006062208D401E2085608D401E60853346D7
:100F0000002233492046009501F062FD08B101201E
:100F1000FFE62068006840F40070216808602068DF
:100F20000069616A0870606A401C6062208D401E22
:100F3000208500E010E0608D401E6085206800691B
:100F4000616A0870606A401C6062208D401E2085C6
:100F5000608D401E608526E02A463146204601F01D
:100F6000DCFD08B10120D4E620680069616A0870E0
:100F7000606A401C6062208D401E2085608D401E8E
:100F8000608520684069C0F3800060B12068006916
:100F9000616A0870606A401C6062208D401E208576
:100FA000608D401E6085208D00287FF441AF202099
:100FB00084F83D00002084F83E0000BF84F83C0027
:100FC00000BFA6E60220A4E6020010000000FFFF1A
:100FD000040001002DE9FC5F04460F469046994647
:100FE000DDE90CAB0E9EFFF78DFD054694F83D0044
:100FF00020287DD1192301224D492046009501F07A
:10100000E7FC10B10220BDE8FC9F00BF94F83C0053
:10101000012801D10220F6E7012084F83C0000BF3E
:101020002068006800F0010028B92068006840F0DE
:101030000100216808602068006820F400602168D1
:101040000860212084F83D00402084F83E00002004
:101050002064C4F824A0A4F82AB0608D2085354807
:10106000E0624B46424639462046CDE9006501F034
:1010700011FC08B10120C6E731E02A46314620467E
:1010800001F08BFD50B1206C042805D12068006868
:1010900040F40070216808600120B4E7606A0078BD
:1010A00021680861606A401C6062208D401E2085B6
:1010B000608D401E608520684069C0F3800070B17B
:1010C000208D60B1606A007821680861606A401C08
:1010D0006062208D401E2085608D401E6085208DC1
:1010E0000028CAD12A463146204601F043FC00E0E0
:1010F0001CE050B1206C042805D12068006840F441
:1011000000702168086001207DE72068006840F4D5
:10111000007021680860202084F83D00002084F8D9
:101120003E0000BF84F83C0000BF6CE702206AE785
:10113000020010000000FFFF10B586B00446142125
:1011400001A8FFF7F1F83C49206888422FD100BF81
:10115000002000903948006840F0020037490860DC
:101160000846006800F00200009000BF00BFC020E9
:10117000019012200290012003900320049004208B
:10118000059001A92E48FFF7D3FB00BF0020009077
:101190002A481030006840F40010284910310860D7
:1011A0000846006800F40010009000BF41E02549A7
:1011B000206888423DD100BF002000901F48006891
:1011C00040F002001D4908600846006800F0020077
:1011D000009000BF00BF081501901220029001206E
:1011E0000390032004900420059001A91448FFF700
:1011F0009FFB082001901220029001200390032001
:1012000004900920059001A90D48FFF791FB00BF4C
:101210000020009009481030006840F48000074921
:10122000103108600846006800F48000009000BF9C
:1012300000BF06B010BD000000540040303802402E
:101240000004024000580040034800680349097840
:101250000844014908607047080000201000002081
:1012600010B50D48006840F400700B49086008464E
:10127000006840F4806008600846006840F48070B0
:101280000860032000F0C8F8002000F007F800F024
:101290004BF8002010BD0000003C024070B588B043
:1012A00004460025002600222146192000F076F889
:1012B000192000F063F800BF002001901648006874
:1012C00040F40030144908600846006800F400301B
:1012D000019000BF00BF02A903A800F073F900F05D
:1012E000A9F905460D48B5FBF0F0461E0C480D491E
:1012F000086040F2E7310B48C1604660002101619F
:10130000816000F09DFC20B9064800F0CDFC08B0DB
:1013100070BD0120FBE700004438024040420F004E
:10132000004401406003002008B500BF0020009089
:101330001148006840F480400F4908600846006882
:1013400000F48040009000BF00BF00BF002000906C
:10135000081F006840F08050091F086008460068B8
:1013600000F08050009000BF00BF00220F21901EAF
:1013700000F014F808BD0000443802400146084659
:10138000002809DB00F01F0301229A4043099B005B
:1013900003F1E023C3F8002100BF70472DE9F05F9F
:1013A00080460D461646002702F09EFD0746394648
:1013B0002A46334601F00700C0F1070ABAF1040FCC
:1013C00002D94FF0040A01E0C0F1070AD14600F14A
:1013D000040ABAF1070F02D24FF0000A01E0A0F1AF
:1013E000030AD4464FF0010A0AFA09FAAAF1010ADF
:1013F0000AEA020A0AFA0CFA4FF0010B0BFA0CFB8C
:10140000ABF1010B0BEA030B4AEA0B042146404601
:1014100002F072FDBDE8F09F00BF00F00702064B2E
:1014200019684FF6FF031940044B0B4343EA0221AE
:10143000014B196000BF70470CED00E00000FA0599
:1014400070B504460D460CB9012070BD58480068BF
:1014500000F00700A84209D255490D7008460068FF
:1014600000F00700A84201D00120EEE7207800F04C
:10147000020002281DD1207800F00400042805D1C4
:101480004C48006840F4E0504A490860207800F079
:101490000800082805D14748006840F460404549E5
:1014A00008604448006820F0F000A1680843414902
:1014B0000860207800F00100A8B36068012807D117
:1014C0003C4808380068C0F34040B8B90120BCE788
:1014D0006068022802D06068032807D135480838C0
:1014E0000068C0F3406048B90120AEE731480838D1
:1014F0000068C0F3400008B90120A6E72D48006845
:1015000020F00300616808432A490860FFF7FAFAEF
:10151000064609E0FFF7F6FA801B41F2883188425F
:1015200002D9032091E707E02248006800F00C0090
:101530006168B0EB810FEDD11D48006800F0070035
:10154000A84209D91A490D700846006800F0070042
:10155000A84201D0012078E7207800F00400042898
:1015600007D11448006820F4E050E16808431149AD
:101570000860207800F00800082808D10D480068AD
:1015800020F46040216940EAC1000A49086000F087
:1015900061F808490968C1F30311074A515CC84062
:1015A0000649086006480068FFF778FE00204CE70F
:1015B000003C024008380240D061000814000020BE
:1015C0000C0000200F2202600D4A126802F0030294
:1015D00042600B4A126802F0F0028260084A126808
:1015E00002F4E052C260064A126802F46042D20875
:1015F0000261044A126802F007020A6070470000A4
:1016000008380240003C0240014800687047000072
:101610001400002000B5FFF7F7FF04490968C1F383
:101620008221034A515CC84000BD000008380240D6
:10163000E061000800B5FFF7E7FF04490968C1F35E
:101640004231034A515CC84000BD000008380240E6
:10165000E06100082DE9F047002400250026A1469E
:101660002548006800F00C0020B1042805D00828A7
:101670003AD105E0DFF8849039E0DFF8849036E075
:101680001D48001F006800F03F041B48001F006851
:1016900000F4800078B11A481749091F0968C1F39E
:1016A0008811A0FB01700146224600233846FEF750
:1016B000F1FD05460EE011480F49091F0968C1F305
:1016C0008811A0FB01700146224600233846FEF730
:1016D000E1FD05460848001F0068C0F30140401CBA
:1016E0004600B5FBF6F902E0DFF8109000BF00BF3E
:1016F0004846BDE8F0870000083802400024F400A6
:10170000001BB700F8B504460CB90120F8BD2078DD
:1017100000F00100002874D0F948006800F00C00C7
:1017200004280DD0F648006800F00C00082813D1FA
:10173000F348001F006800F48000B0F5800F0BD163
:10174000EF4808380068C0F34040002859D060686E
:10175000002856D10120D9E700BF6068B0F5803F6E
:1017600008D1E7480838006840F48030E449083977
:1017700008601EE06068B0F5A02F0DD1E048083881
:10178000006840F48020DE49083908600846006897
:1017900040F4803008600CE0D9480838006820F434
:1017A0008030D749083908600846006820F4802056
:1017B000086000BF606890B1FFF7A4F9054606E035
:1017C000FFF7A0F9401B642801D903209EE7CC480D
:1017D00008380068C0F340400028F1D011E0FFF75E
:1017E00091F9054606E0FFF78DF9401B642801D901
:1017F00003208BE7C24808380068C0F34040002847
:10180000F1D1207800F0020002285FD1BC480068C6
:1018100000F00C0058B1BA48006800F00C0008282D
:101820001CD1B748001F006800F48000B0B9B4486C
:1018300008380068C0F3400020B1E068012801D0FA
:10184000012063E7AE480838006820F0F8002169FD
:1018500040EAC100AA490839086037E0E06800B3EF
:101860000120A8490860FFF74DF9054606E0FFF79B
:1018700049F9401B022801D9032047E7A04808384E
:101880000068C0F340000028F1D09D480838006887
:1018900020F0F800216940EAC10099490839086040
:1018A00014E0002097490860FFF72CF9054606E090
:1018B000FFF728F9401B022801D9032026E79048AA
:1018C00008380068C0F340000028F1D1207800F00B
:1018D000080008282CD16069A8B101208A49086055
:1018E000FFF710F9054606E0FFF70CF9401B022848
:1018F00001D903200AE782486C300068C0F3400039
:101900000028F1D014E000207F490860FFF7FAF8C2
:10191000054606E0FFF7F6F8401B022801D9032030
:10192000F4E677486C300068C0F340000028F1D13D
:10193000207800F00400042870D100277048383067
:10194000006800F0805090B900BF002000906C4803
:101950003830006840F080506949383108600846E6
:10196000006800F08050009000BF00BF012767486A
:10197000006800F48070B0B96448006840F480707A
:1019800062490860FFF7BEF8054606E0FFF7BAF8BF
:10199000401B022801D90320B8E65C48006800F427
:1019A00080700028F2D000BFA068012808D15448F8
:1019B0006830006840F001005149683108601DE05E
:1019C000A06805280DD14E486830006840F004003A
:1019D0004B49683108600846006840F00100086023
:1019E0000CE047486830006820F001004449683145
:1019F00008600846006820F00400086000BFA06886
:101A0000A8B1FFF77FF8054609E0FFF77BF8401B18
:101A100041F28831884202D9032077E626E038482F
:101A200068300068C0F340000028EED013E0FFF7F4
:101A300069F8054608E0FFF765F8401B41F2883178
:101A4000884201D9032061E62D4868300068C0F360
:101A500040000028EFD1012F07D129483830006815
:101A600020F0805026493831086000BFA069002866
:101A700045D02348006800F00C0008285DD0A0691C
:101A8000022845D100201F490866FFF73BF80546AC
:101A900006E0FFF737F8401B022801D9032035E69E
:101AA000174808380068C0F340600028F1D1D4E935
:101AB00007010843616A40EA81110122A06AC2EB72
:101AC000500041EA00412C20005D41EA00600C49D1
:101AD000091F086001200B490866FFF713F8054647
:101AE00006E0FFF70FF8401B022801D903200DE69E
:101AF000034808380068C0F340600028F1D049E08E
:101B00000838024000004742800E47420070004003
:101B1000002021490866FEF7F5FF054606E0FEF7BE
:101B2000F1FF401B022801D90320EFE51B480068A4
:101B3000C0F340600028F2D12CE0A069012800D158
:101B4000E4E51648001D0668A069012820D006F4C7
:101B50008001E06981421BD106F03F01206A814289
:101B600016D147F6C0703040616AB0EB811F0FD1CB
:101B700006F440310122A06AC2EB5000B1EB004FE5
:101B800006D106F070612C20005DB1EB006F01D032
:101B90000120BBE50020B9E50000474200380240C3
:101BA0007047704730B502460B4600BF92F83C00C4
:101BB000012801D1022030BD012082F83C0000BF85
:101BC000022082F83D00106844681068816824F0A3
:101BD00070041868044310684460144D1068A842EB
:101BE00013D01068B0F1804F0FD0114D1068A8428B
:101BF0000BD0104D1068A84207D00F4D1068A842B6
:101C000003D00E4D1068A84205D121F0800158681C
:101C1000014310688160012082F83D0000BF002070
:101C200082F83C0000BF00BFC5E700000000014093
:101C30000004004000080040000C0040004001404B
:101C400010B504460CB9012010BD94F83D0028B928
:101C5000002084F83C00204600F025F8022084F89B
:101C60003D00211D206801F02DFD012084F8460073
:101C700000BF84F83E0001213F200155402001555E
:101C80004120015500BF00BF012084F842004320DD
:101C90000155442001554520015500BF012084F81D
:101CA0003D000020D0E77047014691F83D00012833
:101CB00001D001207047022081F83D000868C0680B
:101CC00040F001000B68D860164B0868984213D0AA
:101CD0000868B0F1804F0FD0134B086898420BD0C2
:101CE000124B0868984207D0114B0868984203D0FD
:101CF000104B086898420CD10868806800F0070211
:101D0000062A0CD00868006840F001000B681860D3
:101D100005E00868006840F001000B6818600020CA
:101D2000C8E7000000000140000400400008004037
:101D3000000C00400040014070472DE9F04104468E
:101D40000D461646002700BF94F83C00012802D13A
:101D50000220BDE8F081012084F83C0000BF96B964
:101D6000EB68D5E90012206801F0BAFD20688069AF
:101D700020F00C002168886120688069A968084308
:101D80002168886141E0042E13D1EB68D5E9001287
:101D9000206801F0E3FD2068806920F4406021683C
:101DA000886120688069A96840EA0120216888610B
:101DB0002BE0082E12D1EB68D5E90012206801F063
:101DC000EAFD2068C06920F00C002168C861206825
:101DD000C069A96808432168C86116E00C2E13D1B8
:101DE000EB68D5E90012206801F0F1FD2068C069B8
:101DF00020F440602168C8612068C069A96840EA91
:101E000001202168C86100E0012700BF002084F89C
:101E10003C0000BF38469CE710B504460CB90120D1
:101E200010BD94F83D0028B9002084F83C002046FD
:101E300000F026F8022084F83D00211D206801F002
:101E400041FC012084F8460000BF84F83E000121D7
:101E50003F200155402001554120015500BF00BFE2
:101E6000012084F8420043200155442001554520BB
:101E7000015500BF012084F83D000020D0E700009C
:101E800010B586B00446142101A8FEF74DFA554955
:101E90002068884238D100BF002000905248006876
:101EA00040F00100504908600846006800F0010059
:101EB000009000BF00BF00BF002000904A481438C7
:101EC000006840F00100484914390860084600687D
:101ED00000F00100009000BF00BF4FF4407001907F
:101EE000022002900020039004900120059001A997
:101EF0003E48FEF71DFD002211461920FFF74EFA5D
:101F00001920FFF73BFA6BE02068B0F1804F31D128
:101F100000BF002000903448001F006840F001001E
:101F20003149091F08600846006800F00100009070
:101F300000BF00BF00BF002000902B48143800688D
:101F400040F001002849143908600846006800F094
:101F50000100009000BF00BF03200190022002900A
:101F60000020039004900120059001A91F48FEF76E
:101F7000DFFC35E01E492068884231D100BF0020D7
:101F800000901948001F006840F004001649091F1E
:101F900008600846006800F00400009000BF00BF21
:101FA00000BF0020009010481438006840F0020084
:101FB0000D49143908600846006800F002000090DE
:101FC00000BF00BF4FF4407001900220029000203B
:101FD000039004900220059001A90648FEF7A8FC92
:101FE00006B010BD0000014044380240000002402D
:101FF000000800400004024010B504462068006953
:10200000C0F34000D8B12068C068C0F34000B0B150
:102010006FF0020021680861012020772068806944
:1020200000F0030018B12046FFF786FE05E02046C9
:1020300000F0FCF8204600F0C9F900202077206865
:102040000069C0F38000D8B12068C068C0F3800088
:10205000B0B16FF004002168086102202077206889
:10206000806900F4407018B12046FFF765FE05E076
:10207000204600F0DBF8204600F0A8F90020207789
:1020800020680069C0F3C000D8B12068C068C0F300
:10209000C000B0B16FF0080021680861042020770B
:1020A0002068C06900F0030018B12046FFF744FE25
:1020B00005E0204600F0BAF8204600F087F900203D
:1020C000207720680069C0F30010D8B12068C0688C
:1020D000C0F30010B0B16FF0100021680861082053
:1020E00020772068C06900F4407018B12046FFF7DF
:1020F00023FE05E0204600F099F8204600F066F93E
:10210000002020772068006900F0010058B12068A5
:10211000C06800F0010030B16FF001002168086173
:10212000204600F055F920680069C0F3C01058B18E
:102130002068C068C0F3C01030B16FF08000216823
:1021400008612046FFF72CFD20680069C0F380106D
:1021500058B12068C068C0F3801030B16FF0400003
:1021600021680861204600F03FF920680069C0F34B
:10217000401058B12068C068C0F3401030B16FF013
:102180002000216808612046FFF70BFD10BD00000C
:1021900010B586B00446142101A8FEF7C5F81F4902
:1021A0002068884238D100BF002000901C48006899
:1021B00040F001001A4908600846006800F001007C
:1021C000009000BF00BF00BF0020009008460068DC
:1021D00040F0020008600846006800F0020000902D
:1021E00000BF00BFC0200190022002900020039099
:1021F00004900220059001A90A48FEF799FB0320EC
:10220000019002200290002003900490022005908B
:1022100001A90548FEF78CFB06B010BD0004004084
:1022200030380240000002400004024070472DE9AF
:10223000F04104460D461646002700BF94F83C00C6
:10224000012802D10220BDE8F081012084F83C0081
:1022500000BF36B1042E1BD0082E31D00C2E5ED11B
:1022600045E02946206801F07FFA2068806940F047
:102270000800216888612068806920F004002168D6
:10228000886120688069296908432168886148E07D
:102290002946206801F098FA2068806940F40060BF
:1022A000216888612068806920F4806021688861E5
:1022B00020688069296940EA01202168886130E04E
:1022C0002946206801F0B4FA2068C06940F008008F
:1022D0002168C8612068C06920F004002168C861D5
:1022E0002068C069296908432168C86119E0294646
:1022F000206801F0D1FA2068C06940F400602168CC
:10230000C8612068C06920F480602168C8612068C5
:10231000C069296940EA01202168C86101E00127FC
:1023200000BF00BF00BF002084F83C0000BF38465B
:1023300089E710B504460CB9012010BD94F83D00A2
:1023400028B9002084F83C00204600F025F802203F
:1023500084F83D00211D206801F0B4F9012084F8C3
:10236000460000BF84F83E0001213F200155402077
:1023700001554120015500BF00BF012084F84200F3
:1023800043200155442001554520015500BF01203F
:1023900084F83D000020D0E708B50A4A0168914260
:1023A0000FD100BF002100910749096841F00201E7
:1023B000054A11601146096801F00201009100BF51
:1023C00000BF08BD000400404038024070470000D4
:1023D00010B5044603492068884201D1FEF734FF56
:1023E00010BD000000440140704710B504460CB910
:1023F000012010BDA06900B100E000BF94F83D00CD
:1024000028B9002084F83C00204600F027F824205A
:1024100084F83D002068C06820F400502168C8603E
:10242000204601F0F3FA2068006920F4904021680A
:1024300008612068406920F02A002168486120680E
:10244000C06840F400502168C8600020206420204B
:1024500084F83D0084F83E000020CAE710B586B03D
:102460000446142101A8FDF75FFF52492068884205
:1024700031D100BF002000904F48006840F01000AC
:102480004D4908600846006800F01000009000BF49
:1024900000BF00BF0020009047481438006840F09B
:1024A00001004549143908600846006800F0010041
:1024B000009000BF00BF4FF4044001900220029042
:1024C00000200390032004900720059001A93B48B9
:1024D000FEF72EFA6BE03A492068884232D100BFFD
:1024E000002000903448001F006840F4003032495A
:1024F000091F08600846006800F40030009000BF23
:1025000000BF00BF002000902B481438006840F046
:1025100001002949143908600846006800F00100EC
:10252000009000BF00BF0C2001900220029000200C
:102530000390032004900720059001A91F48FEF78F
:10254000F7F934E01F492068884230D100BF0020ED
:1025500000901948006840F02000174908600846BC
:10256000006800F02000009000BF00BF00BF002006
:10257000009011481438006840F001000E491439E9
:1025800008600846006800F00100009000BF00BF2E
:102590004FF4C050019002200290002003900320CD
:1025A00004900820059001A90448FEF7C1F906B07F
:1025B00010BD0000001001404438024000000240FD
:1025C00000440040001401402DE9F84F04460E4637
:1025D000174699464FF0000A94F83D0020285AD13A
:1025E00006B117B90120BDE8F88F00BF94F83C0090
:1025F000012801D10220F6E7012084F83C0000BF49
:1026000000202064212084F83D00FEF77BFA8246FA
:10261000A784E784A068B0F5805F04D1206910B971
:102620000025B04602E035464FF0000800BF00200C
:1026300084F83C0000BF1BE0534600228021204666
:10264000CDF8009001F0F8FA08B10320CBE745B9C6
:10265000B8F80000C0F308002168486008F10208DB
:1026600003E02878216848606D1CE08C401EE084FF
:10267000E08C0028E0D15346002240212046CDF8CE
:10268000009001F0D9FA08B10320ACE7202084F8CB
:102690003D000020A7E70220A5E710B55821002043
:1026A00000F00AF8E021012000F006F800210220E5
:1026B00000F002F810BD00007FB504460D46002072
:1026C0000390039540F6FF70012103AA0B46CDE964
:1026D0000021029022463C210448FEF77BFC642046
:1026E000FEF712F9002004B070BD000020010020A8
:1026F00000BFFEE7014608684069C0F38020B0B122
:102700006FF480600A68506100200863202081F81F
:102710003D00002081F83E00086C40F00400086491
:1027200000BF002081F83C0000BF0120704700205E
:10273000FCE700002DE9F84304460F46154699468C
:10274000DDE908862068006840F480602168086040
:102750002068006840F480702168086043460022C9
:102760004FF001112046009600F032F960B1206868
:10277000006800F48070B0F5807F02D14FF40070E3
:1027800020640320BDE8F88307F0FE00216808619B
:10279000334642463E49204600F05DF908B101202B
:1027A000F0E700BF0020009020684069009020689A
:1027B0008069009000BF00BF32464146204600F0CD
:1027C000ECF950B1206C042805D12068006840F471
:1027D0000070216808600120D4E7B9F1010F03D12E
:1027E000E8B22168086117E0C5F307202168086195
:1027F00032464146204600F0D0F950B1206C042802
:1028000005D12068006840F400702168086001204C
:10281000B8E7E8B22168086132464146204600F038
:10282000BCF950B1206C042805D12068006840F440
:102830000070216808600120A4E72068006840F467
:10284000807021680860434600224FF00111204645
:10285000009600F0BDF858B12068006800F4807060
:10286000B0F5807F02D14FF400702064032089E727
:10287000F8B240F00100216808613346424604493D
:10288000204600F0E8F808B101207BE7002079E756
:10289000020001002DE9F843044688461546994692
:1028A000DDE908672068006840F4807021680860EE
:1028B000334600224FF001112046009700F088F8BF
:1028C00060B12068006800F48070B0F5807F02D1AC
:1028D0004FF4007020640320BDE8F88308F0FE0088
:1028E000216808613B4632462149204600F0B3F892
:1028F00008B10120F0E700BF002000902068406987
:10290000009020688069009000BF00BF3A463146C1
:10291000204600F042F950B1206C042805D120680F
:10292000006840F40070216808600120D4E7B9F124
:10293000010F03D1E8B22168086117E0C5F3072051
:10294000216808613A463146204600F026F950B128
:10295000206C042805D12068006840F400702168CC
:1029600008600120B8E7E8B2216808610020B3E7F9
:102970000200010070B504460D46164620E02046D0
:10298000FFF7B8FE08B1012070BD681CC0B1FEF7AA
:10299000B9F8801BA84200D895B9002020632020F8
:1029A00084F83D00002084F83E00206C40F02000B8
:1029B000206400BF002084F83C0000BF0120E3E752
:1029C00020684069C0F380000028D8D00020DBE7F1
:1029D0002DE9F04104460D4617461E46DDF81880E5
:1029E0001CE0701CD0B1FEF78DF8A0EB0800B042DF
:1029F00000D89EB900202063202084F83D000020EC
:102A000084F83E00206C40F02000206400BF0020CD
:102A100084F83C0000BF0120BDE8F081C5F3074009
:102A200001280AD120684069A9B20840A9B28842A9
:102A300001D101200BE0002009E020688069A9B2E3
:102A40000840A9B2884201D1012000E00020B8422C
:102A5000C7D00020E0E72DE9F04104460D461646B8
:102A60001F463DE020684069C0F38020E8B120683F
:102A7000006840F40070216808606FF4806021688D
:102A8000486100202063202084F83D00002084F865
:102A90003E00206C40F00400206400BF002084F859
:102AA0003C0000BF0120BDE8F081701CC0B1FEF702
:102AB00029F8C01BB04200D896B90020206320201E
:102AC00084F83D00002084F83E00206C40F0200097
:102AD000206400BF002084F83C0000BF0120E2E732
:102AE000C5F3074001280AD120684069A9B208400F
:102AF000A9B2884201D101200BE0002009E0206842
:102B00008069A9B20840A9B2884201D1012000E041
:102B100000200028A6D00020C5E770B504460D4669
:102B2000164632E020684069C0F30010A0B16FF093
:102B300010002168486100202063202084F83D00B7
:102B4000002084F83E00206C206400BF002084F840
:102B50003C0000BF012070BDFDF7D4FF801BA842E0
:102B600000D895B900202063202084F83D00002083
:102B700084F83E00206C40F02000206400BF00205C
:102B800084F83C0000BF0120E5E720684069C0F3FD
:102B900080100028C6D00020DDE770B504460D4641
:102BA000164620E02046FFF7A5FD08B1012070BDC4
:102BB000681CC0B1FDF7A6FF801BA84200D895B9DC
:102BC00000202063202084F83D00002084F83E008F
:102BD000206C40F02000206400BF002084F83C00FE
:102BE00000BF0120E3E720684069C0F3C01000285F
:102BF000D8D00020DBE708B580226B21682000F0E8
:102C000013F900226B21682000F00EF9002000F07B
:102C1000C6F8002000F0BAF8322000F0E7F80022F1
:102C20003821682000F000F900226A21682000F0B5
:102C3000FBF800222321682000F0F6F880223721DB
:102C4000682000F0F1F86A467521682000F076F8F7
:102C50009DF8000068280CD101226B2100F0E4F8F7
:102C600000226C21682000F0DFF8322000F0BEF86E
:102C700001E0012008BD0020FCE77CB504466B465E
:102C800006223B21682000F06DF805461DBB9DF82B
:102C900001009DF8001040EA012000EE100AB8EE95
:102CA000C00A84ED060A9DF803009DF8021040EA70
:102CB000012000EE100AB8EEC00A84ED070A9DF864
:102CC00005009DF8041040EA012000EE100AB8EE5D
:102CD000C00A84ED080A28467CBD7CB504466B46D4
:102CE00006224321682000F03DF805461DBB9DF8F3
:102CF00001009DF8001040EA012000EE100AB8EE35
:102D0000C00A84ED060A9DF803009DF8021040EA0F
:102D1000012000EE100AB8EEC00A84ED070A9DF803
:102D200005009DF8041040EA012000EE100AB8EEFC
:102D3000C00A84ED080A28467CBD0000FEB50446A2
:102D40000D46164640F6FF700121CDE90061029064
:102D5000610001232A460248FDF7C2FF0020FEBDA4
:102D600020010020FEB504460D4616461F4640F6DB
:102D7000FF70610001232A46CDE9007602900248E7
:102D8000FDF7AEFF0020FEBD2001002010B5044677
:102D9000E006020E1C21682000F046F810BD10B5B8
:102DA0000446E006020E1B21682000F03DF810BD2D
:102DB00070B504460025BC2C01DB012510E0622C17
:102DC00001DB02250CE02A2C01DB032508E0142C92
:102DD00001DB042504E00A2C01DB052500E00625C3
:102DE0002A461A21682000F01FF870BD70B504460D
:102DF000B4F57A7F01DD4FF47A74042C00DA0424F0
:102E00004FF47A7090FBF4F0401EC5B22A461921A7
:102E1000682000F009F80546264604EBD671C1F398
:102E20004F00FFF7C5FF70BD7FB504460D4616463F
:102E300000200390039640F6FF70012103AACDE91C
:102E400000210290610001232A460348FEF7C2F8E0
:102E5000002004B070BD00002001002010B5044A1D
:102E60000021044801F0E0F90349086010BD0000AA
:102E7000AC610008C93500080400002000B587B027
:102E8000142102A8FDF750FA00BF00200190274846
:102E9000006840F00400254908600846006800F01A
:102EA0000400019000BF00BF00BF00200190084651
:102EB000006840F0800008600846006800F080006C
:102EC000019000BF00BF00BF0020019008460068CD
:102ED00040F0010008600846006800F00100019021
:102EE00000BF00BF00BF002001900846006840F00E
:102EF000020008600846006800F00200019000BF70
:102F000000BF00224FF400510948FDF7F5FD4FF4D2
:102F1000005002900120039000200490059002A927
:102F20000348FDF705FD07B000BD00003038024042
:102F30000008024010B50B480B4908600B48486078
:102F4000002109488160C1604FF480410161002186
:102F500041618161C1610162FDF7DAFD08B1FDF7F0
:102F600022FA10BD00540040CC000020801A060058
:102F700010B50B480B4908600B4848600021094810
:102F80008160C1604FF48041016100214161816134
:102F9000C1610162FDF7BCFD08B1FDF704FA10BD87
:102FA0000058004020010020801A060000B587B0BC
:102FB00000200590069001900290039004901B4819
:102FC0001B490860002048600021194881604FF6C5
:102FD000FF71C1600021016141618161FEF71CFF49
:102FE00008B1FDF7E0F900200590069005A910480A
:102FF000FEF7D8FD08B1FDF7D6F9002001900120B9
:103000000290002003900490002201A90848FEF7D6
:1030100094FE08B1FDF7C7F9042201A90448FEF7A0
:103020008CFE08B1FDF7BFF907B000BD00000140FC
:103030007401002000B587B0002005900690019033
:103040000290039004904FF080401A4908600020DD
:103050004860002117488160491EC160002101615C
:103060008161FEF7D9FE08B1FDF79DF900200590BA
:10307000069005A90F48FEF795FD08B1FDF793F9F5
:103080000020019001200290002003900490002273
:1030900001A90848FEF751FE08B1FDF784F90422A2
:1030A00001A90448FEF749FE08B1FDF77CF907B015
:1030B00000BD0000BC01002000B589B000200790D1
:1030C00008901C216846FDF72FF924482449086020
:1030D000C720486000212248816042F20F71C16020
:1030E000002101618161FFF724F908B1FDF75BF967
:1030F00000200790089007A91948FEF753FD08B172
:10310000FDF751F96020009000200190029004909A
:10311000002269461248FFF78AF808B1FDF743F923
:10312000042269460E48FFF782F808B1FDF73BF923
:10313000082269460A48FFF77AF808B1FDF733F923
:103140000C2269460648FFF772F808B1FDF72BF923
:103150000348FFF71DF809B000BD0000000400405F
:103160000402002000B587B0002005900690019071
:103170000290039004901B481B490860002048609F
:103180000021194881604FF6FF71C1600021016183
:103190008161FEF741FE08B1FDF705F900200590B9
:1031A000069005A91048FEF7FDFC08B1FDF7FBF8F5
:1031B000002001900120029000200390049008223A
:1031C00001A90948FEF7B9FD08B1FDF7ECF80C229A
:1031D00001A90548FEF7B1FD08B1FDF7E4F807B015
:1031E00000BD0000000800404C02002010B50B4854
:1031F0000B4908604FF4E1304860002108488160C5
:10320000C16001610C21416100218161C161FFF751
:10321000ECF808B1FDF7C7F810BD00000010014040
:103220009402002010B50B480B4908604FF4E130C0
:103230004860002108488160C16001610C21416142
:1032400000218161C161FFF7D0F808B1FDF7ABF84B
:1032500010BD000000440040D802002010B50B480B
:103260000B4908604FF4E130486000210848816054
:10327000C16001610C21416100218161C161FFF7E1
:10328000B4F808B1FDF78FF810BD0000001401403C
:103290001C03002000BFFEE700BFFEE770B500245E
:1032A00015E004F1B001C8B200F044F9002000F0CC
:1032B00041F9102000F03EF9002504E0002000F064
:1032C0004DF9681CC5B2802DF8DB601CC4B2082C17
:1032D000E7DB70BD10B50C233EA20021084600F0CC
:1032E0000BF90C233CA200212A2000F005F90C2345
:1032F0003AA20021542000F0FFF80C2338A201214B
:10330000002000F0F9F80C2336A201212A2000F059
:10331000F3F80C2334A20121542000F0EDF80C2323
:1033200032A20221002000F0E7F80C2330A2022193
:103330002A2000F0E1F80C232EA20221542000F0F4
:10334000DBF80C232CA20321002000F0D5F80C237D
:103350002AA203212A2000F0CFF80C2328A203215F
:10336000542000F0C9F80C2326A20421002000F00C
:10337000C3F80C2324A204212A2000F0BDF80C235A
:1033800022A20421542000F0B7F80C2320A205212A
:10339000002000F0B1F80C231EA20521402000F00F
:1033A000ABF80C231CA20621002000F0A5F80C238A
:1033B0001AA20621402000F09FF80C2318A2072132
:1033C000002000F099F80C2316A20721402000F0FD
:1033D00093F810BD47783D0047793D00477A3D009E
:1033E00041783D0041793D00417A3D004D783D00F6
:1033F0004D793D004D7A3D0043313D0043323D0063
:1034000043333D0043343D0043353D0043363D00EA
:103410004D313D004D323D004D333D004D343D00BA
:10342000543D0000503D000010B5C820FDF76CFA77
:1034300000F02EFD10BD70B504460D4605F1B0013B
:10344000C8B200F077F8102141EA141000F072F8C9
:1034500004F00F0000F06EF870BD00002DE9F04799
:1034600007460E469046994600250024A8F1200004
:10347000C5B27F2F02DD0027B01CC6B2B9F1100F14
:1034800022D131463846FFF7D6FF002407E004EB8F
:103490000511174A505C00F061F8601CC4B2082C9A
:1034A000F5DB701CC1B23846FFF7C5FF002408E009
:1034B00004EB051108310E4A505C00F04FF8601C17
:1034C000C4B2082CF4DB11E031463846FFF7B3FFF5
:1034D000002409E005EB4501064A02EB4101085DC5
:1034E00000F03CF8601CC4B2062CF3DBBDE8F087AA
:1034F00010640008E86100082DE9F04104460F4619
:103500001546984600260FE0AA5D434639462046F8
:10351000FFF7A4FF04F10800C4B2782C02DD0024F8
:10352000B81CC7B2701CC6B2A85D0028ECD1BDE8BB
:10353000F081000001B584B04FF48070012104AA2D
:103540000B46CDE900210290002278210248FDF7C8
:1035500041FD05B000BD0000CC00002001B584B0E5
:103560004FF48070012104AA0B46CDE9002102909E
:10357000402278210248FDF72DFD05B000BD000076
:10358000CC00002010B502460B46002017E09FED4E
:103590000D0A02EB800484ED000A00210BE09FED90
:1035A000090A00EB400403EBC40404EB810484ED3E
:1035B000000A4C1C21B20629F1DB441C20B206286B
:1035C000E5DB10BD0000000000BF012000F006FE9A
:1035D000FBE710B54FF0E020006902F091FB0128F5
:1035E00001D001F0DBFF10BD00B593B0302107A87A
:1035F000FCF79AFE142102A8FCF796FE00BF0020FB
:1036000001902348006840F0805021490860084636
:10361000006800F08050019000BF00BF00BF002094
:1036200001901C48006840F440401A490860084670
:10363000006800F44040019000BF00BF01200790E7
:103640000004089002200D9041050E9106210F9173
:1036500064211091022111910421129107A8FEF713
:1036600051F808B1FCF79FFE0F2002900220039052
:10367000002004904FF48050059000200690032114
:1036800002A8FDF7DDFE08B1FCF78DFE13B000BD0A
:1036900040380240007000400348006840F4700069
:1036A000014908607047000088ED00E010B503484C
:1036B000FEF7A2FC0248FEF79FFC10BD740100203B
:1036C0006003002010B50268204B98420BD0B0F187
:1036D000804F08D01E4B984205D01E4B984202D016
:1036E0001D4B984203D122F070024B681A43174BCE
:1036F000984214D0B0F1804F11D0154B98420ED0A3
:10370000144B98420BD0144B984208D0134B98425C
:1037100005D0134B984202D0124B984203D122F4A9
:103720004072CB681A4322F080034C6943EA0402DA
:1037300002608B68C3620B688362044B984201D1BC
:103740000B6903630123436110BD000000000140C9
:103750000004004000080040000C00400040014010
:10376000004401400048014030B5056A25F00105DC
:103770000562026A4368846924F0700424F003043B
:103780000D682C4322F002028D682A430D4DA84299
:1037900006D100BF22F00802CD682A4322F00402BD
:1037A000084DA84207D123F4807323F400734D69B8
:1037B0002B438D692B43436084614D6845630262EE
:1037C00030BD00000000014030B5056A25F010054D
:1037D0000562026A4368846924F4E04424F4407476
:1037E0000D6844EA052422F020028D6842EA0512A1
:1037F0000E4DA84207D100BF22F08002CD6842EAF8
:10380000051222F04002094DA84209D123F4806339
:1038100023F400634D6943EA85038D6943EA850318
:10382000436084614D688563026230BD00000140E1
:1038300030B5056A25F480750562026A4368C4697B
:1038400024F0700424F003040D682C4322F4007269
:103850008D6842EA05220F4DA84207D100BF22F42D
:103860000062CD6842EA052222F48062094DA84236
:1038700009D123F4805323F400534D6943EA05131F
:103880008D6943EA05134360C4614D68C5630262F4
:1038900030BD00000000014030B5056A25F48055B8
:1038A0000562036A4468C26922F4E04222F440726D
:1038B0000D6842EA052223F400538D6843EA05337C
:1038C000064DA84204D124F480444D6944EA85148D
:1038D0004460C2614D680564036230BD0000014070
:1038E00070B50C461546066A26F001060662816927
:1038F000026A154EB0420ED0B0F1804F0BD0134E7D
:10390000B04208D0124EB04205D0124EB04202D0A2
:10391000114EB04201D1012600E000261EB121F077
:103920000301294301E041F0010121F0F001F026FB
:1039300006EA0316314322F00A0204F00A06324373
:103940008161026270BD000000000140000400407F
:1039500000080040000C00400040014070B50C46DB
:103960001546066A26F0100606628169026A21F48D
:10397000407141EA052121F470414FF4704606EA96
:103980000336314322F0A002A02606EA0416324391
:103990008161026270BD70B50C461546066A26F458
:1039A00080760662C169026A21F00301294321F091
:1039B000F001F02606EA0316314322F420624FF4A8
:1039C000206606EA04263243C161026270BD70B50A
:1039D0000C461546066A26F480560662C169026ADC
:1039E00021F4407141EA052121F470414FF4704601
:1039F00006EA0336314322F420424FF4204606EA19
:103A000004363243C161026270BD00002DE9F84FF7
:103A100004462068006920F44050E16808432168AA
:103A200008612169A068084361690843E1690843A6
:103A300000902068C06849F20C61884300990843EF
:103A40002168C8602068406920F44070A16908437B
:103A50002168486176492068884203D0754920680A
:103A6000884203D1FDF7E6FD814602E0FDF7D2FD75
:103A70008146E069B0F5004F6CD102206168A0FB7F
:103A8000015003461920A9FB007001462A4638461A
:103A9000FCF700FC6421B0FBF1F04FEA001A0220B1
:103AA0006168A0FB01510B461920A9FB00712A4651
:103AB0003846FCF7EFFB834602206168A0FB01500B
:103AC00003461920A9FB00712A463846FCF7E2FBA1
:103AD0006421B0FBF1F000EBC00101EB0010ABEB97
:103AE0008000322101EBC0006421B0FBF1F000F056
:103AF000F8000AEB400A02206168A0FB015003466F
:103B00001920A9FB007001462A463846FCF7C2FB83
:103B1000834602206168A0FB015003461920A9FBDF
:103B200000712A463846FCF7B5FB6421B0FBF1F082
:103B300000EBC00101EB0010ABEB8000322101EB88
:103B4000C0006421B0FBF1F000F007005044216890
:103B500088606AE004206168A0FB015003461920D8
:103B6000A9FB007001462A463846FCF793FB8246C3
:103B700004206168A0FB015003461920A9FB0070D6
:103B800001462A463846FCF785FB6421B0FBF1F07C
:103B900000EBC00101EB0010AAEB8000322101EB29
:103BA00000106421B0FBF1F000F0F00A042061681D
:103BB000A0FB017003461920A9FB00513A46284694
:103BC000FCF768FB6421B0FBF1F00AEB001A04205B
:103BD0006168A0FB01510B461920A9FB00712A4620
:103BE0003846FCF757FB834604206168A0FB015070
:103BF00003461920A9FB007001462A463846FCF707
:103C000049FB6421B0FBF1F000EBC00101EB0010B7
:103C1000ABEB8000322101EB00106421B0FBF1F02E
:103C200000F00F00504421688860BDE8F88F000064
:103C300000100140001401402DE9F04104460D46FA
:103C400017469846069E34E0701C88B32EB1FCF7E8
:103C500059FFA0EB0800B0422BD900BF00BF21687C
:103C60000C3151E8001F21F4D07021680C3141E87B
:103C70000002002AF3D100BF00BF00BF2168143149
:103C800051E8001F21F001002168143141E80002D1
:103C9000002AF3D100BF202084F83D0084F83E00C4
:103CA00000BF002084F83C0000BF0320BDE8F08185
:103CB000FFE7206800682840A84201D1012000E009
:103CC0000020B842C0D00020F0E700002DE9F04706
:103CD0002DED028BBCB08046894692461E461822C6
:103CE000694936A8FCF707FB002426E004EB4400F2
:103CF00006EB800090ED000A04EB4400694601EBFE
:103D0000800080ED000A04EB440006EB800090ED9B
:103D1000010A04EB440001EB800080ED010A04EB92
:103D2000440006EB800090ED020A04EB440001EB36
:103D3000800080ED020A601C04B2062CD6DB002451
:103D40004DE0002547E0E81C0AEB8000D0ED008A3A
:103D500004EB4400694601EB800000EB850090ED28
:103D6000000A0AEB8500D0ED000A30EE608A36A822
:103D700000EB840090ED000A68EEA80A60EE880A65
:103D800000EEC80A36A800EB840080ED000AB0EE11
:103D9000000A28EE800A20EE280A20EE080A04EB2A
:103DA000440012A901EBC00000EB850080ED000A81
:103DB000B8EE000A28EE800A20EE080A20EE080A73
:103DC00004EB440001EBC001E81C01EB800080ED36
:103DD000000A681C05B2032DB5DB601C04B2062C7A
:103DE000AFDB002448E0002542E005EB450012A9C6
:103DF00001EBC00000EB8400D0ED000A36A800EB18
:103E0000850090ED001A08EB840090ED000A00EEAA
:103E1000810A08EB840080ED000A002724E004EB0F
:103E2000440009EBC00000EB850090ED000A07EBB1
:103E3000470012A901EBC00000EB8400D0ED000A9E
:103E400007EB470001EBC00000EB850090ED001A86
:103E500000EE810A04EB440009EBC00000EB850092
:103E600080ED000A781C07B2062FD8DB681C05B26B
:103E7000062DBADB601C04B2062CB4DB3CB0BDECF2
:103E8000028BBDE8F0870000006A000800BFFEE773
:103E90003EB5002400BF0FE04FF4807101220848B6
:103EA00020441346CDE901210090002278210548E5
:103EB000FDF790F8601CC4B21B2CEDDB3EBD00008A
:103EC000A0000020CC0000200FB4054B10B503A9C2
:103ED000044A029800F036F810BC5DF814FB0000AC
:103EE00035400008C000002002480068C0F30220EE
:103EF000704700000CED00E010B5002804DB0A0755
:103F0000130E054A135406E00A07140E034A00F084
:103F10000F031B1FD45410BD00E400E018ED00E0B7
:103F2000EFF30580704702E008C8121F08C1002A9D
:103F3000FAD170477047002001E001C1121F002A2A
:103F4000FBD170472DE9F84F9946924688460546C1
:103F5000002706E025280AD051464A4690476D1CA6
:103F60007F1C28780028F5D13846BDE8F88F00235B
:103F700015F8011F18462E2915D115F8011F042325
:103F80002A290DD06FF02F022978A1F13004092CD5
:103F900009D800EB800002EB400008446D1CF3E7F9
:103FA00058F8040B6D1C2A78002ADDD0632A07D04C
:103FB000732A0FD0104651464A4690477F1C2AE08C
:103FC00018F8042B8DF8002000218DF801106E46A2
:103FD000012103E058F8046B4FF0FF315A074FF00E
:103FE000000401D409E0641C84420BDA8C42FADB41
:103FF000325D002AF7D105E0641C8C42FCDB305DA9
:104000000028F9D1274404E016F8010B51464A462E
:104010009047641EF8D26D1CA3E7000010B504465B
:10402000214602A0FFF750FF10BD000025730D0AC6
:104030000000000013B50C464FF6FF7301226946DD
:104040000248FEF7C1FA00981CBD0000940200204F
:1040500008E0FCF7C7FA00F007F8FCF727FC32206D
:1040600001F0C0F8F5E700001C480068062830DAC7
:104070001A48006800EB4000194901EB800019491B
:10408000096809680968D1E90632096AC0E900329D
:1040900081601248006800EB4000134901EB800189
:1040A0001048006840680368D3E906201B6AC1E92C
:1040B00001030A600948006800EB40000B4901EB6E
:1040C00080000849096889680B6818330ECB0EC058
:1040D00002E000200149086070470000BC00002099
:1040E0007C4C002098000020C44C00200C4D002087
:1040F0001CB5FDF7B5F8FFF777FAFEF7BFFEFEF740
:1041000019FFFEF735FFFEF751FFFEF793FFFEF7AD
:10411000D3FFFFF727F8FFF769F8FFF783F8FFF7FA
:104120009DF80C2000F024F80B49086000F0A6FE72
:1041300000F064F8FEF792FE0848052100234FF4D2
:104140000072CDE9001006A1084801F049FD01F018
:10415000C5F800BFFEE70000980000200000002026
:1041600073746172745F7461736B00005140000876
:10417000F0B50B30154D20F007010024144A0FE074
:1041800003688B420BD38B4205D95E1A43184768EC
:10419000C3E9006700E04368136002C004E0021D49
:1041A00010680028ECD12046002802D1286808B108
:1041B0000020F0BD064A07481060074A121A22F094
:1041C0000702C0E9002401202860D7E7C8000020CA
:1041D000C40000205C4D0020584F002070B50546FB
:1041E000FFF79EFE10B16FF0050404E0002415B146
:1041F000284600F0F7FF204670BD000010B5FFF71D
:104200008FFE10B16FF0050409E00648006820B980
:10421000012004490860002401E04FF0FF342046EB
:1042200010BD0000680000202DE9FF478046894648
:10423000144600200390FFF773FE00284ED1B8F11A
:10424000000F4BD0802618258246471E44B32068B5
:1042500008B1D4F800A0A06900B1A5692DB1382D2E
:1042600003D8207900F0010018B1002004B0BDE8A7
:10427000F087606908B160698608A06840B1E068AD
:104280005C2805D3206918B1606908B1012708E0EE
:10429000A06830B9E06820B9206910B9002700E0B3
:1042A0000027012F0CD12169A0684B463246CDE989
:1042B000005102905146404601F0C4FC03900DE0CD
:1042C00067B903A8B2B24B465146CDE9005040460B
:1042D00001F086FC012801D0002003900398C5E777
:1042E0002DE9F04105460E46164807681648006855
:1042F000001D00F0EFFD681C38B936B112480168A6
:10430000091D124800F03CFE1AE07C190E480068B6
:104310004460BC4207D20C480168091D0C48006883
:1043200000F014FE0CE008480168091D0948006807
:1043300000F00CFE08480068844201D20648046080
:10434000BDE8F0812C000020180000209808002013
:10435000200000201C0000204800002010B504466A
:1043600000F01AFE24480068401C234908602348D6
:10437000006840B9214804600846006801280DD152
:1043800000F0FCF90AE01E48006838B91B480068D4
:10439000C06AE16A884201D8184804601948006878
:1043A000401C184908600846006860641649E06AC5
:1043B0000968884202D91449E06A0860E16A01EBA1
:1043C0008101124A02EB8100211D00F0D9FD00F0AD
:1043D0000DFE0B48006868B108480068C06AE16AD1
:1043E000884207D24FF0805009490860BFF34F8FD1
:1043F000BFF36F8F10BD00002800002018000020C0
:10440000340000204400002030000020E803002099
:1044100004ED00E008B500F0BFFD12480068E8B9FF
:10442000114800F083FD114800F080FD0E4810494E
:1044300008600E480F49086000200F4B0F4A1021FA
:1044400000900A2001F0C4F8064908600846006898
:1044500020B10BA10348006800F088FE00F0C6FD03
:1044600008BD00005C000020AC080020C00800204F
:104470005400002058000020D40800202409002007
:10448000546D72510000000010B516E000F084FD7C
:104490000C48C068C468201D00F01CFD0A48006874
:1044A000401E0949086009480068401E0749086025
:1044B00000F09CFD204600F05FF8044800680028EA
:1044C000E4D110BD84080020280000202400002032
:1044D00070B504460D46206C70B1216CE068014453
:1044E000E160D4E90210884201D32168E1602846E6
:1044F000226CE168FBF7FFFE70BD2DE9F041044638
:104500000F4615464FF00008A66B206C48B920688E
:1045100000282CD1A06801F0ABFC80460020A060F0
:1045200025E07DB93946226C6068FBF7E4FE216C1A
:10453000606808446060D4E90101884217D32068AC
:10454000606014E03946226CE068FBF7D4FE216C11
:10455000E068411AE1602168E068884203D2216C7A
:10456000A068411AE160022D01D106B1761E701CCF
:10457000A0634046BDE8F08110B5044694F85900A8
:1045800030B9206B00F050FD204600F04DFD1AE0E0
:1045900094F85900012803D1204600F045FD12E0AF
:1045A00094F85900022801D1012000E0002050B900
:1045B00000BF502080F31188BFF34F8FBFF36F8F80
:1045C00000BF00BFFEE710BD0146084A126812682E
:1045D0000AB9012200E000220A600A6822B9034AEF
:1045E0001268D268106800E0002070475400002074
:1045F00030B54FF47053174800F007042CB1C01DBC
:1046000020F00700134C041B1B1B0246124C2260B7
:104610000024114D6C60D018083820F007000F4CB2
:10462000206000240D4D2D686C600C4D2D682C60B1
:104630001146441A4C60094C24680C60084D4C68C3
:104640002C60084D4C682C604FF00044064D2C60E7
:1046500030BD00007C1000206C00002074000020A1
:104660007C000020780000208800002000BFFFF7B9
:104670000BFF064800680128F9D94FF08050044923
:104680000860BFF34F8FBFF36F8FF0E7E8030020A0
:1046900004ED00E02DE9F04106460D461746984628
:1046A000069C0DB9246000E02760E66325640121C3
:1046B000204600F0FDFF84F84C80BDE8F0812DE934
:1046C000F05F82460E4690469B460A9F0C9C4FEA3E
:1046D0008801A522206BFBF720FEA8F10100216BC9
:1046E00001EB800929F0070909F0070008B901204A
:1046F00000E0002050B900BF502080F31188BFF3C4
:104700004F8FBFF36F8F00BF00BFFEE786B100255C
:1047100007E0715D04F134004155705D00B902E0BD
:104720006D1C102DF5D300BF00214320015502E080
:10473000002084F83400382F00D33727E762E7647D
:1047400000202065201D00F0FEFB04F1180000F0A1
:10475000FAFB2461C7F13800A06164620020606543
:1047600084F858005A465146484600F071FB2060D4
:104770000B9808B10B980460BDE8F09F10B50024B9
:1047800007E004EB84010F4A02EB810000F0CEFB4E
:10479000641C382CF5D30C4800F0C8FB0B4800F023
:1047A000C5FB0B4800F0C2FB0A4800F0BFFB0A48FB
:1047B00000F0BCFB04480949086004480849086047
:1047C00010BD0000E8030020480800205C0800201D
:1047D0007008002084080020980800201C00002099
:1047E0002000002010B50146164800E0006803686C
:1047F0008B42FBD30246436813448B4204D1436887
:104800004C682344436001460A464B6813440468DD
:10481000A34211D10C4C03682468A34208D04B6812
:104820000468646823444B6003681B680B6005E000
:10483000054B1B680B6001E003680B60884200D0E9
:10484000016010BD6C000020740000202DE9F041D3
:1048500004460D4616461F464FF000086560246169
:10486000B5420CD8F01BA169884202D34FF0010871
:1048700011E0211D0948006800F068FB0BE0BE4212
:1048800004D2BD4202D34FF0010804E0211D0448C8
:10489000006800F05BFB4046BDE8F0815800002056
:1048A0005400002070B5054600F076FBA86B08B9EF
:1048B000012400E0002400F099FB204670BD70B593
:1048C000054600F069FBA86BE96B884201D1012421
:1048D00000E0002400F08AFB204670BDF8B50546D4
:1048E0000F461A480068C068C468201D00F0F2FA3C
:1048F00094F8280000F00400E8B1A06941192B46A3
:104900003A462046FFF7A2FFD8B1002003462A46C8
:1049100001460090204601F007FC064656B900BF4C
:10492000502080F31188BFF34F8FBFF36F8F00BF0C
:1049300000BFFEE705E094F8280020F0010084F8AD
:1049400028002046216A8847F8BD00005400002056
:10495000F0B587B0A0E00398002811DA04AE56B98C
:1049600000BF502080F31188BFF34F8FBFF36F8FCC
:1049700000BF00BFFEE7D6E90020B168904700BF46
:1049800003980028E6DB059C606908B9012000E077
:10499000002010B9201D00F09DFA02A800F0DEF8FA
:1049A000054603980A2875D2DFE800F009050739A3
:1049B000416306083A4200BF00BF00BF00BF94F841
:1049C000280040F0010084F828000498A2698118AA
:1049D00003462A462046FFF739FFF8B12046216AF0
:1049E000884794F8280000F00400B8B10020009037
:1049F0000498A169421800231946204601F094FB4F
:104A0000074657B900BF502080F31188BFF34F8F7E
:104A1000BFF36F8F00BF00BFFEE700BF3BE000BFEA
:104A200094F8280020F0010084F8280033E000BF4B
:104A300094F8280040F0010084F828000498A06150
:104A4000A06908B1012000E0002050B900BF50204B
:104A500080F31188BFF34F8FBFF36F8F00BF00BF8C
:104A6000FEE7A06941192B462A462046FFF7EEFED5
:104A700011E094F8280000F0020018B9204600F078
:104A8000D3FA05E094F8280020F0010084F828000B
:104A900001E0FFE700BF00BF002203A9044800684F
:104AA00000F0A4FF00287FF456AF07B0F0BD00006F
:104AB0005C000020F8B505460C4600F06BFC68462B
:104AC00000F04CF80646009820BB44B9B54206D821
:104AD00001F06CFA31462846FFF700FF1CE03CB1BC
:104AE0000E480068006808B9012000E00020044674
:104AF000A91B22460A48006800F04EFB01F056FA56
:104B000050B94FF0805007490860BFF34F8FBFF393
:104B10006F8F01E001F04AFAF8BD00005800002054
:104B20005C00002004ED00E00A490968096809B941
:104B3000012100E0002121B14FF0FF31064A116050
:104B400006E004490968C968C868034A41681160F9
:104B5000704700001C0000204800002070B504468B
:104B600001F0DEF8054607480068854204D200F0EF
:104B70000BF80120206001E0002020600148056062
:104B8000284670BD640000202DE9F84334E0254834
:104B90000068C068056823480068C068C468201DB4
:104BA00000F098F92046216A884794F8280000F020
:104BB000040008B3A0694619AE4207D966602461B3
:104BC000211D1848006800F0C1F915E000200346D7
:104BD0002A4601460090204601F0A6FA074657B93A
:104BE00000BF502080F31188BFF34F8FBFF36F8F4A
:104BF00000BF00BFFEE700BF0A480068006808B9B0
:104C0000012000E000200028C1D00648D0F8008034
:104C100005480068034908600348C0F80080BDE803
:104C2000F883000054000020580000200E4800685F
:104C3000401C08B9012000E0002050B900BF5020FE
:104C400080F31188BFF34F8FBFF36F8F00BF00BF9A
:104C5000FEE700BF502080F31188BFF34F8FBFF3F2
:104C60006F8F00BF00BFFEE78C00002008B500BFBB
:104C70006846FFF7A9FC044620460099FFF71AFF93
:104C8000FFF766FEF4E770B5044600F085F994F985
:104C9000455010E0606A08B9012000E0002038B9F2
:104CA00004F1240001F036F918B100F0D5FA00E063
:104CB00003E0681E45B2002DECDC00BFFF2084F845
:104CC000450000F093F900F067F994F9445010E0C2
:104CD000206908B9012000E0002048B904F1100063
:104CE00001F018F908B100F0B7FA681E45B200E00B
:104CF00001E0002DECDC00BFFF2084F8440000F050
:104D000075F970BD2DE9F04104464FF0000800F040
:104D100041FB4948006808B9FFF76AFC474800684A
:104D20002040002870D1D4B1083404F00700B0B19D
:104D300004F00700C0F10800044404F0070008B9BB
:104D4000012000E0002050B900BF502080F31188FE
:104D5000BFF34F8FBFF36F8F00BF00BFFEE7002C84
:104D600052D03748006884424ED8364E30460568E7
:104D700001E02E462D686868A04202D2286800280B
:104D8000F7D12D48006885423ED0306800F1080810
:104D9000286830606868001B102819D92F1907F09F
:104DA000070008B9012000E0002050B900BF5020E2
:104DB00080F31188BFF34F8FBFF36F8F00BF00BF29
:104DC000FEE76868001B78606C603846FFF70AFDF4
:104DD0001B4968680968081A19490860084600688C
:104DE00019490968884203D21548006816490860C5
:104DF0001249686809680843686000202860134801
:104E00000068401C1149086001F0D0F808F0070064
:104E100008B9012000E0002050B900BF502080F305
:104E20001188BFF34F8FBFF36F8F00BF00BFFEE746
:104E30004046BDE8F081000074000020880000209A
:104E4000780000206C0000207C0000208000002002
:104E5000001F4FF080730360001F21F00103036007
:104E6000001F054B036014380260001F6FF002033F
:104E700003602038704700002D4C000810B5FEF785
:104E8000D3FAFEF70BFAFBF791FAFEF707FA1023B5
:104E900008A203210C20FEF72FFB0AA0FFF7BEF8A3
:104EA0004FF47A70FBF730FDFEF7F8F9FEF712FACF
:104EB00010BD0000475938365F496E6974204F4B6A
:104EC00000000000475938365F496E6974204F4B27
:104ED0000D0A000001460A69D1E901309860D1E964
:104EE000010358605068884201D1886850600020F2
:104EF00008611068401E106010687047034B036023
:104F0000034B0B608023136070470000C40900202E
:104F1000200A0020034B0360034B0B604FF48073A7
:104F200013607047200C00207C0C002000F1080169
:104F300041604FF0FF31816000F10801C160016103
:104F400000210160704700210161704710B50246E1
:104F50000B685C1C0CB9106907E002F1080000E066
:104F60004068446824689C42FAD944684C604C68A4
:104F7000A160886041600A611468641C146010BDFF
:104F800042684A6093688B609368596091600861D9
:104F900003685B1C0360704700BF502080F31188DA
:104FA000BFF34F8FBFF36F8F00BF0E480068401CE8
:104FB0000C49086008460068012812D10A480068B8
:104FC000C0B208B9012000E0002050B900BF502055
:104FD00080F31188BFF34F8FBFF36F8F00BF00BF07
:104FE000FEE770478C00002004ED00E00D480068EB
:104FF00050B900BF502080F31188BFF34F8FBFF32B
:105000006F8F00BF00BFFEE706480068401E0549DD
:1050100008600846006820B9002080F3118800BFAE
:1050200000BF70478C00002070B506463546002E44
:1050300044D0083D2C46224960680968084008B100
:10504000012000E0002050B900BF502080F31188FB
:10505000BFF34F8FBFF36F8F00BF00BFFEE7206825
:1050600008B9012000E0002050B900BF502080F3B3
:105070001188BFF34F8FBFF36F8F00BF00BFFEE7F4
:105080000F49606809680840C0B12068B0B90C4990
:10509000606809688843606000F07CF909496068CD
:1050A00009680844074908602046FFF79BFB06484B
:1050B0000068401C0449086000F078FF70BD0000E3
:1050C00088000020780000208400002000204FF09D
:1050D000E02108618861064800684FF47A71B0FBEE
:1050E000F1F0401E4FF0E021486107200861704751
:1050F0001400002070B5FBF7B7F80446102C16D347
:1051000004F1E02090F8F05315480078854201DB67
:10511000012000E0002050B900BF502080F311882A
:10512000BFF34F8FBFF36F8F00BF00BFFEE70D4887
:10513000006800F4E0600C490968884201D8012049
:1051400000E0002050B900BF502080F31188BFF369
:105150004F8FBFF36F8F00BF00BFFEE770BD000031
:10516000900000200CED00E094000020024600209A
:105170000BE0084B53F8303033B9064B43F830108E
:1051800003EBC0035A6002E0401C0828F1D300BFC3
:1051900070470000A80300202DE9F04105460E46A7
:1051A00017462C46FFF7F8FE94F94400401C10B94E
:1051B000002084F8440094F94500401C10B90020F8
:1051C00084F84500FFF712FFA06B28B93A46314634
:1051D00004F1240000F062F82046FFF754FDBDE81A
:1051E000F081000070B504460025D4B11248006873
:1051F00008B9012000E0002050B900BF502080F322
:105200001188BFF34F8FBFF36F8F00BF00BFFEE762
:1052100000F0C0F800212046FFF762F800F0C6FE5B
:1052200005463DB94FF0805004490860BFF34F8FE9
:10523000BFF36F8F70BD00005000002004ED00E050
:10524000034909680160034909684160704700002B
:10525000400000202C000020012001490860704718
:105260003C00002070B504460D4654B900BF5020E4
:1052700080F31188BFF34F8FBFF36F8F00BF00BF64
:10528000FEE70548016818312046FFF75FFE01215F
:105290002846FFF725F870BD1800002070B50546B8
:1052A0000E46144655B900BF502080F31188BFF355
:1052B0004F8FBFF36F8F00BF00BFFEE70648016846
:1052C00018312846FFF75CFE0CB14FF0FF3621463F
:1052D0003046FFF705F870BD1800002010B586B005
:1052E00000200590049003AA04A905A8FFF706FE74
:1052F0000022DDE904101346CDE9002102901EA131
:105300001F48039A00F09EFC1E490860084600688A
:1053100008B1012400E00024012C02D100F0C8FEF5
:105320000446012C15D100BF502080F31188BFF333
:105330004F8FBFF36F8F00BF4FF0FF3012490860EF
:1053400001201249086000201149086000F072F83D
:1053500010E0601C08B1012000E0002050B900BF3F
:10536000502080F31188BFF34F8FBFF36F8F00BFC2
:1053700000BFFEE706B010BD49444C4500000000E8
:105380006D4600084C00002048000020340000203A
:105390002C00002002480068401C0149086070474A
:1053A000500000201E48006818B101201D49086007
:1053B00034E000201B4908601B4801680CE051B92B
:1053C00000BF502080F31188BFF34F8FBFF36F8F62
:1053D00000BF00BFFEE7491E01EB8100134A52F8EF
:1053E000200008B9012000E000200028E7D101EBEF
:1053F00081020E4B03EB820042685268426000F16A
:1054000008024368934202D142685268426042688F
:10541000D268074B1A600448016000BF7047000063
:10542000500000203C00002030000020E803002055
:10543000180000201CB5524800685249884201D02B
:10544000012000E0002050B900BF502080F31188F7
:10545000BFF34F8FBFF36F8F00BF00BFFEE7484819
:1054600000684849491E884201D0012000E0002020
:1054700050B900BF502080F31188BFF34F8FBFF3A6
:105480006F8F00BF00BFFEE73F49084600780190DC
:10549000FF200A4610700846007800909DF8000032
:1054A00000F0F0009DF80020904201D1012000E0C2
:1054B000002050B900BF502080F31188BFF34F8FF8
:1054C000BFF36F8F00BF00BFFEE79DF8000000F044
:1054D00050002E4A107007202D4A106009E02C4819
:1054E0000068401E2A4A10609DF800004006000E29
:1054F00000909DF8000000F080008028EFD0244844
:105500000068C0F10700042801D1012000E000205C
:1055100050B900BF502080F31188BFF34F8FBFF305
:105520006F8F00BF00BFFEE7194800680002184AED
:1055300010601046008800F4E0601060124A019884
:1055400010700F482030006840F470000C49203182
:1055500008600846006840F070400860FFF7B6FD3C
:1055600000200C490860FAF747FE0B48006840F03D
:10557000404009490860FAF72BFE00201CBD0000DE
:1055800000ED00E071C20F4100E400E09000002057
:10559000940000208C00002034EF00E010B500BF24
:1055A000502080F31188BFF34F8FBFF36F8F00BF80
:1055B00000F0BCFB18B14FF080500449086000BFF8
:1055C000002080F3118800BF10BD000004ED00E052
:1055D0002DE9F84380460E4617461D46DDF820901B
:1055E000B8F1000F01D0012000E0002050B900BF49
:1055F000502080F31188BFF34F8FBFF36F8F00BF30
:1056000000BFFEE70DB1012000E0002050B900BF4F
:10561000502080F31188BFF34F8FBFF36F8F00BF0F
:1056200000BFFEE707B10EB1012000E0002050B935
:1056300000BF502080F31188BFF34F8FBFF36F8FEF
:1056400000BF00BFFEE707B90EB9012000E000204F
:1056500050B900BF502080F31188BFF34F8FBFF3C4
:105660006F8F00BF00BFFEE75020009000985028C9
:1056700001D1012000E0002050B900BF502080F38C
:105680001188BFF34F8FBFF36F8F00BF00BFFEE7DE
:1056900000BF2C464CB1012084F846004B463A46E8
:1056A000314640460094FEF7F5FF2046BDE8F883FA
:1056B00070B505460E462C4654B900BF502080F305
:1056C0001188BFF34F8FBFF36F8F00BF00BFFEE79E
:1056D000FFF762FCD4E90F12206801FB0200A06012
:1056E0000020A06320686060E06B401E226C21688F
:1056F00000FB0211E160FF2084F8440084F84500BB
:105700009EB9206908B9012000E00020A8B904F181
:10571000100000F0FFFB80B14FF080500949086095
:10572000BFF34F8FBFF36F8F07E004F11000FFF757
:10573000FDFB04F12400FFF7F9FBFFF757FC012004
:1057400070BD000004ED00E02DE9FF4383B0064684
:1057500088461D464FF00009344654B900BF50201A
:1057600080F31188BFF34F8FBFF36F8F00BF00BF6F
:10577000FEE7B8F1000F01D1206C08B9012000E06C
:10578000002050B900BF502080F31188BFF34F8F25
:10579000BFF36F8F00BF00BFFEE7022D02D1E06BA9
:1057A000012801D1012000E0002050B900BF5020A5
:1057B00080F31188BFF34F8FBFF36F8F00BF00BF1F
:1057C000FEE700F09DFA08B9059808B9012000E04D
:1057D000002050B900BF502080F31188BFF34F8FD5
:1057E000BFF36F8F00BF00BFFEE700BFFFF7D4FB22
:1057F000A06BE16B884201D3022D28D12A46414695
:105800002046FEF77AFE0746606A08B9012000E0EC
:10581000002068B904F1240000F07CFB88B14FF04F
:10582000805032490860BFF34F8FBFF36F8F08E09D
:105830003FB14FF080502D490860BFF34F8FBFF349
:105840006F8FFFF7D3FB012007B0BDE8F083059809
:1058500018B9FFF7CBFB0020F6E7B9F1000F04D130
:1058600001A8FFF7EDFC4FF00109FFF7BFFBFFF7C1
:1058700091FDFFF791FB94F94400401C10B9002002
:1058800084F8440094F94500401C10B9002084F8C5
:105890004500FFF7ABFB05A901A800F05BF9F0B9E3
:1058A0002046FFF70CF8A0B104F110000599FFF7AE
:1058B000D9FC2046FFF7E7F900F078FB002895D1E6
:1058C0004FF0805009490860BFF34F8FBFF36F8FCF
:1058D0008CE72046FFF7D7F900F068FB86E7204603
:1058E000FFF7D1F900F062FB0020ADE704ED00E026
:1058F0002DE9F84F07468A4690461E463C4654B965
:1059000000BF502080F31188BFF34F8FBFF36F8F1C
:1059100000BF00BFFEE7BAF1000F01D1206C08B94B
:10592000012000E0002050B900BF502080F3118812
:10593000BFF34F8FBFF36F8F00BF00BFFEE7022E94
:1059400002D1E06B012801D1012000E0002050B914
:1059500000BF502080F31188BFF34F8FBFF36F8FCC
:1059600000BF00BFFEE7FFF7C5FB00BF5021EFF30C
:10597000118081F31188BFF34F8FBFF36F8F00BF8A
:105980000546A06BE16B884201D3022E25D194F924
:1059900045B0A06B0090324651462046FEF7ADFD63
:1059A0000BF1010088B9606A08B9012000E000200D
:1059B00050B904F1240000F0ADFA28B1B8F1000F9D
:1059C00002D00120C8F8000004E00BF1010040B251
:1059D00084F845004FF0010901E04FF0000900BFD5
:1059E00085F3118800BF4846BDE8F88F2DE9F741DF
:1059F00083B005460E464FF000082C4654B900BF50
:105A0000502080F31188BFF34F8FBFF36F8F00BF1B
:105A100000BFFEE70EB9206C08B9012000E00020AD
:105A200050B900BF502080F31188BFF34F8FBFF3F0
:105A30006F8F00BF00BFFEE700F062F908B905985C
:105A400008B9012000E0002050B900BF502080F3C9
:105A50001188BFF34F8FBFF36F8F00BF00BFFEE70A
:105A600000BFFFF799FAA76BF7B131462046FEF762
:105A70002FFD781EA063206908B9012000E00020F6
:105A800060B904F1100000F045FA38B14FF08050D1
:105A90002F490860BFF34F8FBFF36F8FFFF7A6FA50
:105AA000012006B0BDE8F081059818B9FFF79EFA0D
:105AB0000020F6E7B8F1000F04D101A8FFF7C0FB02
:105AC0004FF00108FFF792FAFFF764FCFFF764FA62
:105AD00094F94400401C10B9002084F8440094F963
